{
  "contractName": "meDossier",
  "abi": [
    {
      "inputs": [],
      "stateMutability": "nonpayable",
      "type": "constructor"
    },
    {
      "inputs": [],
      "name": "dindex",
      "outputs": [
        {
          "internalType": "uint256",
          "name": "",
          "type": "uint256"
        }
      ],
      "stateMutability": "view",
      "type": "function",
      "constant": true
    },
    {
      "inputs": [
        {
          "internalType": "uint256",
          "name": "",
          "type": "uint256"
        }
      ],
      "name": "doctorList",
      "outputs": [
        {
          "internalType": "address",
          "name": "",
          "type": "address"
        }
      ],
      "stateMutability": "view",
      "type": "function",
      "constant": true
    },
    {
      "inputs": [],
      "name": "owner",
      "outputs": [
        {
          "internalType": "address",
          "name": "",
          "type": "address"
        }
      ],
      "stateMutability": "view",
      "type": "function",
      "constant": true
    },
    {
      "inputs": [],
      "name": "pindex",
      "outputs": [
        {
          "internalType": "uint256",
          "name": "",
          "type": "uint256"
        }
      ],
      "stateMutability": "view",
      "type": "function",
      "constant": true
    },
    {
      "inputs": [
        {
          "internalType": "uint256",
          "name": "",
          "type": "uint256"
        }
      ],
      "name": "registeredDoctorList",
      "outputs": [
        {
          "internalType": "uint256",
          "name": "",
          "type": "uint256"
        }
      ],
      "stateMutability": "view",
      "type": "function",
      "constant": true
    },
    {
      "inputs": [
        {
          "internalType": "address",
          "name": "addr",
          "type": "address"
        }
      ],
      "name": "user",
      "outputs": [
        {
          "internalType": "int256",
          "name": "success",
          "type": "int256"
        }
      ],
      "stateMutability": "view",
      "type": "function",
      "constant": true
    },
    {
      "inputs": [],
      "name": "getPatientList",
      "outputs": [
        {
          "internalType": "address[]",
          "name": "",
          "type": "address[]"
        }
      ],
      "stateMutability": "view",
      "type": "function",
      "constant": true
    },
    {
      "inputs": [
        {
          "internalType": "string",
          "name": "docname",
          "type": "string"
        },
        {
          "internalType": "uint256",
          "name": "license",
          "type": "uint256"
        }
      ],
      "name": "registerDoctor",
      "outputs": [],
      "stateMutability": "nonpayable",
      "type": "function"
    },
    {
      "inputs": [
        {
          "internalType": "address",
          "name": "pat",
          "type": "address"
        },
        {
          "internalType": "address",
          "name": "client",
          "type": "address"
        }
      ],
      "name": "isAuthorized",
      "outputs": [
        {
          "internalType": "bool",
          "name": "success",
          "type": "bool"
        }
      ],
      "stateMutability": "view",
      "type": "function",
      "constant": true
    },
    {
      "inputs": [
        {
          "internalType": "address",
          "name": "addr",
          "type": "address"
        }
      ],
      "name": "isRegistered",
      "outputs": [
        {
          "internalType": "bool",
          "name": "success",
          "type": "bool"
        }
      ],
      "stateMutability": "view",
      "type": "function",
      "constant": true
    },
    {
      "inputs": [
        {
          "internalType": "string",
          "name": "_dname",
          "type": "string"
        },
        {
          "internalType": "string",
          "name": "_reason",
          "type": "string"
        },
        {
          "internalType": "string",
          "name": "_visitedDate",
          "type": "string"
        },
        {
          "internalType": "string",
          "name": "_ipfs",
          "type": "string"
        },
        {
          "internalType": "address",
          "name": "addr",
          "type": "address"
        }
      ],
      "name": "addRecord",
      "outputs": [],
      "stateMutability": "nonpayable",
      "type": "function"
    },
    {
      "inputs": [
        {
          "internalType": "string",
          "name": "_name",
          "type": "string"
        },
        {
          "internalType": "string",
          "name": "_phone",
          "type": "string"
        },
        {
          "internalType": "string",
          "name": "_gender",
          "type": "string"
        },
        {
          "internalType": "string",
          "name": "_dob",
          "type": "string"
        },
        {
          "internalType": "string",
          "name": "_bloodgroup",
          "type": "string"
        }
      ],
      "name": "addPatient",
      "outputs": [],
      "stateMutability": "nonpayable",
      "type": "function"
    },
    {
      "inputs": [
        {
          "internalType": "address",
          "name": "_addr",
          "type": "address"
        }
      ],
      "name": "getPatientDetails",
      "outputs": [
        {
          "internalType": "string",
          "name": "_name",
          "type": "string"
        },
        {
          "internalType": "string",
          "name": "_phone",
          "type": "string"
        },
        {
          "internalType": "string",
          "name": "_gender",
          "type": "string"
        },
        {
          "internalType": "string",
          "name": "_dob",
          "type": "string"
        },
        {
          "internalType": "string",
          "name": "_bloodgroup",
          "type": "string"
        }
      ],
      "stateMutability": "view",
      "type": "function",
      "constant": true
    },
    {
      "inputs": [],
      "name": "getAllPatients",
      "outputs": [
        {
          "internalType": "uint256[]",
          "name": "ids",
          "type": "uint256[]"
        },
        {
          "internalType": "address[]",
          "name": "addresses",
          "type": "address[]"
        },
        {
          "internalType": "string[]",
          "name": "names",
          "type": "string[]"
        },
        {
          "internalType": "string[]",
          "name": "phones",
          "type": "string[]"
        },
        {
          "internalType": "string[]",
          "name": "genders",
          "type": "string[]"
        },
        {
          "internalType": "string[]",
          "name": "dobs",
          "type": "string[]"
        },
        {
          "internalType": "string[]",
          "name": "bloodgroups",
          "type": "string[]"
        }
      ],
      "stateMutability": "view",
      "type": "function",
      "constant": true
    },
    {
      "inputs": [
        {
          "internalType": "address",
          "name": "_addr",
          "type": "address"
        }
      ],
      "name": "getrecordlist",
      "outputs": [
        {
          "internalType": "uint256",
          "name": "",
          "type": "uint256"
        }
      ],
      "stateMutability": "view",
      "type": "function",
      "constant": true
    },
    {
      "inputs": [],
      "name": "getdoctorlist",
      "outputs": [
        {
          "internalType": "uint256",
          "name": "",
          "type": "uint256"
        }
      ],
      "stateMutability": "view",
      "type": "function",
      "constant": true
    },
    {
      "inputs": [],
      "name": "getRegisteredDoctorslength",
      "outputs": [
        {
          "internalType": "uint256",
          "name": "",
          "type": "uint256"
        }
      ],
      "stateMutability": "view",
      "type": "function",
      "constant": true
    },
    {
      "inputs": [
        {
          "internalType": "uint256",
          "name": "id",
          "type": "uint256"
        }
      ],
      "name": "getRegisteredDoctorsList",
      "outputs": [
        {
          "internalType": "uint256",
          "name": "license",
          "type": "uint256"
        }
      ],
      "stateMutability": "view",
      "type": "function",
      "constant": true
    },
    {
      "inputs": [
        {
          "internalType": "address",
          "name": "_addr",
          "type": "address"
        }
      ],
      "name": "getAllPatientRecords",
      "outputs": [
        {
          "internalType": "string[]",
          "name": "dnames",
          "type": "string[]"
        },
        {
          "internalType": "string[]",
          "name": "reasons",
          "type": "string[]"
        },
        {
          "internalType": "string[]",
          "name": "visitedDates",
          "type": "string[]"
        },
        {
          "internalType": "string[]",
          "name": "ipfsHashes",
          "type": "string[]"
        }
      ],
      "stateMutability": "view",
      "type": "function",
      "constant": true
    },
    {
      "inputs": [
        {
          "internalType": "string",
          "name": "_name",
          "type": "string"
        },
        {
          "internalType": "string",
          "name": "_hname",
          "type": "string"
        },
        {
          "internalType": "string",
          "name": "_faculty",
          "type": "string"
        },
        {
          "internalType": "string",
          "name": "_contact",
          "type": "string"
        },
        {
          "internalType": "uint256",
          "name": "license",
          "type": "uint256"
        }
      ],
      "name": "addDoctor",
      "outputs": [],
      "stateMutability": "nonpayable",
      "type": "function"
    },
    {
      "inputs": [],
      "name": "getAllDoctors",
      "outputs": [
        {
          "internalType": "uint256[]",
          "name": "ids",
          "type": "uint256[]"
        },
        {
          "internalType": "string[]",
          "name": "names",
          "type": "string[]"
        },
        {
          "internalType": "string[]",
          "name": "contacts",
          "type": "string[]"
        },
        {
          "internalType": "string[]",
          "name": "hospitals",
          "type": "string[]"
        },
        {
          "internalType": "string[]",
          "name": "faculties",
          "type": "string[]"
        },
        {
          "internalType": "address[]",
          "name": "addresses",
          "type": "address[]"
        },
        {
          "internalType": "bool[]",
          "name": "approvals",
          "type": "bool[]"
        },
        {
          "internalType": "uint256[]",
          "name": "licenses",
          "type": "uint256[]"
        }
      ],
      "stateMutability": "view",
      "type": "function",
      "constant": true
    },
    {
      "inputs": [
        {
          "internalType": "address",
          "name": "_address",
          "type": "address"
        }
      ],
      "name": "getDoctorByAddress",
      "outputs": [
        {
          "internalType": "uint256",
          "name": "id",
          "type": "uint256"
        },
        {
          "internalType": "string",
          "name": "name",
          "type": "string"
        },
        {
          "internalType": "string",
          "name": "contact",
          "type": "string"
        },
        {
          "internalType": "string",
          "name": "hname",
          "type": "string"
        },
        {
          "internalType": "string",
          "name": "faculty",
          "type": "string"
        },
        {
          "internalType": "address",
          "name": "addr",
          "type": "address"
        },
        {
          "internalType": "bool",
          "name": "isApproved",
          "type": "bool"
        },
        {
          "internalType": "uint256",
          "name": "licenseno",
          "type": "uint256"
        }
      ],
      "stateMutability": "view",
      "type": "function",
      "constant": true
    },
    {
      "inputs": [
        {
          "internalType": "address",
          "name": "_addr",
          "type": "address"
        }
      ],
      "name": "grantAccess",
      "outputs": [
        {
          "internalType": "bool",
          "name": "success",
          "type": "bool"
        }
      ],
      "stateMutability": "nonpayable",
      "type": "function"
    },
    {
      "inputs": [
        {
          "internalType": "address",
          "name": "_addr",
          "type": "address"
        }
      ],
      "name": "revoke_access",
      "outputs": [
        {
          "internalType": "bool",
          "name": "success",
          "type": "bool"
        }
      ],
      "stateMutability": "nonpayable",
      "type": "function"
    }
  ],
  "bytecode": "0x608060405260008055600060015534801561001957600080fd5b5033600560006101000a81548173ffffffffffffffffffffffffffffffffffffffff021916908373ffffffffffffffffffffffffffffffffffffffff160217905550615b6a806200006b6000396000f3fe608060405234801561001057600080fd5b50600436106101585760003560e01c806365e4ad9e116100c3578063b2c370081161007c578063b2c370081461040e578063c3c5a5471461043e578063cdfbfb5c1461046e578063ddf3a786146104a1578063efe2ccc1146104bf578063f0d95090146104f357610158565b806365e4ad9e1461032657806370333b801461035657806381e7e20e146103725780638da5cb5b146103a2578063928ed9da146103c0578063abec773d146103de57610158565b8063312625f811610115578063312625f81461025d578063503b1354146102795780635658e43b1461029757806356fa8217146102b557806358c5d4bf146102d15780635ad910ef1461030857610158565b80630ae5e7391461015d578063127ca4b41461018d578063136bd148146101bd57806318a231a9146101d9578063248c6a31146101fd57806327b1dcee1461022d575b600080fd5b6101776004803603810190610172919061482c565b610518565b6040516101849190615485565b60405180910390f35b6101a760048036038101906101a29190614b82565b61077d565b6040516101b49190615291565b60405180910390f35b6101d760048036038101906101d29190614b2e565b6107bc565b005b6101e16108c1565b6040516101f4979695949392919061532f565b60405180910390f35b6102176004803603810190610212919061482c565b6114f5565b60405161022491906156d1565b60405180910390f35b6102476004803603810190610242919061482c565b611544565b6040516102549190615485565b60405180910390f35b61027760048036038101906102729190614a57565b61171c565b005b610281611c7f565b60405161028e91906152ac565b60405180910390f35b61029f611d0d565b6040516102ac91906156d1565b60405180910390f35b6102cf60048036038101906102ca9190614968565b611d13565b005b6102eb60048036038101906102e6919061482c565b61213a565b6040516102ff9897969594939291906156ec565b60405180910390f35b6103106124a6565b60405161031d91906156d1565b60405180910390f35b610340600480360381019061033b9190614855565b6124b3565b60405161034d9190615485565b60405180910390f35b610370600480360381019061036b9190614891565b612547565b005b61038c6004803603810190610387919061482c565b6127ab565b60405161039991906154a0565b60405180910390f35b6103aa6128da565b6040516103b79190615291565b60405180910390f35b6103c8612900565b6040516103d591906156d1565b60405180910390f35b6103f860048036038101906103f39190614b82565b612906565b60405161040591906156d1565b60405180910390f35b61042860048036038101906104239190614b82565b61292a565b60405161043591906156d1565b60405180910390f35b6104586004803603810190610453919061482c565b612978565b6040516104659190615485565b60405180910390f35b6104886004803603810190610483919061482c565b612ce2565b60405161049894939291906152ce565b60405180910390f35b6104a961361c565b6040516104b691906156d1565b60405180910390f35b6104d960048036038101906104d4919061482c565b613629565b6040516104ea9594939291906154bb565b60405180910390f35b6104fb613d1a565b60405161050f9897969594939291906153cf565b60405180910390f35b60008173ffffffffffffffffffffffffffffffffffffffff163373ffffffffffffffffffffffffffffffffffffffff161415610589576040517f08c379a000000000000000000000000000000000000000000000000000000000815260040161058090615631565b60405180910390fd5b600960008373ffffffffffffffffffffffffffffffffffffffff1673ffffffffffffffffffffffffffffffffffffffff16815260200190815260200160002060009054906101000a900460ff16610615576040517f08c379a000000000000000000000000000000000000000000000000000000000815260040161060c906155d1565b60405180910390fd5b600a60003373ffffffffffffffffffffffffffffffffffffffff1673ffffffffffffffffffffffffffffffffffffffff16815260200190815260200160002060008373ffffffffffffffffffffffffffffffffffffffff1673ffffffffffffffffffffffffffffffffffffffff16815260200190815260200160002060009054906101000a900460ff16156106df576040517f08c379a00000000000000000000000000000000000000000000000000000000081526004016106d690615671565b60405180910390fd5b6001600a60003373ffffffffffffffffffffffffffffffffffffffff1673ffffffffffffffffffffffffffffffffffffffff16815260200190815260200160002060008473ffffffffffffffffffffffffffffffffffffffff1673ffffffffffffffffffffffffffffffffffffffff16815260200190815260200160002060006101000a81548160ff02191690831515021790555060019050919050565b6003818154811061078d57600080fd5b906000526020600020016000915054906101000a900473ffffffffffffffffffffffffffffffffffffffff1681565b600560009054906101000a900473ffffffffffffffffffffffffffffffffffffffff1673ffffffffffffffffffffffffffffffffffffffff163373ffffffffffffffffffffffffffffffffffffffff161461084c576040517f08c379a0000000000000000000000000000000000000000000000000000000008152600401610843906156b1565b60405180910390fd5b6001600b8360405161085e919061527a565b9081526020016040518091039020600083815260200190815260200160002060006101000a81548160ff02191690831515021790555060048190806001815401808255809150506001900390600052602060002001600090919091909150555050565b6060806060806060806060600060028054905090508067ffffffffffffffff811115610916577f4e487b7100000000000000000000000000000000000000000000000000000000600052604160045260246000fd5b6040519080825280602002602001820160405280156109445781602001602082028036833780820191505090505b5097508067ffffffffffffffff811115610987577f4e487b7100000000000000000000000000000000000000000000000000000000600052604160045260246000fd5b6040519080825280602002602001820160405280156109b55781602001602082028036833780820191505090505b5096508067ffffffffffffffff8111156109f8577f4e487b7100000000000000000000000000000000000000000000000000000000600052604160045260246000fd5b604051908082528060200260200182016040528015610a2b57816020015b6060815260200190600190039081610a165790505b5095508067ffffffffffffffff811115610a6e577f4e487b7100000000000000000000000000000000000000000000000000000000600052604160045260246000fd5b604051908082528060200260200182016040528015610aa157816020015b6060815260200190600190039081610a8c5790505b5094508067ffffffffffffffff811115610ae4577f4e487b7100000000000000000000000000000000000000000000000000000000600052604160045260246000fd5b604051908082528060200260200182016040528015610b1757816020015b6060815260200190600190039081610b025790505b5093508067ffffffffffffffff811115610b5a577f4e487b7100000000000000000000000000000000000000000000000000000000600052604160045260246000fd5b604051908082528060200260200182016040528015610b8d57816020015b6060815260200190600190039081610b785790505b5092508067ffffffffffffffff811115610bd0577f4e487b7100000000000000000000000000000000000000000000000000000000600052604160045260246000fd5b604051908082528060200260200182016040528015610c0357816020015b6060815260200190600190039081610bee5790505b50915060005b818110156114ea57600060028281548110610c4d577f4e487b7100000000000000000000000000000000000000000000000000000000600052603260045260246000fd5b9060005260206000200160009054906101000a900473ffffffffffffffffffffffffffffffffffffffff1690506000600660008373ffffffffffffffffffffffffffffffffffffffff1673ffffffffffffffffffffffffffffffffffffffff1681526020019081526020016000206040518061010001604052908160008201548152602001600182018054610ce1906159ed565b80601f0160208091040260200160405190810160405280929190818152602001828054610d0d906159ed565b8015610d5a5780601f10610d2f57610100808354040283529160200191610d5a565b820191906000526020600020905b815481529060010190602001808311610d3d57829003601f168201915b50505050508152602001600282018054610d73906159ed565b80601f0160208091040260200160405190810160405280929190818152602001828054610d9f906159ed565b8015610dec5780601f10610dc157610100808354040283529160200191610dec565b820191906000526020600020905b815481529060010190602001808311610dcf57829003601f168201915b50505050508152602001600382018054610e05906159ed565b80601f0160208091040260200160405190810160405280929190818152602001828054610e31906159ed565b8015610e7e5780601f10610e5357610100808354040283529160200191610e7e565b820191906000526020600020905b815481529060010190602001808311610e6157829003601f168201915b50505050508152602001600482018054610e97906159ed565b80601f0160208091040260200160405190810160405280929190818152602001828054610ec3906159ed565b8015610f105780601f10610ee557610100808354040283529160200191610f10565b820191906000526020600020905b815481529060010190602001808311610ef357829003601f168201915b50505050508152602001600582018054610f29906159ed565b80601f0160208091040260200160405190810160405280929190818152602001828054610f55906159ed565b8015610fa25780601f10610f7757610100808354040283529160200191610fa2565b820191906000526020600020905b815481529060010190602001808311610f8557829003601f168201915b5050505050815260200160068201805480602002602001604051908101604052809291908181526020016000905b8282101561124a5783829060005260206000209060040201604051806080016040529081600082018054611003906159ed565b80601f016020809104026020016040519081016040528092919081815260200182805461102f906159ed565b801561107c5780601f106110515761010080835404028352916020019161107c565b820191906000526020600020905b81548152906001019060200180831161105f57829003601f168201915b50505050508152602001600182018054611095906159ed565b80601f01602080910402602001604051908101604052809291908181526020018280546110c1906159ed565b801561110e5780601f106110e35761010080835404028352916020019161110e565b820191906000526020600020905b8154815290600101906020018083116110f157829003601f168201915b50505050508152602001600282018054611127906159ed565b80601f0160208091040260200160405190810160405280929190818152602001828054611153906159ed565b80156111a05780601f10611175576101008083540402835291602001916111a0565b820191906000526020600020905b81548152906001019060200180831161118357829003601f168201915b505050505081526020016003820180546111b9906159ed565b80601f01602080910402602001604051908101604052809291908181526020018280546111e5906159ed565b80156112325780601f1061120757610100808354040283529160200191611232565b820191906000526020600020905b81548152906001019060200180831161121557829003601f168201915b50505050508152505081526020019060010190610fd0565b5050505081526020016007820160009054906101000a900473ffffffffffffffffffffffffffffffffffffffff1673ffffffffffffffffffffffffffffffffffffffff1673ffffffffffffffffffffffffffffffffffffffff1681525050905080600001518b84815181106112e8577f4e487b7100000000000000000000000000000000000000000000000000000000600052603260045260246000fd5b602002602001018181525050818a848151811061132e577f4e487b7100000000000000000000000000000000000000000000000000000000600052603260045260246000fd5b602002602001019073ffffffffffffffffffffffffffffffffffffffff16908173ffffffffffffffffffffffffffffffffffffffff168152505080602001518984815181106113a6577f4e487b7100000000000000000000000000000000000000000000000000000000600052603260045260246000fd5b602002602001018190525080604001518884815181106113ef577f4e487b7100000000000000000000000000000000000000000000000000000000600052603260045260246000fd5b60200260200101819052508060600151878481518110611438577f4e487b7100000000000000000000000000000000000000000000000000000000600052603260045260246000fd5b60200260200101819052508060800151868481518110611481577f4e487b7100000000000000000000000000000000000000000000000000000000600052603260045260246000fd5b60200260200101819052508060a001518584815181106114ca577f4e487b7100000000000000000000000000000000000000000000000000000000600052603260045260246000fd5b6020026020010181905250505080806114e290615a1f565b915050610c09565b505090919293949596565b6000600660008373ffffffffffffffffffffffffffffffffffffffff1673ffffffffffffffffffffffffffffffffffffffff168152602001908152602001600020600601805490509050919050565b60008173ffffffffffffffffffffffffffffffffffffffff163373ffffffffffffffffffffffffffffffffffffffff1614156115b5576040517f08c379a00000000000000000000000000000000000000000000000000000000081526004016115ac90615571565b60405180910390fd5b600a60003373ffffffffffffffffffffffffffffffffffffffff1673ffffffffffffffffffffffffffffffffffffffff16815260200190815260200160002060008373ffffffffffffffffffffffffffffffffffffffff1673ffffffffffffffffffffffffffffffffffffffff16815260200190815260200160002060009054906101000a900460ff1661167e576040517f08c379a000000000000000000000000000000000000000000000000000000000815260040161167590615611565b60405180910390fd5b6000600a60003373ffffffffffffffffffffffffffffffffffffffff1673ffffffffffffffffffffffffffffffffffffffff16815260200190815260200160002060008473ffffffffffffffffffffffffffffffffffffffff1673ffffffffffffffffffffffffffffffffffffffff16815260200190815260200160002060006101000a81548160ff02191690831515021790555060019050919050565b600960003373ffffffffffffffffffffffffffffffffffffffff1673ffffffffffffffffffffffffffffffffffffffff16815260200190815260200160002060009054906101000a900460ff16156117a9576040517f08c379a00000000000000000000000000000000000000000000000000000000081526004016117a090615591565b60405180910390fd5b600560009054906101000a900473ffffffffffffffffffffffffffffffffffffffff1673ffffffffffffffffffffffffffffffffffffffff163373ffffffffffffffffffffffffffffffffffffffff16141561183a576040517f08c379a000000000000000000000000000000000000000000000000000000000815260040161183190615551565b60405180910390fd5b600085511161184857600080fd5b600084511161185657600080fd5b600083511161186457600080fd5b600082511161187257600080fd5b6000811161187f57600080fd5b60003390506003819080600181540180825580915050600190039060005260206000200160009091909190916101000a81548173ffffffffffffffffffffffffffffffffffffffff021916908373ffffffffffffffffffffffffffffffffffffffff160217905550600180546118f59190615903565b6001819055506001600960008373ffffffffffffffffffffffffffffffffffffffff1673ffffffffffffffffffffffffffffffffffffffff16815260200190815260200160002060006101000a81548160ff02191690831515021790555085600760008373ffffffffffffffffffffffffffffffffffffffff1673ffffffffffffffffffffffffffffffffffffffff16815260200190815260200160002060010190805190602001906119a99291906146f7565b5082600760008373ffffffffffffffffffffffffffffffffffffffff1673ffffffffffffffffffffffffffffffffffffffff1681526020019081526020016000206002019080519060200190611a009291906146f7565b5084600760008373ffffffffffffffffffffffffffffffffffffffff1673ffffffffffffffffffffffffffffffffffffffff1681526020019081526020016000206003019080519060200190611a579291906146f7565b5083600760008373ffffffffffffffffffffffffffffffffffffffff1673ffffffffffffffffffffffffffffffffffffffff1681526020019081526020016000206004019080519060200190611aae9291906146f7565b5080600760008373ffffffffffffffffffffffffffffffffffffffff1673ffffffffffffffffffffffffffffffffffffffff16815260200190815260200160002060050160006101000a81548173ffffffffffffffffffffffffffffffffffffffff021916908373ffffffffffffffffffffffffffffffffffffffff16021790555081600760008373ffffffffffffffffffffffffffffffffffffffff1673ffffffffffffffffffffffffffffffffffffffff168152602001908152602001600020600601819055506000600760008373ffffffffffffffffffffffffffffffffffffffff1673ffffffffffffffffffffffffffffffffffffffff16815260200190815260200160002060070160006101000a81548160ff02191690831515021790555060011515600b87604051611be6919061527a565b9081526020016040518091039020600084815260200190815260200160002060009054906101000a900460ff1615151415611c77576001600760008373ffffffffffffffffffffffffffffffffffffffff1673ffffffffffffffffffffffffffffffffffffffff16815260200190815260200160002060070160006101000a81548160ff0219169083151502179055505b505050505050565b60606002805480602002602001604051908101604052809291908181526020018280548015611d0357602002820191906000526020600020905b8160009054906101000a900473ffffffffffffffffffffffffffffffffffffffff1673ffffffffffffffffffffffffffffffffffffffff1681526020019060010190808311611cb9575b5050505050905090565b60005481565b600860003373ffffffffffffffffffffffffffffffffffffffff1673ffffffffffffffffffffffffffffffffffffffff16815260200190815260200160002060009054906101000a900460ff1615611da0576040517f08c379a0000000000000000000000000000000000000000000000000000000008152600401611d9790615531565b60405180910390fd5b6000855111611dae57600080fd5b6000845111611dbc57600080fd5b6000835111611dca57600080fd5b6000825111611dd857600080fd5b6000815111611de657600080fd5b6002339080600181540180825580915050600190039060005260206000200160009091909190916101000a81548173ffffffffffffffffffffffffffffffffffffffff021916908373ffffffffffffffffffffffffffffffffffffffff1602179055506001600054611e589190615903565b6000819055506001600860003373ffffffffffffffffffffffffffffffffffffffff1673ffffffffffffffffffffffffffffffffffffffff16815260200190815260200160002060006101000a81548160ff021916908315150217905550600054600660003373ffffffffffffffffffffffffffffffffffffffff1673ffffffffffffffffffffffffffffffffffffffff1681526020019081526020016000206000018190555084600660003373ffffffffffffffffffffffffffffffffffffffff1673ffffffffffffffffffffffffffffffffffffffff1681526020019081526020016000206001019080519060200190611f559291906146f7565b5083600660003373ffffffffffffffffffffffffffffffffffffffff1673ffffffffffffffffffffffffffffffffffffffff1681526020019081526020016000206002019080519060200190611fac9291906146f7565b5082600660003373ffffffffffffffffffffffffffffffffffffffff1673ffffffffffffffffffffffffffffffffffffffff16815260200190815260200160002060030190805190602001906120039291906146f7565b5081600660003373ffffffffffffffffffffffffffffffffffffffff1673ffffffffffffffffffffffffffffffffffffffff168152602001908152602001600020600401908051906020019061205a9291906146f7565b5080600660003373ffffffffffffffffffffffffffffffffffffffff1673ffffffffffffffffffffffffffffffffffffffff16815260200190815260200160002060050190805190602001906120b19291906146f7565b5033600660003373ffffffffffffffffffffffffffffffffffffffff1673ffffffffffffffffffffffffffffffffffffffff16815260200190815260200160002060070160006101000a81548173ffffffffffffffffffffffffffffffffffffffff021916908373ffffffffffffffffffffffffffffffffffffffff1602179055505050505050565b6000606080606080600080600080600760008b73ffffffffffffffffffffffffffffffffffffffff1673ffffffffffffffffffffffffffffffffffffffff16815260200190815260200160002060405180610100016040529081600082015481526020016001820180546121ad906159ed565b80601f01602080910402602001604051908101604052809291908181526020018280546121d9906159ed565b80156122265780601f106121fb57610100808354040283529160200191612226565b820191906000526020600020905b81548152906001019060200180831161220957829003601f168201915b5050505050815260200160028201805461223f906159ed565b80601f016020809104026020016040519081016040528092919081815260200182805461226b906159ed565b80156122b85780601f1061228d576101008083540402835291602001916122b8565b820191906000526020600020905b81548152906001019060200180831161229b57829003601f168201915b505050505081526020016003820180546122d1906159ed565b80601f01602080910402602001604051908101604052809291908181526020018280546122fd906159ed565b801561234a5780601f1061231f5761010080835404028352916020019161234a565b820191906000526020600020905b81548152906001019060200180831161232d57829003601f168201915b50505050508152602001600482018054612363906159ed565b80601f016020809104026020016040519081016040528092919081815260200182805461238f906159ed565b80156123dc5780601f106123b1576101008083540402835291602001916123dc565b820191906000526020600020905b8154815290600101906020018083116123bf57829003601f168201915b505050505081526020016005820160009054906101000a900473ffffffffffffffffffffffffffffffffffffffff1673ffffffffffffffffffffffffffffffffffffffff1673ffffffffffffffffffffffffffffffffffffffff168152602001600682015481526020016007820160009054906101000a900460ff1615151515815250509050806000015181602001518260400151836060015184608001518560a001518660e001518760c001519850985098509850985098509850985050919395975091939597565b6000600380549050905090565b6000600a60008473ffffffffffffffffffffffffffffffffffffffff1673ffffffffffffffffffffffffffffffffffffffff16815260200190815260200160002060008373ffffffffffffffffffffffffffffffffffffffff1673ffffffffffffffffffffffffffffffffffffffff16815260200190815260200160002060009054906101000a900460ff16905092915050565b600860008273ffffffffffffffffffffffffffffffffffffffff1673ffffffffffffffffffffffffffffffffffffffff16815260200190815260200160002060009054906101000a900460ff166125d3576040517f08c379a00000000000000000000000000000000000000000000000000000000081526004016125ca90615651565b60405180910390fd5b600a60008273ffffffffffffffffffffffffffffffffffffffff1673ffffffffffffffffffffffffffffffffffffffff16815260200190815260200160002060003373ffffffffffffffffffffffffffffffffffffffff1673ffffffffffffffffffffffffffffffffffffffff16815260200190815260200160002060009054906101000a900460ff161561276957600660008273ffffffffffffffffffffffffffffffffffffffff1673ffffffffffffffffffffffffffffffffffffffff1681526020019081526020016000206006016040518060800160405280878152602001868152602001858152602001848152509080600181540180825580915050600190039060005260206000209060040201600090919091909150600082015181600001908051906020019061270a9291906146f7565b5060208201518160010190805190602001906127279291906146f7565b5060408201518160020190805190602001906127449291906146f7565b5060608201518160030190805190602001906127619291906146f7565b5050506127a4565b6040517f08c379a000000000000000000000000000000000000000000000000000000000815260040161279b90615691565b60405180910390fd5b5050505050565b600060011515600960008473ffffffffffffffffffffffffffffffffffffffff1673ffffffffffffffffffffffffffffffffffffffff16815260200190815260200160002060009054906101000a900460ff161515141561280f57600090506128d5565b60011515600860008473ffffffffffffffffffffffffffffffffffffffff1673ffffffffffffffffffffffffffffffffffffffff16815260200190815260200160002060009054906101000a900460ff161515141561287157600190506128d5565b600560009054906101000a900473ffffffffffffffffffffffffffffffffffffffff1673ffffffffffffffffffffffffffffffffffffffff168273ffffffffffffffffffffffffffffffffffffffff1614156128d057600290506128d5565b600390505b919050565b600560009054906101000a900473ffffffffffffffffffffffffffffffffffffffff1681565b60015481565b6004818154811061291657600080fd5b906000526020600020016000915090505481565b600060048281548110612966577f4e487b7100000000000000000000000000000000000000000000000000000000600052603260045260246000fd5b90600052602060002001549050919050565b600080600760008473ffffffffffffffffffffffffffffffffffffffff1673ffffffffffffffffffffffffffffffffffffffff16815260200190815260200160002060405180610100016040529081600082015481526020016001820180546129e0906159ed565b80601f0160208091040260200160405190810160405280929190818152602001828054612a0c906159ed565b8015612a595780601f10612a2e57610100808354040283529160200191612a59565b820191906000526020600020905b815481529060010190602001808311612a3c57829003601f168201915b50505050508152602001600282018054612a72906159ed565b80601f0160208091040260200160405190810160405280929190818152602001828054612a9e906159ed565b8015612aeb5780601f10612ac057610100808354040283529160200191612aeb565b820191906000526020600020905b815481529060010190602001808311612ace57829003601f168201915b50505050508152602001600382018054612b04906159ed565b80601f0160208091040260200160405190810160405280929190818152602001828054612b30906159ed565b8015612b7d5780601f10612b5257610100808354040283529160200191612b7d565b820191906000526020600020905b815481529060010190602001808311612b6057829003601f168201915b50505050508152602001600482018054612b96906159ed565b80601f0160208091040260200160405190810160405280929190818152602001828054612bc2906159ed565b8015612c0f5780601f10612be457610100808354040283529160200191612c0f565b820191906000526020600020905b815481529060010190602001808311612bf257829003601f168201915b505050505081526020016005820160009054906101000a900473ffffffffffffffffffffffffffffffffffffffff1673ffffffffffffffffffffffffffffffffffffffff1673ffffffffffffffffffffffffffffffffffffffff168152602001600682015481526020016007820160009054906101000a900460ff1615151515815250509050600b8160200151604051612ca9919061527a565b908152602001604051809103902060008260c00151815260200190815260200160002060009054906101000a900460ff16915050919050565b606080606080600860008673ffffffffffffffffffffffffffffffffffffffff1673ffffffffffffffffffffffffffffffffffffffff16815260200190815260200160002060009054906101000a900460ff16612d74576040517f08c379a0000000000000000000000000000000000000000000000000000000008152600401612d6b90615651565b60405180910390fd5b600a60008673ffffffffffffffffffffffffffffffffffffffff1673ffffffffffffffffffffffffffffffffffffffff16815260200190815260200160002060003373ffffffffffffffffffffffffffffffffffffffff1673ffffffffffffffffffffffffffffffffffffffff16815260200190815260200160002060009054906101000a900460ff1680612e3457508473ffffffffffffffffffffffffffffffffffffffff163373ffffffffffffffffffffffffffffffffffffffff16145b612e73576040517f08c379a0000000000000000000000000000000000000000000000000000000008152600401612e6a906155f1565b60405180910390fd5b6000600660008773ffffffffffffffffffffffffffffffffffffffff1673ffffffffffffffffffffffffffffffffffffffff1681526020019081526020016000206006018054905090508067ffffffffffffffff811115612efd577f4e487b7100000000000000000000000000000000000000000000000000000000600052604160045260246000fd5b604051908082528060200260200182016040528015612f3057816020015b6060815260200190600190039081612f1b5790505b5094508067ffffffffffffffff811115612f73577f4e487b7100000000000000000000000000000000000000000000000000000000600052604160045260246000fd5b604051908082528060200260200182016040528015612fa657816020015b6060815260200190600190039081612f915790505b5093508067ffffffffffffffff811115612fe9577f4e487b7100000000000000000000000000000000000000000000000000000000600052604160045260246000fd5b60405190808252806020026020018201604052801561301c57816020015b60608152602001906001900390816130075790505b5092508067ffffffffffffffff81111561305f577f4e487b7100000000000000000000000000000000000000000000000000000000600052604160045260246000fd5b60405190808252806020026020018201604052801561309257816020015b606081526020019060019003908161307d5790505b50915060005b8181101561361357600660008873ffffffffffffffffffffffffffffffffffffffff1673ffffffffffffffffffffffffffffffffffffffff168152602001908152602001600020600601818154811061311a577f4e487b7100000000000000000000000000000000000000000000000000000000600052603260045260246000fd5b90600052602060002090600402016000018054613136906159ed565b80601f0160208091040260200160405190810160405280929190818152602001828054613162906159ed565b80156131af5780601f10613184576101008083540402835291602001916131af565b820191906000526020600020905b81548152906001019060200180831161319257829003601f168201915b50505050508682815181106131ed577f4e487b7100000000000000000000000000000000000000000000000000000000600052603260045260246000fd5b6020026020010181905250600660008873ffffffffffffffffffffffffffffffffffffffff1673ffffffffffffffffffffffffffffffffffffffff1681526020019081526020016000206006018181548110613272577f4e487b7100000000000000000000000000000000000000000000000000000000600052603260045260246000fd5b9060005260206000209060040201600101805461328e906159ed565b80601f01602080910402602001604051908101604052809291908181526020018280546132ba906159ed565b80156133075780601f106132dc57610100808354040283529160200191613307565b820191906000526020600020905b8154815290600101906020018083116132ea57829003601f168201915b5050505050858281518110613345577f4e487b7100000000000000000000000000000000000000000000000000000000600052603260045260246000fd5b6020026020010181905250600660008873ffffffffffffffffffffffffffffffffffffffff1673ffffffffffffffffffffffffffffffffffffffff16815260200190815260200160002060060181815481106133ca577f4e487b7100000000000000000000000000000000000000000000000000000000600052603260045260246000fd5b906000526020600020906004020160020180546133e6906159ed565b80601f0160208091040260200160405190810160405280929190818152602001828054613412906159ed565b801561345f5780601f106134345761010080835404028352916020019161345f565b820191906000526020600020905b81548152906001019060200180831161344257829003601f168201915b505050505084828151811061349d577f4e487b7100000000000000000000000000000000000000000000000000000000600052603260045260246000fd5b6020026020010181905250600660008873ffffffffffffffffffffffffffffffffffffffff1673ffffffffffffffffffffffffffffffffffffffff1681526020019081526020016000206006018181548110613522577f4e487b7100000000000000000000000000000000000000000000000000000000600052603260045260246000fd5b9060005260206000209060040201600301805461353e906159ed565b80601f016020809104026020016040519081016040528092919081815260200182805461356a906159ed565b80156135b75780601f1061358c576101008083540402835291602001916135b7565b820191906000526020600020905b81548152906001019060200180831161359a57829003601f168201915b50505050508382815181106135f5577f4e487b7100000000000000000000000000000000000000000000000000000000600052603260045260246000fd5b6020026020010181905250808061360b90615a1f565b915050613098565b50509193509193565b6000600480549050905090565b6060806060806060600860008773ffffffffffffffffffffffffffffffffffffffff1673ffffffffffffffffffffffffffffffffffffffff16815260200190815260200160002060009054906101000a900460ff166136bd576040517f08c379a00000000000000000000000000000000000000000000000000000000081526004016136b4906155b1565b60405180910390fd5b6000600660008873ffffffffffffffffffffffffffffffffffffffff1673ffffffffffffffffffffffffffffffffffffffff1681526020019081526020016000206040518061010001604052908160008201548152602001600182018054613724906159ed565b80601f0160208091040260200160405190810160405280929190818152602001828054613750906159ed565b801561379d5780601f106137725761010080835404028352916020019161379d565b820191906000526020600020905b81548152906001019060200180831161378057829003601f168201915b505050505081526020016002820180546137b6906159ed565b80601f01602080910402602001604051908101604052809291908181526020018280546137e2906159ed565b801561382f5780601f106138045761010080835404028352916020019161382f565b820191906000526020600020905b81548152906001019060200180831161381257829003601f168201915b50505050508152602001600382018054613848906159ed565b80601f0160208091040260200160405190810160405280929190818152602001828054613874906159ed565b80156138c15780601f10613896576101008083540402835291602001916138c1565b820191906000526020600020905b8154815290600101906020018083116138a457829003601f168201915b505050505081526020016004820180546138da906159ed565b80601f0160208091040260200160405190810160405280929190818152602001828054613906906159ed565b80156139535780601f1061392857610100808354040283529160200191613953565b820191906000526020600020905b81548152906001019060200180831161393657829003601f168201915b5050505050815260200160058201805461396c906159ed565b80601f0160208091040260200160405190810160405280929190818152602001828054613998906159ed565b80156139e55780601f106139ba576101008083540402835291602001916139e5565b820191906000526020600020905b8154815290600101906020018083116139c857829003601f168201915b5050505050815260200160068201805480602002602001604051908101604052809291908181526020016000905b82821015613c8d5783829060005260206000209060040201604051806080016040529081600082018054613a46906159ed565b80601f0160208091040260200160405190810160405280929190818152602001828054613a72906159ed565b8015613abf5780601f10613a9457610100808354040283529160200191613abf565b820191906000526020600020905b815481529060010190602001808311613aa257829003601f168201915b50505050508152602001600182018054613ad8906159ed565b80601f0160208091040260200160405190810160405280929190818152602001828054613b04906159ed565b8015613b515780601f10613b2657610100808354040283529160200191613b51565b820191906000526020600020905b815481529060010190602001808311613b3457829003601f168201915b50505050508152602001600282018054613b6a906159ed565b80601f0160208091040260200160405190810160405280929190818152602001828054613b96906159ed565b8015613be35780601f10613bb857610100808354040283529160200191613be3565b820191906000526020600020905b815481529060010190602001808311613bc657829003601f168201915b50505050508152602001600382018054613bfc906159ed565b80601f0160208091040260200160405190810160405280929190818152602001828054613c28906159ed565b8015613c755780601f10613c4a57610100808354040283529160200191613c75565b820191906000526020600020905b815481529060010190602001808311613c5857829003601f168201915b50505050508152505081526020019060010190613a13565b5050505081526020016007820160009054906101000a900473ffffffffffffffffffffffffffffffffffffffff1673ffffffffffffffffffffffffffffffffffffffff1673ffffffffffffffffffffffffffffffffffffffff1681525050905080602001518160400151826060015183608001518460a00151955095509550955095505091939590929450565b606080606080606080606080600060038054905090508067ffffffffffffffff811115613d70577f4e487b7100000000000000000000000000000000000000000000000000000000600052604160045260246000fd5b604051908082528060200260200182016040528015613d9e5781602001602082028036833780820191505090505b5098508067ffffffffffffffff811115613de1577f4e487b7100000000000000000000000000000000000000000000000000000000600052604160045260246000fd5b604051908082528060200260200182016040528015613e1457816020015b6060815260200190600190039081613dff5790505b5097508067ffffffffffffffff811115613e57577f4e487b7100000000000000000000000000000000000000000000000000000000600052604160045260246000fd5b604051908082528060200260200182016040528015613e8a57816020015b6060815260200190600190039081613e755790505b5096508067ffffffffffffffff811115613ecd577f4e487b7100000000000000000000000000000000000000000000000000000000600052604160045260246000fd5b604051908082528060200260200182016040528015613f0057816020015b6060815260200190600190039081613eeb5790505b5095508067ffffffffffffffff811115613f43577f4e487b7100000000000000000000000000000000000000000000000000000000600052604160045260246000fd5b604051908082528060200260200182016040528015613f7657816020015b6060815260200190600190039081613f615790505b5094508067ffffffffffffffff811115613fb9577f4e487b7100000000000000000000000000000000000000000000000000000000600052604160045260246000fd5b604051908082528060200260200182016040528015613fe75781602001602082028036833780820191505090505b5093508067ffffffffffffffff81111561402a577f4e487b7100000000000000000000000000000000000000000000000000000000600052604160045260246000fd5b6040519080825280602002602001820160405280156140585781602001602082028036833780820191505090505b5092508067ffffffffffffffff81111561409b577f4e487b7100000000000000000000000000000000000000000000000000000000600052604160045260246000fd5b6040519080825280602002602001820160405280156140c95781602001602082028036833780820191505090505b50915060005b818110156146eb5760006007600060038481548110614117577f4e487b7100000000000000000000000000000000000000000000000000000000600052603260045260246000fd5b9060005260206000200160009054906101000a900473ffffffffffffffffffffffffffffffffffffffff1673ffffffffffffffffffffffffffffffffffffffff1673ffffffffffffffffffffffffffffffffffffffff16815260200190815260200160002060405180610100016040529081600082015481526020016001820180546141a2906159ed565b80601f01602080910402602001604051908101604052809291908181526020018280546141ce906159ed565b801561421b5780601f106141f05761010080835404028352916020019161421b565b820191906000526020600020905b8154815290600101906020018083116141fe57829003601f168201915b50505050508152602001600282018054614234906159ed565b80601f0160208091040260200160405190810160405280929190818152602001828054614260906159ed565b80156142ad5780601f10614282576101008083540402835291602001916142ad565b820191906000526020600020905b81548152906001019060200180831161429057829003601f168201915b505050505081526020016003820180546142c6906159ed565b80601f01602080910402602001604051908101604052809291908181526020018280546142f2906159ed565b801561433f5780601f106143145761010080835404028352916020019161433f565b820191906000526020600020905b81548152906001019060200180831161432257829003601f168201915b50505050508152602001600482018054614358906159ed565b80601f0160208091040260200160405190810160405280929190818152602001828054614384906159ed565b80156143d15780601f106143a6576101008083540402835291602001916143d1565b820191906000526020600020905b8154815290600101906020018083116143b457829003601f168201915b505050505081526020016005820160009054906101000a900473ffffffffffffffffffffffffffffffffffffffff1673ffffffffffffffffffffffffffffffffffffffff1673ffffffffffffffffffffffffffffffffffffffff168152602001600682015481526020016007820160009054906101000a900460ff161515151581525050905080600001518b8381518110614495577f4e487b7100000000000000000000000000000000000000000000000000000000600052603260045260246000fd5b60200260200101818152505080602001518a83815181106144df577f4e487b7100000000000000000000000000000000000000000000000000000000600052603260045260246000fd5b60200260200101819052508060400151898381518110614528577f4e487b7100000000000000000000000000000000000000000000000000000000600052603260045260246000fd5b60200260200101819052508060600151888381518110614571577f4e487b7100000000000000000000000000000000000000000000000000000000600052603260045260246000fd5b602002602001018190525080608001518783815181106145ba577f4e487b7100000000000000000000000000000000000000000000000000000000600052603260045260246000fd5b60200260200101819052508060a00151868381518110614603577f4e487b7100000000000000000000000000000000000000000000000000000000600052603260045260246000fd5b602002602001019073ffffffffffffffffffffffffffffffffffffffff16908173ffffffffffffffffffffffffffffffffffffffff16815250508060e0015185838151811061467b577f4e487b7100000000000000000000000000000000000000000000000000000000600052603260045260246000fd5b6020026020010190151590811515815250508060c001518483815181106146cb577f4e487b7100000000000000000000000000000000000000000000000000000000600052603260045260246000fd5b6020026020010181815250505080806146e390615a1f565b9150506140cf565b50509091929394959697565b828054614703906159ed565b90600052602060002090601f016020900481019282614725576000855561476c565b82601f1061473e57805160ff191683800117855561476c565b8280016001018555821561476c579182015b8281111561476b578251825591602001919060010190614750565b5b509050614779919061477d565b5090565b5b8082111561479657600081600090555060010161477e565b5090565b60006147ad6147a8846157b7565b615786565b9050828152602081018484840111156147c557600080fd5b6147d08482856159ab565b509392505050565b6000813590506147e781615b06565b92915050565b600082601f8301126147fe57600080fd5b813561480e84826020860161479a565b91505092915050565b60008135905061482681615b1d565b92915050565b60006020828403121561483e57600080fd5b600061484c848285016147d8565b91505092915050565b6000806040838503121561486857600080fd5b6000614876858286016147d8565b9250506020614887858286016147d8565b9150509250929050565b600080600080600060a086880312156148a957600080fd5b600086013567ffffffffffffffff8111156148c357600080fd5b6148cf888289016147ed565b955050602086013567ffffffffffffffff8111156148ec57600080fd5b6148f8888289016147ed565b945050604086013567ffffffffffffffff81111561491557600080fd5b614921888289016147ed565b935050606086013567ffffffffffffffff81111561493e57600080fd5b61494a888289016147ed565b925050608061495b888289016147d8565b9150509295509295909350565b600080600080600060a0868803121561498057600080fd5b600086013567ffffffffffffffff81111561499a57600080fd5b6149a6888289016147ed565b955050602086013567ffffffffffffffff8111156149c357600080fd5b6149cf888289016147ed565b945050604086013567ffffffffffffffff8111156149ec57600080fd5b6149f8888289016147ed565b935050606086013567ffffffffffffffff811115614a1557600080fd5b614a21888289016147ed565b925050608086013567ffffffffffffffff811115614a3e57600080fd5b614a4a888289016147ed565b9150509295509295909350565b600080600080600060a08688031215614a6f57600080fd5b600086013567ffffffffffffffff811115614a8957600080fd5b614a95888289016147ed565b955050602086013567ffffffffffffffff811115614ab257600080fd5b614abe888289016147ed565b945050604086013567ffffffffffffffff811115614adb57600080fd5b614ae7888289016147ed565b935050606086013567ffffffffffffffff811115614b0457600080fd5b614b10888289016147ed565b9250506080614b2188828901614817565b9150509295509295909350565b60008060408385031215614b4157600080fd5b600083013567ffffffffffffffff811115614b5b57600080fd5b614b67858286016147ed565b9250506020614b7885828601614817565b9150509250929050565b600060208284031215614b9457600080fd5b6000614ba284828501614817565b91505092915050565b6000614bb78383614c07565b60208301905092915050565b6000614bcf8383614db4565b60208301905092915050565b6000614be78383614de1565b905092915050565b6000614bfb838361525c565b60208301905092915050565b614c1081615959565b82525050565b614c1f81615959565b82525050565b6000614c3082615827565b614c3a8185615892565b9350614c45836157e7565b8060005b83811015614c76578151614c5d8882614bab565b9750614c688361585e565b925050600181019050614c49565b5085935050505092915050565b6000614c8e82615832565b614c9881856158a3565b9350614ca3836157f7565b8060005b83811015614cd4578151614cbb8882614bc3565b9750614cc68361586b565b925050600181019050614ca7565b5085935050505092915050565b6000614cec8261583d565b614cf681856158b4565b935083602082028501614d0885615807565b8060005b85811015614d445784840389528151614d258582614bdb565b9450614d3083615878565b925060208a01995050600181019050614d0c565b50829750879550505050505092915050565b6000614d6182615848565b614d6b81856158c5565b9350614d7683615817565b8060005b83811015614da7578151614d8e8882614bef565b9750614d9983615885565b925050600181019050614d7a565b5085935050505092915050565b614dbd8161596b565b82525050565b614dcc8161596b565b82525050565b614ddb81615977565b82525050565b6000614dec82615853565b614df681856158d6565b9350614e068185602086016159ba565b614e0f81615af5565b840191505092915050565b6000614e2582615853565b614e2f81856158e7565b9350614e3f8185602086016159ba565b614e4881615af5565b840191505092915050565b6000614e5e82615853565b614e6881856158f8565b9350614e788185602086016159ba565b80840191505092915050565b6000614e91601e836158e7565b91507f416c72656164792050617469656e74206163636f756e742065786973747300006000830152602082019050919050565b6000614ed16028836158e7565b91507f436f6e7472616374206f776e65722063616e6e6f74207265676973746572206160008301527f7320646f63746f720000000000000000000000000000000000000000000000006020830152604082019050919050565b6000614f376019836158e7565b91507f596f752063616e27742072656d6f766520796f757273656c66000000000000006000830152602082019050919050565b6000614f776012836158e7565b91507f416c7265616479205265676973746572656400000000000000000000000000006000830152602082019050919050565b6000614fb76026836158e7565b91507f4e6f2050617469656e747320666f756e642061742074686520676976656e206160008301527f64647265737300000000000000000000000000000000000000000000000000006020830152604082019050919050565b600061501d6018836158e7565b91507f4e6f74207265676973746572656420617320646f63746f7200000000000000006000830152602082019050919050565b600061505d6019836158e7565b91507f5265636f72642063616e6e6f74206265206163636573736564000000000000006000830152602082019050919050565b600061509d601a836158e7565b91507f55736572206973206e6f7420617574686f72697a6564207965740000000000006000830152602082019050919050565b60006150dd6017836158e7565b91507f596f752063616e6e6f742061646420796f757273656c660000000000000000006000830152602082019050919050565b600061511d6025836158e7565b91507f4e6f2070617469656e7420666f756e642061742074686520676976656e20616460008301527f64726573730000000000000000000000000000000000000000000000000000006020830152604082019050919050565b6000615183601a836158e7565b91507f5573657220697320616c726561647920617574686f72697a65640000000000006000830152602082019050919050565b60006151c36017836158e7565b91507f5265636f72642063616e6e6f74206265206164646564200000000000000000006000830152602082019050919050565b60006152036027836158e7565b91507f596f7520617265206e6f7420616c6c6f77656420746f2072656769737465722060008301527f646f63746f7221000000000000000000000000000000000000000000000000006020830152604082019050919050565b615265816159a1565b82525050565b615274816159a1565b82525050565b60006152868284614e53565b915081905092915050565b60006020820190506152a66000830184614c16565b92915050565b600060208201905081810360008301526152c68184614c25565b905092915050565b600060808201905081810360008301526152e88187614ce1565b905081810360208301526152fc8186614ce1565b905081810360408301526153108185614ce1565b905081810360608301526153248184614ce1565b905095945050505050565b600060e0820190508181036000830152615349818a614d56565b9050818103602083015261535d8189614c25565b905081810360408301526153718188614ce1565b905081810360608301526153858187614ce1565b905081810360808301526153998186614ce1565b905081810360a08301526153ad8185614ce1565b905081810360c08301526153c18184614ce1565b905098975050505050505050565b60006101008201905081810360008301526153ea818b614d56565b905081810360208301526153fe818a614ce1565b905081810360408301526154128189614ce1565b905081810360608301526154268188614ce1565b9050818103608083015261543a8187614ce1565b905081810360a083015261544e8186614c25565b905081810360c08301526154628185614c83565b905081810360e08301526154768184614d56565b90509998505050505050505050565b600060208201905061549a6000830184614dc3565b92915050565b60006020820190506154b56000830184614dd2565b92915050565b600060a08201905081810360008301526154d58188614e1a565b905081810360208301526154e98187614e1a565b905081810360408301526154fd8186614e1a565b905081810360608301526155118185614e1a565b905081810360808301526155258184614e1a565b90509695505050505050565b6000602082019050818103600083015261554a81614e84565b9050919050565b6000602082019050818103600083015261556a81614ec4565b9050919050565b6000602082019050818103600083015261558a81614f2a565b9050919050565b600060208201905081810360008301526155aa81614f6a565b9050919050565b600060208201905081810360008301526155ca81614faa565b9050919050565b600060208201905081810360008301526155ea81615010565b9050919050565b6000602082019050818103600083015261560a81615050565b9050919050565b6000602082019050818103600083015261562a81615090565b9050919050565b6000602082019050818103600083015261564a816150d0565b9050919050565b6000602082019050818103600083015261566a81615110565b9050919050565b6000602082019050818103600083015261568a81615176565b9050919050565b600060208201905081810360008301526156aa816151b6565b9050919050565b600060208201905081810360008301526156ca816151f6565b9050919050565b60006020820190506156e6600083018461526b565b92915050565b600061010082019050615702600083018b61526b565b8181036020830152615714818a614e1a565b905081810360408301526157288189614e1a565b9050818103606083015261573c8188614e1a565b905081810360808301526157508187614e1a565b905061575f60a0830186614c16565b61576c60c0830185614dc3565b61577960e083018461526b565b9998505050505050505050565b6000604051905081810181811067ffffffffffffffff821117156157ad576157ac615ac6565b5b8060405250919050565b600067ffffffffffffffff8211156157d2576157d1615ac6565b5b601f19601f8301169050602081019050919050565b6000819050602082019050919050565b6000819050602082019050919050565b6000819050602082019050919050565b6000819050602082019050919050565b600081519050919050565b600081519050919050565b600081519050919050565b600081519050919050565b600081519050919050565b6000602082019050919050565b6000602082019050919050565b6000602082019050919050565b6000602082019050919050565b600082825260208201905092915050565b600082825260208201905092915050565b600082825260208201905092915050565b600082825260208201905092915050565b600082825260208201905092915050565b600082825260208201905092915050565b600081905092915050565b600061590e826159a1565b9150615919836159a1565b9250827fffffffffffffffffffffffffffffffffffffffffffffffffffffffffffffffff0382111561594e5761594d615a68565b5b828201905092915050565b600061596482615981565b9050919050565b60008115159050919050565b6000819050919050565b600073ffffffffffffffffffffffffffffffffffffffff82169050919050565b6000819050919050565b82818337600083830152505050565b60005b838110156159d85780820151818401526020810190506159bd565b838111156159e7576000848401525b50505050565b60006002820490506001821680615a0557607f821691505b60208210811415615a1957615a18615a97565b5b50919050565b6000615a2a826159a1565b91507fffffffffffffffffffffffffffffffffffffffffffffffffffffffffffffffff821415615a5d57615a5c615a68565b5b600182019050919050565b7f4e487b7100000000000000000000000000000000000000000000000000000000600052601160045260246000fd5b7f4e487b7100000000000000000000000000000000000000000000000000000000600052602260045260246000fd5b7f4e487b7100000000000000000000000000000000000000000000000000000000600052604160045260246000fd5b6000601f19601f8301169050919050565b615b0f81615959565b8114615b1a57600080fd5b50565b615b26816159a1565b8114615b3157600080fd5b5056fea26469706673582212204abcd30a1e2562f11e35a45ca5deb7db6cab38705106ec7afe51f94f136a97b264736f6c63430008000033",
  "immutableReferences": {},
  "source": "// SPDX-License-Identifier: MIT\r\n\r\npragma solidity >=0.4.22 <0.9.0;\r\n\r\ncontract meDossier{\r\n    \r\n    uint256 public pindex=0;\r\n    uint256 public dindex=0;\r\n    \r\n    struct Records {\r\n    string dname;\r\n    string reason;\r\n    string visitedDate;\r\n    string ipfs;\r\n    }\r\n\r\n    struct doctor {\r\n        uint256 id;\r\n        string name;\r\n        string contact;\r\n        string hname;\r\n        string faculty;\r\n        address addr;\r\n        uint256 licenseno;\r\n        bool isApproved;\r\n    }\r\n    \r\n    struct patient{\r\n        uint256 id;\r\n        string name;\r\n        string phone;\r\n        string gender;\r\n        string dob;\r\n        string bloodgroup;\r\n        Records[] records;\r\n        address addr;\r\n    }\r\n    address[] private patientList;\r\n    address[] public doctorList;\r\n    uint256 [] public registeredDoctorList;\r\n    address public  owner;\r\n\r\n    mapping(address=>patient) patients;\r\n    mapping(address=>doctor) doctors;\r\n    mapping(address=>bool) isPatient;\r\n    mapping(address=>bool) isDoctor;\r\n    mapping(address=>mapping(address=>bool)) Authorized;\r\n    mapping(string=>mapping(uint256=>bool)) Registered;\r\n    \r\n    \r\n    constructor() {\r\n        owner = msg.sender;\r\n        \r\n    }\r\n    \r\n     //identity the user \r\n     function user(address addr) public view returns (int success){\r\n        if(isDoctor[addr]==true){\r\n            return 0;\r\n        }\r\n        else if(isPatient[addr]==true){\r\n            return 1;\r\n        }\r\n        else if(addr==owner){\r\n            return 2;\r\n        }\r\n        else{\r\n            return 3;\r\n        }\r\n    }\r\n    \r\n    function getPatientList() public view returns (address[] memory) {\r\n    return patientList;\r\n    }\r\n\r\n\r\n    //Register the doctor by certain authority\r\n    function registerDoctor(string memory docname, uint256 license) public {\r\n        require(msg.sender==owner,\"You are not allowed to register doctor!\");\r\n        Registered[docname][license] = true;\r\n        registeredDoctorList.push(license);\r\n    \r\n    }\r\n\r\n    function isAuthorized(address pat,address client ) public view returns (bool success){\r\n        return Authorized[pat][client];\r\n    }\r\n    \r\n    //Check whether the doctor is registered or not\r\n     function isRegistered(address addr) public view returns (bool success){\r\n        doctor memory doc = doctors[addr];\r\n        return Registered[doc.name][doc.licenseno];\r\n    }\r\n    \r\n\r\n//Add terecords of the patient\r\n    function addRecord(string memory _dname,string memory _reason,string memory _visitedDate,string memory _ipfs, address addr) public{\r\n        require(isPatient[addr],\"No patient found at the given address\");\r\n        \r\n        if(Authorized[addr][msg.sender]){\r\n                patients[addr].records.push(Records(_dname,_reason,_visitedDate,_ipfs));\r\n        }\r\n        else \r\n        revert(\"Record cannot be added \");\r\n       \r\n       \r\n        // require(Authorized[addr][msg.sender],\"You do not have permission to add records!\");\r\n        // require(isPatient[addr],\"User Not registered\");\r\n        // patients[addr].records.push(Records(_dname,_reason,_visitedDate,_ipfs));\r\n    }\r\n    \r\n    //add the patient to the blockchain\r\n    function addPatient(string memory _name,string memory _phone,string memory _gender,string memory _dob,string memory _bloodgroup) public {\r\n        require(!isPatient[msg.sender],\"Already Patient account exists\");\r\n        require(bytes(_name).length>0);\r\n        require(bytes(_phone).length>0);\r\n        require(bytes(_gender).length>0);\r\n        require(bytes(_dob).length>0);\r\n        require(bytes(_bloodgroup).length>0);        \r\n        patientList.push(msg.sender);\r\n        pindex = pindex + 1;\r\n        isPatient[msg.sender]=true;\r\n        patients[msg.sender].id=pindex;\r\n        patients[msg.sender].name=_name;\r\n        patients[msg.sender].phone=_phone;\r\n        patients[msg.sender].gender=_gender;\r\n        patients[msg.sender].dob=_dob;\r\n        patients[msg.sender].bloodgroup=_bloodgroup;\r\n        patients[msg.sender].addr=msg.sender;\r\n        \r\n    }\r\n    \r\n    //get the details of the patients\r\n    function getPatientDetails(address _addr) public view returns(string memory _name,string memory _phone,string memory _gender,string memory _dob,string memory _bloodgroup){\r\n        require(isPatient[_addr],\"No Patients found at the given address\");\r\n        patient memory pat = patients[_addr];\r\n        return (pat.name,pat.phone,pat.gender,pat.dob,pat.bloodgroup);\r\n    }\r\n\r\nfunction getAllPatients() public view returns (\r\n    uint256[] memory ids,\r\n    address[] memory addresses,\r\n    string[] memory names,\r\n    string[] memory phones,\r\n    string[] memory genders,\r\n    string[] memory dobs,\r\n    string[] memory bloodgroups\r\n) {\r\n    uint256 totalPatients = patientList.length;\r\n    ids = new uint256[](totalPatients);\r\n    addresses = new address[](totalPatients);\r\n    names = new string[](totalPatients);\r\n    phones = new string[](totalPatients);\r\n    genders = new string[](totalPatients);\r\n    dobs = new string[](totalPatients);\r\n    bloodgroups = new string[](totalPatients);\r\n\r\n    for (uint256 i = 0; i < totalPatients; i++) {\r\n        address patientAddress = patientList[i];\r\n        patient memory pat = patients[patientAddress];\r\n\r\n        ids[i] = pat.id;\r\n        addresses[i] = patientAddress;\r\n        names[i] = pat.name;\r\n        phones[i] = pat.phone;\r\n        genders[i] = pat.gender;\r\n        dobs[i] = pat.dob;\r\n        bloodgroups[i] = pat.bloodgroup;\r\n    }\r\n}\r\n  //get the length of records of particular address  \r\n     function getrecordlist(address _addr)  public view returns (uint256 ){  \r\n     return (patients[_addr].records.length);\r\n     }\r\n\r\n//get the length of doctor's added in blockchain\r\nfunction getdoctorlist() public view returns(uint256){\r\n        return doctorList.length;\r\n    }\r\n   \r\n   //get the length of registered doctor \r\nfunction getRegisteredDoctorslength() public view returns(uint256){\r\n        return registeredDoctorList.length;\r\n    }\r\n\r\n//\r\nfunction getRegisteredDoctorsList(uint256 id) public view returns(uint256 license){\r\n        return registeredDoctorList[id];\r\n    }\r\n    \r\n//get patients record \r\nfunction getAllPatientRecords(address _addr) \r\n    public view \r\n    returns(\r\n        string[] memory dnames, \r\n        string[] memory reasons, \r\n        string[] memory visitedDates, \r\n        string[] memory ipfsHashes\r\n    ) \r\n{\r\n    require(isPatient[_addr], \"No patient found at the given address\");\r\n    require(Authorized[_addr][msg.sender] || msg.sender == _addr, \"Record cannot be accessed\");\r\n\r\n    uint256 recordCount = patients[_addr].records.length;\r\n    dnames = new string[](recordCount);\r\n    reasons = new string[](recordCount);\r\n    visitedDates = new string[](recordCount);\r\n    ipfsHashes = new string[](recordCount);\r\n\r\n    for (uint256 i = 0; i < recordCount; i++) {\r\n        dnames[i] = patients[_addr].records[i].dname;\r\n        reasons[i] = patients[_addr].records[i].reason;\r\n        visitedDates[i] = patients[_addr].records[i].visitedDate;\r\n        ipfsHashes[i] = patients[_addr].records[i].ipfs;\r\n    }\r\n}\r\n\r\n//add doctor \r\n    function addDoctor(string memory _name,string memory _hname,string memory _faculty,string memory _contact,uint256 license) public {\r\n        require(!isDoctor[msg.sender],\"Already Registered\");\r\n        require(msg.sender != owner,\"Contract owner cannot register as doctor\");\r\n        require(bytes(_name).length>0);\r\n        require(bytes(_hname).length>0);\r\n        require(bytes(_faculty).length>0);\r\n        require(bytes(_contact).length>0);\r\n        require(license>0);  \r\n        address _addr = msg.sender;\r\n        doctorList.push(_addr);\r\n\r\n        dindex = dindex + 1;\r\n        isDoctor[_addr]=true;\r\n        doctors[_addr].name = _name;\r\n        doctors[_addr].contact =_contact;\r\n        doctors[_addr].hname = _hname;\r\n        doctors[_addr].faculty =_faculty; \r\n        doctors[_addr].addr = _addr;\r\n        doctors[_addr].licenseno = license;\r\n        doctors[_addr].isApproved = false;\r\n        \r\n        if (Registered[_name][license] == true){\r\n            doctors[_addr].isApproved = true;\r\n        }\r\n    }\r\n\r\n\r\n    function getAllDoctors() public view returns (\r\n    uint256[] memory ids,\r\n    string[] memory names,\r\n    string[] memory contacts,\r\n    string[] memory hospitals,\r\n    string[] memory faculties,\r\n    address[] memory addresses,\r\n    bool[] memory approvals,\r\n    uint256[] memory licenses\r\n    ) {\r\n        uint256 doctorCount = doctorList.length;\r\n        \r\n        ids = new uint256[](doctorCount);\r\n        names = new string[](doctorCount);\r\n        contacts = new string[](doctorCount);\r\n        hospitals = new string[](doctorCount);\r\n        faculties = new string[](doctorCount);\r\n        addresses = new address[](doctorCount);\r\n        approvals = new bool[](doctorCount);\r\n        licenses = new uint256[](doctorCount);\r\n\r\n        for (uint256 i = 0; i < doctorCount; i++) {\r\n            doctor memory doc = doctors[doctorList[i]];\r\n            ids[i] = doc.id;\r\n            names[i] = doc.name;\r\n            contacts[i] = doc.contact;\r\n            hospitals[i] = doc.hname;\r\n            faculties[i] = doc.faculty;\r\n            addresses[i] = doc.addr;\r\n            approvals[i] = doc.isApproved;\r\n            licenses[i] = doc.licenseno;\r\n        }\r\n    }\r\n//get doctor's details  for verification\r\n    // function getDoctorbyLicense(uint256 license) public view returns(uint256 id, string memory name,string memory hospital, string memory _faculty,address addr,bool isApproved,uint256 licenseno){\r\n       \r\n    //      uint256 i=0;\r\n    //     for(i = 0;i<doctorList.length;i++){\r\n    //     if(doctors[doctorList[i]].licenseno==license){\r\n    //         break;\r\n    //     }\r\n    // }    \r\n    // doctor memory doc = doctors[doctorList[i]];\r\n    // require(isDoctor[doc.addr]==true,\"Doctor hasn't signed up in meDossier\");\r\n    //      require(doc.isApproved==true,\"Doctor is not approved\");\r\n        \r\n        \r\n    //     return (doc.id,doc.name,doc.hname,doc.faculty,doc.addr,doc.isApproved,doc.licenseno) ;\r\n       \r\n    // }\r\n    \r\n//  function getDoctorbyName(string memory _name) public view returns(uint256 id,string memory name , string memory contact ,string memory hname ,string memory faculty ,address addr , bool isApproved,uint256 licenseno)  {\r\n//         uint256 i=0;\r\n//         for(i = 0;i<doctorList.length;i++){\r\n//         if(keccak256(bytes(doctors[doctorList[i]].name)) == keccak256(bytes(_name))){\r\n//             break;\r\n//         }\r\n//     }    \r\n//         require(keccak256(bytes(doctors[doctorList[i]].name)) == keccak256(bytes(_name)),\"Doctor doesn't exists with the given name\");\r\n//         doctor memory doc = doctors[doctorList[i]];\r\n//         return (doc.id,doc.name,doc.contact,doc.hname,doc.faculty,doc.addr, doc.isApproved,doc.licenseno);\r\n//     }\r\n    \r\n\r\n function getDoctorByAddress(address _address) public view returns(uint256 id,string memory name , string memory contact ,string memory hname ,string memory faculty ,address addr , bool isApproved,uint256 licenseno) {\r\n        // require(doctors[_address].isApproved,\"Doctor is not Approved or doesn't exist\");\r\n        doctor memory doc = doctors[_address];\r\n        return (doc.id,doc.name,doc.contact,doc.hname,doc.faculty,doc.addr,doc.isApproved,doc.licenseno);\r\n    } \r\n    \r\n\r\n//Give access to certain address\r\n    function grantAccess(address _addr) public returns (bool success)\r\n    {   require(msg.sender != _addr,\"You cannot add yourself\");\r\n        require(isDoctor[_addr],\"Not registered as doctor\");\r\n        require(!Authorized[msg.sender][_addr],\"User is already authorized\");\r\n        Authorized[msg.sender][_addr] = true;\r\n        return true;\r\n    }\r\n\r\n//Revoke access of patient records from certain address\r\n      function revoke_access(address _addr)  public returns (bool success){\r\n        require(msg.sender!=_addr,\"You can't remove yourself\");\r\n        require(Authorized[msg.sender][_addr],\"User is not authorized yet\");\r\n        Authorized[msg.sender][_addr] = false;\r\n        return true;\r\n    }\r\n\r\n// function doctorLogin() public{\r\n//     if(Registered[doctors[msg.sender].name][doctors[msg.sender].licenseno] == true){\r\n//         doctors[msg.sender].isApproved = true;\r\n//     }\r\n// }\r\n\r\n}",
  "sourcePath": "/Volumes/data/workspace/MedicalApp/contracts/MedicalApp.sol",
  "compiler": {
    "name": "solc",
    "version": "0.8.0+commit.c7dfd78e.Emscripten.clang"
  },
  "schemaVersion": "3.4.16",
  "updatedAt": "2024-12-31T18:24:33.354Z",
  "networkType": "ethereum",
  "devdoc": {
    "kind": "dev",
    "methods": {},
    "version": 1
  },
  "userdoc": {
    "kind": "user",
    "methods": {},
    "version": 1
  }
}