{
  "contractName": "meDossier",
  "abi": [
    {
      "inputs": [],
      "stateMutability": "nonpayable",
      "type": "constructor"
    },
    {
      "inputs": [],
      "name": "dindex",
      "outputs": [
        {
          "internalType": "uint256",
          "name": "",
          "type": "uint256"
        }
      ],
      "stateMutability": "view",
      "type": "function",
      "constant": true
    },
    {
      "inputs": [
        {
          "internalType": "uint256",
          "name": "",
          "type": "uint256"
        }
      ],
      "name": "doctorList",
      "outputs": [
        {
          "internalType": "address",
          "name": "",
          "type": "address"
        }
      ],
      "stateMutability": "view",
      "type": "function",
      "constant": true
    },
    {
      "inputs": [],
      "name": "owner",
      "outputs": [
        {
          "internalType": "address",
          "name": "",
          "type": "address"
        }
      ],
      "stateMutability": "view",
      "type": "function",
      "constant": true
    },
    {
      "inputs": [],
      "name": "pindex",
      "outputs": [
        {
          "internalType": "uint256",
          "name": "",
          "type": "uint256"
        }
      ],
      "stateMutability": "view",
      "type": "function",
      "constant": true
    },
    {
      "inputs": [
        {
          "internalType": "uint256",
          "name": "",
          "type": "uint256"
        }
      ],
      "name": "registeredDoctorList",
      "outputs": [
        {
          "internalType": "uint256",
          "name": "",
          "type": "uint256"
        }
      ],
      "stateMutability": "view",
      "type": "function",
      "constant": true
    },
    {
      "inputs": [
        {
          "internalType": "address",
          "name": "addr",
          "type": "address"
        }
      ],
      "name": "user",
      "outputs": [
        {
          "internalType": "int256",
          "name": "success",
          "type": "int256"
        }
      ],
      "stateMutability": "view",
      "type": "function",
      "constant": true
    },
    {
      "inputs": [],
      "name": "getPatientList",
      "outputs": [
        {
          "internalType": "address[]",
          "name": "",
          "type": "address[]"
        }
      ],
      "stateMutability": "view",
      "type": "function",
      "constant": true
    },
    {
      "inputs": [
        {
          "internalType": "string",
          "name": "docname",
          "type": "string"
        },
        {
          "internalType": "uint256",
          "name": "license",
          "type": "uint256"
        }
      ],
      "name": "registerDoctor",
      "outputs": [],
      "stateMutability": "nonpayable",
      "type": "function"
    },
    {
      "inputs": [
        {
          "internalType": "address",
          "name": "pat",
          "type": "address"
        },
        {
          "internalType": "address",
          "name": "client",
          "type": "address"
        }
      ],
      "name": "isAuthorized",
      "outputs": [
        {
          "internalType": "bool",
          "name": "success",
          "type": "bool"
        }
      ],
      "stateMutability": "view",
      "type": "function",
      "constant": true
    },
    {
      "inputs": [
        {
          "internalType": "address",
          "name": "addr",
          "type": "address"
        }
      ],
      "name": "isRegistered",
      "outputs": [
        {
          "internalType": "bool",
          "name": "success",
          "type": "bool"
        }
      ],
      "stateMutability": "view",
      "type": "function",
      "constant": true
    },
    {
      "inputs": [
        {
          "internalType": "string",
          "name": "_dname",
          "type": "string"
        },
        {
          "internalType": "string",
          "name": "_reason",
          "type": "string"
        },
        {
          "internalType": "string",
          "name": "_visitedDate",
          "type": "string"
        },
        {
          "internalType": "string",
          "name": "_ipfs",
          "type": "string"
        },
        {
          "internalType": "address",
          "name": "addr",
          "type": "address"
        }
      ],
      "name": "addRecord",
      "outputs": [],
      "stateMutability": "nonpayable",
      "type": "function"
    },
    {
      "inputs": [
        {
          "internalType": "string",
          "name": "_name",
          "type": "string"
        },
        {
          "internalType": "string",
          "name": "_phone",
          "type": "string"
        },
        {
          "internalType": "string",
          "name": "_gender",
          "type": "string"
        },
        {
          "internalType": "string",
          "name": "_dob",
          "type": "string"
        },
        {
          "internalType": "string",
          "name": "_bloodgroup",
          "type": "string"
        }
      ],
      "name": "addPatient",
      "outputs": [],
      "stateMutability": "nonpayable",
      "type": "function"
    },
    {
      "inputs": [
        {
          "internalType": "address",
          "name": "_addr",
          "type": "address"
        }
      ],
      "name": "getPatientDetails",
      "outputs": [
        {
          "internalType": "string",
          "name": "_name",
          "type": "string"
        },
        {
          "internalType": "string",
          "name": "_phone",
          "type": "string"
        },
        {
          "internalType": "string",
          "name": "_gender",
          "type": "string"
        },
        {
          "internalType": "string",
          "name": "_dob",
          "type": "string"
        },
        {
          "internalType": "string",
          "name": "_bloodgroup",
          "type": "string"
        }
      ],
      "stateMutability": "view",
      "type": "function",
      "constant": true
    },
    {
      "inputs": [
        {
          "internalType": "address",
          "name": "_addr",
          "type": "address"
        }
      ],
      "name": "getrecordlist",
      "outputs": [
        {
          "internalType": "uint256",
          "name": "",
          "type": "uint256"
        }
      ],
      "stateMutability": "view",
      "type": "function",
      "constant": true
    },
    {
      "inputs": [],
      "name": "getdoctorlist",
      "outputs": [
        {
          "internalType": "uint256",
          "name": "",
          "type": "uint256"
        }
      ],
      "stateMutability": "view",
      "type": "function",
      "constant": true
    },
    {
      "inputs": [],
      "name": "getRegisteredDoctorslength",
      "outputs": [
        {
          "internalType": "uint256",
          "name": "",
          "type": "uint256"
        }
      ],
      "stateMutability": "view",
      "type": "function",
      "constant": true
    },
    {
      "inputs": [
        {
          "internalType": "uint256",
          "name": "id",
          "type": "uint256"
        }
      ],
      "name": "getRegisteredDoctorsList",
      "outputs": [
        {
          "internalType": "uint256",
          "name": "license",
          "type": "uint256"
        }
      ],
      "stateMutability": "view",
      "type": "function",
      "constant": true
    },
    {
      "inputs": [
        {
          "internalType": "address",
          "name": "_addr",
          "type": "address"
        },
        {
          "internalType": "uint256",
          "name": "_id",
          "type": "uint256"
        }
      ],
      "name": "getPatientRecords",
      "outputs": [
        {
          "internalType": "string",
          "name": "dname",
          "type": "string"
        },
        {
          "internalType": "string",
          "name": "reason",
          "type": "string"
        },
        {
          "internalType": "string",
          "name": "visitedDate",
          "type": "string"
        },
        {
          "internalType": "string",
          "name": "ipfs",
          "type": "string"
        }
      ],
      "stateMutability": "view",
      "type": "function",
      "constant": true
    },
    {
      "inputs": [
        {
          "internalType": "string",
          "name": "_name",
          "type": "string"
        },
        {
          "internalType": "string",
          "name": "_hname",
          "type": "string"
        },
        {
          "internalType": "string",
          "name": "_faculty",
          "type": "string"
        },
        {
          "internalType": "string",
          "name": "_contact",
          "type": "string"
        },
        {
          "internalType": "uint256",
          "name": "license",
          "type": "uint256"
        }
      ],
      "name": "addDoctor",
      "outputs": [],
      "stateMutability": "nonpayable",
      "type": "function"
    },
    {
      "inputs": [
        {
          "internalType": "uint256",
          "name": "license",
          "type": "uint256"
        }
      ],
      "name": "getDoctorbyLicense",
      "outputs": [
        {
          "internalType": "uint256",
          "name": "id",
          "type": "uint256"
        },
        {
          "internalType": "string",
          "name": "name",
          "type": "string"
        },
        {
          "internalType": "string",
          "name": "hospital",
          "type": "string"
        },
        {
          "internalType": "string",
          "name": "_faculty",
          "type": "string"
        },
        {
          "internalType": "address",
          "name": "addr",
          "type": "address"
        },
        {
          "internalType": "bool",
          "name": "isApproved",
          "type": "bool"
        },
        {
          "internalType": "uint256",
          "name": "licenseno",
          "type": "uint256"
        }
      ],
      "stateMutability": "view",
      "type": "function",
      "constant": true
    },
    {
      "inputs": [
        {
          "internalType": "string",
          "name": "_name",
          "type": "string"
        }
      ],
      "name": "getDoctorbyName",
      "outputs": [
        {
          "internalType": "uint256",
          "name": "id",
          "type": "uint256"
        },
        {
          "internalType": "string",
          "name": "name",
          "type": "string"
        },
        {
          "internalType": "string",
          "name": "contact",
          "type": "string"
        },
        {
          "internalType": "string",
          "name": "hname",
          "type": "string"
        },
        {
          "internalType": "string",
          "name": "faculty",
          "type": "string"
        },
        {
          "internalType": "address",
          "name": "addr",
          "type": "address"
        },
        {
          "internalType": "bool",
          "name": "isApproved",
          "type": "bool"
        },
        {
          "internalType": "uint256",
          "name": "licenseno",
          "type": "uint256"
        }
      ],
      "stateMutability": "view",
      "type": "function",
      "constant": true
    },
    {
      "inputs": [
        {
          "internalType": "address",
          "name": "_address",
          "type": "address"
        }
      ],
      "name": "getDoctorByAddress",
      "outputs": [
        {
          "internalType": "uint256",
          "name": "id",
          "type": "uint256"
        },
        {
          "internalType": "string",
          "name": "name",
          "type": "string"
        },
        {
          "internalType": "string",
          "name": "contact",
          "type": "string"
        },
        {
          "internalType": "string",
          "name": "hname",
          "type": "string"
        },
        {
          "internalType": "string",
          "name": "faculty",
          "type": "string"
        },
        {
          "internalType": "address",
          "name": "addr",
          "type": "address"
        },
        {
          "internalType": "bool",
          "name": "isApproved",
          "type": "bool"
        },
        {
          "internalType": "uint256",
          "name": "licenseno",
          "type": "uint256"
        }
      ],
      "stateMutability": "view",
      "type": "function",
      "constant": true
    },
    {
      "inputs": [
        {
          "internalType": "address",
          "name": "_addr",
          "type": "address"
        }
      ],
      "name": "grantAccess",
      "outputs": [
        {
          "internalType": "bool",
          "name": "success",
          "type": "bool"
        }
      ],
      "stateMutability": "nonpayable",
      "type": "function"
    },
    {
      "inputs": [
        {
          "internalType": "address",
          "name": "_addr",
          "type": "address"
        }
      ],
      "name": "revoke_access",
      "outputs": [
        {
          "internalType": "bool",
          "name": "success",
          "type": "bool"
        }
      ],
      "stateMutability": "nonpayable",
      "type": "function"
    },
    {
      "inputs": [],
      "name": "doctorLogin",
      "outputs": [],
      "stateMutability": "nonpayable",
      "type": "function"
    }
  ],
  "bytecode": "0x608060405260008055600060015534801561001957600080fd5b5033600560006101000a81548173ffffffffffffffffffffffffffffffffffffffff021916908373ffffffffffffffffffffffffffffffffffffffff160217905550614edc8061006a6000396000f3fe608060405234801561001057600080fd5b50600436106101735760003560e01c80635ad910ef116100de57806391d4eb8611610097578063b2c3700811610071578063b2c37008146104af578063c3c5a547146104df578063ddf3a7861461050f578063efe2ccc11461052d57610173565b806391d4eb861461042a578063928ed9da14610461578063abec773d1461047f57610173565b80635ad910ef1461033c57806365e4ad9e1461035a57806370333b801461038a5780637ef3530d146103a657806381e7e20e146103dc5780638da5cb5b1461040c57610173565b80632874a75f116101305780632874a75f1461025e578063312625f814610291578063503b1354146102ad5780635658e43b146102cb57806356fa8217146102e957806358c5d4bf1461030557610173565b80630ae5e73914610178578063127ca4b4146101a8578063136bd148146101d85780631b91942d146101f4578063248c6a31146101fe57806327b1dcee1461022e575b600080fd5b610192600480360381019061018d9190613bae565b610561565b60405161019f9190614739565b60405180910390f35b6101c260048036038101906101bd9190613f81565b6107c6565b6040516101cf91906146fc565b60405180910390f35b6101f260048036038101906101ed9190613f2d565b610805565b005b6101fc61090a565b005b61021860048036038101906102139190613bae565b610a34565b6040516102259190614a46565b60405180910390f35b61024860048036038101906102439190613bae565b610a83565b6040516102559190614739565b60405180910390f35b61027860048036038101906102739190613c13565b610c5b565b604051610288949392919061476f565b60405180910390f35b6102ab60048036038101906102a69190613e56565b61125f565b005b6102b56117c2565b6040516102c29190614717565b60405180910390f35b6102d3611850565b6040516102e09190614a46565b60405180910390f35b61030360048036038101906102fe9190613d67565b611856565b005b61031f600480360381019061031a9190613bae565b611c7d565b604051610333989796959493929190614ae5565b60405180910390f35b610344611fe9565b6040516103519190614a46565b60405180910390f35b610374600480360381019061036f9190613bd7565b611ff6565b6040516103819190614739565b60405180910390f35b6103a4600480360381019061039f9190613c90565b61208a565b005b6103c060048036038101906103bb9190613f81565b6122ee565b6040516103d39796959493929190614a61565b60405180910390f35b6103f660048036038101906103f19190613bae565b612877565b6040516104039190614754565b60405180910390f35b6104146129a6565b60405161042191906146fc565b60405180910390f35b610444600480360381019061043f9190613c4f565b6129cc565b604051610458989796959493929190614ae5565b60405180910390f35b610469612f99565b6040516104769190614a46565b60405180910390f35b61049960048036038101906104949190613f81565b612f9f565b6040516104a69190614a46565b60405180910390f35b6104c960048036038101906104c49190613f81565b612fc3565b6040516104d69190614a46565b60405180910390f35b6104f960048036038101906104f49190613bae565b613011565b6040516105069190614739565b60405180910390f35b61051761337b565b6040516105249190614a46565b60405180910390f35b61054760048036038101906105429190613bae565b613388565b6040516105589594939291906147d0565b60405180910390f35b60008173ffffffffffffffffffffffffffffffffffffffff163373ffffffffffffffffffffffffffffffffffffffff1614156105d2576040517f08c379a00000000000000000000000000000000000000000000000000000000081526004016105c990614986565b60405180910390fd5b600960008373ffffffffffffffffffffffffffffffffffffffff1673ffffffffffffffffffffffffffffffffffffffff16815260200190815260200160002060009054906101000a900460ff1661065e576040517f08c379a000000000000000000000000000000000000000000000000000000000815260040161065590614926565b60405180910390fd5b600a60003373ffffffffffffffffffffffffffffffffffffffff1673ffffffffffffffffffffffffffffffffffffffff16815260200190815260200160002060008373ffffffffffffffffffffffffffffffffffffffff1673ffffffffffffffffffffffffffffffffffffffff16815260200190815260200160002060009054906101000a900460ff1615610728576040517f08c379a000000000000000000000000000000000000000000000000000000000815260040161071f906149c6565b60405180910390fd5b6001600a60003373ffffffffffffffffffffffffffffffffffffffff1673ffffffffffffffffffffffffffffffffffffffff16815260200190815260200160002060008473ffffffffffffffffffffffffffffffffffffffff1673ffffffffffffffffffffffffffffffffffffffff16815260200190815260200160002060006101000a81548160ff02191690831515021790555060019050919050565b600381815481106107d657600080fd5b906000526020600020016000915054906101000a900473ffffffffffffffffffffffffffffffffffffffff1681565b600560009054906101000a900473ffffffffffffffffffffffffffffffffffffffff1673ffffffffffffffffffffffffffffffffffffffff163373ffffffffffffffffffffffffffffffffffffffff1614610895576040517f08c379a000000000000000000000000000000000000000000000000000000000815260040161088c90614a26565b60405180910390fd5b6001600b836040516108a791906146ce565b9081526020016040518091039020600083815260200190815260200160002060006101000a81548160ff02191690831515021790555060048190806001815401808255809150506001900390600052602060002001600090919091909150555050565b60011515600b600760003373ffffffffffffffffffffffffffffffffffffffff1673ffffffffffffffffffffffffffffffffffffffff16815260200190815260200160002060010160405161095f91906146e5565b90815260200160405180910390206000600760003373ffffffffffffffffffffffffffffffffffffffff1673ffffffffffffffffffffffffffffffffffffffff16815260200190815260200160002060060154815260200190815260200160002060009054906101000a900460ff1615151415610a32576001600760003373ffffffffffffffffffffffffffffffffffffffff1673ffffffffffffffffffffffffffffffffffffffff16815260200190815260200160002060070160006101000a81548160ff0219169083151502179055505b565b6000600660008373ffffffffffffffffffffffffffffffffffffffff1673ffffffffffffffffffffffffffffffffffffffff168152602001908152602001600020600601805490509050919050565b60008173ffffffffffffffffffffffffffffffffffffffff163373ffffffffffffffffffffffffffffffffffffffff161415610af4576040517f08c379a0000000000000000000000000000000000000000000000000000000008152600401610aeb906148c6565b60405180910390fd5b600a60003373ffffffffffffffffffffffffffffffffffffffff1673ffffffffffffffffffffffffffffffffffffffff16815260200190815260200160002060008373ffffffffffffffffffffffffffffffffffffffff1673ffffffffffffffffffffffffffffffffffffffff16815260200190815260200160002060009054906101000a900460ff16610bbd576040517f08c379a0000000000000000000000000000000000000000000000000000000008152600401610bb490614966565b60405180910390fd5b6000600a60003373ffffffffffffffffffffffffffffffffffffffff1673ffffffffffffffffffffffffffffffffffffffff16815260200190815260200160002060008473ffffffffffffffffffffffffffffffffffffffff1673ffffffffffffffffffffffffffffffffffffffff16815260200190815260200160002060006101000a81548160ff02191690831515021790555060019050919050565b606080606080600860008773ffffffffffffffffffffffffffffffffffffffff1673ffffffffffffffffffffffffffffffffffffffff16815260200190815260200160002060009054906101000a900460ff16610ced576040517f08c379a0000000000000000000000000000000000000000000000000000000008152600401610ce4906149a6565b60405180910390fd5b600a60008773ffffffffffffffffffffffffffffffffffffffff1673ffffffffffffffffffffffffffffffffffffffff16815260200190815260200160002060003373ffffffffffffffffffffffffffffffffffffffff1673ffffffffffffffffffffffffffffffffffffffff16815260200190815260200160002060009054906101000a900460ff1680610dad57508573ffffffffffffffffffffffffffffffffffffffff163373ffffffffffffffffffffffffffffffffffffffff16145b1561121b57600660008773ffffffffffffffffffffffffffffffffffffffff1673ffffffffffffffffffffffffffffffffffffffff1681526020019081526020016000206006018581548110610e2c577f4e487b7100000000000000000000000000000000000000000000000000000000600052603260045260246000fd5b9060005260206000209060040201600001600660008873ffffffffffffffffffffffffffffffffffffffff1673ffffffffffffffffffffffffffffffffffffffff1681526020019081526020016000206006018681548110610eb7577f4e487b7100000000000000000000000000000000000000000000000000000000600052603260045260246000fd5b9060005260206000209060040201600101600660008973ffffffffffffffffffffffffffffffffffffffff1673ffffffffffffffffffffffffffffffffffffffff1681526020019081526020016000206006018781548110610f42577f4e487b7100000000000000000000000000000000000000000000000000000000600052603260045260246000fd5b9060005260206000209060040201600201600660008a73ffffffffffffffffffffffffffffffffffffffff1673ffffffffffffffffffffffffffffffffffffffff1681526020019081526020016000206006018881548110610fcd577f4e487b7100000000000000000000000000000000000000000000000000000000600052603260045260246000fd5b9060005260206000209060040201600301838054610fea90614d5f565b80601f016020809104026020016040519081016040528092919081815260200182805461101690614d5f565b80156110635780601f1061103857610100808354040283529160200191611063565b820191906000526020600020905b81548152906001019060200180831161104657829003601f168201915b5050505050935082805461107690614d5f565b80601f01602080910402602001604051908101604052809291908181526020018280546110a290614d5f565b80156110ef5780601f106110c4576101008083540402835291602001916110ef565b820191906000526020600020905b8154815290600101906020018083116110d257829003601f168201915b5050505050925081805461110290614d5f565b80601f016020809104026020016040519081016040528092919081815260200182805461112e90614d5f565b801561117b5780601f106111505761010080835404028352916020019161117b565b820191906000526020600020905b81548152906001019060200180831161115e57829003601f168201915b5050505050915080805461118e90614d5f565b80601f01602080910402602001604051908101604052809291908181526020018280546111ba90614d5f565b80156112075780601f106111dc57610100808354040283529160200191611207565b820191906000526020600020905b8154815290600101906020018083116111ea57829003601f168201915b505050505090509350935093509350611256565b6040517f08c379a000000000000000000000000000000000000000000000000000000000815260040161124d90614946565b60405180910390fd5b92959194509250565b600960003373ffffffffffffffffffffffffffffffffffffffff1673ffffffffffffffffffffffffffffffffffffffff16815260200190815260200160002060009054906101000a900460ff16156112ec576040517f08c379a00000000000000000000000000000000000000000000000000000000081526004016112e3906148e6565b60405180910390fd5b600560009054906101000a900473ffffffffffffffffffffffffffffffffffffffff1673ffffffffffffffffffffffffffffffffffffffff163373ffffffffffffffffffffffffffffffffffffffff16141561137d576040517f08c379a0000000000000000000000000000000000000000000000000000000008152600401611374906148a6565b60405180910390fd5b600085511161138b57600080fd5b600084511161139957600080fd5b60008351116113a757600080fd5b60008251116113b557600080fd5b600081116113c257600080fd5b60003390506003819080600181540180825580915050600190039060005260206000200160009091909190916101000a81548173ffffffffffffffffffffffffffffffffffffffff021916908373ffffffffffffffffffffffffffffffffffffffff160217905550600180546114389190614c75565b6001819055506001600960008373ffffffffffffffffffffffffffffffffffffffff1673ffffffffffffffffffffffffffffffffffffffff16815260200190815260200160002060006101000a81548160ff02191690831515021790555085600760008373ffffffffffffffffffffffffffffffffffffffff1673ffffffffffffffffffffffffffffffffffffffff16815260200190815260200160002060010190805190602001906114ec929190613a79565b5082600760008373ffffffffffffffffffffffffffffffffffffffff1673ffffffffffffffffffffffffffffffffffffffff1681526020019081526020016000206002019080519060200190611543929190613a79565b5084600760008373ffffffffffffffffffffffffffffffffffffffff1673ffffffffffffffffffffffffffffffffffffffff168152602001908152602001600020600301908051906020019061159a929190613a79565b5083600760008373ffffffffffffffffffffffffffffffffffffffff1673ffffffffffffffffffffffffffffffffffffffff16815260200190815260200160002060040190805190602001906115f1929190613a79565b5080600760008373ffffffffffffffffffffffffffffffffffffffff1673ffffffffffffffffffffffffffffffffffffffff16815260200190815260200160002060050160006101000a81548173ffffffffffffffffffffffffffffffffffffffff021916908373ffffffffffffffffffffffffffffffffffffffff16021790555081600760008373ffffffffffffffffffffffffffffffffffffffff1673ffffffffffffffffffffffffffffffffffffffff168152602001908152602001600020600601819055506000600760008373ffffffffffffffffffffffffffffffffffffffff1673ffffffffffffffffffffffffffffffffffffffff16815260200190815260200160002060070160006101000a81548160ff02191690831515021790555060011515600b8760405161172991906146ce565b9081526020016040518091039020600084815260200190815260200160002060009054906101000a900460ff16151514156117ba576001600760008373ffffffffffffffffffffffffffffffffffffffff1673ffffffffffffffffffffffffffffffffffffffff16815260200190815260200160002060070160006101000a81548160ff0219169083151502179055505b505050505050565b6060600280548060200260200160405190810160405280929190818152602001828054801561184657602002820191906000526020600020905b8160009054906101000a900473ffffffffffffffffffffffffffffffffffffffff1673ffffffffffffffffffffffffffffffffffffffff16815260200190600101908083116117fc575b5050505050905090565b60005481565b600860003373ffffffffffffffffffffffffffffffffffffffff1673ffffffffffffffffffffffffffffffffffffffff16815260200190815260200160002060009054906101000a900460ff16156118e3576040517f08c379a00000000000000000000000000000000000000000000000000000000081526004016118da90614866565b60405180910390fd5b60008551116118f157600080fd5b60008451116118ff57600080fd5b600083511161190d57600080fd5b600082511161191b57600080fd5b600081511161192957600080fd5b6002339080600181540180825580915050600190039060005260206000200160009091909190916101000a81548173ffffffffffffffffffffffffffffffffffffffff021916908373ffffffffffffffffffffffffffffffffffffffff160217905550600160005461199b9190614c75565b6000819055506001600860003373ffffffffffffffffffffffffffffffffffffffff1673ffffffffffffffffffffffffffffffffffffffff16815260200190815260200160002060006101000a81548160ff021916908315150217905550600054600660003373ffffffffffffffffffffffffffffffffffffffff1673ffffffffffffffffffffffffffffffffffffffff1681526020019081526020016000206000018190555084600660003373ffffffffffffffffffffffffffffffffffffffff1673ffffffffffffffffffffffffffffffffffffffff1681526020019081526020016000206001019080519060200190611a98929190613a79565b5083600660003373ffffffffffffffffffffffffffffffffffffffff1673ffffffffffffffffffffffffffffffffffffffff1681526020019081526020016000206002019080519060200190611aef929190613a79565b5082600660003373ffffffffffffffffffffffffffffffffffffffff1673ffffffffffffffffffffffffffffffffffffffff1681526020019081526020016000206003019080519060200190611b46929190613a79565b5081600660003373ffffffffffffffffffffffffffffffffffffffff1673ffffffffffffffffffffffffffffffffffffffff1681526020019081526020016000206004019080519060200190611b9d929190613a79565b5080600660003373ffffffffffffffffffffffffffffffffffffffff1673ffffffffffffffffffffffffffffffffffffffff1681526020019081526020016000206005019080519060200190611bf4929190613a79565b5033600660003373ffffffffffffffffffffffffffffffffffffffff1673ffffffffffffffffffffffffffffffffffffffff16815260200190815260200160002060070160006101000a81548173ffffffffffffffffffffffffffffffffffffffff021916908373ffffffffffffffffffffffffffffffffffffffff1602179055505050505050565b6000606080606080600080600080600760008b73ffffffffffffffffffffffffffffffffffffffff1673ffffffffffffffffffffffffffffffffffffffff1681526020019081526020016000206040518061010001604052908160008201548152602001600182018054611cf090614d5f565b80601f0160208091040260200160405190810160405280929190818152602001828054611d1c90614d5f565b8015611d695780601f10611d3e57610100808354040283529160200191611d69565b820191906000526020600020905b815481529060010190602001808311611d4c57829003601f168201915b50505050508152602001600282018054611d8290614d5f565b80601f0160208091040260200160405190810160405280929190818152602001828054611dae90614d5f565b8015611dfb5780601f10611dd057610100808354040283529160200191611dfb565b820191906000526020600020905b815481529060010190602001808311611dde57829003601f168201915b50505050508152602001600382018054611e1490614d5f565b80601f0160208091040260200160405190810160405280929190818152602001828054611e4090614d5f565b8015611e8d5780601f10611e6257610100808354040283529160200191611e8d565b820191906000526020600020905b815481529060010190602001808311611e7057829003601f168201915b50505050508152602001600482018054611ea690614d5f565b80601f0160208091040260200160405190810160405280929190818152602001828054611ed290614d5f565b8015611f1f5780601f10611ef457610100808354040283529160200191611f1f565b820191906000526020600020905b815481529060010190602001808311611f0257829003601f168201915b505050505081526020016005820160009054906101000a900473ffffffffffffffffffffffffffffffffffffffff1673ffffffffffffffffffffffffffffffffffffffff1673ffffffffffffffffffffffffffffffffffffffff168152602001600682015481526020016007820160009054906101000a900460ff1615151515815250509050806000015181602001518260400151836060015184608001518560a001518660e001518760c001519850985098509850985098509850985050919395975091939597565b6000600380549050905090565b6000600a60008473ffffffffffffffffffffffffffffffffffffffff1673ffffffffffffffffffffffffffffffffffffffff16815260200190815260200160002060008373ffffffffffffffffffffffffffffffffffffffff1673ffffffffffffffffffffffffffffffffffffffff16815260200190815260200160002060009054906101000a900460ff16905092915050565b600860008273ffffffffffffffffffffffffffffffffffffffff1673ffffffffffffffffffffffffffffffffffffffff16815260200190815260200160002060009054906101000a900460ff16612116576040517f08c379a000000000000000000000000000000000000000000000000000000000815260040161210d906149a6565b60405180910390fd5b600a60008273ffffffffffffffffffffffffffffffffffffffff1673ffffffffffffffffffffffffffffffffffffffff16815260200190815260200160002060003373ffffffffffffffffffffffffffffffffffffffff1673ffffffffffffffffffffffffffffffffffffffff16815260200190815260200160002060009054906101000a900460ff16156122ac57600660008273ffffffffffffffffffffffffffffffffffffffff1673ffffffffffffffffffffffffffffffffffffffff1681526020019081526020016000206006016040518060800160405280878152602001868152602001858152602001848152509080600181540180825580915050600190039060005260206000209060040201600090919091909150600082015181600001908051906020019061224d929190613a79565b50602082015181600101908051906020019061226a929190613a79565b506040820151816002019080519060200190612287929190613a79565b5060608201518160030190805190602001906122a4929190613a79565b5050506122e7565b6040517f08c379a00000000000000000000000000000000000000000000000000000000081526004016122de90614a06565b60405180910390fd5b5050505050565b6000606080606060008060008060009050600090505b6003805490508110156123d757886007600060038481548110612350577f4e487b7100000000000000000000000000000000000000000000000000000000600052603260045260246000fd5b9060005260206000200160009054906101000a900473ffffffffffffffffffffffffffffffffffffffff1673ffffffffffffffffffffffffffffffffffffffff1673ffffffffffffffffffffffffffffffffffffffff1681526020019081526020016000206006015414156123c4576123d7565b80806123cf90614d91565b915050612304565b60006007600060038481548110612417577f4e487b7100000000000000000000000000000000000000000000000000000000600052603260045260246000fd5b9060005260206000200160009054906101000a900473ffffffffffffffffffffffffffffffffffffffff1673ffffffffffffffffffffffffffffffffffffffff1673ffffffffffffffffffffffffffffffffffffffff16815260200190815260200160002060405180610100016040529081600082015481526020016001820180546124a290614d5f565b80601f01602080910402602001604051908101604052809291908181526020018280546124ce90614d5f565b801561251b5780601f106124f05761010080835404028352916020019161251b565b820191906000526020600020905b8154815290600101906020018083116124fe57829003601f168201915b5050505050815260200160028201805461253490614d5f565b80601f016020809104026020016040519081016040528092919081815260200182805461256090614d5f565b80156125ad5780601f10612582576101008083540402835291602001916125ad565b820191906000526020600020905b81548152906001019060200180831161259057829003601f168201915b505050505081526020016003820180546125c690614d5f565b80601f01602080910402602001604051908101604052809291908181526020018280546125f290614d5f565b801561263f5780601f106126145761010080835404028352916020019161263f565b820191906000526020600020905b81548152906001019060200180831161262257829003601f168201915b5050505050815260200160048201805461265890614d5f565b80601f016020809104026020016040519081016040528092919081815260200182805461268490614d5f565b80156126d15780601f106126a6576101008083540402835291602001916126d1565b820191906000526020600020905b8154815290600101906020018083116126b457829003601f168201915b505050505081526020016005820160009054906101000a900473ffffffffffffffffffffffffffffffffffffffff1673ffffffffffffffffffffffffffffffffffffffff1673ffffffffffffffffffffffffffffffffffffffff168152602001600682015481526020016007820160009054906101000a900460ff161515151581525050905060011515600960008360a0015173ffffffffffffffffffffffffffffffffffffffff1673ffffffffffffffffffffffffffffffffffffffff16815260200190815260200160002060009054906101000a900460ff161515146127ee576040517f08c379a00000000000000000000000000000000000000000000000000000000081526004016127e590614886565b60405180910390fd5b600115158160e00151151514612839576040517f08c379a000000000000000000000000000000000000000000000000000000000815260040161283090614846565b60405180910390fd5b80600001518160200151826060015183608001518460a001518560e001518660c0015198509850985098509850985098505050919395979092949650565b600060011515600960008473ffffffffffffffffffffffffffffffffffffffff1673ffffffffffffffffffffffffffffffffffffffff16815260200190815260200160002060009054906101000a900460ff16151514156128db57600090506129a1565b60011515600860008473ffffffffffffffffffffffffffffffffffffffff1673ffffffffffffffffffffffffffffffffffffffff16815260200190815260200160002060009054906101000a900460ff161515141561293d57600190506129a1565b600560009054906101000a900473ffffffffffffffffffffffffffffffffffffffff1673ffffffffffffffffffffffffffffffffffffffff168273ffffffffffffffffffffffffffffffffffffffff16141561299c57600290506129a1565b600390505b919050565b600560009054906101000a900473ffffffffffffffffffffffffffffffffffffffff1681565b600060608060608060008060008060009050600090505b600380549050811015612ad15789805190602001206007600060038481548110612a36577f4e487b7100000000000000000000000000000000000000000000000000000000600052603260045260246000fd5b9060005260206000200160009054906101000a900473ffffffffffffffffffffffffffffffffffffffff1673ffffffffffffffffffffffffffffffffffffffff1673ffffffffffffffffffffffffffffffffffffffff168152602001908152602001600020600101604051612aab91906146b7565b60405180910390201415612abe57612ad1565b8080612ac990614d91565b9150506129e3565b89805190602001206007600060038481548110612b17577f4e487b7100000000000000000000000000000000000000000000000000000000600052603260045260246000fd5b9060005260206000200160009054906101000a900473ffffffffffffffffffffffffffffffffffffffff1673ffffffffffffffffffffffffffffffffffffffff1673ffffffffffffffffffffffffffffffffffffffff168152602001908152602001600020600101604051612b8c91906146b7565b604051809103902014612bd4576040517f08c379a0000000000000000000000000000000000000000000000000000000008152600401612bcb906149e6565b60405180910390fd5b60006007600060038481548110612c14577f4e487b7100000000000000000000000000000000000000000000000000000000600052603260045260246000fd5b9060005260206000200160009054906101000a900473ffffffffffffffffffffffffffffffffffffffff1673ffffffffffffffffffffffffffffffffffffffff1673ffffffffffffffffffffffffffffffffffffffff1681526020019081526020016000206040518061010001604052908160008201548152602001600182018054612c9f90614d5f565b80601f0160208091040260200160405190810160405280929190818152602001828054612ccb90614d5f565b8015612d185780601f10612ced57610100808354040283529160200191612d18565b820191906000526020600020905b815481529060010190602001808311612cfb57829003601f168201915b50505050508152602001600282018054612d3190614d5f565b80601f0160208091040260200160405190810160405280929190818152602001828054612d5d90614d5f565b8015612daa5780601f10612d7f57610100808354040283529160200191612daa565b820191906000526020600020905b815481529060010190602001808311612d8d57829003601f168201915b50505050508152602001600382018054612dc390614d5f565b80601f0160208091040260200160405190810160405280929190818152602001828054612def90614d5f565b8015612e3c5780601f10612e1157610100808354040283529160200191612e3c565b820191906000526020600020905b815481529060010190602001808311612e1f57829003601f168201915b50505050508152602001600482018054612e5590614d5f565b80601f0160208091040260200160405190810160405280929190818152602001828054612e8190614d5f565b8015612ece5780601f10612ea357610100808354040283529160200191612ece565b820191906000526020600020905b815481529060010190602001808311612eb157829003601f168201915b505050505081526020016005820160009054906101000a900473ffffffffffffffffffffffffffffffffffffffff1673ffffffffffffffffffffffffffffffffffffffff1673ffffffffffffffffffffffffffffffffffffffff168152602001600682015481526020016007820160009054906101000a900460ff1615151515815250509050806000015181602001518260400151836060015184608001518560a001518660e001518760c00151995099509950995099509950995099505050919395975091939597565b60015481565b60048181548110612faf57600080fd5b906000526020600020016000915090505481565b600060048281548110612fff577f4e487b7100000000000000000000000000000000000000000000000000000000600052603260045260246000fd5b90600052602060002001549050919050565b600080600760008473ffffffffffffffffffffffffffffffffffffffff1673ffffffffffffffffffffffffffffffffffffffff168152602001908152602001600020604051806101000160405290816000820154815260200160018201805461307990614d5f565b80601f01602080910402602001604051908101604052809291908181526020018280546130a590614d5f565b80156130f25780601f106130c7576101008083540402835291602001916130f2565b820191906000526020600020905b8154815290600101906020018083116130d557829003601f168201915b5050505050815260200160028201805461310b90614d5f565b80601f016020809104026020016040519081016040528092919081815260200182805461313790614d5f565b80156131845780601f1061315957610100808354040283529160200191613184565b820191906000526020600020905b81548152906001019060200180831161316757829003601f168201915b5050505050815260200160038201805461319d90614d5f565b80601f01602080910402602001604051908101604052809291908181526020018280546131c990614d5f565b80156132165780601f106131eb57610100808354040283529160200191613216565b820191906000526020600020905b8154815290600101906020018083116131f957829003601f168201915b5050505050815260200160048201805461322f90614d5f565b80601f016020809104026020016040519081016040528092919081815260200182805461325b90614d5f565b80156132a85780601f1061327d576101008083540402835291602001916132a8565b820191906000526020600020905b81548152906001019060200180831161328b57829003601f168201915b505050505081526020016005820160009054906101000a900473ffffffffffffffffffffffffffffffffffffffff1673ffffffffffffffffffffffffffffffffffffffff1673ffffffffffffffffffffffffffffffffffffffff168152602001600682015481526020016007820160009054906101000a900460ff1615151515815250509050600b816020015160405161334291906146ce565b908152602001604051809103902060008260c00151815260200190815260200160002060009054906101000a900460ff16915050919050565b6000600480549050905090565b6060806060806060600860008773ffffffffffffffffffffffffffffffffffffffff1673ffffffffffffffffffffffffffffffffffffffff16815260200190815260200160002060009054906101000a900460ff1661341c576040517f08c379a000000000000000000000000000000000000000000000000000000000815260040161341390614906565b60405180910390fd5b6000600660008873ffffffffffffffffffffffffffffffffffffffff1673ffffffffffffffffffffffffffffffffffffffff168152602001908152602001600020604051806101000160405290816000820154815260200160018201805461348390614d5f565b80601f01602080910402602001604051908101604052809291908181526020018280546134af90614d5f565b80156134fc5780601f106134d1576101008083540402835291602001916134fc565b820191906000526020600020905b8154815290600101906020018083116134df57829003601f168201915b5050505050815260200160028201805461351590614d5f565b80601f016020809104026020016040519081016040528092919081815260200182805461354190614d5f565b801561358e5780601f106135635761010080835404028352916020019161358e565b820191906000526020600020905b81548152906001019060200180831161357157829003601f168201915b505050505081526020016003820180546135a790614d5f565b80601f01602080910402602001604051908101604052809291908181526020018280546135d390614d5f565b80156136205780601f106135f557610100808354040283529160200191613620565b820191906000526020600020905b81548152906001019060200180831161360357829003601f168201915b5050505050815260200160048201805461363990614d5f565b80601f016020809104026020016040519081016040528092919081815260200182805461366590614d5f565b80156136b25780601f10613687576101008083540402835291602001916136b2565b820191906000526020600020905b81548152906001019060200180831161369557829003601f168201915b505050505081526020016005820180546136cb90614d5f565b80601f01602080910402602001604051908101604052809291908181526020018280546136f790614d5f565b80156137445780601f1061371957610100808354040283529160200191613744565b820191906000526020600020905b81548152906001019060200180831161372757829003601f168201915b5050505050815260200160068201805480602002602001604051908101604052809291908181526020016000905b828210156139ec57838290600052602060002090600402016040518060800160405290816000820180546137a590614d5f565b80601f01602080910402602001604051908101604052809291908181526020018280546137d190614d5f565b801561381e5780601f106137f35761010080835404028352916020019161381e565b820191906000526020600020905b81548152906001019060200180831161380157829003601f168201915b5050505050815260200160018201805461383790614d5f565b80601f016020809104026020016040519081016040528092919081815260200182805461386390614d5f565b80156138b05780601f10613885576101008083540402835291602001916138b0565b820191906000526020600020905b81548152906001019060200180831161389357829003601f168201915b505050505081526020016002820180546138c990614d5f565b80601f01602080910402602001604051908101604052809291908181526020018280546138f590614d5f565b80156139425780601f1061391757610100808354040283529160200191613942565b820191906000526020600020905b81548152906001019060200180831161392557829003601f168201915b5050505050815260200160038201805461395b90614d5f565b80601f016020809104026020016040519081016040528092919081815260200182805461398790614d5f565b80156139d45780601f106139a9576101008083540402835291602001916139d4565b820191906000526020600020905b8154815290600101906020018083116139b757829003601f168201915b50505050508152505081526020019060010190613772565b5050505081526020016007820160009054906101000a900473ffffffffffffffffffffffffffffffffffffffff1673ffffffffffffffffffffffffffffffffffffffff1673ffffffffffffffffffffffffffffffffffffffff1681525050905080602001518160400151826060015183608001518460a00151955095509550955095505091939590929450565b828054613a8590614d5f565b90600052602060002090601f016020900481019282613aa75760008555613aee565b82601f10613ac057805160ff1916838001178555613aee565b82800160010185558215613aee579182015b82811115613aed578251825591602001919060010190613ad2565b5b509050613afb9190613aff565b5090565b5b80821115613b18576000816000905550600101613b00565b5090565b6000613b2f613b2a84614bb0565b614b7f565b905082815260208101848484011115613b4757600080fd5b613b52848285614d1d565b509392505050565b600081359050613b6981614e78565b92915050565b600082601f830112613b8057600080fd5b8135613b90848260208601613b1c565b91505092915050565b600081359050613ba881614e8f565b92915050565b600060208284031215613bc057600080fd5b6000613bce84828501613b5a565b91505092915050565b60008060408385031215613bea57600080fd5b6000613bf885828601613b5a565b9250506020613c0985828601613b5a565b9150509250929050565b60008060408385031215613c2657600080fd5b6000613c3485828601613b5a565b9250506020613c4585828601613b99565b9150509250929050565b600060208284031215613c6157600080fd5b600082013567ffffffffffffffff811115613c7b57600080fd5b613c8784828501613b6f565b91505092915050565b600080600080600060a08688031215613ca857600080fd5b600086013567ffffffffffffffff811115613cc257600080fd5b613cce88828901613b6f565b955050602086013567ffffffffffffffff811115613ceb57600080fd5b613cf788828901613b6f565b945050604086013567ffffffffffffffff811115613d1457600080fd5b613d2088828901613b6f565b935050606086013567ffffffffffffffff811115613d3d57600080fd5b613d4988828901613b6f565b9250506080613d5a88828901613b5a565b9150509295509295909350565b600080600080600060a08688031215613d7f57600080fd5b600086013567ffffffffffffffff811115613d9957600080fd5b613da588828901613b6f565b955050602086013567ffffffffffffffff811115613dc257600080fd5b613dce88828901613b6f565b945050604086013567ffffffffffffffff811115613deb57600080fd5b613df788828901613b6f565b935050606086013567ffffffffffffffff811115613e1457600080fd5b613e2088828901613b6f565b925050608086013567ffffffffffffffff811115613e3d57600080fd5b613e4988828901613b6f565b9150509295509295909350565b600080600080600060a08688031215613e6e57600080fd5b600086013567ffffffffffffffff811115613e8857600080fd5b613e9488828901613b6f565b955050602086013567ffffffffffffffff811115613eb157600080fd5b613ebd88828901613b6f565b945050604086013567ffffffffffffffff811115613eda57600080fd5b613ee688828901613b6f565b935050606086013567ffffffffffffffff811115613f0357600080fd5b613f0f88828901613b6f565b9250506080613f2088828901613b99565b9150509295509295909350565b60008060408385031215613f4057600080fd5b600083013567ffffffffffffffff811115613f5a57600080fd5b613f6685828601613b6f565b9250506020613f7785828601613b99565b9150509250929050565b600060208284031215613f9357600080fd5b6000613fa184828501613b99565b91505092915050565b6000613fb68383613fc2565b60208301905092915050565b613fcb81614ccb565b82525050565b613fda81614ccb565b82525050565b6000613feb82614c1a565b613ff58185614c3d565b935061400083614be0565b8060005b838110156140315781516140188882613faa565b975061402383614c30565b925050600181019050614004565b5085935050505092915050565b61404781614cdd565b82525050565b6000815461405a81614d5f565b6140648186614c4e565b9450600182166000811461407f5760018114614090576140c3565b60ff198316865281860193506140c3565b61409985614bf0565b60005b838110156140bb5781548189015260018201915060208101905061409c565b838801955050505b50505092915050565b6140d581614ce9565b82525050565b60006140e682614c25565b6140f08185614c59565b9350614100818560208601614d2c565b61410981614e67565b840191505092915050565b600061411f82614c25565b6141298185614c6a565b9350614139818560208601614d2c565b80840191505092915050565b6000815461415281614d5f565b61415c8186614c6a565b945060018216600081146141775760018114614188576141bb565b60ff198316865281860193506141bb565b61419185614c05565b60005b838110156141b357815481890152600182019150602081019050614194565b838801955050505b50505092915050565b60006141d1601683614c59565b91507f446f63746f72206973206e6f7420617070726f766564000000000000000000006000830152602082019050919050565b6000614211601e83614c59565b91507f416c72656164792050617469656e74206163636f756e742065786973747300006000830152602082019050919050565b6000614251602483614c59565b91507f446f63746f72206861736e2774207369676e656420757020696e206d65446f7360008301527f73696572000000000000000000000000000000000000000000000000000000006020830152604082019050919050565b60006142b7602883614c59565b91507f436f6e7472616374206f776e65722063616e6e6f74207265676973746572206160008301527f7320646f63746f720000000000000000000000000000000000000000000000006020830152604082019050919050565b600061431d601983614c59565b91507f596f752063616e27742072656d6f766520796f757273656c66000000000000006000830152602082019050919050565b600061435d601283614c59565b91507f416c7265616479205265676973746572656400000000000000000000000000006000830152602082019050919050565b600061439d602683614c59565b91507f4e6f2050617469656e747320666f756e642061742074686520676976656e206160008301527f64647265737300000000000000000000000000000000000000000000000000006020830152604082019050919050565b6000614403601883614c59565b91507f4e6f74207265676973746572656420617320646f63746f7200000000000000006000830152602082019050919050565b6000614443601983614c59565b91507f5265636f72642063616e6e6f74206265206163636573736564000000000000006000830152602082019050919050565b6000614483601a83614c59565b91507f55736572206973206e6f7420617574686f72697a6564207965740000000000006000830152602082019050919050565b60006144c3601783614c59565b91507f596f752063616e6e6f742061646420796f757273656c660000000000000000006000830152602082019050919050565b6000614503602583614c59565b91507f4e6f2070617469656e7420666f756e642061742074686520676976656e20616460008301527f64726573730000000000000000000000000000000000000000000000000000006020830152604082019050919050565b6000614569601a83614c59565b91507f5573657220697320616c726561647920617574686f72697a65640000000000006000830152602082019050919050565b60006145a9602983614c59565b91507f446f63746f7220646f65736e277420657869737473207769746820746865206760008301527f6976656e206e616d6500000000000000000000000000000000000000000000006020830152604082019050919050565b600061460f601783614c59565b91507f5265636f72642063616e6e6f74206265206164646564200000000000000000006000830152602082019050919050565b600061464f602783614c59565b91507f596f7520617265206e6f7420616c6c6f77656420746f2072656769737465722060008301527f646f63746f7221000000000000000000000000000000000000000000000000006020830152604082019050919050565b6146b181614d13565b82525050565b60006146c3828461404d565b915081905092915050565b60006146da8284614114565b915081905092915050565b60006146f18284614145565b915081905092915050565b60006020820190506147116000830184613fd1565b92915050565b600060208201905081810360008301526147318184613fe0565b905092915050565b600060208201905061474e600083018461403e565b92915050565b600060208201905061476960008301846140cc565b92915050565b6000608082019050818103600083015261478981876140db565b9050818103602083015261479d81866140db565b905081810360408301526147b181856140db565b905081810360608301526147c581846140db565b905095945050505050565b600060a08201905081810360008301526147ea81886140db565b905081810360208301526147fe81876140db565b9050818103604083015261481281866140db565b9050818103606083015261482681856140db565b9050818103608083015261483a81846140db565b90509695505050505050565b6000602082019050818103600083015261485f816141c4565b9050919050565b6000602082019050818103600083015261487f81614204565b9050919050565b6000602082019050818103600083015261489f81614244565b9050919050565b600060208201905081810360008301526148bf816142aa565b9050919050565b600060208201905081810360008301526148df81614310565b9050919050565b600060208201905081810360008301526148ff81614350565b9050919050565b6000602082019050818103600083015261491f81614390565b9050919050565b6000602082019050818103600083015261493f816143f6565b9050919050565b6000602082019050818103600083015261495f81614436565b9050919050565b6000602082019050818103600083015261497f81614476565b9050919050565b6000602082019050818103600083015261499f816144b6565b9050919050565b600060208201905081810360008301526149bf816144f6565b9050919050565b600060208201905081810360008301526149df8161455c565b9050919050565b600060208201905081810360008301526149ff8161459c565b9050919050565b60006020820190508181036000830152614a1f81614602565b9050919050565b60006020820190508181036000830152614a3f81614642565b9050919050565b6000602082019050614a5b60008301846146a8565b92915050565b600060e082019050614a76600083018a6146a8565b8181036020830152614a8881896140db565b90508181036040830152614a9c81886140db565b90508181036060830152614ab081876140db565b9050614abf6080830186613fd1565b614acc60a083018561403e565b614ad960c08301846146a8565b98975050505050505050565b600061010082019050614afb600083018b6146a8565b8181036020830152614b0d818a6140db565b90508181036040830152614b2181896140db565b90508181036060830152614b3581886140db565b90508181036080830152614b4981876140db565b9050614b5860a0830186613fd1565b614b6560c083018561403e565b614b7260e08301846146a8565b9998505050505050505050565b6000604051905081810181811067ffffffffffffffff82111715614ba657614ba5614e38565b5b8060405250919050565b600067ffffffffffffffff821115614bcb57614bca614e38565b5b601f19601f8301169050602081019050919050565b6000819050602082019050919050565b60008190508160005260206000209050919050565b60008190508160005260206000209050919050565b600081519050919050565b600081519050919050565b6000602082019050919050565b600082825260208201905092915050565b600081905092915050565b600082825260208201905092915050565b600081905092915050565b6000614c8082614d13565b9150614c8b83614d13565b9250827fffffffffffffffffffffffffffffffffffffffffffffffffffffffffffffffff03821115614cc057614cbf614dda565b5b828201905092915050565b6000614cd682614cf3565b9050919050565b60008115159050919050565b6000819050919050565b600073ffffffffffffffffffffffffffffffffffffffff82169050919050565b6000819050919050565b82818337600083830152505050565b60005b83811015614d4a578082015181840152602081019050614d2f565b83811115614d59576000848401525b50505050565b60006002820490506001821680614d7757607f821691505b60208210811415614d8b57614d8a614e09565b5b50919050565b6000614d9c82614d13565b91507fffffffffffffffffffffffffffffffffffffffffffffffffffffffffffffffff821415614dcf57614dce614dda565b5b600182019050919050565b7f4e487b7100000000000000000000000000000000000000000000000000000000600052601160045260246000fd5b7f4e487b7100000000000000000000000000000000000000000000000000000000600052602260045260246000fd5b7f4e487b7100000000000000000000000000000000000000000000000000000000600052604160045260246000fd5b6000601f19601f8301169050919050565b614e8181614ccb565b8114614e8c57600080fd5b50565b614e9881614d13565b8114614ea357600080fd5b5056fea2646970667358221220da16ccfb4405d62f7028ba4be5077154bced9dd6d18045636309810c14b9911564736f6c63430008000033",
  "immutableReferences": {},
  "source": "// SPDX-License-Identifier: MIT\r\n\r\npragma solidity >=0.4.22 <0.9.0;\r\n\r\ncontract meDossier{\r\n    \r\n    uint256 public pindex=0;\r\n    uint256 public dindex=0;\r\n    \r\n    struct Records {\r\n    string dname;\r\n    string reason;\r\n    string visitedDate;\r\n    string ipfs;\r\n    }\r\n\r\n    struct doctor {\r\n        uint256 id;\r\n        string name;\r\n        string contact;\r\n        string hname;\r\n        string faculty;\r\n        address addr;\r\n        uint256 licenseno;\r\n        bool isApproved;\r\n    }\r\n    \r\n    struct patient{\r\n        uint256 id;\r\n        string name;\r\n        string phone;\r\n        string gender;\r\n        string dob;\r\n        string bloodgroup;\r\n        Records[] records;\r\n        address addr;\r\n    }\r\n    address[] private patientList;\r\n    address[] public doctorList;\r\n    uint256 [] public registeredDoctorList;\r\n    address public  owner;\r\n\r\n    mapping(address=>patient) patients;\r\n    mapping(address=>doctor) doctors;\r\n    mapping(address=>bool) isPatient;\r\n    mapping(address=>bool) isDoctor;\r\n    mapping(address=>mapping(address=>bool)) Authorized;\r\n    mapping(string=>mapping(uint256=>bool)) Registered;\r\n    \r\n    \r\n    constructor() public {\r\n        owner = msg.sender;\r\n        \r\n    }\r\n    \r\n     //identity the user \r\n     function user(address addr) public view returns (int success){\r\n        if(isDoctor[addr]==true){\r\n            return 0;\r\n        }\r\n        else if(isPatient[addr]==true){\r\n            return 1;\r\n        }\r\n        else if(addr==owner){\r\n            return 2;\r\n        }\r\n        else{\r\n            return 3;\r\n        }\r\n    }\r\n    \r\n    function getPatientList() public view returns (address[] memory) {\r\n    return patientList;\r\n    }\r\n\r\n\r\n    //Register the doctor by certain authority\r\n    function registerDoctor(string memory docname, uint256 license) public {\r\n        require(msg.sender==owner,\"You are not allowed to register doctor!\");\r\n        Registered[docname][license] = true;\r\n        registeredDoctorList.push(license);\r\n    \r\n    }\r\n\r\n    function isAuthorized(address pat,address client ) public view returns (bool success){\r\n        return Authorized[pat][client];\r\n    }\r\n    \r\n    //Check whether the doctor is registered or not\r\n     function isRegistered(address addr) public view returns (bool success){\r\n        doctor memory doc = doctors[addr];\r\n        return Registered[doc.name][doc.licenseno];\r\n    }\r\n    \r\n\r\n//Add terecords of the patient\r\n    function addRecord(string memory _dname,string memory _reason,string memory _visitedDate,string memory _ipfs, address addr) public{\r\n        require(isPatient[addr],\"No patient found at the given address\");\r\n        \r\n        if(Authorized[addr][msg.sender]){\r\n                patients[addr].records.push(Records(_dname,_reason,_visitedDate,_ipfs));\r\n        }\r\n        else \r\n        revert(\"Record cannot be added \");\r\n       \r\n       \r\n        // require(Authorized[addr][msg.sender],\"You do not have permission to add records!\");\r\n        // require(isPatient[addr],\"User Not registered\");\r\n        // patients[addr].records.push(Records(_dname,_reason,_visitedDate,_ipfs));\r\n    }\r\n    \r\n    //add the patient to the blockchain\r\n    function addPatient(string memory _name,string memory _phone,string memory _gender,string memory _dob,string memory _bloodgroup) public {\r\n        require(!isPatient[msg.sender],\"Already Patient account exists\");\r\n        require(bytes(_name).length>0);\r\n        require(bytes(_phone).length>0);\r\n        require(bytes(_gender).length>0);\r\n        require(bytes(_dob).length>0);\r\n        require(bytes(_bloodgroup).length>0);        \r\n        patientList.push(msg.sender);\r\n        pindex = pindex + 1;\r\n        isPatient[msg.sender]=true;\r\n        patients[msg.sender].id=pindex;\r\n        patients[msg.sender].name=_name;\r\n        patients[msg.sender].phone=_phone;\r\n        patients[msg.sender].gender=_gender;\r\n        patients[msg.sender].dob=_dob;\r\n        patients[msg.sender].bloodgroup=_bloodgroup;\r\n        patients[msg.sender].addr=msg.sender;\r\n        \r\n    }\r\n    \r\n    //get the details of the patients\r\n    function getPatientDetails(address _addr) public view returns(string memory _name,string memory _phone,string memory _gender,string memory _dob,string memory _bloodgroup){\r\n        require(isPatient[_addr],\"No Patients found at the given address\");\r\n        patient memory pat = patients[_addr];\r\n        return (pat.name,pat.phone,pat.gender,pat.dob,pat.bloodgroup);\r\n    }\r\n\r\n  //get the length of records of particular address  \r\n     function getrecordlist(address _addr)  public view returns (uint256 ){  \r\n     return (patients[_addr].records.length);\r\n     }\r\n\r\n//get the length of doctor's added in blockchain\r\nfunction getdoctorlist() public view returns(uint256){\r\n        return doctorList.length;\r\n    }\r\n   \r\n   //get the length of registered doctor \r\nfunction getRegisteredDoctorslength() public view returns(uint256){\r\n        return registeredDoctorList.length;\r\n    }\r\n\r\n//\r\nfunction getRegisteredDoctorsList(uint256 id) public view returns(uint256 license){\r\n        return registeredDoctorList[id];\r\n    }\r\n    \r\n//get patients record \r\n    function getPatientRecords(address _addr, uint256 _id) public view \r\n    returns(string memory dname, string memory reason ,string memory visitedDate, string memory ipfs){\r\n        require(isPatient[_addr],\"No patient found at the given address\");\r\n        if(Authorized[_addr][msg.sender] || msg.sender == _addr){\r\n                return( patients[_addr].records[_id].dname,patients[_addr].records[_id].reason,\r\n                patients[_addr].records[_id].visitedDate,patients[_addr].records[_id].ipfs\r\n                    );\r\n        }\r\n        else \r\n        revert(\"Record cannot be accessed\");\r\n    }\r\n\r\n\r\n//add doctor \r\n    function addDoctor(string memory _name,string memory _hname,string memory _faculty,string memory _contact,uint256 license) public {\r\n        require(!isDoctor[msg.sender],\"Already Registered\");\r\n        require(msg.sender != owner,\"Contract owner cannot register as doctor\");\r\n        require(bytes(_name).length>0);\r\n        require(bytes(_hname).length>0);\r\n        require(bytes(_faculty).length>0);\r\n        require(bytes(_contact).length>0);\r\n        require(license>0);  \r\n        address _addr = msg.sender;\r\n        doctorList.push(_addr);\r\n\r\n        dindex = dindex + 1;\r\n        isDoctor[_addr]=true;\r\n        doctors[_addr].name = _name;\r\n        doctors[_addr].contact =_contact;\r\n        doctors[_addr].hname = _hname;\r\n        doctors[_addr].faculty =_faculty; \r\n        doctors[_addr].addr = _addr;\r\n        doctors[_addr].licenseno = license;\r\n        doctors[_addr].isApproved = false;\r\n        \r\n        if (Registered[_name][license] == true){\r\n            doctors[_addr].isApproved = true;\r\n        }\r\n    }\r\n\r\n//get doctor's details  for verification\r\n    function getDoctorbyLicense(uint256 license) public view returns(uint256 id, string memory name,string memory hospital, string memory _faculty,address addr,bool isApproved,uint256 licenseno){\r\n       \r\n         uint256 i=0;\r\n        for(i = 0;i<doctorList.length;i++){\r\n        if(doctors[doctorList[i]].licenseno==license){\r\n            break;\r\n        }\r\n    }    \r\n    doctor memory doc = doctors[doctorList[i]];\r\n    require(isDoctor[doc.addr]==true,\"Doctor hasn't signed up in meDossier\");\r\n         require(doc.isApproved==true,\"Doctor is not approved\");\r\n        \r\n        \r\n        return (doc.id,doc.name,doc.hname,doc.faculty,doc.addr,doc.isApproved,doc.licenseno) ;\r\n       \r\n    }\r\n    \r\n function getDoctorbyName(string memory _name) public view returns(uint256 id,string memory name , string memory contact ,string memory hname ,string memory faculty ,address addr , bool isApproved,uint256 licenseno)  {\r\n        uint256 i=0;\r\n        for(i = 0;i<doctorList.length;i++){\r\n        if(keccak256(bytes(doctors[doctorList[i]].name)) == keccak256(bytes(_name))){\r\n            break;\r\n        }\r\n    }    \r\n        require(keccak256(bytes(doctors[doctorList[i]].name)) == keccak256(bytes(_name)),\"Doctor doesn't exists with the given name\");\r\n        doctor memory doc = doctors[doctorList[i]];\r\n        return (doc.id,doc.name,doc.contact,doc.hname,doc.faculty,doc.addr, doc.isApproved,doc.licenseno);\r\n    }\r\n    \r\n\r\n function getDoctorByAddress(address _address) public view returns(uint256 id,string memory name , string memory contact ,string memory hname ,string memory faculty ,address addr , bool isApproved,uint256 licenseno) {\r\n        // require(doctors[_address].isApproved,\"Doctor is not Approved or doesn't exist\");\r\n        doctor memory doc = doctors[_address];\r\n        return (doc.id,doc.name,doc.contact,doc.hname,doc.faculty,doc.addr,doc.isApproved,doc.licenseno);\r\n    } \r\n    \r\n\r\n//Give access to certain address\r\n    function grantAccess(address _addr) public returns (bool success)\r\n    {   require(msg.sender != _addr,\"You cannot add yourself\");\r\n        require(isDoctor[_addr],\"Not registered as doctor\");\r\n        require(!Authorized[msg.sender][_addr],\"User is already authorized\");\r\n        Authorized[msg.sender][_addr] = true;\r\n        return true;\r\n    }\r\n\r\n//Revoke access of patient records from certain address\r\n      function revoke_access(address _addr)  public returns (bool success){\r\n        require(msg.sender!=_addr,\"You can't remove yourself\");\r\n        require(Authorized[msg.sender][_addr],\"User is not authorized yet\");\r\n        Authorized[msg.sender][_addr] = false;\r\n        return true;\r\n    }\r\n\r\nfunction doctorLogin() public{\r\n    if(Registered[doctors[msg.sender].name][doctors[msg.sender].licenseno] == true){\r\n        doctors[msg.sender].isApproved = true;\r\n    }\r\n}}",
  "sourcePath": "/Volumes/data/workspace/MedicalApp/contracts/MedicalApp.sol",
  "compiler": {
    "name": "solc",
    "version": "0.8.0+commit.c7dfd78e.Emscripten.clang"
  },
  "schemaVersion": "3.4.16",
  "updatedAt": "2024-12-31T14:30:40.431Z",
  "networkType": "ethereum",
  "devdoc": {
    "kind": "dev",
    "methods": {},
    "version": 1
  },
  "userdoc": {
    "kind": "user",
    "methods": {},
    "version": 1
  }
}