{
  "contractName": "meDossier",
  "abi": [
    {
      "inputs": [],
      "stateMutability": "nonpayable",
      "type": "constructor"
    },
    {
      "inputs": [
        {
          "internalType": "string",
          "name": "_name",
          "type": "string"
        },
        {
          "internalType": "string",
          "name": "_phone",
          "type": "string"
        },
        {
          "internalType": "string",
          "name": "_gender",
          "type": "string"
        },
        {
          "internalType": "string",
          "name": "_dob",
          "type": "string"
        },
        {
          "internalType": "string",
          "name": "_bloodgroup",
          "type": "string"
        }
      ],
      "name": "addPatient",
      "outputs": [],
      "stateMutability": "nonpayable",
      "type": "function"
    },
    {
      "inputs": [],
      "name": "dindex",
      "outputs": [
        {
          "internalType": "uint256",
          "name": "",
          "type": "uint256"
        }
      ],
      "stateMutability": "view",
      "type": "function",
      "constant": true
    },
    {
      "inputs": [
        {
          "internalType": "uint256",
          "name": "",
          "type": "uint256"
        }
      ],
      "name": "doctorList",
      "outputs": [
        {
          "internalType": "address",
          "name": "",
          "type": "address"
        }
      ],
      "stateMutability": "view",
      "type": "function",
      "constant": true
    },
    {
      "inputs": [
        {
          "internalType": "address",
          "name": "_addr",
          "type": "address"
        }
      ],
      "name": "getAllPatientRecords",
      "outputs": [
        {
          "internalType": "string[]",
          "name": "dnames",
          "type": "string[]"
        },
        {
          "internalType": "string[]",
          "name": "reasons",
          "type": "string[]"
        },
        {
          "internalType": "string[]",
          "name": "visitedDates",
          "type": "string[]"
        },
        {
          "internalType": "string[]",
          "name": "ipfsHashes",
          "type": "string[]"
        }
      ],
      "stateMutability": "view",
      "type": "function",
      "constant": true
    },
    {
      "inputs": [],
      "name": "getAllPatients",
      "outputs": [
        {
          "internalType": "uint256[]",
          "name": "ids",
          "type": "uint256[]"
        },
        {
          "internalType": "address[]",
          "name": "addresses",
          "type": "address[]"
        },
        {
          "internalType": "string[]",
          "name": "names",
          "type": "string[]"
        },
        {
          "internalType": "string[]",
          "name": "phones",
          "type": "string[]"
        },
        {
          "internalType": "string[]",
          "name": "genders",
          "type": "string[]"
        },
        {
          "internalType": "string[]",
          "name": "dobs",
          "type": "string[]"
        },
        {
          "internalType": "string[]",
          "name": "bloodgroups",
          "type": "string[]"
        }
      ],
      "stateMutability": "view",
      "type": "function",
      "constant": true
    },
    {
      "inputs": [
        {
          "internalType": "address",
          "name": "_addr",
          "type": "address"
        }
      ],
      "name": "getPatientDetails",
      "outputs": [
        {
          "internalType": "string",
          "name": "_name",
          "type": "string"
        },
        {
          "internalType": "string",
          "name": "_phone",
          "type": "string"
        },
        {
          "internalType": "string",
          "name": "_gender",
          "type": "string"
        },
        {
          "internalType": "string",
          "name": "_dob",
          "type": "string"
        },
        {
          "internalType": "string",
          "name": "_bloodgroup",
          "type": "string"
        }
      ],
      "stateMutability": "view",
      "type": "function",
      "constant": true
    },
    {
      "inputs": [],
      "name": "getPatientList",
      "outputs": [
        {
          "internalType": "address[]",
          "name": "",
          "type": "address[]"
        }
      ],
      "stateMutability": "view",
      "type": "function",
      "constant": true
    },
    {
      "inputs": [
        {
          "internalType": "address",
          "name": "_addr",
          "type": "address"
        }
      ],
      "name": "grantAccess",
      "outputs": [
        {
          "internalType": "bool",
          "name": "success",
          "type": "bool"
        }
      ],
      "stateMutability": "nonpayable",
      "type": "function"
    },
    {
      "inputs": [],
      "name": "owner",
      "outputs": [
        {
          "internalType": "address",
          "name": "",
          "type": "address"
        }
      ],
      "stateMutability": "view",
      "type": "function",
      "constant": true
    },
    {
      "inputs": [],
      "name": "pindex",
      "outputs": [
        {
          "internalType": "uint256",
          "name": "",
          "type": "uint256"
        }
      ],
      "stateMutability": "view",
      "type": "function",
      "constant": true
    },
    {
      "inputs": [
        {
          "internalType": "uint256",
          "name": "",
          "type": "uint256"
        }
      ],
      "name": "registeredDoctorList",
      "outputs": [
        {
          "internalType": "uint256",
          "name": "",
          "type": "uint256"
        }
      ],
      "stateMutability": "view",
      "type": "function",
      "constant": true
    },
    {
      "inputs": [
        {
          "internalType": "address",
          "name": "addr",
          "type": "address"
        }
      ],
      "name": "user",
      "outputs": [
        {
          "internalType": "int256",
          "name": "success",
          "type": "int256"
        }
      ],
      "stateMutability": "view",
      "type": "function",
      "constant": true
    },
    {
      "inputs": [
        {
          "internalType": "string",
          "name": "docname",
          "type": "string"
        },
        {
          "internalType": "uint256",
          "name": "license",
          "type": "uint256"
        }
      ],
      "name": "registerDoctor",
      "outputs": [],
      "stateMutability": "nonpayable",
      "type": "function"
    },
    {
      "inputs": [
        {
          "internalType": "string",
          "name": "_dname",
          "type": "string"
        },
        {
          "internalType": "string",
          "name": "_reason",
          "type": "string"
        },
        {
          "internalType": "string",
          "name": "_visitedDate",
          "type": "string"
        },
        {
          "internalType": "string",
          "name": "_ipfs",
          "type": "string"
        },
        {
          "internalType": "address",
          "name": "addr",
          "type": "address"
        }
      ],
      "name": "addRecord",
      "outputs": [],
      "stateMutability": "nonpayable",
      "type": "function"
    },
    {
      "inputs": [
        {
          "internalType": "address",
          "name": "patientAddr",
          "type": "address"
        },
        {
          "internalType": "string",
          "name": "_ipfs",
          "type": "string"
        }
      ],
      "name": "deleteRecord",
      "outputs": [],
      "stateMutability": "nonpayable",
      "type": "function"
    },
    {
      "inputs": [
        {
          "internalType": "string",
          "name": "_name",
          "type": "string"
        },
        {
          "internalType": "string",
          "name": "_hname",
          "type": "string"
        },
        {
          "internalType": "string",
          "name": "_faculty",
          "type": "string"
        },
        {
          "internalType": "string",
          "name": "_contact",
          "type": "string"
        },
        {
          "internalType": "uint256",
          "name": "license",
          "type": "uint256"
        }
      ],
      "name": "addDoctor",
      "outputs": [],
      "stateMutability": "nonpayable",
      "type": "function"
    },
    {
      "inputs": [],
      "name": "getAllDoctors",
      "outputs": [
        {
          "internalType": "uint256[]",
          "name": "ids",
          "type": "uint256[]"
        },
        {
          "internalType": "string[]",
          "name": "names",
          "type": "string[]"
        },
        {
          "internalType": "string[]",
          "name": "contacts",
          "type": "string[]"
        },
        {
          "internalType": "string[]",
          "name": "hospitals",
          "type": "string[]"
        },
        {
          "internalType": "string[]",
          "name": "faculties",
          "type": "string[]"
        },
        {
          "internalType": "address[]",
          "name": "addresses",
          "type": "address[]"
        },
        {
          "internalType": "bool[]",
          "name": "approvals",
          "type": "bool[]"
        },
        {
          "internalType": "uint256[]",
          "name": "licenses",
          "type": "uint256[]"
        }
      ],
      "stateMutability": "view",
      "type": "function",
      "constant": true
    },
    {
      "inputs": [
        {
          "internalType": "address",
          "name": "_address",
          "type": "address"
        }
      ],
      "name": "getDoctorByAddress",
      "outputs": [
        {
          "internalType": "uint256",
          "name": "id",
          "type": "uint256"
        },
        {
          "internalType": "string",
          "name": "name",
          "type": "string"
        },
        {
          "internalType": "string",
          "name": "contact",
          "type": "string"
        },
        {
          "internalType": "string",
          "name": "hname",
          "type": "string"
        },
        {
          "internalType": "string",
          "name": "faculty",
          "type": "string"
        },
        {
          "internalType": "address",
          "name": "addr",
          "type": "address"
        },
        {
          "internalType": "bool",
          "name": "isApproved",
          "type": "bool"
        },
        {
          "internalType": "uint256",
          "name": "licenseno",
          "type": "uint256"
        }
      ],
      "stateMutability": "view",
      "type": "function",
      "constant": true
    }
  ],
  "bytecode": "0x608060405260008055600060015534801561001957600080fd5b5033600a60006101000a81548173ffffffffffffffffffffffffffffffffffffffff021916908373ffffffffffffffffffffffffffffffffffffffff160217905550615b40806200006b6000396000f3fe608060405234801561001057600080fd5b50600436106101165760003560e01c806370333b80116100a2578063928ed9da11610071578063928ed9da146102ec578063abec773d1461030a578063cdfbfb5c1461033a578063efe2ccc11461036d578063f0d95090146103a157610116565b806370333b801461026657806381e7e20e146102825780638c406f2e146102b25780638da5cb5b146102ce57610116565b8063312625f8116100e9578063312625f8146101bb578063503b1354146101d75780635658e43b146101f557806356fa82171461021357806358c5d4bf1461022f57610116565b80630ae5e7391461011b578063127ca4b41461014b578063136bd1481461017b57806318a231a914610197575b600080fd5b6101356004803603810190610130919061453f565b6103c6565b6040516101429190615392565b60405180910390f35b610165600480360381019061016091906148ad565b61062b565b604051610172919061519e565b60405180910390f35b61019560048036038101906101909190614859565b61066a565b005b61019f61076f565b6040516101b2979695949392919061523c565b60405180910390f35b6101d560048036038101906101d09190614782565b6113a3565b005b6101df6119a8565b6040516101ec91906151b9565b60405180910390f35b6101fd611a36565b60405161020a919061565e565b60405180910390f35b61022d60048036038101906102289190614693565b611a3c565b005b6102496004803603810190610244919061453f565b611e63565b60405161025d989796959493929190615679565b60405180910390f35b610280600480360381019061027b91906145bc565b6121cf565b005b61029c6004803603810190610297919061453f565b612433565b6040516102a991906153ad565b60405180910390f35b6102cc60048036038101906102c79190614568565b612562565b005b6102d66129e4565b6040516102e3919061519e565b60405180910390f35b6102f4612a0a565b604051610301919061565e565b60405180910390f35b610324600480360381019061031f91906148ad565b612a10565b604051610331919061565e565b60405180910390f35b610354600480360381019061034f919061453f565b612a34565b60405161036494939291906151db565b60405180910390f35b6103876004803603810190610382919061453f565b61326f565b6040516103989594939291906153c8565b60405180910390f35b6103a9613960565b6040516103bd9897969594939291906152dc565b60405180910390f35b60008173ffffffffffffffffffffffffffffffffffffffff163373ffffffffffffffffffffffffffffffffffffffff161415610437576040517f08c379a000000000000000000000000000000000000000000000000000000000815260040161042e9061559e565b60405180910390fd5b600560008373ffffffffffffffffffffffffffffffffffffffff1673ffffffffffffffffffffffffffffffffffffffff16815260200190815260200160002060009054906101000a900460ff166104c3576040517f08c379a00000000000000000000000000000000000000000000000000000000081526004016104ba9061553e565b60405180910390fd5b600660003373ffffffffffffffffffffffffffffffffffffffff1673ffffffffffffffffffffffffffffffffffffffff16815260200190815260200160002060008373ffffffffffffffffffffffffffffffffffffffff1673ffffffffffffffffffffffffffffffffffffffff16815260200190815260200160002060009054906101000a900460ff161561058d576040517f08c379a0000000000000000000000000000000000000000000000000000000008152600401610584906155fe565b60405180910390fd5b6001600660003373ffffffffffffffffffffffffffffffffffffffff1673ffffffffffffffffffffffffffffffffffffffff16815260200190815260200160002060008473ffffffffffffffffffffffffffffffffffffffff1673ffffffffffffffffffffffffffffffffffffffff16815260200190815260200160002060006101000a81548160ff02191690831515021790555060019050919050565b6008818154811061063b57600080fd5b906000526020600020016000915054906101000a900473ffffffffffffffffffffffffffffffffffffffff1681565b600a60009054906101000a900473ffffffffffffffffffffffffffffffffffffffff1673ffffffffffffffffffffffffffffffffffffffff163373ffffffffffffffffffffffffffffffffffffffff16146106fa576040517f08c379a00000000000000000000000000000000000000000000000000000000081526004016106f19061563e565b60405180910390fd5b600160078360405161070c9190615170565b9081526020016040518091039020600083815260200190815260200160002060006101000a81548160ff02191690831515021790555060098190806001815401808255809150506001900390600052602060002001600090919091909150555050565b6060806060806060806060600060028054905090508067ffffffffffffffff8111156107c4577f4e487b7100000000000000000000000000000000000000000000000000000000600052604160045260246000fd5b6040519080825280602002602001820160405280156107f25781602001602082028036833780820191505090505b5097508067ffffffffffffffff811115610835577f4e487b7100000000000000000000000000000000000000000000000000000000600052604160045260246000fd5b6040519080825280602002602001820160405280156108635781602001602082028036833780820191505090505b5096508067ffffffffffffffff8111156108a6577f4e487b7100000000000000000000000000000000000000000000000000000000600052604160045260246000fd5b6040519080825280602002602001820160405280156108d957816020015b60608152602001906001900390816108c45790505b5095508067ffffffffffffffff81111561091c577f4e487b7100000000000000000000000000000000000000000000000000000000600052604160045260246000fd5b60405190808252806020026020018201604052801561094f57816020015b606081526020019060019003908161093a5790505b5094508067ffffffffffffffff811115610992577f4e487b7100000000000000000000000000000000000000000000000000000000600052604160045260246000fd5b6040519080825280602002602001820160405280156109c557816020015b60608152602001906001900390816109b05790505b5093508067ffffffffffffffff811115610a08577f4e487b7100000000000000000000000000000000000000000000000000000000600052604160045260246000fd5b604051908082528060200260200182016040528015610a3b57816020015b6060815260200190600190039081610a265790505b5092508067ffffffffffffffff811115610a7e577f4e487b7100000000000000000000000000000000000000000000000000000000600052604160045260246000fd5b604051908082528060200260200182016040528015610ab157816020015b6060815260200190600190039081610a9c5790505b50915060005b8181101561139857600060028281548110610afb577f4e487b7100000000000000000000000000000000000000000000000000000000600052603260045260246000fd5b9060005260206000200160009054906101000a900473ffffffffffffffffffffffffffffffffffffffff1690506000600360008373ffffffffffffffffffffffffffffffffffffffff1673ffffffffffffffffffffffffffffffffffffffff1681526020019081526020016000206040518061010001604052908160008201548152602001600182018054610b8f906159c3565b80601f0160208091040260200160405190810160405280929190818152602001828054610bbb906159c3565b8015610c085780601f10610bdd57610100808354040283529160200191610c08565b820191906000526020600020905b815481529060010190602001808311610beb57829003601f168201915b50505050508152602001600282018054610c21906159c3565b80601f0160208091040260200160405190810160405280929190818152602001828054610c4d906159c3565b8015610c9a5780601f10610c6f57610100808354040283529160200191610c9a565b820191906000526020600020905b815481529060010190602001808311610c7d57829003601f168201915b50505050508152602001600382018054610cb3906159c3565b80601f0160208091040260200160405190810160405280929190818152602001828054610cdf906159c3565b8015610d2c5780601f10610d0157610100808354040283529160200191610d2c565b820191906000526020600020905b815481529060010190602001808311610d0f57829003601f168201915b50505050508152602001600482018054610d45906159c3565b80601f0160208091040260200160405190810160405280929190818152602001828054610d71906159c3565b8015610dbe5780601f10610d9357610100808354040283529160200191610dbe565b820191906000526020600020905b815481529060010190602001808311610da157829003601f168201915b50505050508152602001600582018054610dd7906159c3565b80601f0160208091040260200160405190810160405280929190818152602001828054610e03906159c3565b8015610e505780601f10610e2557610100808354040283529160200191610e50565b820191906000526020600020905b815481529060010190602001808311610e3357829003601f168201915b5050505050815260200160068201805480602002602001604051908101604052809291908181526020016000905b828210156110f85783829060005260206000209060040201604051806080016040529081600082018054610eb1906159c3565b80601f0160208091040260200160405190810160405280929190818152602001828054610edd906159c3565b8015610f2a5780601f10610eff57610100808354040283529160200191610f2a565b820191906000526020600020905b815481529060010190602001808311610f0d57829003601f168201915b50505050508152602001600182018054610f43906159c3565b80601f0160208091040260200160405190810160405280929190818152602001828054610f6f906159c3565b8015610fbc5780601f10610f9157610100808354040283529160200191610fbc565b820191906000526020600020905b815481529060010190602001808311610f9f57829003601f168201915b50505050508152602001600282018054610fd5906159c3565b80601f0160208091040260200160405190810160405280929190818152602001828054611001906159c3565b801561104e5780601f106110235761010080835404028352916020019161104e565b820191906000526020600020905b81548152906001019060200180831161103157829003601f168201915b50505050508152602001600382018054611067906159c3565b80601f0160208091040260200160405190810160405280929190818152602001828054611093906159c3565b80156110e05780601f106110b5576101008083540402835291602001916110e0565b820191906000526020600020905b8154815290600101906020018083116110c357829003601f168201915b50505050508152505081526020019060010190610e7e565b5050505081526020016007820160009054906101000a900473ffffffffffffffffffffffffffffffffffffffff1673ffffffffffffffffffffffffffffffffffffffff1673ffffffffffffffffffffffffffffffffffffffff1681525050905080600001518b8481518110611196577f4e487b7100000000000000000000000000000000000000000000000000000000600052603260045260246000fd5b602002602001018181525050818a84815181106111dc577f4e487b7100000000000000000000000000000000000000000000000000000000600052603260045260246000fd5b602002602001019073ffffffffffffffffffffffffffffffffffffffff16908173ffffffffffffffffffffffffffffffffffffffff16815250508060200151898481518110611254577f4e487b7100000000000000000000000000000000000000000000000000000000600052603260045260246000fd5b6020026020010181905250806040015188848151811061129d577f4e487b7100000000000000000000000000000000000000000000000000000000600052603260045260246000fd5b602002602001018190525080606001518784815181106112e6577f4e487b7100000000000000000000000000000000000000000000000000000000600052603260045260246000fd5b6020026020010181905250806080015186848151811061132f577f4e487b7100000000000000000000000000000000000000000000000000000000600052603260045260246000fd5b60200260200101819052508060a00151858481518110611378577f4e487b7100000000000000000000000000000000000000000000000000000000600052603260045260246000fd5b602002602001018190525050508080611390906159f5565b915050610ab7565b505090919293949596565b600560003373ffffffffffffffffffffffffffffffffffffffff1673ffffffffffffffffffffffffffffffffffffffff16815260200190815260200160002060009054906101000a900460ff1615611430576040517f08c379a0000000000000000000000000000000000000000000000000000000008152600401611427906154fe565b60405180910390fd5b600a60009054906101000a900473ffffffffffffffffffffffffffffffffffffffff1673ffffffffffffffffffffffffffffffffffffffff163373ffffffffffffffffffffffffffffffffffffffff1614156114c1576040517f08c379a00000000000000000000000000000000000000000000000000000000081526004016114b8906154de565b60405180910390fd5b6000855111611505576040517f08c379a00000000000000000000000000000000000000000000000000000000081526004016114fc9061547e565b60405180910390fd5b6000845111611549576040517f08c379a00000000000000000000000000000000000000000000000000000000081526004016115409061555e565b60405180910390fd5b600083511161158d576040517f08c379a00000000000000000000000000000000000000000000000000000000081526004016115849061557e565b60405180910390fd5b60008251116115d1576040517f08c379a00000000000000000000000000000000000000000000000000000000081526004016115c8906154be565b60405180910390fd5b6007856040516115e19190615170565b9081526020016040518091039020600082815260200190815260200160002060009054906101000a900460ff1661164d576040517f08c379a0000000000000000000000000000000000000000000000000000000008152600401611644906155de565b60405180910390fd5b60003390506008819080600181540180825580915050600190039060005260206000200160009091909190916101000a81548173ffffffffffffffffffffffffffffffffffffffff021916908373ffffffffffffffffffffffffffffffffffffffff160217905550600180546116c391906158a5565b6001819055506001600560008373ffffffffffffffffffffffffffffffffffffffff1673ffffffffffffffffffffffffffffffffffffffff16815260200190815260200160002060006101000a81548160ff02191690831515021790555085600b60008373ffffffffffffffffffffffffffffffffffffffff1673ffffffffffffffffffffffffffffffffffffffff168152602001908152602001600020600101908051906020019061177792919061433d565b5082600b60008373ffffffffffffffffffffffffffffffffffffffff1673ffffffffffffffffffffffffffffffffffffffff16815260200190815260200160002060020190805190602001906117ce92919061433d565b5084600b60008373ffffffffffffffffffffffffffffffffffffffff1673ffffffffffffffffffffffffffffffffffffffff168152602001908152602001600020600301908051906020019061182592919061433d565b5083600b60008373ffffffffffffffffffffffffffffffffffffffff1673ffffffffffffffffffffffffffffffffffffffff168152602001908152602001600020600401908051906020019061187c92919061433d565b5080600b60008373ffffffffffffffffffffffffffffffffffffffff1673ffffffffffffffffffffffffffffffffffffffff16815260200190815260200160002060050160006101000a81548173ffffffffffffffffffffffffffffffffffffffff021916908373ffffffffffffffffffffffffffffffffffffffff16021790555081600b60008373ffffffffffffffffffffffffffffffffffffffff1673ffffffffffffffffffffffffffffffffffffffff168152602001908152602001600020600601819055506001600b60008373ffffffffffffffffffffffffffffffffffffffff1673ffffffffffffffffffffffffffffffffffffffff16815260200190815260200160002060070160006101000a81548160ff021916908315150217905550505050505050565b60606002805480602002602001604051908101604052809291908181526020018280548015611a2c57602002820191906000526020600020905b8160009054906101000a900473ffffffffffffffffffffffffffffffffffffffff1673ffffffffffffffffffffffffffffffffffffffff16815260200190600101908083116119e2575b5050505050905090565b60005481565b600460003373ffffffffffffffffffffffffffffffffffffffff1673ffffffffffffffffffffffffffffffffffffffff16815260200190815260200160002060009054906101000a900460ff1615611ac9576040517f08c379a0000000000000000000000000000000000000000000000000000000008152600401611ac09061549e565b60405180910390fd5b6000855111611ad757600080fd5b6000845111611ae557600080fd5b6000835111611af357600080fd5b6000825111611b0157600080fd5b6000815111611b0f57600080fd5b6002339080600181540180825580915050600190039060005260206000200160009091909190916101000a81548173ffffffffffffffffffffffffffffffffffffffff021916908373ffffffffffffffffffffffffffffffffffffffff1602179055506001600054611b8191906158a5565b6000819055506001600460003373ffffffffffffffffffffffffffffffffffffffff1673ffffffffffffffffffffffffffffffffffffffff16815260200190815260200160002060006101000a81548160ff021916908315150217905550600054600360003373ffffffffffffffffffffffffffffffffffffffff1673ffffffffffffffffffffffffffffffffffffffff1681526020019081526020016000206000018190555084600360003373ffffffffffffffffffffffffffffffffffffffff1673ffffffffffffffffffffffffffffffffffffffff1681526020019081526020016000206001019080519060200190611c7e92919061433d565b5083600360003373ffffffffffffffffffffffffffffffffffffffff1673ffffffffffffffffffffffffffffffffffffffff1681526020019081526020016000206002019080519060200190611cd592919061433d565b5082600360003373ffffffffffffffffffffffffffffffffffffffff1673ffffffffffffffffffffffffffffffffffffffff1681526020019081526020016000206003019080519060200190611d2c92919061433d565b5081600360003373ffffffffffffffffffffffffffffffffffffffff1673ffffffffffffffffffffffffffffffffffffffff1681526020019081526020016000206004019080519060200190611d8392919061433d565b5080600360003373ffffffffffffffffffffffffffffffffffffffff1673ffffffffffffffffffffffffffffffffffffffff1681526020019081526020016000206005019080519060200190611dda92919061433d565b5033600360003373ffffffffffffffffffffffffffffffffffffffff1673ffffffffffffffffffffffffffffffffffffffff16815260200190815260200160002060070160006101000a81548173ffffffffffffffffffffffffffffffffffffffff021916908373ffffffffffffffffffffffffffffffffffffffff1602179055505050505050565b6000606080606080600080600080600b60008b73ffffffffffffffffffffffffffffffffffffffff1673ffffffffffffffffffffffffffffffffffffffff1681526020019081526020016000206040518061010001604052908160008201548152602001600182018054611ed6906159c3565b80601f0160208091040260200160405190810160405280929190818152602001828054611f02906159c3565b8015611f4f5780601f10611f2457610100808354040283529160200191611f4f565b820191906000526020600020905b815481529060010190602001808311611f3257829003601f168201915b50505050508152602001600282018054611f68906159c3565b80601f0160208091040260200160405190810160405280929190818152602001828054611f94906159c3565b8015611fe15780601f10611fb657610100808354040283529160200191611fe1565b820191906000526020600020905b815481529060010190602001808311611fc457829003601f168201915b50505050508152602001600382018054611ffa906159c3565b80601f0160208091040260200160405190810160405280929190818152602001828054612026906159c3565b80156120735780601f1061204857610100808354040283529160200191612073565b820191906000526020600020905b81548152906001019060200180831161205657829003601f168201915b5050505050815260200160048201805461208c906159c3565b80601f01602080910402602001604051908101604052809291908181526020018280546120b8906159c3565b80156121055780601f106120da57610100808354040283529160200191612105565b820191906000526020600020905b8154815290600101906020018083116120e857829003601f168201915b505050505081526020016005820160009054906101000a900473ffffffffffffffffffffffffffffffffffffffff1673ffffffffffffffffffffffffffffffffffffffff1673ffffffffffffffffffffffffffffffffffffffff168152602001600682015481526020016007820160009054906101000a900460ff1615151515815250509050806000015181602001518260400151836060015184608001518560a001518660e001518760c001519850985098509850985098509850985050919395975091939597565b600460008273ffffffffffffffffffffffffffffffffffffffff1673ffffffffffffffffffffffffffffffffffffffff16815260200190815260200160002060009054906101000a900460ff1661225b576040517f08c379a0000000000000000000000000000000000000000000000000000000008152600401612252906155be565b60405180910390fd5b600660008273ffffffffffffffffffffffffffffffffffffffff1673ffffffffffffffffffffffffffffffffffffffff16815260200190815260200160002060003373ffffffffffffffffffffffffffffffffffffffff1673ffffffffffffffffffffffffffffffffffffffff16815260200190815260200160002060009054906101000a900460ff16156123f157600360008273ffffffffffffffffffffffffffffffffffffffff1673ffffffffffffffffffffffffffffffffffffffff1681526020019081526020016000206006016040518060800160405280878152602001868152602001858152602001848152509080600181540180825580915050600190039060005260206000209060040201600090919091909150600082015181600001908051906020019061239292919061433d565b5060208201518160010190805190602001906123af92919061433d565b5060408201518160020190805190602001906123cc92919061433d565b5060608201518160030190805190602001906123e992919061433d565b50505061242c565b6040517f08c379a00000000000000000000000000000000000000000000000000000000081526004016124239061561e565b60405180910390fd5b5050505050565b600060011515600560008473ffffffffffffffffffffffffffffffffffffffff1673ffffffffffffffffffffffffffffffffffffffff16815260200190815260200160002060009054906101000a900460ff1615151415612497576000905061255d565b60011515600460008473ffffffffffffffffffffffffffffffffffffffff1673ffffffffffffffffffffffffffffffffffffffff16815260200190815260200160002060009054906101000a900460ff16151514156124f9576001905061255d565b600a60009054906101000a900473ffffffffffffffffffffffffffffffffffffffff1673ffffffffffffffffffffffffffffffffffffffff168273ffffffffffffffffffffffffffffffffffffffff161415612558576002905061255d565b600390505b919050565b600460008373ffffffffffffffffffffffffffffffffffffffff1673ffffffffffffffffffffffffffffffffffffffff16815260200190815260200160002060009054906101000a900460ff166125ee576040517f08c379a00000000000000000000000000000000000000000000000000000000081526004016125e5906155be565b60405180910390fd5b600660008373ffffffffffffffffffffffffffffffffffffffff1673ffffffffffffffffffffffffffffffffffffffff16815260200190815260200160002060003373ffffffffffffffffffffffffffffffffffffffff1673ffffffffffffffffffffffffffffffffffffffff16815260200190815260200160002060009054906101000a900460ff166126b7576040517f08c379a00000000000000000000000000000000000000000000000000000000081526004016126ae9061545e565b60405180910390fd5b6000600360008473ffffffffffffffffffffffffffffffffffffffff1673ffffffffffffffffffffffffffffffffffffffff168152602001908152602001600020600601905060008180549050905060005b82805490508110156127cd57836040516020016127269190615170565b60405160208183030381529060405280519060200120838281548110612775577f4e487b7100000000000000000000000000000000000000000000000000000000600052603260045260246000fd5b90600052602060002090600402016003016040516020016127969190615187565b6040516020818303038152906040528051906020012014156127ba578091506127cd565b80806127c5906159f5565b915050612709565b5081805490508110612814576040517f08c379a000000000000000000000000000000000000000000000000000000000815260040161280b9061543e565b60405180910390fd5b6001828054905061282591906158fb565b81101561294e57816001838054905061283e91906158fb565b81548110612875577f4e487b7100000000000000000000000000000000000000000000000000000000600052603260045260246000fd5b90600052602060002090600402018282815481106128bc577f4e487b7100000000000000000000000000000000000000000000000000000000600052603260045260246000fd5b906000526020600020906004020160008201816000019080546128de906159c3565b6128e99291906143c3565b5060018201816001019080546128fe906159c3565b6129099291906143c3565b50600282018160020190805461291e906159c3565b6129299291906143c3565b50600382018160030190805461293e906159c3565b6129499291906143c3565b509050505b81805480612985577f4e487b7100000000000000000000000000000000000000000000000000000000600052603160045260246000fd5b6001900381819060005260206000209060040201600080820160006129aa9190614450565b6001820160006129ba9190614450565b6002820160006129ca9190614450565b6003820160006129da9190614450565b5050905550505050565b600a60009054906101000a900473ffffffffffffffffffffffffffffffffffffffff1681565b60015481565b60098181548110612a2057600080fd5b906000526020600020016000915090505481565b606080606080600460008673ffffffffffffffffffffffffffffffffffffffff1673ffffffffffffffffffffffffffffffffffffffff16815260200190815260200160002060009054906101000a900460ff16612ac6576040517f08c379a0000000000000000000000000000000000000000000000000000000008152600401612abd906155be565b60405180910390fd5b6000600360008773ffffffffffffffffffffffffffffffffffffffff1673ffffffffffffffffffffffffffffffffffffffff1681526020019081526020016000206006018054905090508067ffffffffffffffff811115612b50577f4e487b7100000000000000000000000000000000000000000000000000000000600052604160045260246000fd5b604051908082528060200260200182016040528015612b8357816020015b6060815260200190600190039081612b6e5790505b5094508067ffffffffffffffff811115612bc6577f4e487b7100000000000000000000000000000000000000000000000000000000600052604160045260246000fd5b604051908082528060200260200182016040528015612bf957816020015b6060815260200190600190039081612be45790505b5093508067ffffffffffffffff811115612c3c577f4e487b7100000000000000000000000000000000000000000000000000000000600052604160045260246000fd5b604051908082528060200260200182016040528015612c6f57816020015b6060815260200190600190039081612c5a5790505b5092508067ffffffffffffffff811115612cb2577f4e487b7100000000000000000000000000000000000000000000000000000000600052604160045260246000fd5b604051908082528060200260200182016040528015612ce557816020015b6060815260200190600190039081612cd05790505b50915060005b8181101561326657600360008873ffffffffffffffffffffffffffffffffffffffff1673ffffffffffffffffffffffffffffffffffffffff1681526020019081526020016000206006018181548110612d6d577f4e487b7100000000000000000000000000000000000000000000000000000000600052603260045260246000fd5b90600052602060002090600402016000018054612d89906159c3565b80601f0160208091040260200160405190810160405280929190818152602001828054612db5906159c3565b8015612e025780601f10612dd757610100808354040283529160200191612e02565b820191906000526020600020905b815481529060010190602001808311612de557829003601f168201915b5050505050868281518110612e40577f4e487b7100000000000000000000000000000000000000000000000000000000600052603260045260246000fd5b6020026020010181905250600360008873ffffffffffffffffffffffffffffffffffffffff1673ffffffffffffffffffffffffffffffffffffffff1681526020019081526020016000206006018181548110612ec5577f4e487b7100000000000000000000000000000000000000000000000000000000600052603260045260246000fd5b90600052602060002090600402016001018054612ee1906159c3565b80601f0160208091040260200160405190810160405280929190818152602001828054612f0d906159c3565b8015612f5a5780601f10612f2f57610100808354040283529160200191612f5a565b820191906000526020600020905b815481529060010190602001808311612f3d57829003601f168201915b5050505050858281518110612f98577f4e487b7100000000000000000000000000000000000000000000000000000000600052603260045260246000fd5b6020026020010181905250600360008873ffffffffffffffffffffffffffffffffffffffff1673ffffffffffffffffffffffffffffffffffffffff168152602001908152602001600020600601818154811061301d577f4e487b7100000000000000000000000000000000000000000000000000000000600052603260045260246000fd5b90600052602060002090600402016002018054613039906159c3565b80601f0160208091040260200160405190810160405280929190818152602001828054613065906159c3565b80156130b25780601f10613087576101008083540402835291602001916130b2565b820191906000526020600020905b81548152906001019060200180831161309557829003601f168201915b50505050508482815181106130f0577f4e487b7100000000000000000000000000000000000000000000000000000000600052603260045260246000fd5b6020026020010181905250600360008873ffffffffffffffffffffffffffffffffffffffff1673ffffffffffffffffffffffffffffffffffffffff1681526020019081526020016000206006018181548110613175577f4e487b7100000000000000000000000000000000000000000000000000000000600052603260045260246000fd5b90600052602060002090600402016003018054613191906159c3565b80601f01602080910402602001604051908101604052809291908181526020018280546131bd906159c3565b801561320a5780601f106131df5761010080835404028352916020019161320a565b820191906000526020600020905b8154815290600101906020018083116131ed57829003601f168201915b5050505050838281518110613248577f4e487b7100000000000000000000000000000000000000000000000000000000600052603260045260246000fd5b6020026020010181905250808061325e906159f5565b915050612ceb565b50509193509193565b6060806060806060600460008773ffffffffffffffffffffffffffffffffffffffff1673ffffffffffffffffffffffffffffffffffffffff16815260200190815260200160002060009054906101000a900460ff16613303576040517f08c379a00000000000000000000000000000000000000000000000000000000081526004016132fa9061551e565b60405180910390fd5b6000600360008873ffffffffffffffffffffffffffffffffffffffff1673ffffffffffffffffffffffffffffffffffffffff168152602001908152602001600020604051806101000160405290816000820154815260200160018201805461336a906159c3565b80601f0160208091040260200160405190810160405280929190818152602001828054613396906159c3565b80156133e35780601f106133b8576101008083540402835291602001916133e3565b820191906000526020600020905b8154815290600101906020018083116133c657829003601f168201915b505050505081526020016002820180546133fc906159c3565b80601f0160208091040260200160405190810160405280929190818152602001828054613428906159c3565b80156134755780601f1061344a57610100808354040283529160200191613475565b820191906000526020600020905b81548152906001019060200180831161345857829003601f168201915b5050505050815260200160038201805461348e906159c3565b80601f01602080910402602001604051908101604052809291908181526020018280546134ba906159c3565b80156135075780601f106134dc57610100808354040283529160200191613507565b820191906000526020600020905b8154815290600101906020018083116134ea57829003601f168201915b50505050508152602001600482018054613520906159c3565b80601f016020809104026020016040519081016040528092919081815260200182805461354c906159c3565b80156135995780601f1061356e57610100808354040283529160200191613599565b820191906000526020600020905b81548152906001019060200180831161357c57829003601f168201915b505050505081526020016005820180546135b2906159c3565b80601f01602080910402602001604051908101604052809291908181526020018280546135de906159c3565b801561362b5780601f106136005761010080835404028352916020019161362b565b820191906000526020600020905b81548152906001019060200180831161360e57829003601f168201915b5050505050815260200160068201805480602002602001604051908101604052809291908181526020016000905b828210156138d3578382906000526020600020906004020160405180608001604052908160008201805461368c906159c3565b80601f01602080910402602001604051908101604052809291908181526020018280546136b8906159c3565b80156137055780601f106136da57610100808354040283529160200191613705565b820191906000526020600020905b8154815290600101906020018083116136e857829003601f168201915b5050505050815260200160018201805461371e906159c3565b80601f016020809104026020016040519081016040528092919081815260200182805461374a906159c3565b80156137975780601f1061376c57610100808354040283529160200191613797565b820191906000526020600020905b81548152906001019060200180831161377a57829003601f168201915b505050505081526020016002820180546137b0906159c3565b80601f01602080910402602001604051908101604052809291908181526020018280546137dc906159c3565b80156138295780601f106137fe57610100808354040283529160200191613829565b820191906000526020600020905b81548152906001019060200180831161380c57829003601f168201915b50505050508152602001600382018054613842906159c3565b80601f016020809104026020016040519081016040528092919081815260200182805461386e906159c3565b80156138bb5780601f10613890576101008083540402835291602001916138bb565b820191906000526020600020905b81548152906001019060200180831161389e57829003601f168201915b50505050508152505081526020019060010190613659565b5050505081526020016007820160009054906101000a900473ffffffffffffffffffffffffffffffffffffffff1673ffffffffffffffffffffffffffffffffffffffff1673ffffffffffffffffffffffffffffffffffffffff1681525050905080602001518160400151826060015183608001518460a00151955095509550955095505091939590929450565b606080606080606080606080600060088054905090508067ffffffffffffffff8111156139b6577f4e487b7100000000000000000000000000000000000000000000000000000000600052604160045260246000fd5b6040519080825280602002602001820160405280156139e45781602001602082028036833780820191505090505b5098508067ffffffffffffffff811115613a27577f4e487b7100000000000000000000000000000000000000000000000000000000600052604160045260246000fd5b604051908082528060200260200182016040528015613a5a57816020015b6060815260200190600190039081613a455790505b5097508067ffffffffffffffff811115613a9d577f4e487b7100000000000000000000000000000000000000000000000000000000600052604160045260246000fd5b604051908082528060200260200182016040528015613ad057816020015b6060815260200190600190039081613abb5790505b5096508067ffffffffffffffff811115613b13577f4e487b7100000000000000000000000000000000000000000000000000000000600052604160045260246000fd5b604051908082528060200260200182016040528015613b4657816020015b6060815260200190600190039081613b315790505b5095508067ffffffffffffffff811115613b89577f4e487b7100000000000000000000000000000000000000000000000000000000600052604160045260246000fd5b604051908082528060200260200182016040528015613bbc57816020015b6060815260200190600190039081613ba75790505b5094508067ffffffffffffffff811115613bff577f4e487b7100000000000000000000000000000000000000000000000000000000600052604160045260246000fd5b604051908082528060200260200182016040528015613c2d5781602001602082028036833780820191505090505b5093508067ffffffffffffffff811115613c70577f4e487b7100000000000000000000000000000000000000000000000000000000600052604160045260246000fd5b604051908082528060200260200182016040528015613c9e5781602001602082028036833780820191505090505b5092508067ffffffffffffffff811115613ce1577f4e487b7100000000000000000000000000000000000000000000000000000000600052604160045260246000fd5b604051908082528060200260200182016040528015613d0f5781602001602082028036833780820191505090505b50915060005b81811015614331576000600b600060088481548110613d5d577f4e487b7100000000000000000000000000000000000000000000000000000000600052603260045260246000fd5b9060005260206000200160009054906101000a900473ffffffffffffffffffffffffffffffffffffffff1673ffffffffffffffffffffffffffffffffffffffff1673ffffffffffffffffffffffffffffffffffffffff1681526020019081526020016000206040518061010001604052908160008201548152602001600182018054613de8906159c3565b80601f0160208091040260200160405190810160405280929190818152602001828054613e14906159c3565b8015613e615780601f10613e3657610100808354040283529160200191613e61565b820191906000526020600020905b815481529060010190602001808311613e4457829003601f168201915b50505050508152602001600282018054613e7a906159c3565b80601f0160208091040260200160405190810160405280929190818152602001828054613ea6906159c3565b8015613ef35780601f10613ec857610100808354040283529160200191613ef3565b820191906000526020600020905b815481529060010190602001808311613ed657829003601f168201915b50505050508152602001600382018054613f0c906159c3565b80601f0160208091040260200160405190810160405280929190818152602001828054613f38906159c3565b8015613f855780601f10613f5a57610100808354040283529160200191613f85565b820191906000526020600020905b815481529060010190602001808311613f6857829003601f168201915b50505050508152602001600482018054613f9e906159c3565b80601f0160208091040260200160405190810160405280929190818152602001828054613fca906159c3565b80156140175780601f10613fec57610100808354040283529160200191614017565b820191906000526020600020905b815481529060010190602001808311613ffa57829003601f168201915b505050505081526020016005820160009054906101000a900473ffffffffffffffffffffffffffffffffffffffff1673ffffffffffffffffffffffffffffffffffffffff1673ffffffffffffffffffffffffffffffffffffffff168152602001600682015481526020016007820160009054906101000a900460ff161515151581525050905080600001518b83815181106140db577f4e487b7100000000000000000000000000000000000000000000000000000000600052603260045260246000fd5b60200260200101818152505080602001518a8381518110614125577f4e487b7100000000000000000000000000000000000000000000000000000000600052603260045260246000fd5b6020026020010181905250806040015189838151811061416e577f4e487b7100000000000000000000000000000000000000000000000000000000600052603260045260246000fd5b602002602001018190525080606001518883815181106141b7577f4e487b7100000000000000000000000000000000000000000000000000000000600052603260045260246000fd5b60200260200101819052508060800151878381518110614200577f4e487b7100000000000000000000000000000000000000000000000000000000600052603260045260246000fd5b60200260200101819052508060a00151868381518110614249577f4e487b7100000000000000000000000000000000000000000000000000000000600052603260045260246000fd5b602002602001019073ffffffffffffffffffffffffffffffffffffffff16908173ffffffffffffffffffffffffffffffffffffffff16815250508060e001518583815181106142c1577f4e487b7100000000000000000000000000000000000000000000000000000000600052603260045260246000fd5b6020026020010190151590811515815250508060c00151848381518110614311577f4e487b7100000000000000000000000000000000000000000000000000000000600052603260045260246000fd5b602002602001018181525050508080614329906159f5565b915050613d15565b50509091929394959697565b828054614349906159c3565b90600052602060002090601f01602090048101928261436b57600085556143b2565b82601f1061438457805160ff19168380011785556143b2565b828001600101855582156143b2579182015b828111156143b1578251825591602001919060010190614396565b5b5090506143bf9190614490565b5090565b8280546143cf906159c3565b90600052602060002090601f0160209004810192826143f1576000855561443f565b82601f10614402578054855561443f565b8280016001018555821561443f57600052602060002091601f016020900482015b8281111561443e578254825591600101919060010190614423565b5b50905061444c9190614490565b5090565b50805461445c906159c3565b6000825580601f1061446e575061448d565b601f01602090049060005260206000209081019061448c9190614490565b5b50565b5b808211156144a9576000816000905550600101614491565b5090565b60006144c06144bb84615744565b615713565b9050828152602081018484840111156144d857600080fd5b6144e3848285615981565b509392505050565b6000813590506144fa81615adc565b92915050565b600082601f83011261451157600080fd5b81356145218482602086016144ad565b91505092915050565b60008135905061453981615af3565b92915050565b60006020828403121561455157600080fd5b600061455f848285016144eb565b91505092915050565b6000806040838503121561457b57600080fd5b6000614589858286016144eb565b925050602083013567ffffffffffffffff8111156145a657600080fd5b6145b285828601614500565b9150509250929050565b600080600080600060a086880312156145d457600080fd5b600086013567ffffffffffffffff8111156145ee57600080fd5b6145fa88828901614500565b955050602086013567ffffffffffffffff81111561461757600080fd5b61462388828901614500565b945050604086013567ffffffffffffffff81111561464057600080fd5b61464c88828901614500565b935050606086013567ffffffffffffffff81111561466957600080fd5b61467588828901614500565b9250506080614686888289016144eb565b9150509295509295909350565b600080600080600060a086880312156146ab57600080fd5b600086013567ffffffffffffffff8111156146c557600080fd5b6146d188828901614500565b955050602086013567ffffffffffffffff8111156146ee57600080fd5b6146fa88828901614500565b945050604086013567ffffffffffffffff81111561471757600080fd5b61472388828901614500565b935050606086013567ffffffffffffffff81111561474057600080fd5b61474c88828901614500565b925050608086013567ffffffffffffffff81111561476957600080fd5b61477588828901614500565b9150509295509295909350565b600080600080600060a0868803121561479a57600080fd5b600086013567ffffffffffffffff8111156147b457600080fd5b6147c088828901614500565b955050602086013567ffffffffffffffff8111156147dd57600080fd5b6147e988828901614500565b945050604086013567ffffffffffffffff81111561480657600080fd5b61481288828901614500565b935050606086013567ffffffffffffffff81111561482f57600080fd5b61483b88828901614500565b925050608061484c8882890161452a565b9150509295509295909350565b6000806040838503121561486c57600080fd5b600083013567ffffffffffffffff81111561488657600080fd5b61489285828601614500565b92505060206148a38582860161452a565b9150509250929050565b6000602082840312156148bf57600080fd5b60006148cd8482850161452a565b91505092915050565b60006148e28383614932565b60208301905092915050565b60006148fa8383614adf565b60208301905092915050565b60006149128383614b0c565b905092915050565b60006149268383615152565b60208301905092915050565b61493b8161592f565b82525050565b61494a8161592f565b82525050565b600061495b826157c9565b6149658185615834565b935061497083615774565b8060005b838110156149a157815161498888826148d6565b975061499383615800565b925050600181019050614974565b5085935050505092915050565b60006149b9826157d4565b6149c38185615845565b93506149ce83615784565b8060005b838110156149ff5781516149e688826148ee565b97506149f18361580d565b9250506001810190506149d2565b5085935050505092915050565b6000614a17826157df565b614a218185615856565b935083602082028501614a3385615794565b8060005b85811015614a6f5784840389528151614a508582614906565b9450614a5b8361581a565b925060208a01995050600181019050614a37565b50829750879550505050505092915050565b6000614a8c826157ea565b614a968185615867565b9350614aa1836157a4565b8060005b83811015614ad2578151614ab9888261491a565b9750614ac483615827565b925050600181019050614aa5565b5085935050505092915050565b614ae881615941565b82525050565b614af781615941565b82525050565b614b068161594d565b82525050565b6000614b17826157f5565b614b218185615878565b9350614b31818560208601615990565b614b3a81615acb565b840191505092915050565b6000614b50826157f5565b614b5a8185615889565b9350614b6a818560208601615990565b614b7381615acb565b840191505092915050565b6000614b89826157f5565b614b93818561589a565b9350614ba3818560208601615990565b80840191505092915050565b60008154614bbc816159c3565b614bc6818661589a565b94506001821660008114614be15760018114614bf257614c25565b60ff19831686528186019350614c25565b614bfb856157b4565b60005b83811015614c1d57815481890152600182019150602081019050614bfe565b838801955050505b50505092915050565b6000614c3b602483615889565b91507f5265636f726420776974682074686520676976656e2049504653206e6f74206660008301527f6f756e64000000000000000000000000000000000000000000000000000000006020830152604082019050919050565b6000614ca1603983615889565b91507f596f7520617265206e6f7420617574686f72697a656420746f2064656c65746560008301527f207265636f72647320666f7220746869732070617469656e74000000000000006020830152604082019050919050565b6000614d07601783615889565b91507f446f63746f72206e616d652069732072657175697265640000000000000000006000830152602082019050919050565b6000614d47601e83615889565b91507f416c72656164792050617469656e74206163636f756e742065786973747300006000830152602082019050919050565b6000614d87601383615889565b91507f436f6e74616374206973207265717569726564000000000000000000000000006000830152602082019050919050565b6000614dc7602883615889565b91507f436f6e7472616374206f776e65722063616e6e6f74207265676973746572206160008301527f7320646f63746f720000000000000000000000000000000000000000000000006020830152604082019050919050565b6000614e2d601283615889565b91507f416c7265616479205265676973746572656400000000000000000000000000006000830152602082019050919050565b6000614e6d602683615889565b91507f4e6f2050617469656e747320666f756e642061742074686520676976656e206160008301527f64647265737300000000000000000000000000000000000000000000000000006020830152604082019050919050565b6000614ed3601883615889565b91507f4e6f74207265676973746572656420617320646f63746f7200000000000000006000830152602082019050919050565b6000614f13601983615889565b91507f486f73706974616c206e616d65206973207265717569726564000000000000006000830152602082019050919050565b6000614f53601383615889565b91507f466163756c7479206973207265717569726564000000000000000000000000006000830152602082019050919050565b6000614f93601783615889565b91507f596f752063616e6e6f742061646420796f757273656c660000000000000000006000830152602082019050919050565b6000614fd3602583615889565b91507f4e6f2070617469656e7420666f756e642061742074686520676976656e20616460008301527f64726573730000000000000000000000000000000000000000000000000000006020830152604082019050919050565b6000615039602083615889565b91507f446f63746f72206c6963656e7365206973206e6f7420726567697374657265646000830152602082019050919050565b6000615079601a83615889565b91507f5573657220697320616c726561647920617574686f72697a65640000000000006000830152602082019050919050565b60006150b9601783615889565b91507f5265636f72642063616e6e6f74206265206164646564200000000000000000006000830152602082019050919050565b60006150f9602783615889565b91507f596f7520617265206e6f7420616c6c6f77656420746f2072656769737465722060008301527f646f63746f7221000000000000000000000000000000000000000000000000006020830152604082019050919050565b61515b81615977565b82525050565b61516a81615977565b82525050565b600061517c8284614b7e565b915081905092915050565b60006151938284614baf565b915081905092915050565b60006020820190506151b36000830184614941565b92915050565b600060208201905081810360008301526151d38184614950565b905092915050565b600060808201905081810360008301526151f58187614a0c565b905081810360208301526152098186614a0c565b9050818103604083015261521d8185614a0c565b905081810360608301526152318184614a0c565b905095945050505050565b600060e0820190508181036000830152615256818a614a81565b9050818103602083015261526a8189614950565b9050818103604083015261527e8188614a0c565b905081810360608301526152928187614a0c565b905081810360808301526152a68186614a0c565b905081810360a08301526152ba8185614a0c565b905081810360c08301526152ce8184614a0c565b905098975050505050505050565b60006101008201905081810360008301526152f7818b614a81565b9050818103602083015261530b818a614a0c565b9050818103604083015261531f8189614a0c565b905081810360608301526153338188614a0c565b905081810360808301526153478187614a0c565b905081810360a083015261535b8186614950565b905081810360c083015261536f81856149ae565b905081810360e08301526153838184614a81565b90509998505050505050505050565b60006020820190506153a76000830184614aee565b92915050565b60006020820190506153c26000830184614afd565b92915050565b600060a08201905081810360008301526153e28188614b45565b905081810360208301526153f68187614b45565b9050818103604083015261540a8186614b45565b9050818103606083015261541e8185614b45565b905081810360808301526154328184614b45565b90509695505050505050565b6000602082019050818103600083015261545781614c2e565b9050919050565b6000602082019050818103600083015261547781614c94565b9050919050565b6000602082019050818103600083015261549781614cfa565b9050919050565b600060208201905081810360008301526154b781614d3a565b9050919050565b600060208201905081810360008301526154d781614d7a565b9050919050565b600060208201905081810360008301526154f781614dba565b9050919050565b6000602082019050818103600083015261551781614e20565b9050919050565b6000602082019050818103600083015261553781614e60565b9050919050565b6000602082019050818103600083015261555781614ec6565b9050919050565b6000602082019050818103600083015261557781614f06565b9050919050565b6000602082019050818103600083015261559781614f46565b9050919050565b600060208201905081810360008301526155b781614f86565b9050919050565b600060208201905081810360008301526155d781614fc6565b9050919050565b600060208201905081810360008301526155f78161502c565b9050919050565b600060208201905081810360008301526156178161506c565b9050919050565b60006020820190508181036000830152615637816150ac565b9050919050565b60006020820190508181036000830152615657816150ec565b9050919050565b60006020820190506156736000830184615161565b92915050565b60006101008201905061568f600083018b615161565b81810360208301526156a1818a614b45565b905081810360408301526156b58189614b45565b905081810360608301526156c98188614b45565b905081810360808301526156dd8187614b45565b90506156ec60a0830186614941565b6156f960c0830185614aee565b61570660e0830184615161565b9998505050505050505050565b6000604051905081810181811067ffffffffffffffff8211171561573a57615739615a9c565b5b8060405250919050565b600067ffffffffffffffff82111561575f5761575e615a9c565b5b601f19601f8301169050602081019050919050565b6000819050602082019050919050565b6000819050602082019050919050565b6000819050602082019050919050565b6000819050602082019050919050565b60008190508160005260206000209050919050565b600081519050919050565b600081519050919050565b600081519050919050565b600081519050919050565b600081519050919050565b6000602082019050919050565b6000602082019050919050565b6000602082019050919050565b6000602082019050919050565b600082825260208201905092915050565b600082825260208201905092915050565b600082825260208201905092915050565b600082825260208201905092915050565b600082825260208201905092915050565b600082825260208201905092915050565b600081905092915050565b60006158b082615977565b91506158bb83615977565b9250827fffffffffffffffffffffffffffffffffffffffffffffffffffffffffffffffff038211156158f0576158ef615a3e565b5b828201905092915050565b600061590682615977565b915061591183615977565b92508282101561592457615923615a3e565b5b828203905092915050565b600061593a82615957565b9050919050565b60008115159050919050565b6000819050919050565b600073ffffffffffffffffffffffffffffffffffffffff82169050919050565b6000819050919050565b82818337600083830152505050565b60005b838110156159ae578082015181840152602081019050615993565b838111156159bd576000848401525b50505050565b600060028204905060018216806159db57607f821691505b602082108114156159ef576159ee615a6d565b5b50919050565b6000615a0082615977565b91507fffffffffffffffffffffffffffffffffffffffffffffffffffffffffffffffff821415615a3357615a32615a3e565b5b600182019050919050565b7f4e487b7100000000000000000000000000000000000000000000000000000000600052601160045260246000fd5b7f4e487b7100000000000000000000000000000000000000000000000000000000600052602260045260246000fd5b7f4e487b7100000000000000000000000000000000000000000000000000000000600052604160045260246000fd5b6000601f19601f8301169050919050565b615ae58161592f565b8114615af057600080fd5b50565b615afc81615977565b8114615b0757600080fd5b5056fea26469706673582212203eba92f636e97d7855aaaedb6830deaab0e83723ad3768e95fbfbe604e802e8a64736f6c63430008000033",
  "immutableReferences": {},
  "source": "// SPDX-License-Identifier: MIT\r\n\r\npragma solidity >=0.4.22 <0.9.0;\r\n\r\nimport \"./patient.sol\";\r\n\r\ncontract meDossier is PatientContract{\r\n\r\n    struct doctor {\r\n        uint256 id;\r\n        string name;\r\n        string contact;\r\n        string hname;\r\n        string faculty;\r\n        address addr;\r\n        uint256 licenseno;\r\n        bool isApproved;\r\n    }\r\n    \r\n    address[] public doctorList;\r\n    uint256 [] public registeredDoctorList;\r\n    address public  owner;\r\n\r\n    mapping(address=>doctor) doctors;    \r\n    \r\n    constructor() {\r\n        owner = msg.sender;\r\n        \r\n    }\r\n    \r\n     //identity the user \r\n     function user(address addr) public view returns (int success){\r\n        if(isDoctor[addr]==true){\r\n            return 0;\r\n        }\r\n        else if(isPatient[addr]==true){\r\n            return 1;\r\n        }\r\n        else if(addr==owner){\r\n            return 2;\r\n        }\r\n        else{\r\n            return 3;\r\n        }\r\n    }\r\n\r\n    //Register the doctor by certain authority\r\n    function registerDoctor(string memory docname, uint256 license) public {\r\n        require(msg.sender==owner,\"You are not allowed to register doctor!\");\r\n        Registered[docname][license] = true;\r\n        registeredDoctorList.push(license);\r\n    \r\n    }\r\n\r\n    // function isAuthorized(address pat,address client ) public view returns (bool success){\r\n    //     return Authorized[pat][client];\r\n    // }\r\n    \r\n    //Check whether the doctor is registered or not\r\n    //  function isRegistered(address addr) public view returns (bool success){\r\n    //     doctor memory doc = doctors[addr];\r\n    //     return Registered[doc.name][doc.licenseno];\r\n    // }\r\n    \r\n\r\n//Add terecords of the patient\r\n    function addRecord(string memory _dname,string memory _reason,string memory _visitedDate,string memory _ipfs, address addr) public{\r\n        require(isPatient[addr],\"No patient found at the given address\");\r\n        \r\n        if(Authorized[addr][msg.sender]){\r\n                patients[addr].records.push(Records(_dname,_reason,_visitedDate,_ipfs));\r\n        }\r\n        else \r\n        revert(\"Record cannot be added \");\r\n    }\r\n\r\n    function deleteRecord(address patientAddr, string memory _ipfs) public {\r\n        require(isPatient[patientAddr], \"No patient found at the given address\");\r\n        require(Authorized[patientAddr][msg.sender], \"You are not authorized to delete records for this patient\");\r\n\r\n        // Ly danh sch bn ghi ca bnh nhn\r\n        Records[] storage records = patients[patientAddr].records;\r\n        uint256 recordIndex = records.length;\r\n\r\n        // Tm bn ghi c IPFS khp\r\n        for (uint256 i = 0; i < records.length; i++) {\r\n            if (keccak256(abi.encodePacked(records[i].ipfs)) == keccak256(abi.encodePacked(_ipfs))) {\r\n                recordIndex = i;\r\n                break;\r\n            }\r\n        }\r\n\r\n        require(recordIndex < records.length, \"Record with the given IPFS not found\");\r\n\r\n        // Xa bn ghi bng cch di chuyn phn t cui cng vo v tr b xa\r\n        if (recordIndex < records.length - 1) {\r\n            records[recordIndex] = records[records.length - 1];\r\n        }\r\n\r\n        // Gim chiu di danh sch\r\n        records.pop();\r\n    }\r\n    \r\n\r\n//add doctor \r\n    function addDoctor(\r\n        string memory _name,\r\n        string memory _hname,\r\n        string memory _faculty,\r\n        string memory _contact,\r\n        uint256 license\r\n    ) public {\r\n        require(!isDoctor[msg.sender], \"Already Registered\");\r\n        require(msg.sender != owner, \"Contract owner cannot register as doctor\");\r\n        // require(msg.sender != patient, \"Patient cannot register as doctor\");\r\n        require(bytes(_name).length > 0, \"Doctor name is required\");\r\n        require(bytes(_hname).length > 0, \"Hospital name is required\");\r\n        require(bytes(_faculty).length > 0, \"Faculty is required\");\r\n        require(bytes(_contact).length > 0, \"Contact is required\");\r\n        // require(license > 0, \"License number must be greater than 0\");\r\n        require(Registered[_name][license], \"Doctor license is not registered\");\r\n\r\n        address _addr = msg.sender;\r\n        doctorList.push(_addr);\r\n\r\n        dindex = dindex + 1;\r\n        isDoctor[_addr] = true;\r\n        doctors[_addr].name = _name;\r\n        doctors[_addr].contact = _contact;\r\n        doctors[_addr].hname = _hname;\r\n        doctors[_addr].faculty = _faculty;\r\n        doctors[_addr].addr = _addr;\r\n        doctors[_addr].licenseno = license;\r\n        doctors[_addr].isApproved = true; // Set to true since license is registered\r\n    }\r\n\r\n\r\n\r\n    function getAllDoctors() public view returns (\r\n    uint256[] memory ids,\r\n    string[] memory names,\r\n    string[] memory contacts,\r\n    string[] memory hospitals,\r\n    string[] memory faculties,\r\n    address[] memory addresses,\r\n    bool[] memory approvals,\r\n    uint256[] memory licenses\r\n    ) {\r\n        uint256 doctorCount = doctorList.length;\r\n        \r\n        ids = new uint256[](doctorCount);\r\n        names = new string[](doctorCount);\r\n        contacts = new string[](doctorCount);\r\n        hospitals = new string[](doctorCount);\r\n        faculties = new string[](doctorCount);\r\n        addresses = new address[](doctorCount);\r\n        approvals = new bool[](doctorCount);\r\n        licenses = new uint256[](doctorCount);\r\n\r\n        for (uint256 i = 0; i < doctorCount; i++) {\r\n            doctor memory doc = doctors[doctorList[i]];\r\n            ids[i] = doc.id;\r\n            names[i] = doc.name;\r\n            contacts[i] = doc.contact;\r\n            hospitals[i] = doc.hname;\r\n            faculties[i] = doc.faculty;\r\n            addresses[i] = doc.addr;\r\n            approvals[i] = doc.isApproved;\r\n            licenses[i] = doc.licenseno;\r\n        }\r\n    }\r\n    \r\n\r\n function getDoctorByAddress(address _address) public view returns(uint256 id,string memory name , string memory contact ,string memory hname ,string memory faculty ,address addr , bool isApproved,uint256 licenseno) {\r\n        // require(doctors[_address].isApproved,\"Doctor is not Approved or doesn't exist\");\r\n        doctor memory doc = doctors[_address];\r\n        return (doc.id,doc.name,doc.contact,doc.hname,doc.faculty,doc.addr,doc.isApproved,doc.licenseno);\r\n    } \r\n    \r\n\r\n//Give access to certain address\r\n//     function grantAccess(address _addr) public returns (bool success)\r\n//     {   require(msg.sender != _addr,\"You cannot add yourself\");\r\n//         require(isDoctor[_addr],\"Not registered as doctor\");\r\n//         require(!Authorized[msg.sender][_addr],\"User is already authorized\");\r\n//         Authorized[msg.sender][_addr] = true;\r\n//         return true;\r\n//     }\r\n\r\n// //Revoke access of patient records from certain address\r\n//       function revoke_access(address _addr)  public returns (bool success){\r\n//         require(msg.sender!=_addr,\"You can't remove yourself\");\r\n//         require(Authorized[msg.sender][_addr],\"User is not authorized yet\");\r\n//         Authorized[msg.sender][_addr] = false;\r\n//         return true;\r\n    // }\r\n\r\n// function doctorLogin() public{\r\n//     if(Registered[doctors[msg.sender].name][doctors[msg.sender].licenseno] == true){\r\n//         doctors[msg.sender].isApproved = true;\r\n//     }\r\n// }\r\n\r\n}",
  "sourcePath": "/Volumes/data/workspace/MedicalApp/contracts/MedicalApp.sol",
  "compiler": {
    "name": "solc",
    "version": "0.8.0+commit.c7dfd78e.Emscripten.clang"
  },
  "schemaVersion": "3.4.16",
  "updatedAt": "2025-01-01T15:12:07.232Z",
  "networkType": "ethereum",
  "devdoc": {
    "kind": "dev",
    "methods": {},
    "version": 1
  },
  "userdoc": {
    "kind": "user",
    "methods": {},
    "version": 1
  }
}