{
  "contractName": "MedicalRecords",
  "abi": [
    {
      "inputs": [],
      "stateMutability": "nonpayable",
      "type": "constructor"
    },
    {
      "anonymous": false,
      "inputs": [
        {
          "indexed": true,
          "internalType": "address",
          "name": "user",
          "type": "address"
        },
        {
          "indexed": false,
          "internalType": "uint256",
          "name": "recordId",
          "type": "uint256"
        },
        {
          "indexed": false,
          "internalType": "uint256",
          "name": "timestamp",
          "type": "uint256"
        },
        {
          "indexed": false,
          "internalType": "string",
          "name": "name",
          "type": "string"
        },
        {
          "indexed": false,
          "internalType": "uint256",
          "name": "age",
          "type": "uint256"
        },
        {
          "indexed": false,
          "internalType": "string",
          "name": "gender",
          "type": "string"
        },
        {
          "indexed": false,
          "internalType": "string",
          "name": "bloodType",
          "type": "string"
        },
        {
          "indexed": false,
          "internalType": "string",
          "name": "allergies",
          "type": "string"
        },
        {
          "indexed": false,
          "internalType": "string",
          "name": "diagnosis",
          "type": "string"
        },
        {
          "indexed": false,
          "internalType": "string",
          "name": "treatment",
          "type": "string"
        },
        {
          "indexed": false,
          "internalType": "string",
          "name": "imageHash",
          "type": "string"
        }
      ],
      "name": "MedicalRecords__AddRecord",
      "type": "event"
    },
    {
      "anonymous": false,
      "inputs": [
        {
          "indexed": true,
          "internalType": "address",
          "name": "user",
          "type": "address"
        },
        {
          "indexed": false,
          "internalType": "uint256",
          "name": "recordId",
          "type": "uint256"
        }
      ],
      "name": "MedicalRecords__DeleteRecord",
      "type": "event"
    },
    {
      "anonymous": false,
      "inputs": [
        {
          "indexed": false,
          "internalType": "address",
          "name": "account",
          "type": "address"
        },
        {
          "indexed": false,
          "internalType": "enum MedicalRecords.Role",
          "name": "role",
          "type": "uint8"
        }
      ],
      "name": "MedicalRecords__RoleAssigned",
      "type": "event"
    },
    {
      "inputs": [
        {
          "internalType": "address",
          "name": "",
          "type": "address"
        },
        {
          "internalType": "uint256",
          "name": "",
          "type": "uint256"
        }
      ],
      "name": "isDeleted",
      "outputs": [
        {
          "internalType": "bool",
          "name": "",
          "type": "bool"
        }
      ],
      "stateMutability": "view",
      "type": "function"
    },
    {
      "inputs": [
        {
          "internalType": "address",
          "name": "",
          "type": "address"
        }
      ],
      "name": "recordCount",
      "outputs": [
        {
          "internalType": "uint256",
          "name": "",
          "type": "uint256"
        }
      ],
      "stateMutability": "view",
      "type": "function"
    },
    {
      "inputs": [
        {
          "internalType": "address",
          "name": "",
          "type": "address"
        },
        {
          "internalType": "uint256",
          "name": "",
          "type": "uint256"
        }
      ],
      "name": "records",
      "outputs": [
        {
          "internalType": "uint256",
          "name": "recordId",
          "type": "uint256"
        },
        {
          "internalType": "uint256",
          "name": "timestamp",
          "type": "uint256"
        },
        {
          "internalType": "string",
          "name": "name",
          "type": "string"
        },
        {
          "internalType": "uint256",
          "name": "age",
          "type": "uint256"
        },
        {
          "internalType": "string",
          "name": "gender",
          "type": "string"
        },
        {
          "internalType": "string",
          "name": "bloodType",
          "type": "string"
        },
        {
          "internalType": "string",
          "name": "allergies",
          "type": "string"
        },
        {
          "internalType": "string",
          "name": "diagnosis",
          "type": "string"
        },
        {
          "internalType": "string",
          "name": "treatment",
          "type": "string"
        },
        {
          "internalType": "string",
          "name": "imageHash",
          "type": "string"
        }
      ],
      "stateMutability": "view",
      "type": "function"
    },
    {
      "inputs": [
        {
          "internalType": "address",
          "name": "",
          "type": "address"
        }
      ],
      "name": "roles",
      "outputs": [
        {
          "internalType": "enum MedicalRecords.Role",
          "name": "",
          "type": "uint8"
        }
      ],
      "stateMutability": "view",
      "type": "function"
    },
    {
      "inputs": [
        {
          "internalType": "address",
          "name": "_account",
          "type": "address"
        },
        {
          "internalType": "enum MedicalRecords.Role",
          "name": "_role",
          "type": "uint8"
        }
      ],
      "name": "assignRole",
      "outputs": [],
      "stateMutability": "nonpayable",
      "type": "function"
    },
    {
      "inputs": [
        {
          "internalType": "string",
          "name": "_name",
          "type": "string"
        },
        {
          "internalType": "uint256",
          "name": "_age",
          "type": "uint256"
        },
        {
          "internalType": "string",
          "name": "_gender",
          "type": "string"
        },
        {
          "internalType": "string",
          "name": "_bloodType",
          "type": "string"
        },
        {
          "internalType": "string",
          "name": "_allergies",
          "type": "string"
        },
        {
          "internalType": "string",
          "name": "_diagnosis",
          "type": "string"
        },
        {
          "internalType": "string",
          "name": "_treatment",
          "type": "string"
        },
        {
          "internalType": "string",
          "name": "_imageHash",
          "type": "string"
        }
      ],
      "name": "addRecord",
      "outputs": [],
      "stateMutability": "nonpayable",
      "type": "function"
    },
    {
      "inputs": [
        {
          "internalType": "uint256",
          "name": "_recordId",
          "type": "uint256"
        }
      ],
      "name": "deleteRecord",
      "outputs": [],
      "stateMutability": "nonpayable",
      "type": "function"
    },
    {
      "inputs": [
        {
          "internalType": "address",
          "name": "_user",
          "type": "address"
        },
        {
          "internalType": "uint256",
          "name": "_recordId",
          "type": "uint256"
        }
      ],
      "name": "getRecord",
      "outputs": [
        {
          "internalType": "uint256",
          "name": "",
          "type": "uint256"
        },
        {
          "internalType": "string",
          "name": "",
          "type": "string"
        },
        {
          "internalType": "uint256",
          "name": "",
          "type": "uint256"
        },
        {
          "internalType": "string",
          "name": "",
          "type": "string"
        },
        {
          "internalType": "string",
          "name": "",
          "type": "string"
        },
        {
          "internalType": "string",
          "name": "",
          "type": "string"
        },
        {
          "internalType": "string",
          "name": "",
          "type": "string"
        },
        {
          "internalType": "string",
          "name": "",
          "type": "string"
        },
        {
          "internalType": "string",
          "name": "",
          "type": "string"
        }
      ],
      "stateMutability": "view",
      "type": "function"
    }
  ],
  "bytecode": "0x608060405234801561001057600080fd5b506001600360003373ffffffffffffffffffffffffffffffffffffffff1673ffffffffffffffffffffffffffffffffffffffff16815260200190815260200160002060006101000a81548160ff0219169083600281111561009a577f4e487b7100000000000000000000000000000000000000000000000000000000600052602160045260246000fd5b0217905550611d99806100ae6000396000f3fe608060405234801561001057600080fd5b50600436106100885760003560e01c8063993746421161005b578063993746421461012e578063ba63245d1461015e578063bb57298a1461018e578063cdb8acf0146101aa57610088565b8063061f98111461008d57806311b86280146100a9578063630a195b146100d957806382a6c0ac146100f5575b600080fd5b6100a760048036038101906100a2919061162e565b6101e2565b005b6100c360048036038101906100be9190611498565b6104ff565b6040516100d09190611841565b60405180910390f35b6100f360048036038101906100ee919061145c565b61052e565b005b61010f600480360381019061010a9190611498565b6106f7565b6040516101259a999897969594939291906119d0565b60405180910390f35b61014860048036038101906101439190611433565b610b10565b604051610155919061185c565b60405180910390f35b61017860048036038101906101739190611433565b610b30565b60405161018591906118f7565b60405180910390f35b6101a860048036038101906101a391906114d4565b610b48565b005b6101c460048036038101906101bf9190611498565b610dce565b6040516101d999989796959493929190611912565b60405180910390f35b60028081111561021b577f4e487b7100000000000000000000000000000000000000000000000000000000600052602160045260246000fd5b600360003373ffffffffffffffffffffffffffffffffffffffff1673ffffffffffffffffffffffffffffffffffffffff16815260200190815260200160002060009054906101000a900460ff1660028111156102a0577f4e487b7100000000000000000000000000000000000000000000000000000000600052602160045260246000fd5b14806103685750600160028111156102e1577f4e487b7100000000000000000000000000000000000000000000000000000000600052602160045260246000fd5b600360003373ffffffffffffffffffffffffffffffffffffffff1673ffffffffffffffffffffffffffffffffffffffff16815260200190815260200160002060009054906101000a900460ff166002811115610366577f4e487b7100000000000000000000000000000000000000000000000000000000600052602160045260246000fd5b145b6103a7576040517f08c379a000000000000000000000000000000000000000000000000000000000815260040161039e906118d7565b60405180910390fd5b600260003373ffffffffffffffffffffffffffffffffffffffff1673ffffffffffffffffffffffffffffffffffffffff168152602001908152602001600020600082815260200190815260200160002060009054906101000a900460ff1615610445576040517f08c379a000000000000000000000000000000000000000000000000000000000815260040161043c906118b7565b60405180910390fd5b6001600260003373ffffffffffffffffffffffffffffffffffffffff1673ffffffffffffffffffffffffffffffffffffffff168152602001908152602001600020600083815260200190815260200160002060006101000a81548160ff0219169083151502179055503373ffffffffffffffffffffffffffffffffffffffff167fcb959f78b0a526a76e113f3e027048ab8f2a092cb2a67c236d757deeafa4e10f826040516104f491906118f7565b60405180910390a250565b60026020528160005260406000206020528060005260406000206000915091509054906101000a900460ff1681565b60016002811115610568577f4e487b7100000000000000000000000000000000000000000000000000000000600052602160045260246000fd5b600360003373ffffffffffffffffffffffffffffffffffffffff1673ffffffffffffffffffffffffffffffffffffffff16815260200190815260200160002060009054906101000a900460ff1660028111156105ed577f4e487b7100000000000000000000000000000000000000000000000000000000600052602160045260246000fd5b1461062d576040517f08c379a000000000000000000000000000000000000000000000000000000000815260040161062490611897565b60405180910390fd5b80600360008473ffffffffffffffffffffffffffffffffffffffff1673ffffffffffffffffffffffffffffffffffffffff16815260200190815260200160002060006101000a81548160ff021916908360028111156106b5577f4e487b7100000000000000000000000000000000000000000000000000000000600052602160045260246000fd5b02179055507f6af09fd6a91ede680fa72ecd5f6a17180c3a9826fe97dc4ecde22c693ff2ef5b82826040516106eb929190611818565b60405180910390a15050565b60016020528160005260406000206020528060005260406000206000915091505080600001549080600101549080600201805461073390611bc9565b80601f016020809104026020016040519081016040528092919081815260200182805461075f90611bc9565b80156107ac5780601f10610781576101008083540402835291602001916107ac565b820191906000526020600020905b81548152906001019060200180831161078f57829003601f168201915b5050505050908060030154908060040180546107c790611bc9565b80601f01602080910402602001604051908101604052809291908181526020018280546107f390611bc9565b80156108405780601f1061081557610100808354040283529160200191610840565b820191906000526020600020905b81548152906001019060200180831161082357829003601f168201915b50505050509080600501805461085590611bc9565b80601f016020809104026020016040519081016040528092919081815260200182805461088190611bc9565b80156108ce5780601f106108a3576101008083540402835291602001916108ce565b820191906000526020600020905b8154815290600101906020018083116108b157829003601f168201915b5050505050908060060180546108e390611bc9565b80601f016020809104026020016040519081016040528092919081815260200182805461090f90611bc9565b801561095c5780601f106109315761010080835404028352916020019161095c565b820191906000526020600020905b81548152906001019060200180831161093f57829003601f168201915b50505050509080600701805461097190611bc9565b80601f016020809104026020016040519081016040528092919081815260200182805461099d90611bc9565b80156109ea5780601f106109bf576101008083540402835291602001916109ea565b820191906000526020600020905b8154815290600101906020018083116109cd57829003601f168201915b5050505050908060080180546109ff90611bc9565b80601f0160208091040260200160405190810160405280929190818152602001828054610a2b90611bc9565b8015610a785780601f10610a4d57610100808354040283529160200191610a78565b820191906000526020600020905b815481529060010190602001808311610a5b57829003601f168201915b505050505090806009018054610a8d90611bc9565b80601f0160208091040260200160405190810160405280929190818152602001828054610ab990611bc9565b8015610b065780601f10610adb57610100808354040283529160200191610b06565b820191906000526020600020905b815481529060010190602001808311610ae957829003601f168201915b505050505090508a565b60036020528060005260406000206000915054906101000a900460ff1681565b60006020528060005260406000206000915090505481565b6000803373ffffffffffffffffffffffffffffffffffffffff1673ffffffffffffffffffffffffffffffffffffffff1681526020019081526020016000206000815480929190610b9790611bfb565b919050555060008060003373ffffffffffffffffffffffffffffffffffffffff1673ffffffffffffffffffffffffffffffffffffffff1681526020019081526020016000205490506040518061014001604052808281526020014281526020018a815260200189815260200188815260200187815260200186815260200185815260200184815260200183815250600160003373ffffffffffffffffffffffffffffffffffffffff1673ffffffffffffffffffffffffffffffffffffffff168152602001908152602001600020600083815260200190815260200160002060008201518160000155602082015181600101556040820151816002019080519060200190610ca59291906112e9565b50606082015181600301556080820151816004019080519060200190610ccc9291906112e9565b5060a0820151816005019080519060200190610ce99291906112e9565b5060c0820151816006019080519060200190610d069291906112e9565b5060e0820151816007019080519060200190610d239291906112e9565b50610100820151816008019080519060200190610d419291906112e9565b50610120820151816009019080519060200190610d5f9291906112e9565b509050503373ffffffffffffffffffffffffffffffffffffffff167fc3cb2c3613d7d3f17d25e85a53f201e53321a1ba517cb8cb7bcf48b5fe0a48ab82428c8c8c8c8c8c8c8c604051610dbb9a999897969594939291906119d0565b60405180910390a2505050505050505050565b600060606000606080606080606080600260008c73ffffffffffffffffffffffffffffffffffffffff1673ffffffffffffffffffffffffffffffffffffffff16815260200190815260200160002060008b815260200190815260200160002060009054906101000a900460ff1615610e7b576040517f08c379a0000000000000000000000000000000000000000000000000000000008152600401610e7290611877565b60405180910390fd5b6000600160008d73ffffffffffffffffffffffffffffffffffffffff1673ffffffffffffffffffffffffffffffffffffffff16815260200190815260200160002060008c815260200190815260200160002090508060010154816002018260030154836004018460050185600601866007018760080188600901878054610f0190611bc9565b80601f0160208091040260200160405190810160405280929190818152602001828054610f2d90611bc9565b8015610f7a5780601f10610f4f57610100808354040283529160200191610f7a565b820191906000526020600020905b815481529060010190602001808311610f5d57829003601f168201915b50505050509750858054610f8d90611bc9565b80601f0160208091040260200160405190810160405280929190818152602001828054610fb990611bc9565b80156110065780601f10610fdb57610100808354040283529160200191611006565b820191906000526020600020905b815481529060010190602001808311610fe957829003601f168201915b5050505050955084805461101990611bc9565b80601f016020809104026020016040519081016040528092919081815260200182805461104590611bc9565b80156110925780601f1061106757610100808354040283529160200191611092565b820191906000526020600020905b81548152906001019060200180831161107557829003601f168201915b505050505094508380546110a590611bc9565b80601f01602080910402602001604051908101604052809291908181526020018280546110d190611bc9565b801561111e5780601f106110f35761010080835404028352916020019161111e565b820191906000526020600020905b81548152906001019060200180831161110157829003601f168201915b5050505050935082805461113190611bc9565b80601f016020809104026020016040519081016040528092919081815260200182805461115d90611bc9565b80156111aa5780601f1061117f576101008083540402835291602001916111aa565b820191906000526020600020905b81548152906001019060200180831161118d57829003601f168201915b505050505092508180546111bd90611bc9565b80601f01602080910402602001604051908101604052809291908181526020018280546111e990611bc9565b80156112365780601f1061120b57610100808354040283529160200191611236565b820191906000526020600020905b81548152906001019060200180831161121957829003601f168201915b5050505050915080805461124990611bc9565b80601f016020809104026020016040519081016040528092919081815260200182805461127590611bc9565b80156112c25780601f10611297576101008083540402835291602001916112c2565b820191906000526020600020905b8154815290600101906020018083116112a557829003601f168201915b50505050509050995099509950995099509950995099509950509295985092959850929598565b8280546112f590611bc9565b90600052602060002090601f016020900481019282611317576000855561135e565b82601f1061133057805160ff191683800117855561135e565b8280016001018555821561135e579182015b8281111561135d578251825591602001919060010190611342565b5b50905061136b919061136f565b5090565b5b80821115611388576000816000905550600101611370565b5090565b600061139f61139a84611ace565b611a9d565b9050828152602081018484840111156113b757600080fd5b6113c2848285611b87565b509392505050565b6000813590506113d981611d25565b92915050565b6000813590506113ee81611d3c565b92915050565b600082601f83011261140557600080fd5b813561141584826020860161138c565b91505092915050565b60008135905061142d81611d4c565b92915050565b60006020828403121561144557600080fd5b6000611453848285016113ca565b91505092915050565b6000806040838503121561146f57600080fd5b600061147d858286016113ca565b925050602061148e858286016113df565b9150509250929050565b600080604083850312156114ab57600080fd5b60006114b9858286016113ca565b92505060206114ca8582860161141e565b9150509250929050565b600080600080600080600080610100898b0312156114f157600080fd5b600089013567ffffffffffffffff81111561150b57600080fd5b6115178b828c016113f4565b98505060206115288b828c0161141e565b975050604089013567ffffffffffffffff81111561154557600080fd5b6115518b828c016113f4565b965050606089013567ffffffffffffffff81111561156e57600080fd5b61157a8b828c016113f4565b955050608089013567ffffffffffffffff81111561159757600080fd5b6115a38b828c016113f4565b94505060a089013567ffffffffffffffff8111156115c057600080fd5b6115cc8b828c016113f4565b93505060c089013567ffffffffffffffff8111156115e957600080fd5b6115f58b828c016113f4565b92505060e089013567ffffffffffffffff81111561161257600080fd5b61161e8b828c016113f4565b9150509295985092959890939650565b60006020828403121561164057600080fd5b600061164e8482850161141e565b91505092915050565b61166081611b1a565b82525050565b61166f81611b2c565b82525050565b61167e81611b75565b82525050565b600061168f82611afe565b6116998185611b09565b93506116a9818560208601611b96565b6116b281611d00565b840191505092915050565b60006116ca601583611b09565b91507f546865207265636f72642069732064656c6574656400000000000000000000006000830152602082019050919050565b600061170a602283611b09565b91507f4f6e6c792061646d696e2063616e20706572666f726d2074686973206163746960008301527f6f6e0000000000000000000000000000000000000000000000000000000000006020830152604082019050919050565b6000611770601d83611b09565b91507f546865207265636f726420697320616c72656164792064656c657465640000006000830152602082019050919050565b60006117b0602c83611b09565b91507f4f6e6c7920646f63746f72206f722061646d696e2063616e20706572666f726d60008301527f207468697320616374696f6e00000000000000000000000000000000000000006020830152604082019050919050565b61181281611b6b565b82525050565b600060408201905061182d6000830185611657565b61183a6020830184611675565b9392505050565b60006020820190506118566000830184611666565b92915050565b60006020820190506118716000830184611675565b92915050565b60006020820190508181036000830152611890816116bd565b9050919050565b600060208201905081810360008301526118b0816116fd565b9050919050565b600060208201905081810360008301526118d081611763565b9050919050565b600060208201905081810360008301526118f0816117a3565b9050919050565b600060208201905061190c6000830184611809565b92915050565b600061012082019050611928600083018c611809565b818103602083015261193a818b611684565b9050611949604083018a611809565b818103606083015261195b8189611684565b9050818103608083015261196f8188611684565b905081810360a08301526119838187611684565b905081810360c08301526119978186611684565b905081810360e08301526119ab8185611684565b90508181036101008301526119c08184611684565b90509a9950505050505050505050565b6000610140820190506119e6600083018d611809565b6119f3602083018c611809565b8181036040830152611a05818b611684565b9050611a14606083018a611809565b8181036080830152611a268189611684565b905081810360a0830152611a3a8188611684565b905081810360c0830152611a4e8187611684565b905081810360e0830152611a628186611684565b9050818103610100830152611a778185611684565b9050818103610120830152611a8c8184611684565b90509b9a5050505050505050505050565b6000604051905081810181811067ffffffffffffffff82111715611ac457611ac3611cd1565b5b8060405250919050565b600067ffffffffffffffff821115611ae957611ae8611cd1565b5b601f19601f8301169050602081019050919050565b600081519050919050565b600082825260208201905092915050565b6000611b2582611b4b565b9050919050565b60008115159050919050565b6000819050611b4682611d11565b919050565b600073ffffffffffffffffffffffffffffffffffffffff82169050919050565b6000819050919050565b6000611b8082611b38565b9050919050565b82818337600083830152505050565b60005b83811015611bb4578082015181840152602081019050611b99565b83811115611bc3576000848401525b50505050565b60006002820490506001821680611be157607f821691505b60208210811415611bf557611bf4611ca2565b5b50919050565b6000611c0682611b6b565b91507fffffffffffffffffffffffffffffffffffffffffffffffffffffffffffffffff821415611c3957611c38611c44565b5b600182019050919050565b7f4e487b7100000000000000000000000000000000000000000000000000000000600052601160045260246000fd5b7f4e487b7100000000000000000000000000000000000000000000000000000000600052602160045260246000fd5b7f4e487b7100000000000000000000000000000000000000000000000000000000600052602260045260246000fd5b7f4e487b7100000000000000000000000000000000000000000000000000000000600052604160045260246000fd5b6000601f19601f8301169050919050565b60038110611d2257611d21611c73565b5b50565b611d2e81611b1a565b8114611d3957600080fd5b50565b60038110611d4957600080fd5b50565b611d5581611b6b565b8114611d6057600080fd5b5056fea264697066735822122023de6eb98ea70cecb8412bcd21aed52a70509f72ad8890a023b751614955ea5764736f6c63430008000033",
  "immutableReferences": {},
  "source": "// SPDX-License-Identifier: MIT\npragma solidity ^0.8.0;\n\ncontract MedicalRecords {\n    mapping(address => uint) public recordCount;\n    mapping(address => mapping(uint => Record)) public records;\n    mapping(address => mapping(uint => bool)) public isDeleted;\n    mapping(address => Role) public roles;\n\n    struct Record {\n        uint recordId;\n        uint timestamp;\n        string name;\n        uint age;\n        string gender;\n        string bloodType;\n        string allergies;\n        string diagnosis;\n        string treatment;\n        string imageHash; // CID hoc URL ca hnh nh\n    }\n\n    enum Role { NONE, ADMIN, DOCTOR }\n\n    event MedicalRecords__AddRecord(\n        address indexed user,\n        uint recordId,\n        uint timestamp,\n        string name,\n        uint age,\n        string gender,\n        string bloodType,\n        string allergies,\n        string diagnosis,\n        string treatment,\n        string imageHash\n    );\n\n    event MedicalRecords__DeleteRecord(address indexed user, uint recordId);\n    event MedicalRecords__RoleAssigned(address account, Role role);\n\n    modifier onlyAdmin() {\n        require(roles[msg.sender] == Role.ADMIN, \"Only admin can perform this action\");\n        _;\n    }\n\n    modifier onlyDoctorOrAdmin() {\n        require(\n            roles[msg.sender] == Role.DOCTOR || roles[msg.sender] == Role.ADMIN,\n            \"Only doctor or admin can perform this action\"\n        );\n        _;\n    }\n\n    constructor() {\n        roles[msg.sender] = Role.ADMIN; // Ngi deploy l admin mc nh\n    }\n\n    function assignRole(address _account, Role _role) public onlyAdmin {\n        roles[_account] = _role;\n        emit MedicalRecords__RoleAssigned(_account, _role);\n    }\n\n    function addRecord(\n        string memory _name,\n        uint _age,\n        string memory _gender,\n        string memory _bloodType,\n        string memory _allergies,\n        string memory _diagnosis,\n        string memory _treatment,\n        string memory _imageHash\n    ) public {    //onlyDoctorOrAdmin\n        recordCount[msg.sender]++;\n        uint newRecordId = recordCount[msg.sender];\n        records[msg.sender][newRecordId] = Record(\n            newRecordId,\n            block.timestamp,\n            _name,\n            _age,\n            _gender,\n            _bloodType,\n            _allergies,\n            _diagnosis,\n            _treatment,\n            _imageHash\n        );\n        emit MedicalRecords__AddRecord(\n            msg.sender,\n            newRecordId,\n            block.timestamp,\n            _name,\n            _age,\n            _gender,\n            _bloodType,\n            _allergies,\n            _diagnosis,\n            _treatment,\n            _imageHash\n        );\n    }\n\n    function deleteRecord(uint _recordId) public onlyDoctorOrAdmin {\n        require(!isDeleted[msg.sender][_recordId], \"The record is already deleted\");\n        isDeleted[msg.sender][_recordId] = true;\n        emit MedicalRecords__DeleteRecord(msg.sender, _recordId);\n    }\n\n    function getRecord(address _user, uint _recordId)\n        public\n        view\n        returns (\n            uint,\n            string memory,\n            uint,\n            string memory,\n            string memory,\n            string memory,\n            string memory,\n            string memory,\n            string memory\n        )\n    {\n        require(!isDeleted[_user][_recordId], \"The record is deleted\");\n        Record storage record = records[_user][_recordId];\n        return (\n            record.timestamp,\n            record.name,\n            record.age,\n            record.gender,\n            record.bloodType,\n            record.allergies,\n            record.diagnosis,\n            record.treatment,\n            record.imageHash\n        );\n    }\n}\n",
  "sourcePath": "/Volumes/data/workspace/MedicalApp/contracts/MedicalRecords.sol",
  "compiler": {
    "name": "solc",
    "version": "0.8.0+commit.c7dfd78e.Emscripten.clang"
  },
  "schemaVersion": "3.4.16",
  "updatedAt": "2025-01-02T12:43:25.014Z",
  "devdoc": {
    "kind": "dev",
    "methods": {},
    "version": 1
  },
  "userdoc": {
    "kind": "user",
    "methods": {},
    "version": 1
  }
}