{
  "contractName": "meDossier",
  "abi": [
    {
      "inputs": [],
      "stateMutability": "nonpayable",
      "type": "constructor"
    },
    {
      "inputs": [
        {
          "internalType": "string",
          "name": "_name",
          "type": "string"
        },
        {
          "internalType": "string",
          "name": "_phone",
          "type": "string"
        },
        {
          "internalType": "string",
          "name": "_gender",
          "type": "string"
        },
        {
          "internalType": "string",
          "name": "_dob",
          "type": "string"
        },
        {
          "internalType": "string",
          "name": "_bloodgroup",
          "type": "string"
        }
      ],
      "name": "addPatient",
      "outputs": [],
      "stateMutability": "nonpayable",
      "type": "function"
    },
    {
      "inputs": [],
      "name": "dindex",
      "outputs": [
        {
          "internalType": "uint256",
          "name": "",
          "type": "uint256"
        }
      ],
      "stateMutability": "view",
      "type": "function",
      "constant": true
    },
    {
      "inputs": [
        {
          "internalType": "uint256",
          "name": "",
          "type": "uint256"
        }
      ],
      "name": "doctorList",
      "outputs": [
        {
          "internalType": "address",
          "name": "",
          "type": "address"
        }
      ],
      "stateMutability": "view",
      "type": "function",
      "constant": true
    },
    {
      "inputs": [
        {
          "internalType": "address",
          "name": "_addr",
          "type": "address"
        }
      ],
      "name": "getAllPatientRecords",
      "outputs": [
        {
          "internalType": "string[]",
          "name": "dnames",
          "type": "string[]"
        },
        {
          "internalType": "string[]",
          "name": "reasons",
          "type": "string[]"
        },
        {
          "internalType": "string[]",
          "name": "visitedDates",
          "type": "string[]"
        },
        {
          "internalType": "string[]",
          "name": "ipfsHashes",
          "type": "string[]"
        }
      ],
      "stateMutability": "view",
      "type": "function",
      "constant": true
    },
    {
      "inputs": [],
      "name": "getAllPatients",
      "outputs": [
        {
          "internalType": "uint256[]",
          "name": "ids",
          "type": "uint256[]"
        },
        {
          "internalType": "address[]",
          "name": "addresses",
          "type": "address[]"
        },
        {
          "internalType": "string[]",
          "name": "names",
          "type": "string[]"
        },
        {
          "internalType": "string[]",
          "name": "phones",
          "type": "string[]"
        },
        {
          "internalType": "string[]",
          "name": "genders",
          "type": "string[]"
        },
        {
          "internalType": "string[]",
          "name": "dobs",
          "type": "string[]"
        },
        {
          "internalType": "string[]",
          "name": "bloodgroups",
          "type": "string[]"
        }
      ],
      "stateMutability": "view",
      "type": "function",
      "constant": true
    },
    {
      "inputs": [
        {
          "internalType": "address",
          "name": "_addr",
          "type": "address"
        }
      ],
      "name": "getPatientDetails",
      "outputs": [
        {
          "internalType": "string",
          "name": "_name",
          "type": "string"
        },
        {
          "internalType": "string",
          "name": "_phone",
          "type": "string"
        },
        {
          "internalType": "string",
          "name": "_gender",
          "type": "string"
        },
        {
          "internalType": "string",
          "name": "_dob",
          "type": "string"
        },
        {
          "internalType": "string",
          "name": "_bloodgroup",
          "type": "string"
        }
      ],
      "stateMutability": "view",
      "type": "function",
      "constant": true
    },
    {
      "inputs": [],
      "name": "getPatientList",
      "outputs": [
        {
          "internalType": "address[]",
          "name": "",
          "type": "address[]"
        }
      ],
      "stateMutability": "view",
      "type": "function",
      "constant": true
    },
    {
      "inputs": [
        {
          "internalType": "address",
          "name": "_addr",
          "type": "address"
        }
      ],
      "name": "grantAccess",
      "outputs": [
        {
          "internalType": "bool",
          "name": "success",
          "type": "bool"
        }
      ],
      "stateMutability": "nonpayable",
      "type": "function"
    },
    {
      "inputs": [],
      "name": "owner",
      "outputs": [
        {
          "internalType": "address",
          "name": "",
          "type": "address"
        }
      ],
      "stateMutability": "view",
      "type": "function",
      "constant": true
    },
    {
      "inputs": [],
      "name": "pindex",
      "outputs": [
        {
          "internalType": "uint256",
          "name": "",
          "type": "uint256"
        }
      ],
      "stateMutability": "view",
      "type": "function",
      "constant": true
    },
    {
      "inputs": [
        {
          "internalType": "uint256",
          "name": "",
          "type": "uint256"
        }
      ],
      "name": "registeredDoctorList",
      "outputs": [
        {
          "internalType": "uint256",
          "name": "",
          "type": "uint256"
        }
      ],
      "stateMutability": "view",
      "type": "function",
      "constant": true
    },
    {
      "inputs": [
        {
          "internalType": "address",
          "name": "_addr",
          "type": "address"
        }
      ],
      "name": "revoke_access",
      "outputs": [
        {
          "internalType": "bool",
          "name": "success",
          "type": "bool"
        }
      ],
      "stateMutability": "nonpayable",
      "type": "function"
    },
    {
      "inputs": [
        {
          "internalType": "address",
          "name": "addr",
          "type": "address"
        }
      ],
      "name": "user",
      "outputs": [
        {
          "internalType": "int256",
          "name": "success",
          "type": "int256"
        }
      ],
      "stateMutability": "view",
      "type": "function",
      "constant": true
    },
    {
      "inputs": [
        {
          "internalType": "string",
          "name": "docname",
          "type": "string"
        },
        {
          "internalType": "uint256",
          "name": "license",
          "type": "uint256"
        }
      ],
      "name": "registerDoctor",
      "outputs": [],
      "stateMutability": "nonpayable",
      "type": "function"
    },
    {
      "inputs": [
        {
          "internalType": "string",
          "name": "_dname",
          "type": "string"
        },
        {
          "internalType": "string",
          "name": "_reason",
          "type": "string"
        },
        {
          "internalType": "string",
          "name": "_visitedDate",
          "type": "string"
        },
        {
          "internalType": "string",
          "name": "_ipfs",
          "type": "string"
        },
        {
          "internalType": "address",
          "name": "addr",
          "type": "address"
        }
      ],
      "name": "addRecord",
      "outputs": [],
      "stateMutability": "nonpayable",
      "type": "function"
    },
    {
      "inputs": [
        {
          "internalType": "address",
          "name": "patientAddr",
          "type": "address"
        },
        {
          "internalType": "string",
          "name": "_ipfs",
          "type": "string"
        }
      ],
      "name": "deleteRecord",
      "outputs": [],
      "stateMutability": "nonpayable",
      "type": "function"
    },
    {
      "inputs": [
        {
          "internalType": "string",
          "name": "_name",
          "type": "string"
        },
        {
          "internalType": "string",
          "name": "_hname",
          "type": "string"
        },
        {
          "internalType": "string",
          "name": "_faculty",
          "type": "string"
        },
        {
          "internalType": "string",
          "name": "_contact",
          "type": "string"
        },
        {
          "internalType": "uint256",
          "name": "license",
          "type": "uint256"
        }
      ],
      "name": "addDoctor",
      "outputs": [],
      "stateMutability": "nonpayable",
      "type": "function"
    },
    {
      "inputs": [],
      "name": "getAllDoctors",
      "outputs": [
        {
          "internalType": "uint256[]",
          "name": "ids",
          "type": "uint256[]"
        },
        {
          "internalType": "string[]",
          "name": "names",
          "type": "string[]"
        },
        {
          "internalType": "string[]",
          "name": "contacts",
          "type": "string[]"
        },
        {
          "internalType": "string[]",
          "name": "hospitals",
          "type": "string[]"
        },
        {
          "internalType": "string[]",
          "name": "faculties",
          "type": "string[]"
        },
        {
          "internalType": "address[]",
          "name": "addresses",
          "type": "address[]"
        },
        {
          "internalType": "bool[]",
          "name": "approvals",
          "type": "bool[]"
        },
        {
          "internalType": "uint256[]",
          "name": "licenses",
          "type": "uint256[]"
        }
      ],
      "stateMutability": "view",
      "type": "function",
      "constant": true
    },
    {
      "inputs": [
        {
          "internalType": "address",
          "name": "_address",
          "type": "address"
        }
      ],
      "name": "getDoctorByAddress",
      "outputs": [
        {
          "internalType": "uint256",
          "name": "id",
          "type": "uint256"
        },
        {
          "internalType": "string",
          "name": "name",
          "type": "string"
        },
        {
          "internalType": "string",
          "name": "contact",
          "type": "string"
        },
        {
          "internalType": "string",
          "name": "hname",
          "type": "string"
        },
        {
          "internalType": "string",
          "name": "faculty",
          "type": "string"
        },
        {
          "internalType": "address",
          "name": "addr",
          "type": "address"
        },
        {
          "internalType": "bool",
          "name": "isApproved",
          "type": "bool"
        },
        {
          "internalType": "uint256",
          "name": "licenseno",
          "type": "uint256"
        }
      ],
      "stateMutability": "view",
      "type": "function",
      "constant": true
    }
  ],
  "bytecode": "0x608060405260008055600060015534801561001957600080fd5b5033600a60006101000a81548173ffffffffffffffffffffffffffffffffffffffff021916908373ffffffffffffffffffffffffffffffffffffffff160217905550615e13806200006b6000396000f3fe608060405234801561001057600080fd5b50600436106101215760003560e01c806358c5d4bf116100ad578063928ed9da11610071578063928ed9da14610327578063abec773d14610345578063cdfbfb5c14610375578063efe2ccc1146103a8578063f0d95090146103dc57610121565b806358c5d4bf1461026a57806370333b80146102a157806381e7e20e146102bd5780638c406f2e146102ed5780638da5cb5b1461030957610121565b806327b1dcee116100f457806327b1dcee146101c6578063312625f8146101f6578063503b1354146102125780635658e43b1461023057806356fa82171461024e57610121565b80630ae5e73914610126578063127ca4b414610156578063136bd1481461018657806318a231a9146101a2575b600080fd5b610140600480360381019061013b9190614752565b610401565b60405161014d9190615625565b60405180910390f35b610170600480360381019061016b9190614ac0565b610666565b60405161017d9190615431565b60405180910390f35b6101a0600480360381019061019b9190614a6c565b6106a5565b005b6101aa6107aa565b6040516101bd97969594939291906154cf565b60405180910390f35b6101e060048036038101906101db9190614752565b6113de565b6040516101ed9190615625565b60405180910390f35b610210600480360381019061020b9190614995565b6115b6565b005b61021a611bbb565b604051610227919061544c565b60405180910390f35b610238611c49565b6040516102459190615931565b60405180910390f35b610268600480360381019061026391906148a6565b611c4f565b005b610284600480360381019061027f9190614752565b612076565b60405161029898979695949392919061594c565b60405180910390f35b6102bb60048036038101906102b691906147cf565b6123e2565b005b6102d760048036038101906102d29190614752565b612646565b6040516102e49190615640565b60405180910390f35b6103076004803603810190610302919061477b565b612775565b005b610311612bf7565b60405161031e9190615431565b60405180910390f35b61032f612c1d565b60405161033c9190615931565b60405180910390f35b61035f600480360381019061035a9190614ac0565b612c23565b60405161036c9190615931565b60405180910390f35b61038f600480360381019061038a9190614752565b612c47565b60405161039f949392919061546e565b60405180910390f35b6103c260048036038101906103bd9190614752565b613482565b6040516103d395949392919061565b565b60405180910390f35b6103e4613b73565b6040516103f898979695949392919061556f565b60405180910390f35b60008173ffffffffffffffffffffffffffffffffffffffff163373ffffffffffffffffffffffffffffffffffffffff161415610472576040517f08c379a000000000000000000000000000000000000000000000000000000000815260040161046990615871565b60405180910390fd5b600560008373ffffffffffffffffffffffffffffffffffffffff1673ffffffffffffffffffffffffffffffffffffffff16815260200190815260200160002060009054906101000a900460ff166104fe576040517f08c379a00000000000000000000000000000000000000000000000000000000081526004016104f5906157f1565b60405180910390fd5b600660003373ffffffffffffffffffffffffffffffffffffffff1673ffffffffffffffffffffffffffffffffffffffff16815260200190815260200160002060008373ffffffffffffffffffffffffffffffffffffffff1673ffffffffffffffffffffffffffffffffffffffff16815260200190815260200160002060009054906101000a900460ff16156105c8576040517f08c379a00000000000000000000000000000000000000000000000000000000081526004016105bf906158d1565b60405180910390fd5b6001600660003373ffffffffffffffffffffffffffffffffffffffff1673ffffffffffffffffffffffffffffffffffffffff16815260200190815260200160002060008473ffffffffffffffffffffffffffffffffffffffff1673ffffffffffffffffffffffffffffffffffffffff16815260200190815260200160002060006101000a81548160ff02191690831515021790555060019050919050565b6008818154811061067657600080fd5b906000526020600020016000915054906101000a900473ffffffffffffffffffffffffffffffffffffffff1681565b600a60009054906101000a900473ffffffffffffffffffffffffffffffffffffffff1673ffffffffffffffffffffffffffffffffffffffff163373ffffffffffffffffffffffffffffffffffffffff1614610735576040517f08c379a000000000000000000000000000000000000000000000000000000000815260040161072c90615911565b60405180910390fd5b60016007836040516107479190615403565b9081526020016040518091039020600083815260200190815260200160002060006101000a81548160ff02191690831515021790555060098190806001815401808255809150506001900390600052602060002001600090919091909150555050565b6060806060806060806060600060028054905090508067ffffffffffffffff8111156107ff577f4e487b7100000000000000000000000000000000000000000000000000000000600052604160045260246000fd5b60405190808252806020026020018201604052801561082d5781602001602082028036833780820191505090505b5097508067ffffffffffffffff811115610870577f4e487b7100000000000000000000000000000000000000000000000000000000600052604160045260246000fd5b60405190808252806020026020018201604052801561089e5781602001602082028036833780820191505090505b5096508067ffffffffffffffff8111156108e1577f4e487b7100000000000000000000000000000000000000000000000000000000600052604160045260246000fd5b60405190808252806020026020018201604052801561091457816020015b60608152602001906001900390816108ff5790505b5095508067ffffffffffffffff811115610957577f4e487b7100000000000000000000000000000000000000000000000000000000600052604160045260246000fd5b60405190808252806020026020018201604052801561098a57816020015b60608152602001906001900390816109755790505b5094508067ffffffffffffffff8111156109cd577f4e487b7100000000000000000000000000000000000000000000000000000000600052604160045260246000fd5b604051908082528060200260200182016040528015610a0057816020015b60608152602001906001900390816109eb5790505b5093508067ffffffffffffffff811115610a43577f4e487b7100000000000000000000000000000000000000000000000000000000600052604160045260246000fd5b604051908082528060200260200182016040528015610a7657816020015b6060815260200190600190039081610a615790505b5092508067ffffffffffffffff811115610ab9577f4e487b7100000000000000000000000000000000000000000000000000000000600052604160045260246000fd5b604051908082528060200260200182016040528015610aec57816020015b6060815260200190600190039081610ad75790505b50915060005b818110156113d357600060028281548110610b36577f4e487b7100000000000000000000000000000000000000000000000000000000600052603260045260246000fd5b9060005260206000200160009054906101000a900473ffffffffffffffffffffffffffffffffffffffff1690506000600360008373ffffffffffffffffffffffffffffffffffffffff1673ffffffffffffffffffffffffffffffffffffffff1681526020019081526020016000206040518061010001604052908160008201548152602001600182018054610bca90615c96565b80601f0160208091040260200160405190810160405280929190818152602001828054610bf690615c96565b8015610c435780601f10610c1857610100808354040283529160200191610c43565b820191906000526020600020905b815481529060010190602001808311610c2657829003601f168201915b50505050508152602001600282018054610c5c90615c96565b80601f0160208091040260200160405190810160405280929190818152602001828054610c8890615c96565b8015610cd55780601f10610caa57610100808354040283529160200191610cd5565b820191906000526020600020905b815481529060010190602001808311610cb857829003601f168201915b50505050508152602001600382018054610cee90615c96565b80601f0160208091040260200160405190810160405280929190818152602001828054610d1a90615c96565b8015610d675780601f10610d3c57610100808354040283529160200191610d67565b820191906000526020600020905b815481529060010190602001808311610d4a57829003601f168201915b50505050508152602001600482018054610d8090615c96565b80601f0160208091040260200160405190810160405280929190818152602001828054610dac90615c96565b8015610df95780601f10610dce57610100808354040283529160200191610df9565b820191906000526020600020905b815481529060010190602001808311610ddc57829003601f168201915b50505050508152602001600582018054610e1290615c96565b80601f0160208091040260200160405190810160405280929190818152602001828054610e3e90615c96565b8015610e8b5780601f10610e6057610100808354040283529160200191610e8b565b820191906000526020600020905b815481529060010190602001808311610e6e57829003601f168201915b5050505050815260200160068201805480602002602001604051908101604052809291908181526020016000905b828210156111335783829060005260206000209060040201604051806080016040529081600082018054610eec90615c96565b80601f0160208091040260200160405190810160405280929190818152602001828054610f1890615c96565b8015610f655780601f10610f3a57610100808354040283529160200191610f65565b820191906000526020600020905b815481529060010190602001808311610f4857829003601f168201915b50505050508152602001600182018054610f7e90615c96565b80601f0160208091040260200160405190810160405280929190818152602001828054610faa90615c96565b8015610ff75780601f10610fcc57610100808354040283529160200191610ff7565b820191906000526020600020905b815481529060010190602001808311610fda57829003601f168201915b5050505050815260200160028201805461101090615c96565b80601f016020809104026020016040519081016040528092919081815260200182805461103c90615c96565b80156110895780601f1061105e57610100808354040283529160200191611089565b820191906000526020600020905b81548152906001019060200180831161106c57829003601f168201915b505050505081526020016003820180546110a290615c96565b80601f01602080910402602001604051908101604052809291908181526020018280546110ce90615c96565b801561111b5780601f106110f05761010080835404028352916020019161111b565b820191906000526020600020905b8154815290600101906020018083116110fe57829003601f168201915b50505050508152505081526020019060010190610eb9565b5050505081526020016007820160009054906101000a900473ffffffffffffffffffffffffffffffffffffffff1673ffffffffffffffffffffffffffffffffffffffff1673ffffffffffffffffffffffffffffffffffffffff1681525050905080600001518b84815181106111d1577f4e487b7100000000000000000000000000000000000000000000000000000000600052603260045260246000fd5b602002602001018181525050818a8481518110611217577f4e487b7100000000000000000000000000000000000000000000000000000000600052603260045260246000fd5b602002602001019073ffffffffffffffffffffffffffffffffffffffff16908173ffffffffffffffffffffffffffffffffffffffff1681525050806020015189848151811061128f577f4e487b7100000000000000000000000000000000000000000000000000000000600052603260045260246000fd5b602002602001018190525080604001518884815181106112d8577f4e487b7100000000000000000000000000000000000000000000000000000000600052603260045260246000fd5b60200260200101819052508060600151878481518110611321577f4e487b7100000000000000000000000000000000000000000000000000000000600052603260045260246000fd5b6020026020010181905250806080015186848151811061136a577f4e487b7100000000000000000000000000000000000000000000000000000000600052603260045260246000fd5b60200260200101819052508060a001518584815181106113b3577f4e487b7100000000000000000000000000000000000000000000000000000000600052603260045260246000fd5b6020026020010181905250505080806113cb90615cc8565b915050610af2565b505090919293949596565b60008173ffffffffffffffffffffffffffffffffffffffff163373ffffffffffffffffffffffffffffffffffffffff16141561144f576040517f08c379a000000000000000000000000000000000000000000000000000000000815260040161144690615791565b60405180910390fd5b600660003373ffffffffffffffffffffffffffffffffffffffff1673ffffffffffffffffffffffffffffffffffffffff16815260200190815260200160002060008373ffffffffffffffffffffffffffffffffffffffff1673ffffffffffffffffffffffffffffffffffffffff16815260200190815260200160002060009054906101000a900460ff16611518576040517f08c379a000000000000000000000000000000000000000000000000000000000815260040161150f90615831565b60405180910390fd5b6000600660003373ffffffffffffffffffffffffffffffffffffffff1673ffffffffffffffffffffffffffffffffffffffff16815260200190815260200160002060008473ffffffffffffffffffffffffffffffffffffffff1673ffffffffffffffffffffffffffffffffffffffff16815260200190815260200160002060006101000a81548160ff02191690831515021790555060019050919050565b600560003373ffffffffffffffffffffffffffffffffffffffff1673ffffffffffffffffffffffffffffffffffffffff16815260200190815260200160002060009054906101000a900460ff1615611643576040517f08c379a000000000000000000000000000000000000000000000000000000000815260040161163a906157b1565b60405180910390fd5b600a60009054906101000a900473ffffffffffffffffffffffffffffffffffffffff1673ffffffffffffffffffffffffffffffffffffffff163373ffffffffffffffffffffffffffffffffffffffff1614156116d4576040517f08c379a00000000000000000000000000000000000000000000000000000000081526004016116cb90615771565b60405180910390fd5b6000855111611718576040517f08c379a000000000000000000000000000000000000000000000000000000000815260040161170f90615711565b60405180910390fd5b600084511161175c576040517f08c379a000000000000000000000000000000000000000000000000000000000815260040161175390615811565b60405180910390fd5b60008351116117a0576040517f08c379a000000000000000000000000000000000000000000000000000000000815260040161179790615851565b60405180910390fd5b60008251116117e4576040517f08c379a00000000000000000000000000000000000000000000000000000000081526004016117db90615751565b60405180910390fd5b6007856040516117f49190615403565b9081526020016040518091039020600082815260200190815260200160002060009054906101000a900460ff16611860576040517f08c379a0000000000000000000000000000000000000000000000000000000008152600401611857906158b1565b60405180910390fd5b60003390506008819080600181540180825580915050600190039060005260206000200160009091909190916101000a81548173ffffffffffffffffffffffffffffffffffffffff021916908373ffffffffffffffffffffffffffffffffffffffff160217905550600180546118d69190615b78565b6001819055506001600560008373ffffffffffffffffffffffffffffffffffffffff1673ffffffffffffffffffffffffffffffffffffffff16815260200190815260200160002060006101000a81548160ff02191690831515021790555085600b60008373ffffffffffffffffffffffffffffffffffffffff1673ffffffffffffffffffffffffffffffffffffffff168152602001908152602001600020600101908051906020019061198a929190614550565b5082600b60008373ffffffffffffffffffffffffffffffffffffffff1673ffffffffffffffffffffffffffffffffffffffff16815260200190815260200160002060020190805190602001906119e1929190614550565b5084600b60008373ffffffffffffffffffffffffffffffffffffffff1673ffffffffffffffffffffffffffffffffffffffff1681526020019081526020016000206003019080519060200190611a38929190614550565b5083600b60008373ffffffffffffffffffffffffffffffffffffffff1673ffffffffffffffffffffffffffffffffffffffff1681526020019081526020016000206004019080519060200190611a8f929190614550565b5080600b60008373ffffffffffffffffffffffffffffffffffffffff1673ffffffffffffffffffffffffffffffffffffffff16815260200190815260200160002060050160006101000a81548173ffffffffffffffffffffffffffffffffffffffff021916908373ffffffffffffffffffffffffffffffffffffffff16021790555081600b60008373ffffffffffffffffffffffffffffffffffffffff1673ffffffffffffffffffffffffffffffffffffffff168152602001908152602001600020600601819055506001600b60008373ffffffffffffffffffffffffffffffffffffffff1673ffffffffffffffffffffffffffffffffffffffff16815260200190815260200160002060070160006101000a81548160ff021916908315150217905550505050505050565b60606002805480602002602001604051908101604052809291908181526020018280548015611c3f57602002820191906000526020600020905b8160009054906101000a900473ffffffffffffffffffffffffffffffffffffffff1673ffffffffffffffffffffffffffffffffffffffff1681526020019060010190808311611bf5575b5050505050905090565b60005481565b600460003373ffffffffffffffffffffffffffffffffffffffff1673ffffffffffffffffffffffffffffffffffffffff16815260200190815260200160002060009054906101000a900460ff1615611cdc576040517f08c379a0000000000000000000000000000000000000000000000000000000008152600401611cd390615731565b60405180910390fd5b6000855111611cea57600080fd5b6000845111611cf857600080fd5b6000835111611d0657600080fd5b6000825111611d1457600080fd5b6000815111611d2257600080fd5b6002339080600181540180825580915050600190039060005260206000200160009091909190916101000a81548173ffffffffffffffffffffffffffffffffffffffff021916908373ffffffffffffffffffffffffffffffffffffffff1602179055506001600054611d949190615b78565b6000819055506001600460003373ffffffffffffffffffffffffffffffffffffffff1673ffffffffffffffffffffffffffffffffffffffff16815260200190815260200160002060006101000a81548160ff021916908315150217905550600054600360003373ffffffffffffffffffffffffffffffffffffffff1673ffffffffffffffffffffffffffffffffffffffff1681526020019081526020016000206000018190555084600360003373ffffffffffffffffffffffffffffffffffffffff1673ffffffffffffffffffffffffffffffffffffffff1681526020019081526020016000206001019080519060200190611e91929190614550565b5083600360003373ffffffffffffffffffffffffffffffffffffffff1673ffffffffffffffffffffffffffffffffffffffff1681526020019081526020016000206002019080519060200190611ee8929190614550565b5082600360003373ffffffffffffffffffffffffffffffffffffffff1673ffffffffffffffffffffffffffffffffffffffff1681526020019081526020016000206003019080519060200190611f3f929190614550565b5081600360003373ffffffffffffffffffffffffffffffffffffffff1673ffffffffffffffffffffffffffffffffffffffff1681526020019081526020016000206004019080519060200190611f96929190614550565b5080600360003373ffffffffffffffffffffffffffffffffffffffff1673ffffffffffffffffffffffffffffffffffffffff1681526020019081526020016000206005019080519060200190611fed929190614550565b5033600360003373ffffffffffffffffffffffffffffffffffffffff1673ffffffffffffffffffffffffffffffffffffffff16815260200190815260200160002060070160006101000a81548173ffffffffffffffffffffffffffffffffffffffff021916908373ffffffffffffffffffffffffffffffffffffffff1602179055505050505050565b6000606080606080600080600080600b60008b73ffffffffffffffffffffffffffffffffffffffff1673ffffffffffffffffffffffffffffffffffffffff16815260200190815260200160002060405180610100016040529081600082015481526020016001820180546120e990615c96565b80601f016020809104026020016040519081016040528092919081815260200182805461211590615c96565b80156121625780601f1061213757610100808354040283529160200191612162565b820191906000526020600020905b81548152906001019060200180831161214557829003601f168201915b5050505050815260200160028201805461217b90615c96565b80601f01602080910402602001604051908101604052809291908181526020018280546121a790615c96565b80156121f45780601f106121c9576101008083540402835291602001916121f4565b820191906000526020600020905b8154815290600101906020018083116121d757829003601f168201915b5050505050815260200160038201805461220d90615c96565b80601f016020809104026020016040519081016040528092919081815260200182805461223990615c96565b80156122865780601f1061225b57610100808354040283529160200191612286565b820191906000526020600020905b81548152906001019060200180831161226957829003601f168201915b5050505050815260200160048201805461229f90615c96565b80601f01602080910402602001604051908101604052809291908181526020018280546122cb90615c96565b80156123185780601f106122ed57610100808354040283529160200191612318565b820191906000526020600020905b8154815290600101906020018083116122fb57829003601f168201915b505050505081526020016005820160009054906101000a900473ffffffffffffffffffffffffffffffffffffffff1673ffffffffffffffffffffffffffffffffffffffff1673ffffffffffffffffffffffffffffffffffffffff168152602001600682015481526020016007820160009054906101000a900460ff1615151515815250509050806000015181602001518260400151836060015184608001518560a001518660e001518760c001519850985098509850985098509850985050919395975091939597565b600460008273ffffffffffffffffffffffffffffffffffffffff1673ffffffffffffffffffffffffffffffffffffffff16815260200190815260200160002060009054906101000a900460ff1661246e576040517f08c379a000000000000000000000000000000000000000000000000000000000815260040161246590615891565b60405180910390fd5b600660008273ffffffffffffffffffffffffffffffffffffffff1673ffffffffffffffffffffffffffffffffffffffff16815260200190815260200160002060003373ffffffffffffffffffffffffffffffffffffffff1673ffffffffffffffffffffffffffffffffffffffff16815260200190815260200160002060009054906101000a900460ff161561260457600360008273ffffffffffffffffffffffffffffffffffffffff1673ffffffffffffffffffffffffffffffffffffffff168152602001908152602001600020600601604051806080016040528087815260200186815260200185815260200184815250908060018154018082558091505060019003906000526020600020906004020160009091909190915060008201518160000190805190602001906125a5929190614550565b5060208201518160010190805190602001906125c2929190614550565b5060408201518160020190805190602001906125df929190614550565b5060608201518160030190805190602001906125fc929190614550565b50505061263f565b6040517f08c379a0000000000000000000000000000000000000000000000000000000008152600401612636906158f1565b60405180910390fd5b5050505050565b600060011515600560008473ffffffffffffffffffffffffffffffffffffffff1673ffffffffffffffffffffffffffffffffffffffff16815260200190815260200160002060009054906101000a900460ff16151514156126aa5760009050612770565b60011515600460008473ffffffffffffffffffffffffffffffffffffffff1673ffffffffffffffffffffffffffffffffffffffff16815260200190815260200160002060009054906101000a900460ff161515141561270c5760019050612770565b600a60009054906101000a900473ffffffffffffffffffffffffffffffffffffffff1673ffffffffffffffffffffffffffffffffffffffff168273ffffffffffffffffffffffffffffffffffffffff16141561276b5760029050612770565b600390505b919050565b600460008373ffffffffffffffffffffffffffffffffffffffff1673ffffffffffffffffffffffffffffffffffffffff16815260200190815260200160002060009054906101000a900460ff16612801576040517f08c379a00000000000000000000000000000000000000000000000000000000081526004016127f890615891565b60405180910390fd5b600660008373ffffffffffffffffffffffffffffffffffffffff1673ffffffffffffffffffffffffffffffffffffffff16815260200190815260200160002060003373ffffffffffffffffffffffffffffffffffffffff1673ffffffffffffffffffffffffffffffffffffffff16815260200190815260200160002060009054906101000a900460ff166128ca576040517f08c379a00000000000000000000000000000000000000000000000000000000081526004016128c1906156f1565b60405180910390fd5b6000600360008473ffffffffffffffffffffffffffffffffffffffff1673ffffffffffffffffffffffffffffffffffffffff168152602001908152602001600020600601905060008180549050905060005b82805490508110156129e057836040516020016129399190615403565b60405160208183030381529060405280519060200120838281548110612988577f4e487b7100000000000000000000000000000000000000000000000000000000600052603260045260246000fd5b90600052602060002090600402016003016040516020016129a9919061541a565b6040516020818303038152906040528051906020012014156129cd578091506129e0565b80806129d890615cc8565b91505061291c565b5081805490508110612a27576040517f08c379a0000000000000000000000000000000000000000000000000000000008152600401612a1e906156d1565b60405180910390fd5b60018280549050612a389190615bce565b811015612b61578160018380549050612a519190615bce565b81548110612a88577f4e487b7100000000000000000000000000000000000000000000000000000000600052603260045260246000fd5b9060005260206000209060040201828281548110612acf577f4e487b7100000000000000000000000000000000000000000000000000000000600052603260045260246000fd5b90600052602060002090600402016000820181600001908054612af190615c96565b612afc9291906145d6565b506001820181600101908054612b1190615c96565b612b1c9291906145d6565b506002820181600201908054612b3190615c96565b612b3c9291906145d6565b506003820181600301908054612b5190615c96565b612b5c9291906145d6565b509050505b81805480612b98577f4e487b7100000000000000000000000000000000000000000000000000000000600052603160045260246000fd5b600190038181906000526020600020906004020160008082016000612bbd9190614663565b600182016000612bcd9190614663565b600282016000612bdd9190614663565b600382016000612bed9190614663565b5050905550505050565b600a60009054906101000a900473ffffffffffffffffffffffffffffffffffffffff1681565b60015481565b60098181548110612c3357600080fd5b906000526020600020016000915090505481565b606080606080600460008673ffffffffffffffffffffffffffffffffffffffff1673ffffffffffffffffffffffffffffffffffffffff16815260200190815260200160002060009054906101000a900460ff16612cd9576040517f08c379a0000000000000000000000000000000000000000000000000000000008152600401612cd090615891565b60405180910390fd5b6000600360008773ffffffffffffffffffffffffffffffffffffffff1673ffffffffffffffffffffffffffffffffffffffff1681526020019081526020016000206006018054905090508067ffffffffffffffff811115612d63577f4e487b7100000000000000000000000000000000000000000000000000000000600052604160045260246000fd5b604051908082528060200260200182016040528015612d9657816020015b6060815260200190600190039081612d815790505b5094508067ffffffffffffffff811115612dd9577f4e487b7100000000000000000000000000000000000000000000000000000000600052604160045260246000fd5b604051908082528060200260200182016040528015612e0c57816020015b6060815260200190600190039081612df75790505b5093508067ffffffffffffffff811115612e4f577f4e487b7100000000000000000000000000000000000000000000000000000000600052604160045260246000fd5b604051908082528060200260200182016040528015612e8257816020015b6060815260200190600190039081612e6d5790505b5092508067ffffffffffffffff811115612ec5577f4e487b7100000000000000000000000000000000000000000000000000000000600052604160045260246000fd5b604051908082528060200260200182016040528015612ef857816020015b6060815260200190600190039081612ee35790505b50915060005b8181101561347957600360008873ffffffffffffffffffffffffffffffffffffffff1673ffffffffffffffffffffffffffffffffffffffff1681526020019081526020016000206006018181548110612f80577f4e487b7100000000000000000000000000000000000000000000000000000000600052603260045260246000fd5b90600052602060002090600402016000018054612f9c90615c96565b80601f0160208091040260200160405190810160405280929190818152602001828054612fc890615c96565b80156130155780601f10612fea57610100808354040283529160200191613015565b820191906000526020600020905b815481529060010190602001808311612ff857829003601f168201915b5050505050868281518110613053577f4e487b7100000000000000000000000000000000000000000000000000000000600052603260045260246000fd5b6020026020010181905250600360008873ffffffffffffffffffffffffffffffffffffffff1673ffffffffffffffffffffffffffffffffffffffff16815260200190815260200160002060060181815481106130d8577f4e487b7100000000000000000000000000000000000000000000000000000000600052603260045260246000fd5b906000526020600020906004020160010180546130f490615c96565b80601f016020809104026020016040519081016040528092919081815260200182805461312090615c96565b801561316d5780601f106131425761010080835404028352916020019161316d565b820191906000526020600020905b81548152906001019060200180831161315057829003601f168201915b50505050508582815181106131ab577f4e487b7100000000000000000000000000000000000000000000000000000000600052603260045260246000fd5b6020026020010181905250600360008873ffffffffffffffffffffffffffffffffffffffff1673ffffffffffffffffffffffffffffffffffffffff1681526020019081526020016000206006018181548110613230577f4e487b7100000000000000000000000000000000000000000000000000000000600052603260045260246000fd5b9060005260206000209060040201600201805461324c90615c96565b80601f016020809104026020016040519081016040528092919081815260200182805461327890615c96565b80156132c55780601f1061329a576101008083540402835291602001916132c5565b820191906000526020600020905b8154815290600101906020018083116132a857829003601f168201915b5050505050848281518110613303577f4e487b7100000000000000000000000000000000000000000000000000000000600052603260045260246000fd5b6020026020010181905250600360008873ffffffffffffffffffffffffffffffffffffffff1673ffffffffffffffffffffffffffffffffffffffff1681526020019081526020016000206006018181548110613388577f4e487b7100000000000000000000000000000000000000000000000000000000600052603260045260246000fd5b906000526020600020906004020160030180546133a490615c96565b80601f01602080910402602001604051908101604052809291908181526020018280546133d090615c96565b801561341d5780601f106133f25761010080835404028352916020019161341d565b820191906000526020600020905b81548152906001019060200180831161340057829003601f168201915b505050505083828151811061345b577f4e487b7100000000000000000000000000000000000000000000000000000000600052603260045260246000fd5b6020026020010181905250808061347190615cc8565b915050612efe565b50509193509193565b6060806060806060600460008773ffffffffffffffffffffffffffffffffffffffff1673ffffffffffffffffffffffffffffffffffffffff16815260200190815260200160002060009054906101000a900460ff16613516576040517f08c379a000000000000000000000000000000000000000000000000000000000815260040161350d906157d1565b60405180910390fd5b6000600360008873ffffffffffffffffffffffffffffffffffffffff1673ffffffffffffffffffffffffffffffffffffffff168152602001908152602001600020604051806101000160405290816000820154815260200160018201805461357d90615c96565b80601f01602080910402602001604051908101604052809291908181526020018280546135a990615c96565b80156135f65780601f106135cb576101008083540402835291602001916135f6565b820191906000526020600020905b8154815290600101906020018083116135d957829003601f168201915b5050505050815260200160028201805461360f90615c96565b80601f016020809104026020016040519081016040528092919081815260200182805461363b90615c96565b80156136885780601f1061365d57610100808354040283529160200191613688565b820191906000526020600020905b81548152906001019060200180831161366b57829003601f168201915b505050505081526020016003820180546136a190615c96565b80601f01602080910402602001604051908101604052809291908181526020018280546136cd90615c96565b801561371a5780601f106136ef5761010080835404028352916020019161371a565b820191906000526020600020905b8154815290600101906020018083116136fd57829003601f168201915b5050505050815260200160048201805461373390615c96565b80601f016020809104026020016040519081016040528092919081815260200182805461375f90615c96565b80156137ac5780601f10613781576101008083540402835291602001916137ac565b820191906000526020600020905b81548152906001019060200180831161378f57829003601f168201915b505050505081526020016005820180546137c590615c96565b80601f01602080910402602001604051908101604052809291908181526020018280546137f190615c96565b801561383e5780601f106138135761010080835404028352916020019161383e565b820191906000526020600020905b81548152906001019060200180831161382157829003601f168201915b5050505050815260200160068201805480602002602001604051908101604052809291908181526020016000905b82821015613ae6578382906000526020600020906004020160405180608001604052908160008201805461389f90615c96565b80601f01602080910402602001604051908101604052809291908181526020018280546138cb90615c96565b80156139185780601f106138ed57610100808354040283529160200191613918565b820191906000526020600020905b8154815290600101906020018083116138fb57829003601f168201915b5050505050815260200160018201805461393190615c96565b80601f016020809104026020016040519081016040528092919081815260200182805461395d90615c96565b80156139aa5780601f1061397f576101008083540402835291602001916139aa565b820191906000526020600020905b81548152906001019060200180831161398d57829003601f168201915b505050505081526020016002820180546139c390615c96565b80601f01602080910402602001604051908101604052809291908181526020018280546139ef90615c96565b8015613a3c5780601f10613a1157610100808354040283529160200191613a3c565b820191906000526020600020905b815481529060010190602001808311613a1f57829003601f168201915b50505050508152602001600382018054613a5590615c96565b80601f0160208091040260200160405190810160405280929190818152602001828054613a8190615c96565b8015613ace5780601f10613aa357610100808354040283529160200191613ace565b820191906000526020600020905b815481529060010190602001808311613ab157829003601f168201915b5050505050815250508152602001906001019061386c565b5050505081526020016007820160009054906101000a900473ffffffffffffffffffffffffffffffffffffffff1673ffffffffffffffffffffffffffffffffffffffff1673ffffffffffffffffffffffffffffffffffffffff1681525050905080602001518160400151826060015183608001518460a00151955095509550955095505091939590929450565b606080606080606080606080600060088054905090508067ffffffffffffffff811115613bc9577f4e487b7100000000000000000000000000000000000000000000000000000000600052604160045260246000fd5b604051908082528060200260200182016040528015613bf75781602001602082028036833780820191505090505b5098508067ffffffffffffffff811115613c3a577f4e487b7100000000000000000000000000000000000000000000000000000000600052604160045260246000fd5b604051908082528060200260200182016040528015613c6d57816020015b6060815260200190600190039081613c585790505b5097508067ffffffffffffffff811115613cb0577f4e487b7100000000000000000000000000000000000000000000000000000000600052604160045260246000fd5b604051908082528060200260200182016040528015613ce357816020015b6060815260200190600190039081613cce5790505b5096508067ffffffffffffffff811115613d26577f4e487b7100000000000000000000000000000000000000000000000000000000600052604160045260246000fd5b604051908082528060200260200182016040528015613d5957816020015b6060815260200190600190039081613d445790505b5095508067ffffffffffffffff811115613d9c577f4e487b7100000000000000000000000000000000000000000000000000000000600052604160045260246000fd5b604051908082528060200260200182016040528015613dcf57816020015b6060815260200190600190039081613dba5790505b5094508067ffffffffffffffff811115613e12577f4e487b7100000000000000000000000000000000000000000000000000000000600052604160045260246000fd5b604051908082528060200260200182016040528015613e405781602001602082028036833780820191505090505b5093508067ffffffffffffffff811115613e83577f4e487b7100000000000000000000000000000000000000000000000000000000600052604160045260246000fd5b604051908082528060200260200182016040528015613eb15781602001602082028036833780820191505090505b5092508067ffffffffffffffff811115613ef4577f4e487b7100000000000000000000000000000000000000000000000000000000600052604160045260246000fd5b604051908082528060200260200182016040528015613f225781602001602082028036833780820191505090505b50915060005b81811015614544576000600b600060088481548110613f70577f4e487b7100000000000000000000000000000000000000000000000000000000600052603260045260246000fd5b9060005260206000200160009054906101000a900473ffffffffffffffffffffffffffffffffffffffff1673ffffffffffffffffffffffffffffffffffffffff1673ffffffffffffffffffffffffffffffffffffffff1681526020019081526020016000206040518061010001604052908160008201548152602001600182018054613ffb90615c96565b80601f016020809104026020016040519081016040528092919081815260200182805461402790615c96565b80156140745780601f1061404957610100808354040283529160200191614074565b820191906000526020600020905b81548152906001019060200180831161405757829003601f168201915b5050505050815260200160028201805461408d90615c96565b80601f01602080910402602001604051908101604052809291908181526020018280546140b990615c96565b80156141065780601f106140db57610100808354040283529160200191614106565b820191906000526020600020905b8154815290600101906020018083116140e957829003601f168201915b5050505050815260200160038201805461411f90615c96565b80601f016020809104026020016040519081016040528092919081815260200182805461414b90615c96565b80156141985780601f1061416d57610100808354040283529160200191614198565b820191906000526020600020905b81548152906001019060200180831161417b57829003601f168201915b505050505081526020016004820180546141b190615c96565b80601f01602080910402602001604051908101604052809291908181526020018280546141dd90615c96565b801561422a5780601f106141ff5761010080835404028352916020019161422a565b820191906000526020600020905b81548152906001019060200180831161420d57829003601f168201915b505050505081526020016005820160009054906101000a900473ffffffffffffffffffffffffffffffffffffffff1673ffffffffffffffffffffffffffffffffffffffff1673ffffffffffffffffffffffffffffffffffffffff168152602001600682015481526020016007820160009054906101000a900460ff161515151581525050905080600001518b83815181106142ee577f4e487b7100000000000000000000000000000000000000000000000000000000600052603260045260246000fd5b60200260200101818152505080602001518a8381518110614338577f4e487b7100000000000000000000000000000000000000000000000000000000600052603260045260246000fd5b60200260200101819052508060400151898381518110614381577f4e487b7100000000000000000000000000000000000000000000000000000000600052603260045260246000fd5b602002602001018190525080606001518883815181106143ca577f4e487b7100000000000000000000000000000000000000000000000000000000600052603260045260246000fd5b60200260200101819052508060800151878381518110614413577f4e487b7100000000000000000000000000000000000000000000000000000000600052603260045260246000fd5b60200260200101819052508060a0015186838151811061445c577f4e487b7100000000000000000000000000000000000000000000000000000000600052603260045260246000fd5b602002602001019073ffffffffffffffffffffffffffffffffffffffff16908173ffffffffffffffffffffffffffffffffffffffff16815250508060e001518583815181106144d4577f4e487b7100000000000000000000000000000000000000000000000000000000600052603260045260246000fd5b6020026020010190151590811515815250508060c00151848381518110614524577f4e487b7100000000000000000000000000000000000000000000000000000000600052603260045260246000fd5b60200260200101818152505050808061453c90615cc8565b915050613f28565b50509091929394959697565b82805461455c90615c96565b90600052602060002090601f01602090048101928261457e57600085556145c5565b82601f1061459757805160ff19168380011785556145c5565b828001600101855582156145c5579182015b828111156145c45782518255916020019190600101906145a9565b5b5090506145d291906146a3565b5090565b8280546145e290615c96565b90600052602060002090601f0160209004810192826146045760008555614652565b82601f106146155780548555614652565b8280016001018555821561465257600052602060002091601f016020900482015b82811115614651578254825591600101919060010190614636565b5b50905061465f91906146a3565b5090565b50805461466f90615c96565b6000825580601f1061468157506146a0565b601f01602090049060005260206000209081019061469f91906146a3565b5b50565b5b808211156146bc5760008160009055506001016146a4565b5090565b60006146d36146ce84615a17565b6159e6565b9050828152602081018484840111156146eb57600080fd5b6146f6848285615c54565b509392505050565b60008135905061470d81615daf565b92915050565b600082601f83011261472457600080fd5b81356147348482602086016146c0565b91505092915050565b60008135905061474c81615dc6565b92915050565b60006020828403121561476457600080fd5b6000614772848285016146fe565b91505092915050565b6000806040838503121561478e57600080fd5b600061479c858286016146fe565b925050602083013567ffffffffffffffff8111156147b957600080fd5b6147c585828601614713565b9150509250929050565b600080600080600060a086880312156147e757600080fd5b600086013567ffffffffffffffff81111561480157600080fd5b61480d88828901614713565b955050602086013567ffffffffffffffff81111561482a57600080fd5b61483688828901614713565b945050604086013567ffffffffffffffff81111561485357600080fd5b61485f88828901614713565b935050606086013567ffffffffffffffff81111561487c57600080fd5b61488888828901614713565b9250506080614899888289016146fe565b9150509295509295909350565b600080600080600060a086880312156148be57600080fd5b600086013567ffffffffffffffff8111156148d857600080fd5b6148e488828901614713565b955050602086013567ffffffffffffffff81111561490157600080fd5b61490d88828901614713565b945050604086013567ffffffffffffffff81111561492a57600080fd5b61493688828901614713565b935050606086013567ffffffffffffffff81111561495357600080fd5b61495f88828901614713565b925050608086013567ffffffffffffffff81111561497c57600080fd5b61498888828901614713565b9150509295509295909350565b600080600080600060a086880312156149ad57600080fd5b600086013567ffffffffffffffff8111156149c757600080fd5b6149d388828901614713565b955050602086013567ffffffffffffffff8111156149f057600080fd5b6149fc88828901614713565b945050604086013567ffffffffffffffff811115614a1957600080fd5b614a2588828901614713565b935050606086013567ffffffffffffffff811115614a4257600080fd5b614a4e88828901614713565b9250506080614a5f8882890161473d565b9150509295509295909350565b60008060408385031215614a7f57600080fd5b600083013567ffffffffffffffff811115614a9957600080fd5b614aa585828601614713565b9250506020614ab68582860161473d565b9150509250929050565b600060208284031215614ad257600080fd5b6000614ae08482850161473d565b91505092915050565b6000614af58383614b45565b60208301905092915050565b6000614b0d8383614cf2565b60208301905092915050565b6000614b258383614d1f565b905092915050565b6000614b3983836153e5565b60208301905092915050565b614b4e81615c02565b82525050565b614b5d81615c02565b82525050565b6000614b6e82615a9c565b614b788185615b07565b9350614b8383615a47565b8060005b83811015614bb4578151614b9b8882614ae9565b9750614ba683615ad3565b925050600181019050614b87565b5085935050505092915050565b6000614bcc82615aa7565b614bd68185615b18565b9350614be183615a57565b8060005b83811015614c12578151614bf98882614b01565b9750614c0483615ae0565b925050600181019050614be5565b5085935050505092915050565b6000614c2a82615ab2565b614c348185615b29565b935083602082028501614c4685615a67565b8060005b85811015614c825784840389528151614c638582614b19565b9450614c6e83615aed565b925060208a01995050600181019050614c4a565b50829750879550505050505092915050565b6000614c9f82615abd565b614ca98185615b3a565b9350614cb483615a77565b8060005b83811015614ce5578151614ccc8882614b2d565b9750614cd783615afa565b925050600181019050614cb8565b5085935050505092915050565b614cfb81615c14565b82525050565b614d0a81615c14565b82525050565b614d1981615c20565b82525050565b6000614d2a82615ac8565b614d348185615b4b565b9350614d44818560208601615c63565b614d4d81615d9e565b840191505092915050565b6000614d6382615ac8565b614d6d8185615b5c565b9350614d7d818560208601615c63565b614d8681615d9e565b840191505092915050565b6000614d9c82615ac8565b614da68185615b6d565b9350614db6818560208601615c63565b80840191505092915050565b60008154614dcf81615c96565b614dd98186615b6d565b94506001821660008114614df45760018114614e0557614e38565b60ff19831686528186019350614e38565b614e0e85615a87565b60005b83811015614e3057815481890152600182019150602081019050614e11565b838801955050505b50505092915050565b6000614e4e602483615b5c565b91507f5265636f726420776974682074686520676976656e2049504653206e6f74206660008301527f6f756e64000000000000000000000000000000000000000000000000000000006020830152604082019050919050565b6000614eb4603983615b5c565b91507f596f7520617265206e6f7420617574686f72697a656420746f2064656c65746560008301527f207265636f72647320666f7220746869732070617469656e74000000000000006020830152604082019050919050565b6000614f1a601783615b5c565b91507f446f63746f72206e616d652069732072657175697265640000000000000000006000830152602082019050919050565b6000614f5a601e83615b5c565b91507f416c72656164792050617469656e74206163636f756e742065786973747300006000830152602082019050919050565b6000614f9a601383615b5c565b91507f436f6e74616374206973207265717569726564000000000000000000000000006000830152602082019050919050565b6000614fda602883615b5c565b91507f436f6e7472616374206f776e65722063616e6e6f74207265676973746572206160008301527f7320646f63746f720000000000000000000000000000000000000000000000006020830152604082019050919050565b6000615040601983615b5c565b91507f596f752063616e27742072656d6f766520796f757273656c66000000000000006000830152602082019050919050565b6000615080601283615b5c565b91507f416c7265616479205265676973746572656400000000000000000000000000006000830152602082019050919050565b60006150c0602683615b5c565b91507f4e6f2050617469656e747320666f756e642061742074686520676976656e206160008301527f64647265737300000000000000000000000000000000000000000000000000006020830152604082019050919050565b6000615126601883615b5c565b91507f4e6f74207265676973746572656420617320646f63746f7200000000000000006000830152602082019050919050565b6000615166601983615b5c565b91507f486f73706974616c206e616d65206973207265717569726564000000000000006000830152602082019050919050565b60006151a6601a83615b5c565b91507f55736572206973206e6f7420617574686f72697a6564207965740000000000006000830152602082019050919050565b60006151e6601383615b5c565b91507f466163756c7479206973207265717569726564000000000000000000000000006000830152602082019050919050565b6000615226601783615b5c565b91507f596f752063616e6e6f742061646420796f757273656c660000000000000000006000830152602082019050919050565b6000615266602583615b5c565b91507f4e6f2070617469656e7420666f756e642061742074686520676976656e20616460008301527f64726573730000000000000000000000000000000000000000000000000000006020830152604082019050919050565b60006152cc602083615b5c565b91507f446f63746f72206c6963656e7365206973206e6f7420726567697374657265646000830152602082019050919050565b600061530c601a83615b5c565b91507f5573657220697320616c726561647920617574686f72697a65640000000000006000830152602082019050919050565b600061534c601783615b5c565b91507f5265636f72642063616e6e6f74206265206164646564200000000000000000006000830152602082019050919050565b600061538c602783615b5c565b91507f596f7520617265206e6f7420616c6c6f77656420746f2072656769737465722060008301527f646f63746f7221000000000000000000000000000000000000000000000000006020830152604082019050919050565b6153ee81615c4a565b82525050565b6153fd81615c4a565b82525050565b600061540f8284614d91565b915081905092915050565b60006154268284614dc2565b915081905092915050565b60006020820190506154466000830184614b54565b92915050565b600060208201905081810360008301526154668184614b63565b905092915050565b600060808201905081810360008301526154888187614c1f565b9050818103602083015261549c8186614c1f565b905081810360408301526154b08185614c1f565b905081810360608301526154c48184614c1f565b905095945050505050565b600060e08201905081810360008301526154e9818a614c94565b905081810360208301526154fd8189614b63565b905081810360408301526155118188614c1f565b905081810360608301526155258187614c1f565b905081810360808301526155398186614c1f565b905081810360a083015261554d8185614c1f565b905081810360c08301526155618184614c1f565b905098975050505050505050565b600061010082019050818103600083015261558a818b614c94565b9050818103602083015261559e818a614c1f565b905081810360408301526155b28189614c1f565b905081810360608301526155c68188614c1f565b905081810360808301526155da8187614c1f565b905081810360a08301526155ee8186614b63565b905081810360c08301526156028185614bc1565b905081810360e08301526156168184614c94565b90509998505050505050505050565b600060208201905061563a6000830184614d01565b92915050565b60006020820190506156556000830184614d10565b92915050565b600060a08201905081810360008301526156758188614d58565b905081810360208301526156898187614d58565b9050818103604083015261569d8186614d58565b905081810360608301526156b18185614d58565b905081810360808301526156c58184614d58565b90509695505050505050565b600060208201905081810360008301526156ea81614e41565b9050919050565b6000602082019050818103600083015261570a81614ea7565b9050919050565b6000602082019050818103600083015261572a81614f0d565b9050919050565b6000602082019050818103600083015261574a81614f4d565b9050919050565b6000602082019050818103600083015261576a81614f8d565b9050919050565b6000602082019050818103600083015261578a81614fcd565b9050919050565b600060208201905081810360008301526157aa81615033565b9050919050565b600060208201905081810360008301526157ca81615073565b9050919050565b600060208201905081810360008301526157ea816150b3565b9050919050565b6000602082019050818103600083015261580a81615119565b9050919050565b6000602082019050818103600083015261582a81615159565b9050919050565b6000602082019050818103600083015261584a81615199565b9050919050565b6000602082019050818103600083015261586a816151d9565b9050919050565b6000602082019050818103600083015261588a81615219565b9050919050565b600060208201905081810360008301526158aa81615259565b9050919050565b600060208201905081810360008301526158ca816152bf565b9050919050565b600060208201905081810360008301526158ea816152ff565b9050919050565b6000602082019050818103600083015261590a8161533f565b9050919050565b6000602082019050818103600083015261592a8161537f565b9050919050565b600060208201905061594660008301846153f4565b92915050565b600061010082019050615962600083018b6153f4565b8181036020830152615974818a614d58565b905081810360408301526159888189614d58565b9050818103606083015261599c8188614d58565b905081810360808301526159b08187614d58565b90506159bf60a0830186614b54565b6159cc60c0830185614d01565b6159d960e08301846153f4565b9998505050505050505050565b6000604051905081810181811067ffffffffffffffff82111715615a0d57615a0c615d6f565b5b8060405250919050565b600067ffffffffffffffff821115615a3257615a31615d6f565b5b601f19601f8301169050602081019050919050565b6000819050602082019050919050565b6000819050602082019050919050565b6000819050602082019050919050565b6000819050602082019050919050565b60008190508160005260206000209050919050565b600081519050919050565b600081519050919050565b600081519050919050565b600081519050919050565b600081519050919050565b6000602082019050919050565b6000602082019050919050565b6000602082019050919050565b6000602082019050919050565b600082825260208201905092915050565b600082825260208201905092915050565b600082825260208201905092915050565b600082825260208201905092915050565b600082825260208201905092915050565b600082825260208201905092915050565b600081905092915050565b6000615b8382615c4a565b9150615b8e83615c4a565b9250827fffffffffffffffffffffffffffffffffffffffffffffffffffffffffffffffff03821115615bc357615bc2615d11565b5b828201905092915050565b6000615bd982615c4a565b9150615be483615c4a565b925082821015615bf757615bf6615d11565b5b828203905092915050565b6000615c0d82615c2a565b9050919050565b60008115159050919050565b6000819050919050565b600073ffffffffffffffffffffffffffffffffffffffff82169050919050565b6000819050919050565b82818337600083830152505050565b60005b83811015615c81578082015181840152602081019050615c66565b83811115615c90576000848401525b50505050565b60006002820490506001821680615cae57607f821691505b60208210811415615cc257615cc1615d40565b5b50919050565b6000615cd382615c4a565b91507fffffffffffffffffffffffffffffffffffffffffffffffffffffffffffffffff821415615d0657615d05615d11565b5b600182019050919050565b7f4e487b7100000000000000000000000000000000000000000000000000000000600052601160045260246000fd5b7f4e487b7100000000000000000000000000000000000000000000000000000000600052602260045260246000fd5b7f4e487b7100000000000000000000000000000000000000000000000000000000600052604160045260246000fd5b6000601f19601f8301169050919050565b615db881615c02565b8114615dc357600080fd5b50565b615dcf81615c4a565b8114615dda57600080fd5b5056fea26469706673582212209d0f950510442fe09d86489300000778cb68bb48c557e1aff99bd3e257e6c28a64736f6c63430008000033",
  "immutableReferences": {},
  "source": "// SPDX-License-Identifier: MIT\r\n\r\npragma solidity >=0.4.22 <0.9.0;\r\n\r\nimport \"./patient.sol\";\r\n\r\ncontract meDossier is PatientContract{\r\n\r\n    struct doctor {\r\n        uint256 id;\r\n        string name;\r\n        string contact;\r\n        string hname;\r\n        string faculty;\r\n        address addr;\r\n        uint256 licenseno;\r\n        bool isApproved;\r\n    }\r\n    \r\n    address[] public doctorList;\r\n    uint256 [] public registeredDoctorList;\r\n    address public  owner;\r\n\r\n    mapping(address=>doctor) doctors;    \r\n    \r\n    constructor() {\r\n        owner = msg.sender;\r\n        \r\n    }\r\n    \r\n     //identity the user \r\n     function user(address addr) public view returns (int success){\r\n        if(isDoctor[addr]==true){\r\n            return 0;\r\n        }\r\n        else if(isPatient[addr]==true){\r\n            return 1;\r\n        }\r\n        else if(addr==owner){\r\n            return 2;\r\n        }\r\n        else{\r\n            return 3;\r\n        }\r\n    }\r\n\r\n    //Register the doctor by certain authority\r\n    function registerDoctor(string memory docname, uint256 license) public {\r\n        require(msg.sender==owner,\"You are not allowed to register doctor!\");\r\n        Registered[docname][license] = true;\r\n        registeredDoctorList.push(license);\r\n    \r\n    }\r\n\r\n    // function isAuthorized(address pat,address client ) public view returns (bool success){\r\n    //     return Authorized[pat][client];\r\n    // }\r\n    \r\n    //Check whether the doctor is registered or not\r\n    //  function isRegistered(address addr) public view returns (bool success){\r\n    //     doctor memory doc = doctors[addr];\r\n    //     return Registered[doc.name][doc.licenseno];\r\n    // }\r\n    \r\n\r\n//Add terecords of the patient\r\n    function addRecord(string memory _dname,string memory _reason,string memory _visitedDate,string memory _ipfs, address addr) public{\r\n        require(isPatient[addr],\"No patient found at the given address\");\r\n        \r\n        if(Authorized[addr][msg.sender]){\r\n                patients[addr].records.push(Records(_dname,_reason,_visitedDate,_ipfs));\r\n        }\r\n        else \r\n        revert(\"Record cannot be added \");\r\n    }\r\n\r\n    function deleteRecord(address patientAddr, string memory _ipfs) public {\r\n        require(isPatient[patientAddr], \"No patient found at the given address\");\r\n        require(Authorized[patientAddr][msg.sender], \"You are not authorized to delete records for this patient\");\r\n\r\n        // Ly danh sch bn ghi ca bnh nhn\r\n        Records[] storage records = patients[patientAddr].records;\r\n        uint256 recordIndex = records.length;\r\n\r\n        // Tm bn ghi c IPFS khp\r\n        for (uint256 i = 0; i < records.length; i++) {\r\n            if (keccak256(abi.encodePacked(records[i].ipfs)) == keccak256(abi.encodePacked(_ipfs))) {\r\n                recordIndex = i;\r\n                break;\r\n            }\r\n        }\r\n\r\n        require(recordIndex < records.length, \"Record with the given IPFS not found\");\r\n\r\n        // Xa bn ghi bng cch di chuyn phn t cui cng vo v tr b xa\r\n        if (recordIndex < records.length - 1) {\r\n            records[recordIndex] = records[records.length - 1];\r\n        }\r\n\r\n        // Gim chiu di danh sch\r\n        records.pop();\r\n    }\r\n    \r\n\r\n//add doctor \r\n    function addDoctor(\r\n        string memory _name,\r\n        string memory _hname,\r\n        string memory _faculty,\r\n        string memory _contact,\r\n        uint256 license\r\n    ) public {\r\n        require(!isDoctor[msg.sender], \"Already Registered\");\r\n        require(msg.sender != owner, \"Contract owner cannot register as doctor\");\r\n        // require(msg.sender != patient, \"Patient cannot register as doctor\");\r\n        require(bytes(_name).length > 0, \"Doctor name is required\");\r\n        require(bytes(_hname).length > 0, \"Hospital name is required\");\r\n        require(bytes(_faculty).length > 0, \"Faculty is required\");\r\n        require(bytes(_contact).length > 0, \"Contact is required\");\r\n        // require(license > 0, \"License number must be greater than 0\");\r\n        require(Registered[_name][license], \"Doctor license is not registered\");\r\n\r\n        address _addr = msg.sender;\r\n        doctorList.push(_addr);\r\n\r\n        dindex = dindex + 1;\r\n        isDoctor[_addr] = true;\r\n        doctors[_addr].name = _name;\r\n        doctors[_addr].contact = _contact;\r\n        doctors[_addr].hname = _hname;\r\n        doctors[_addr].faculty = _faculty;\r\n        doctors[_addr].addr = _addr;\r\n        doctors[_addr].licenseno = license;\r\n        doctors[_addr].isApproved = true; // Set to true since license is registered\r\n    }\r\n\r\n\r\n\r\n    function getAllDoctors() public view returns (\r\n    uint256[] memory ids,\r\n    string[] memory names,\r\n    string[] memory contacts,\r\n    string[] memory hospitals,\r\n    string[] memory faculties,\r\n    address[] memory addresses,\r\n    bool[] memory approvals,\r\n    uint256[] memory licenses\r\n    ) {\r\n        uint256 doctorCount = doctorList.length;\r\n        \r\n        ids = new uint256[](doctorCount);\r\n        names = new string[](doctorCount);\r\n        contacts = new string[](doctorCount);\r\n        hospitals = new string[](doctorCount);\r\n        faculties = new string[](doctorCount);\r\n        addresses = new address[](doctorCount);\r\n        approvals = new bool[](doctorCount);\r\n        licenses = new uint256[](doctorCount);\r\n\r\n        for (uint256 i = 0; i < doctorCount; i++) {\r\n            doctor memory doc = doctors[doctorList[i]];\r\n            ids[i] = doc.id;\r\n            names[i] = doc.name;\r\n            contacts[i] = doc.contact;\r\n            hospitals[i] = doc.hname;\r\n            faculties[i] = doc.faculty;\r\n            addresses[i] = doc.addr;\r\n            approvals[i] = doc.isApproved;\r\n            licenses[i] = doc.licenseno;\r\n        }\r\n    }\r\n    \r\n\r\n function getDoctorByAddress(address _address) public view returns(uint256 id,string memory name , string memory contact ,string memory hname ,string memory faculty ,address addr , bool isApproved,uint256 licenseno) {\r\n        // require(doctors[_address].isApproved,\"Doctor is not Approved or doesn't exist\");\r\n        doctor memory doc = doctors[_address];\r\n        return (doc.id,doc.name,doc.contact,doc.hname,doc.faculty,doc.addr,doc.isApproved,doc.licenseno);\r\n    } \r\n    \r\n\r\n//Give access to certain address\r\n//     function grantAccess(address _addr) public returns (bool success)\r\n//     {   require(msg.sender != _addr,\"You cannot add yourself\");\r\n//         require(isDoctor[_addr],\"Not registered as doctor\");\r\n//         require(!Authorized[msg.sender][_addr],\"User is already authorized\");\r\n//         Authorized[msg.sender][_addr] = true;\r\n//         return true;\r\n//     }\r\n\r\n// //Revoke access of patient records from certain address\r\n//       function revoke_access(address _addr)  public returns (bool success){\r\n//         require(msg.sender!=_addr,\"You can't remove yourself\");\r\n//         require(Authorized[msg.sender][_addr],\"User is not authorized yet\");\r\n//         Authorized[msg.sender][_addr] = false;\r\n//         return true;\r\n    // }\r\n\r\n// function doctorLogin() public{\r\n//     if(Registered[doctors[msg.sender].name][doctors[msg.sender].licenseno] == true){\r\n//         doctors[msg.sender].isApproved = true;\r\n//     }\r\n// }\r\n\r\n}",
  "sourcePath": "/Volumes/data/workspace/MedicalApp/contracts/MedicalApp.sol",
  "compiler": {
    "name": "solc",
    "version": "0.8.0+commit.c7dfd78e.Emscripten.clang"
  },
  "schemaVersion": "3.4.16",
  "updatedAt": "2025-01-02T00:52:04.002Z",
  "networkType": "ethereum",
  "devdoc": {
    "kind": "dev",
    "methods": {},
    "version": 1
  },
  "userdoc": {
    "kind": "user",
    "methods": {},
    "version": 1
  }
}