{
  "contractName": "meDossier",
  "abi": [
    {
      "inputs": [],
      "stateMutability": "nonpayable",
      "type": "constructor"
    },
    {
      "inputs": [
        {
          "internalType": "string",
          "name": "_name",
          "type": "string"
        },
        {
          "internalType": "string",
          "name": "_phone",
          "type": "string"
        },
        {
          "internalType": "string",
          "name": "_gender",
          "type": "string"
        },
        {
          "internalType": "string",
          "name": "_dob",
          "type": "string"
        },
        {
          "internalType": "string",
          "name": "_bloodgroup",
          "type": "string"
        }
      ],
      "name": "addPatient",
      "outputs": [],
      "stateMutability": "nonpayable",
      "type": "function"
    },
    {
      "inputs": [],
      "name": "dindex",
      "outputs": [
        {
          "internalType": "uint256",
          "name": "",
          "type": "uint256"
        }
      ],
      "stateMutability": "view",
      "type": "function",
      "constant": true
    },
    {
      "inputs": [
        {
          "internalType": "uint256",
          "name": "",
          "type": "uint256"
        }
      ],
      "name": "doctorList",
      "outputs": [
        {
          "internalType": "address",
          "name": "",
          "type": "address"
        }
      ],
      "stateMutability": "view",
      "type": "function",
      "constant": true
    },
    {
      "inputs": [
        {
          "internalType": "address",
          "name": "_addr",
          "type": "address"
        }
      ],
      "name": "getAllPatientRecords",
      "outputs": [
        {
          "internalType": "string[]",
          "name": "dnames",
          "type": "string[]"
        },
        {
          "internalType": "string[]",
          "name": "reasons",
          "type": "string[]"
        },
        {
          "internalType": "string[]",
          "name": "visitedDates",
          "type": "string[]"
        },
        {
          "internalType": "string[]",
          "name": "ipfsHashes",
          "type": "string[]"
        }
      ],
      "stateMutability": "view",
      "type": "function",
      "constant": true
    },
    {
      "inputs": [],
      "name": "getAllPatients",
      "outputs": [
        {
          "internalType": "uint256[]",
          "name": "ids",
          "type": "uint256[]"
        },
        {
          "internalType": "address[]",
          "name": "addresses",
          "type": "address[]"
        },
        {
          "internalType": "string[]",
          "name": "names",
          "type": "string[]"
        },
        {
          "internalType": "string[]",
          "name": "phones",
          "type": "string[]"
        },
        {
          "internalType": "string[]",
          "name": "genders",
          "type": "string[]"
        },
        {
          "internalType": "string[]",
          "name": "dobs",
          "type": "string[]"
        },
        {
          "internalType": "string[]",
          "name": "bloodgroups",
          "type": "string[]"
        }
      ],
      "stateMutability": "view",
      "type": "function",
      "constant": true
    },
    {
      "inputs": [
        {
          "internalType": "address",
          "name": "_addr",
          "type": "address"
        }
      ],
      "name": "getPatientDetails",
      "outputs": [
        {
          "internalType": "string",
          "name": "_name",
          "type": "string"
        },
        {
          "internalType": "string",
          "name": "_phone",
          "type": "string"
        },
        {
          "internalType": "string",
          "name": "_gender",
          "type": "string"
        },
        {
          "internalType": "string",
          "name": "_dob",
          "type": "string"
        },
        {
          "internalType": "string",
          "name": "_bloodgroup",
          "type": "string"
        }
      ],
      "stateMutability": "view",
      "type": "function",
      "constant": true
    },
    {
      "inputs": [],
      "name": "getPatientList",
      "outputs": [
        {
          "internalType": "address[]",
          "name": "",
          "type": "address[]"
        }
      ],
      "stateMutability": "view",
      "type": "function",
      "constant": true
    },
    {
      "inputs": [
        {
          "internalType": "address",
          "name": "_addr",
          "type": "address"
        }
      ],
      "name": "grantAccess",
      "outputs": [
        {
          "internalType": "bool",
          "name": "success",
          "type": "bool"
        }
      ],
      "stateMutability": "nonpayable",
      "type": "function"
    },
    {
      "inputs": [],
      "name": "owner",
      "outputs": [
        {
          "internalType": "address",
          "name": "",
          "type": "address"
        }
      ],
      "stateMutability": "view",
      "type": "function",
      "constant": true
    },
    {
      "inputs": [],
      "name": "pindex",
      "outputs": [
        {
          "internalType": "uint256",
          "name": "",
          "type": "uint256"
        }
      ],
      "stateMutability": "view",
      "type": "function",
      "constant": true
    },
    {
      "inputs": [
        {
          "internalType": "uint256",
          "name": "",
          "type": "uint256"
        }
      ],
      "name": "registeredDoctorList",
      "outputs": [
        {
          "internalType": "uint256",
          "name": "",
          "type": "uint256"
        }
      ],
      "stateMutability": "view",
      "type": "function",
      "constant": true
    },
    {
      "inputs": [
        {
          "internalType": "address",
          "name": "addr",
          "type": "address"
        }
      ],
      "name": "user",
      "outputs": [
        {
          "internalType": "int256",
          "name": "success",
          "type": "int256"
        }
      ],
      "stateMutability": "view",
      "type": "function",
      "constant": true
    },
    {
      "inputs": [
        {
          "internalType": "string",
          "name": "docname",
          "type": "string"
        },
        {
          "internalType": "uint256",
          "name": "license",
          "type": "uint256"
        }
      ],
      "name": "registerDoctor",
      "outputs": [],
      "stateMutability": "nonpayable",
      "type": "function"
    },
    {
      "inputs": [
        {
          "internalType": "address",
          "name": "pat",
          "type": "address"
        },
        {
          "internalType": "address",
          "name": "client",
          "type": "address"
        }
      ],
      "name": "isAuthorized",
      "outputs": [
        {
          "internalType": "bool",
          "name": "success",
          "type": "bool"
        }
      ],
      "stateMutability": "view",
      "type": "function",
      "constant": true
    },
    {
      "inputs": [
        {
          "internalType": "address",
          "name": "addr",
          "type": "address"
        }
      ],
      "name": "isRegistered",
      "outputs": [
        {
          "internalType": "bool",
          "name": "success",
          "type": "bool"
        }
      ],
      "stateMutability": "view",
      "type": "function",
      "constant": true
    },
    {
      "inputs": [
        {
          "internalType": "string",
          "name": "_dname",
          "type": "string"
        },
        {
          "internalType": "string",
          "name": "_reason",
          "type": "string"
        },
        {
          "internalType": "string",
          "name": "_visitedDate",
          "type": "string"
        },
        {
          "internalType": "string",
          "name": "_ipfs",
          "type": "string"
        },
        {
          "internalType": "address",
          "name": "addr",
          "type": "address"
        }
      ],
      "name": "addRecord",
      "outputs": [],
      "stateMutability": "nonpayable",
      "type": "function"
    },
    {
      "inputs": [
        {
          "internalType": "address",
          "name": "_addr",
          "type": "address"
        }
      ],
      "name": "getrecordlist",
      "outputs": [
        {
          "internalType": "uint256",
          "name": "",
          "type": "uint256"
        }
      ],
      "stateMutability": "view",
      "type": "function",
      "constant": true
    },
    {
      "inputs": [
        {
          "internalType": "string",
          "name": "_name",
          "type": "string"
        },
        {
          "internalType": "string",
          "name": "_hname",
          "type": "string"
        },
        {
          "internalType": "string",
          "name": "_faculty",
          "type": "string"
        },
        {
          "internalType": "string",
          "name": "_contact",
          "type": "string"
        },
        {
          "internalType": "uint256",
          "name": "license",
          "type": "uint256"
        }
      ],
      "name": "addDoctor",
      "outputs": [],
      "stateMutability": "nonpayable",
      "type": "function"
    },
    {
      "inputs": [],
      "name": "getAllDoctors",
      "outputs": [
        {
          "internalType": "uint256[]",
          "name": "ids",
          "type": "uint256[]"
        },
        {
          "internalType": "string[]",
          "name": "names",
          "type": "string[]"
        },
        {
          "internalType": "string[]",
          "name": "contacts",
          "type": "string[]"
        },
        {
          "internalType": "string[]",
          "name": "hospitals",
          "type": "string[]"
        },
        {
          "internalType": "string[]",
          "name": "faculties",
          "type": "string[]"
        },
        {
          "internalType": "address[]",
          "name": "addresses",
          "type": "address[]"
        },
        {
          "internalType": "bool[]",
          "name": "approvals",
          "type": "bool[]"
        },
        {
          "internalType": "uint256[]",
          "name": "licenses",
          "type": "uint256[]"
        }
      ],
      "stateMutability": "view",
      "type": "function",
      "constant": true
    },
    {
      "inputs": [
        {
          "internalType": "address",
          "name": "_address",
          "type": "address"
        }
      ],
      "name": "getDoctorByAddress",
      "outputs": [
        {
          "internalType": "uint256",
          "name": "id",
          "type": "uint256"
        },
        {
          "internalType": "string",
          "name": "name",
          "type": "string"
        },
        {
          "internalType": "string",
          "name": "contact",
          "type": "string"
        },
        {
          "internalType": "string",
          "name": "hname",
          "type": "string"
        },
        {
          "internalType": "string",
          "name": "faculty",
          "type": "string"
        },
        {
          "internalType": "address",
          "name": "addr",
          "type": "address"
        },
        {
          "internalType": "bool",
          "name": "isApproved",
          "type": "bool"
        },
        {
          "internalType": "uint256",
          "name": "licenseno",
          "type": "uint256"
        }
      ],
      "stateMutability": "view",
      "type": "function",
      "constant": true
    }
  ],
  "bytecode": "0x608060405260008055600060015534801561001957600080fd5b5033600a60006101000a81548173ffffffffffffffffffffffffffffffffffffffff021916908373ffffffffffffffffffffffffffffffffffffffff160217905550615643806200006b6000396000f3fe608060405234801561001057600080fd5b506004361061012c5760003560e01c806365e4ad9e116100ad578063abec773d11610071578063abec773d14610364578063c3c5a54714610394578063cdfbfb5c146103c4578063efe2ccc1146103f7578063f0d950901461042b5761012c565b806365e4ad9e146102ac57806370333b80146102dc57806381e7e20e146102f85780638da5cb5b14610328578063928ed9da146103465761012c565b8063312625f8116100f4578063312625f814610201578063503b13541461021d5780635658e43b1461023b57806356fa82171461025957806358c5d4bf146102755761012c565b80630ae5e73914610131578063127ca4b414610161578063136bd1481461019157806318a231a9146101ad578063248c6a31146101d1575b600080fd5b61014b60048036038101906101469190614425565b610450565b6040516101589190614fbe565b60405180910390f35b61017b6004803603810190610176919061477b565b6106b5565b6040516101889190614dca565b60405180910390f35b6101ab60048036038101906101a69190614727565b6106f4565b005b6101b56107f9565b6040516101c89796959493929190614e68565b60405180910390f35b6101eb60048036038101906101e69190614425565b61142d565b6040516101f891906151aa565b60405180910390f35b61021b60048036038101906102169190614650565b61147c565b005b6102256119df565b6040516102329190614de5565b60405180910390f35b610243611a6d565b60405161025091906151aa565b60405180910390f35b610273600480360381019061026e9190614561565b611a73565b005b61028f600480360381019061028a9190614425565b611e9a565b6040516102a39897969594939291906151c5565b60405180910390f35b6102c660048036038101906102c1919061444e565b612206565b6040516102d39190614fbe565b60405180910390f35b6102f660048036038101906102f1919061448a565b61229a565b005b610312600480360381019061030d9190614425565b6124fe565b60405161031f9190614fd9565b60405180910390f35b61033061262d565b60405161033d9190614dca565b60405180910390f35b61034e612653565b60405161035b91906151aa565b60405180910390f35b61037e6004803603810190610379919061477b565b612659565b60405161038b91906151aa565b60405180910390f35b6103ae60048036038101906103a99190614425565b61267d565b6040516103bb9190614fbe565b60405180910390f35b6103de60048036038101906103d99190614425565b6129e7565b6040516103ee9493929190614e07565b60405180910390f35b610411600480360381019061040c9190614425565b613222565b604051610422959493929190614ff4565b60405180910390f35b610433613913565b604051610447989796959493929190614f08565b60405180910390f35b60008173ffffffffffffffffffffffffffffffffffffffff163373ffffffffffffffffffffffffffffffffffffffff1614156104c1576040517f08c379a00000000000000000000000000000000000000000000000000000000081526004016104b89061510a565b60405180910390fd5b600560008373ffffffffffffffffffffffffffffffffffffffff1673ffffffffffffffffffffffffffffffffffffffff16815260200190815260200160002060009054906101000a900460ff1661054d576040517f08c379a0000000000000000000000000000000000000000000000000000000008152600401610544906150ea565b60405180910390fd5b600660003373ffffffffffffffffffffffffffffffffffffffff1673ffffffffffffffffffffffffffffffffffffffff16815260200190815260200160002060008373ffffffffffffffffffffffffffffffffffffffff1673ffffffffffffffffffffffffffffffffffffffff16815260200190815260200160002060009054906101000a900460ff1615610617576040517f08c379a000000000000000000000000000000000000000000000000000000000815260040161060e9061514a565b60405180910390fd5b6001600660003373ffffffffffffffffffffffffffffffffffffffff1673ffffffffffffffffffffffffffffffffffffffff16815260200190815260200160002060008473ffffffffffffffffffffffffffffffffffffffff1673ffffffffffffffffffffffffffffffffffffffff16815260200190815260200160002060006101000a81548160ff02191690831515021790555060019050919050565b600881815481106106c557600080fd5b906000526020600020016000915054906101000a900473ffffffffffffffffffffffffffffffffffffffff1681565b600a60009054906101000a900473ffffffffffffffffffffffffffffffffffffffff1673ffffffffffffffffffffffffffffffffffffffff163373ffffffffffffffffffffffffffffffffffffffff1614610784576040517f08c379a000000000000000000000000000000000000000000000000000000000815260040161077b9061518a565b60405180910390fd5b60016007836040516107969190614db3565b9081526020016040518091039020600083815260200190815260200160002060006101000a81548160ff02191690831515021790555060098190806001815401808255809150506001900390600052602060002001600090919091909150555050565b6060806060806060806060600060028054905090508067ffffffffffffffff81111561084e577f4e487b7100000000000000000000000000000000000000000000000000000000600052604160045260246000fd5b60405190808252806020026020018201604052801561087c5781602001602082028036833780820191505090505b5097508067ffffffffffffffff8111156108bf577f4e487b7100000000000000000000000000000000000000000000000000000000600052604160045260246000fd5b6040519080825280602002602001820160405280156108ed5781602001602082028036833780820191505090505b5096508067ffffffffffffffff811115610930577f4e487b7100000000000000000000000000000000000000000000000000000000600052604160045260246000fd5b60405190808252806020026020018201604052801561096357816020015b606081526020019060019003908161094e5790505b5095508067ffffffffffffffff8111156109a6577f4e487b7100000000000000000000000000000000000000000000000000000000600052604160045260246000fd5b6040519080825280602002602001820160405280156109d957816020015b60608152602001906001900390816109c45790505b5094508067ffffffffffffffff811115610a1c577f4e487b7100000000000000000000000000000000000000000000000000000000600052604160045260246000fd5b604051908082528060200260200182016040528015610a4f57816020015b6060815260200190600190039081610a3a5790505b5093508067ffffffffffffffff811115610a92577f4e487b7100000000000000000000000000000000000000000000000000000000600052604160045260246000fd5b604051908082528060200260200182016040528015610ac557816020015b6060815260200190600190039081610ab05790505b5092508067ffffffffffffffff811115610b08577f4e487b7100000000000000000000000000000000000000000000000000000000600052604160045260246000fd5b604051908082528060200260200182016040528015610b3b57816020015b6060815260200190600190039081610b265790505b50915060005b8181101561142257600060028281548110610b85577f4e487b7100000000000000000000000000000000000000000000000000000000600052603260045260246000fd5b9060005260206000200160009054906101000a900473ffffffffffffffffffffffffffffffffffffffff1690506000600360008373ffffffffffffffffffffffffffffffffffffffff1673ffffffffffffffffffffffffffffffffffffffff1681526020019081526020016000206040518061010001604052908160008201548152602001600182018054610c19906154c6565b80601f0160208091040260200160405190810160405280929190818152602001828054610c45906154c6565b8015610c925780601f10610c6757610100808354040283529160200191610c92565b820191906000526020600020905b815481529060010190602001808311610c7557829003601f168201915b50505050508152602001600282018054610cab906154c6565b80601f0160208091040260200160405190810160405280929190818152602001828054610cd7906154c6565b8015610d245780601f10610cf957610100808354040283529160200191610d24565b820191906000526020600020905b815481529060010190602001808311610d0757829003601f168201915b50505050508152602001600382018054610d3d906154c6565b80601f0160208091040260200160405190810160405280929190818152602001828054610d69906154c6565b8015610db65780601f10610d8b57610100808354040283529160200191610db6565b820191906000526020600020905b815481529060010190602001808311610d9957829003601f168201915b50505050508152602001600482018054610dcf906154c6565b80601f0160208091040260200160405190810160405280929190818152602001828054610dfb906154c6565b8015610e485780601f10610e1d57610100808354040283529160200191610e48565b820191906000526020600020905b815481529060010190602001808311610e2b57829003601f168201915b50505050508152602001600582018054610e61906154c6565b80601f0160208091040260200160405190810160405280929190818152602001828054610e8d906154c6565b8015610eda5780601f10610eaf57610100808354040283529160200191610eda565b820191906000526020600020905b815481529060010190602001808311610ebd57829003601f168201915b5050505050815260200160068201805480602002602001604051908101604052809291908181526020016000905b828210156111825783829060005260206000209060040201604051806080016040529081600082018054610f3b906154c6565b80601f0160208091040260200160405190810160405280929190818152602001828054610f67906154c6565b8015610fb45780601f10610f8957610100808354040283529160200191610fb4565b820191906000526020600020905b815481529060010190602001808311610f9757829003601f168201915b50505050508152602001600182018054610fcd906154c6565b80601f0160208091040260200160405190810160405280929190818152602001828054610ff9906154c6565b80156110465780601f1061101b57610100808354040283529160200191611046565b820191906000526020600020905b81548152906001019060200180831161102957829003601f168201915b5050505050815260200160028201805461105f906154c6565b80601f016020809104026020016040519081016040528092919081815260200182805461108b906154c6565b80156110d85780601f106110ad576101008083540402835291602001916110d8565b820191906000526020600020905b8154815290600101906020018083116110bb57829003601f168201915b505050505081526020016003820180546110f1906154c6565b80601f016020809104026020016040519081016040528092919081815260200182805461111d906154c6565b801561116a5780601f1061113f5761010080835404028352916020019161116a565b820191906000526020600020905b81548152906001019060200180831161114d57829003601f168201915b50505050508152505081526020019060010190610f08565b5050505081526020016007820160009054906101000a900473ffffffffffffffffffffffffffffffffffffffff1673ffffffffffffffffffffffffffffffffffffffff1673ffffffffffffffffffffffffffffffffffffffff1681525050905080600001518b8481518110611220577f4e487b7100000000000000000000000000000000000000000000000000000000600052603260045260246000fd5b602002602001018181525050818a8481518110611266577f4e487b7100000000000000000000000000000000000000000000000000000000600052603260045260246000fd5b602002602001019073ffffffffffffffffffffffffffffffffffffffff16908173ffffffffffffffffffffffffffffffffffffffff168152505080602001518984815181106112de577f4e487b7100000000000000000000000000000000000000000000000000000000600052603260045260246000fd5b60200260200101819052508060400151888481518110611327577f4e487b7100000000000000000000000000000000000000000000000000000000600052603260045260246000fd5b60200260200101819052508060600151878481518110611370577f4e487b7100000000000000000000000000000000000000000000000000000000600052603260045260246000fd5b602002602001018190525080608001518684815181106113b9577f4e487b7100000000000000000000000000000000000000000000000000000000600052603260045260246000fd5b60200260200101819052508060a00151858481518110611402577f4e487b7100000000000000000000000000000000000000000000000000000000600052603260045260246000fd5b60200260200101819052505050808061141a906154f8565b915050610b41565b505090919293949596565b6000600360008373ffffffffffffffffffffffffffffffffffffffff1673ffffffffffffffffffffffffffffffffffffffff168152602001908152602001600020600601805490509050919050565b600560003373ffffffffffffffffffffffffffffffffffffffff1673ffffffffffffffffffffffffffffffffffffffff16815260200190815260200160002060009054906101000a900460ff1615611509576040517f08c379a0000000000000000000000000000000000000000000000000000000008152600401611500906150aa565b60405180910390fd5b600a60009054906101000a900473ffffffffffffffffffffffffffffffffffffffff1673ffffffffffffffffffffffffffffffffffffffff163373ffffffffffffffffffffffffffffffffffffffff16141561159a576040517f08c379a00000000000000000000000000000000000000000000000000000000081526004016115919061508a565b60405180910390fd5b60008551116115a857600080fd5b60008451116115b657600080fd5b60008351116115c457600080fd5b60008251116115d257600080fd5b600081116115df57600080fd5b60003390506008819080600181540180825580915050600190039060005260206000200160009091909190916101000a81548173ffffffffffffffffffffffffffffffffffffffff021916908373ffffffffffffffffffffffffffffffffffffffff1602179055506001805461165591906153dc565b6001819055506001600560008373ffffffffffffffffffffffffffffffffffffffff1673ffffffffffffffffffffffffffffffffffffffff16815260200190815260200160002060006101000a81548160ff02191690831515021790555085600b60008373ffffffffffffffffffffffffffffffffffffffff1673ffffffffffffffffffffffffffffffffffffffff16815260200190815260200160002060010190805190602001906117099291906142f0565b5082600b60008373ffffffffffffffffffffffffffffffffffffffff1673ffffffffffffffffffffffffffffffffffffffff16815260200190815260200160002060020190805190602001906117609291906142f0565b5084600b60008373ffffffffffffffffffffffffffffffffffffffff1673ffffffffffffffffffffffffffffffffffffffff16815260200190815260200160002060030190805190602001906117b79291906142f0565b5083600b60008373ffffffffffffffffffffffffffffffffffffffff1673ffffffffffffffffffffffffffffffffffffffff168152602001908152602001600020600401908051906020019061180e9291906142f0565b5080600b60008373ffffffffffffffffffffffffffffffffffffffff1673ffffffffffffffffffffffffffffffffffffffff16815260200190815260200160002060050160006101000a81548173ffffffffffffffffffffffffffffffffffffffff021916908373ffffffffffffffffffffffffffffffffffffffff16021790555081600b60008373ffffffffffffffffffffffffffffffffffffffff1673ffffffffffffffffffffffffffffffffffffffff168152602001908152602001600020600601819055506000600b60008373ffffffffffffffffffffffffffffffffffffffff1673ffffffffffffffffffffffffffffffffffffffff16815260200190815260200160002060070160006101000a81548160ff021916908315150217905550600115156007876040516119469190614db3565b9081526020016040518091039020600084815260200190815260200160002060009054906101000a900460ff16151514156119d7576001600b60008373ffffffffffffffffffffffffffffffffffffffff1673ffffffffffffffffffffffffffffffffffffffff16815260200190815260200160002060070160006101000a81548160ff0219169083151502179055505b505050505050565b60606002805480602002602001604051908101604052809291908181526020018280548015611a6357602002820191906000526020600020905b8160009054906101000a900473ffffffffffffffffffffffffffffffffffffffff1673ffffffffffffffffffffffffffffffffffffffff1681526020019060010190808311611a19575b5050505050905090565b60005481565b600460003373ffffffffffffffffffffffffffffffffffffffff1673ffffffffffffffffffffffffffffffffffffffff16815260200190815260200160002060009054906101000a900460ff1615611b00576040517f08c379a0000000000000000000000000000000000000000000000000000000008152600401611af79061506a565b60405180910390fd5b6000855111611b0e57600080fd5b6000845111611b1c57600080fd5b6000835111611b2a57600080fd5b6000825111611b3857600080fd5b6000815111611b4657600080fd5b6002339080600181540180825580915050600190039060005260206000200160009091909190916101000a81548173ffffffffffffffffffffffffffffffffffffffff021916908373ffffffffffffffffffffffffffffffffffffffff1602179055506001600054611bb891906153dc565b6000819055506001600460003373ffffffffffffffffffffffffffffffffffffffff1673ffffffffffffffffffffffffffffffffffffffff16815260200190815260200160002060006101000a81548160ff021916908315150217905550600054600360003373ffffffffffffffffffffffffffffffffffffffff1673ffffffffffffffffffffffffffffffffffffffff1681526020019081526020016000206000018190555084600360003373ffffffffffffffffffffffffffffffffffffffff1673ffffffffffffffffffffffffffffffffffffffff1681526020019081526020016000206001019080519060200190611cb59291906142f0565b5083600360003373ffffffffffffffffffffffffffffffffffffffff1673ffffffffffffffffffffffffffffffffffffffff1681526020019081526020016000206002019080519060200190611d0c9291906142f0565b5082600360003373ffffffffffffffffffffffffffffffffffffffff1673ffffffffffffffffffffffffffffffffffffffff1681526020019081526020016000206003019080519060200190611d639291906142f0565b5081600360003373ffffffffffffffffffffffffffffffffffffffff1673ffffffffffffffffffffffffffffffffffffffff1681526020019081526020016000206004019080519060200190611dba9291906142f0565b5080600360003373ffffffffffffffffffffffffffffffffffffffff1673ffffffffffffffffffffffffffffffffffffffff1681526020019081526020016000206005019080519060200190611e119291906142f0565b5033600360003373ffffffffffffffffffffffffffffffffffffffff1673ffffffffffffffffffffffffffffffffffffffff16815260200190815260200160002060070160006101000a81548173ffffffffffffffffffffffffffffffffffffffff021916908373ffffffffffffffffffffffffffffffffffffffff1602179055505050505050565b6000606080606080600080600080600b60008b73ffffffffffffffffffffffffffffffffffffffff1673ffffffffffffffffffffffffffffffffffffffff1681526020019081526020016000206040518061010001604052908160008201548152602001600182018054611f0d906154c6565b80601f0160208091040260200160405190810160405280929190818152602001828054611f39906154c6565b8015611f865780601f10611f5b57610100808354040283529160200191611f86565b820191906000526020600020905b815481529060010190602001808311611f6957829003601f168201915b50505050508152602001600282018054611f9f906154c6565b80601f0160208091040260200160405190810160405280929190818152602001828054611fcb906154c6565b80156120185780601f10611fed57610100808354040283529160200191612018565b820191906000526020600020905b815481529060010190602001808311611ffb57829003601f168201915b50505050508152602001600382018054612031906154c6565b80601f016020809104026020016040519081016040528092919081815260200182805461205d906154c6565b80156120aa5780601f1061207f576101008083540402835291602001916120aa565b820191906000526020600020905b81548152906001019060200180831161208d57829003601f168201915b505050505081526020016004820180546120c3906154c6565b80601f01602080910402602001604051908101604052809291908181526020018280546120ef906154c6565b801561213c5780601f106121115761010080835404028352916020019161213c565b820191906000526020600020905b81548152906001019060200180831161211f57829003601f168201915b505050505081526020016005820160009054906101000a900473ffffffffffffffffffffffffffffffffffffffff1673ffffffffffffffffffffffffffffffffffffffff1673ffffffffffffffffffffffffffffffffffffffff168152602001600682015481526020016007820160009054906101000a900460ff1615151515815250509050806000015181602001518260400151836060015184608001518560a001518660e001518760c001519850985098509850985098509850985050919395975091939597565b6000600660008473ffffffffffffffffffffffffffffffffffffffff1673ffffffffffffffffffffffffffffffffffffffff16815260200190815260200160002060008373ffffffffffffffffffffffffffffffffffffffff1673ffffffffffffffffffffffffffffffffffffffff16815260200190815260200160002060009054906101000a900460ff16905092915050565b600460008273ffffffffffffffffffffffffffffffffffffffff1673ffffffffffffffffffffffffffffffffffffffff16815260200190815260200160002060009054906101000a900460ff16612326576040517f08c379a000000000000000000000000000000000000000000000000000000000815260040161231d9061512a565b60405180910390fd5b600660008273ffffffffffffffffffffffffffffffffffffffff1673ffffffffffffffffffffffffffffffffffffffff16815260200190815260200160002060003373ffffffffffffffffffffffffffffffffffffffff1673ffffffffffffffffffffffffffffffffffffffff16815260200190815260200160002060009054906101000a900460ff16156124bc57600360008273ffffffffffffffffffffffffffffffffffffffff1673ffffffffffffffffffffffffffffffffffffffff1681526020019081526020016000206006016040518060800160405280878152602001868152602001858152602001848152509080600181540180825580915050600190039060005260206000209060040201600090919091909150600082015181600001908051906020019061245d9291906142f0565b50602082015181600101908051906020019061247a9291906142f0565b5060408201518160020190805190602001906124979291906142f0565b5060608201518160030190805190602001906124b49291906142f0565b5050506124f7565b6040517f08c379a00000000000000000000000000000000000000000000000000000000081526004016124ee9061516a565b60405180910390fd5b5050505050565b600060011515600560008473ffffffffffffffffffffffffffffffffffffffff1673ffffffffffffffffffffffffffffffffffffffff16815260200190815260200160002060009054906101000a900460ff16151514156125625760009050612628565b60011515600460008473ffffffffffffffffffffffffffffffffffffffff1673ffffffffffffffffffffffffffffffffffffffff16815260200190815260200160002060009054906101000a900460ff16151514156125c45760019050612628565b600a60009054906101000a900473ffffffffffffffffffffffffffffffffffffffff1673ffffffffffffffffffffffffffffffffffffffff168273ffffffffffffffffffffffffffffffffffffffff1614156126235760029050612628565b600390505b919050565b600a60009054906101000a900473ffffffffffffffffffffffffffffffffffffffff1681565b60015481565b6009818154811061266957600080fd5b906000526020600020016000915090505481565b600080600b60008473ffffffffffffffffffffffffffffffffffffffff1673ffffffffffffffffffffffffffffffffffffffff16815260200190815260200160002060405180610100016040529081600082015481526020016001820180546126e5906154c6565b80601f0160208091040260200160405190810160405280929190818152602001828054612711906154c6565b801561275e5780601f106127335761010080835404028352916020019161275e565b820191906000526020600020905b81548152906001019060200180831161274157829003601f168201915b50505050508152602001600282018054612777906154c6565b80601f01602080910402602001604051908101604052809291908181526020018280546127a3906154c6565b80156127f05780601f106127c5576101008083540402835291602001916127f0565b820191906000526020600020905b8154815290600101906020018083116127d357829003601f168201915b50505050508152602001600382018054612809906154c6565b80601f0160208091040260200160405190810160405280929190818152602001828054612835906154c6565b80156128825780601f1061285757610100808354040283529160200191612882565b820191906000526020600020905b81548152906001019060200180831161286557829003601f168201915b5050505050815260200160048201805461289b906154c6565b80601f01602080910402602001604051908101604052809291908181526020018280546128c7906154c6565b80156129145780601f106128e957610100808354040283529160200191612914565b820191906000526020600020905b8154815290600101906020018083116128f757829003601f168201915b505050505081526020016005820160009054906101000a900473ffffffffffffffffffffffffffffffffffffffff1673ffffffffffffffffffffffffffffffffffffffff1673ffffffffffffffffffffffffffffffffffffffff168152602001600682015481526020016007820160009054906101000a900460ff1615151515815250509050600781602001516040516129ae9190614db3565b908152602001604051809103902060008260c00151815260200190815260200160002060009054906101000a900460ff16915050919050565b606080606080600460008673ffffffffffffffffffffffffffffffffffffffff1673ffffffffffffffffffffffffffffffffffffffff16815260200190815260200160002060009054906101000a900460ff16612a79576040517f08c379a0000000000000000000000000000000000000000000000000000000008152600401612a709061512a565b60405180910390fd5b6000600360008773ffffffffffffffffffffffffffffffffffffffff1673ffffffffffffffffffffffffffffffffffffffff1681526020019081526020016000206006018054905090508067ffffffffffffffff811115612b03577f4e487b7100000000000000000000000000000000000000000000000000000000600052604160045260246000fd5b604051908082528060200260200182016040528015612b3657816020015b6060815260200190600190039081612b215790505b5094508067ffffffffffffffff811115612b79577f4e487b7100000000000000000000000000000000000000000000000000000000600052604160045260246000fd5b604051908082528060200260200182016040528015612bac57816020015b6060815260200190600190039081612b975790505b5093508067ffffffffffffffff811115612bef577f4e487b7100000000000000000000000000000000000000000000000000000000600052604160045260246000fd5b604051908082528060200260200182016040528015612c2257816020015b6060815260200190600190039081612c0d5790505b5092508067ffffffffffffffff811115612c65577f4e487b7100000000000000000000000000000000000000000000000000000000600052604160045260246000fd5b604051908082528060200260200182016040528015612c9857816020015b6060815260200190600190039081612c835790505b50915060005b8181101561321957600360008873ffffffffffffffffffffffffffffffffffffffff1673ffffffffffffffffffffffffffffffffffffffff1681526020019081526020016000206006018181548110612d20577f4e487b7100000000000000000000000000000000000000000000000000000000600052603260045260246000fd5b90600052602060002090600402016000018054612d3c906154c6565b80601f0160208091040260200160405190810160405280929190818152602001828054612d68906154c6565b8015612db55780601f10612d8a57610100808354040283529160200191612db5565b820191906000526020600020905b815481529060010190602001808311612d9857829003601f168201915b5050505050868281518110612df3577f4e487b7100000000000000000000000000000000000000000000000000000000600052603260045260246000fd5b6020026020010181905250600360008873ffffffffffffffffffffffffffffffffffffffff1673ffffffffffffffffffffffffffffffffffffffff1681526020019081526020016000206006018181548110612e78577f4e487b7100000000000000000000000000000000000000000000000000000000600052603260045260246000fd5b90600052602060002090600402016001018054612e94906154c6565b80601f0160208091040260200160405190810160405280929190818152602001828054612ec0906154c6565b8015612f0d5780601f10612ee257610100808354040283529160200191612f0d565b820191906000526020600020905b815481529060010190602001808311612ef057829003601f168201915b5050505050858281518110612f4b577f4e487b7100000000000000000000000000000000000000000000000000000000600052603260045260246000fd5b6020026020010181905250600360008873ffffffffffffffffffffffffffffffffffffffff1673ffffffffffffffffffffffffffffffffffffffff1681526020019081526020016000206006018181548110612fd0577f4e487b7100000000000000000000000000000000000000000000000000000000600052603260045260246000fd5b90600052602060002090600402016002018054612fec906154c6565b80601f0160208091040260200160405190810160405280929190818152602001828054613018906154c6565b80156130655780601f1061303a57610100808354040283529160200191613065565b820191906000526020600020905b81548152906001019060200180831161304857829003601f168201915b50505050508482815181106130a3577f4e487b7100000000000000000000000000000000000000000000000000000000600052603260045260246000fd5b6020026020010181905250600360008873ffffffffffffffffffffffffffffffffffffffff1673ffffffffffffffffffffffffffffffffffffffff1681526020019081526020016000206006018181548110613128577f4e487b7100000000000000000000000000000000000000000000000000000000600052603260045260246000fd5b90600052602060002090600402016003018054613144906154c6565b80601f0160208091040260200160405190810160405280929190818152602001828054613170906154c6565b80156131bd5780601f10613192576101008083540402835291602001916131bd565b820191906000526020600020905b8154815290600101906020018083116131a057829003601f168201915b50505050508382815181106131fb577f4e487b7100000000000000000000000000000000000000000000000000000000600052603260045260246000fd5b60200260200101819052508080613211906154f8565b915050612c9e565b50509193509193565b6060806060806060600460008773ffffffffffffffffffffffffffffffffffffffff1673ffffffffffffffffffffffffffffffffffffffff16815260200190815260200160002060009054906101000a900460ff166132b6576040517f08c379a00000000000000000000000000000000000000000000000000000000081526004016132ad906150ca565b60405180910390fd5b6000600360008873ffffffffffffffffffffffffffffffffffffffff1673ffffffffffffffffffffffffffffffffffffffff168152602001908152602001600020604051806101000160405290816000820154815260200160018201805461331d906154c6565b80601f0160208091040260200160405190810160405280929190818152602001828054613349906154c6565b80156133965780601f1061336b57610100808354040283529160200191613396565b820191906000526020600020905b81548152906001019060200180831161337957829003601f168201915b505050505081526020016002820180546133af906154c6565b80601f01602080910402602001604051908101604052809291908181526020018280546133db906154c6565b80156134285780601f106133fd57610100808354040283529160200191613428565b820191906000526020600020905b81548152906001019060200180831161340b57829003601f168201915b50505050508152602001600382018054613441906154c6565b80601f016020809104026020016040519081016040528092919081815260200182805461346d906154c6565b80156134ba5780601f1061348f576101008083540402835291602001916134ba565b820191906000526020600020905b81548152906001019060200180831161349d57829003601f168201915b505050505081526020016004820180546134d3906154c6565b80601f01602080910402602001604051908101604052809291908181526020018280546134ff906154c6565b801561354c5780601f106135215761010080835404028352916020019161354c565b820191906000526020600020905b81548152906001019060200180831161352f57829003601f168201915b50505050508152602001600582018054613565906154c6565b80601f0160208091040260200160405190810160405280929190818152602001828054613591906154c6565b80156135de5780601f106135b3576101008083540402835291602001916135de565b820191906000526020600020905b8154815290600101906020018083116135c157829003601f168201915b5050505050815260200160068201805480602002602001604051908101604052809291908181526020016000905b82821015613886578382906000526020600020906004020160405180608001604052908160008201805461363f906154c6565b80601f016020809104026020016040519081016040528092919081815260200182805461366b906154c6565b80156136b85780601f1061368d576101008083540402835291602001916136b8565b820191906000526020600020905b81548152906001019060200180831161369b57829003601f168201915b505050505081526020016001820180546136d1906154c6565b80601f01602080910402602001604051908101604052809291908181526020018280546136fd906154c6565b801561374a5780601f1061371f5761010080835404028352916020019161374a565b820191906000526020600020905b81548152906001019060200180831161372d57829003601f168201915b50505050508152602001600282018054613763906154c6565b80601f016020809104026020016040519081016040528092919081815260200182805461378f906154c6565b80156137dc5780601f106137b1576101008083540402835291602001916137dc565b820191906000526020600020905b8154815290600101906020018083116137bf57829003601f168201915b505050505081526020016003820180546137f5906154c6565b80601f0160208091040260200160405190810160405280929190818152602001828054613821906154c6565b801561386e5780601f106138435761010080835404028352916020019161386e565b820191906000526020600020905b81548152906001019060200180831161385157829003601f168201915b5050505050815250508152602001906001019061360c565b5050505081526020016007820160009054906101000a900473ffffffffffffffffffffffffffffffffffffffff1673ffffffffffffffffffffffffffffffffffffffff1673ffffffffffffffffffffffffffffffffffffffff1681525050905080602001518160400151826060015183608001518460a00151955095509550955095505091939590929450565b606080606080606080606080600060088054905090508067ffffffffffffffff811115613969577f4e487b7100000000000000000000000000000000000000000000000000000000600052604160045260246000fd5b6040519080825280602002602001820160405280156139975781602001602082028036833780820191505090505b5098508067ffffffffffffffff8111156139da577f4e487b7100000000000000000000000000000000000000000000000000000000600052604160045260246000fd5b604051908082528060200260200182016040528015613a0d57816020015b60608152602001906001900390816139f85790505b5097508067ffffffffffffffff811115613a50577f4e487b7100000000000000000000000000000000000000000000000000000000600052604160045260246000fd5b604051908082528060200260200182016040528015613a8357816020015b6060815260200190600190039081613a6e5790505b5096508067ffffffffffffffff811115613ac6577f4e487b7100000000000000000000000000000000000000000000000000000000600052604160045260246000fd5b604051908082528060200260200182016040528015613af957816020015b6060815260200190600190039081613ae45790505b5095508067ffffffffffffffff811115613b3c577f4e487b7100000000000000000000000000000000000000000000000000000000600052604160045260246000fd5b604051908082528060200260200182016040528015613b6f57816020015b6060815260200190600190039081613b5a5790505b5094508067ffffffffffffffff811115613bb2577f4e487b7100000000000000000000000000000000000000000000000000000000600052604160045260246000fd5b604051908082528060200260200182016040528015613be05781602001602082028036833780820191505090505b5093508067ffffffffffffffff811115613c23577f4e487b7100000000000000000000000000000000000000000000000000000000600052604160045260246000fd5b604051908082528060200260200182016040528015613c515781602001602082028036833780820191505090505b5092508067ffffffffffffffff811115613c94577f4e487b7100000000000000000000000000000000000000000000000000000000600052604160045260246000fd5b604051908082528060200260200182016040528015613cc25781602001602082028036833780820191505090505b50915060005b818110156142e4576000600b600060088481548110613d10577f4e487b7100000000000000000000000000000000000000000000000000000000600052603260045260246000fd5b9060005260206000200160009054906101000a900473ffffffffffffffffffffffffffffffffffffffff1673ffffffffffffffffffffffffffffffffffffffff1673ffffffffffffffffffffffffffffffffffffffff1681526020019081526020016000206040518061010001604052908160008201548152602001600182018054613d9b906154c6565b80601f0160208091040260200160405190810160405280929190818152602001828054613dc7906154c6565b8015613e145780601f10613de957610100808354040283529160200191613e14565b820191906000526020600020905b815481529060010190602001808311613df757829003601f168201915b50505050508152602001600282018054613e2d906154c6565b80601f0160208091040260200160405190810160405280929190818152602001828054613e59906154c6565b8015613ea65780601f10613e7b57610100808354040283529160200191613ea6565b820191906000526020600020905b815481529060010190602001808311613e8957829003601f168201915b50505050508152602001600382018054613ebf906154c6565b80601f0160208091040260200160405190810160405280929190818152602001828054613eeb906154c6565b8015613f385780601f10613f0d57610100808354040283529160200191613f38565b820191906000526020600020905b815481529060010190602001808311613f1b57829003601f168201915b50505050508152602001600482018054613f51906154c6565b80601f0160208091040260200160405190810160405280929190818152602001828054613f7d906154c6565b8015613fca5780601f10613f9f57610100808354040283529160200191613fca565b820191906000526020600020905b815481529060010190602001808311613fad57829003601f168201915b505050505081526020016005820160009054906101000a900473ffffffffffffffffffffffffffffffffffffffff1673ffffffffffffffffffffffffffffffffffffffff1673ffffffffffffffffffffffffffffffffffffffff168152602001600682015481526020016007820160009054906101000a900460ff161515151581525050905080600001518b838151811061408e577f4e487b7100000000000000000000000000000000000000000000000000000000600052603260045260246000fd5b60200260200101818152505080602001518a83815181106140d8577f4e487b7100000000000000000000000000000000000000000000000000000000600052603260045260246000fd5b60200260200101819052508060400151898381518110614121577f4e487b7100000000000000000000000000000000000000000000000000000000600052603260045260246000fd5b6020026020010181905250806060015188838151811061416a577f4e487b7100000000000000000000000000000000000000000000000000000000600052603260045260246000fd5b602002602001018190525080608001518783815181106141b3577f4e487b7100000000000000000000000000000000000000000000000000000000600052603260045260246000fd5b60200260200101819052508060a001518683815181106141fc577f4e487b7100000000000000000000000000000000000000000000000000000000600052603260045260246000fd5b602002602001019073ffffffffffffffffffffffffffffffffffffffff16908173ffffffffffffffffffffffffffffffffffffffff16815250508060e00151858381518110614274577f4e487b7100000000000000000000000000000000000000000000000000000000600052603260045260246000fd5b6020026020010190151590811515815250508060c001518483815181106142c4577f4e487b7100000000000000000000000000000000000000000000000000000000600052603260045260246000fd5b6020026020010181815250505080806142dc906154f8565b915050613cc8565b50509091929394959697565b8280546142fc906154c6565b90600052602060002090601f01602090048101928261431e5760008555614365565b82601f1061433757805160ff1916838001178555614365565b82800160010185558215614365579182015b82811115614364578251825591602001919060010190614349565b5b5090506143729190614376565b5090565b5b8082111561438f576000816000905550600101614377565b5090565b60006143a66143a184615290565b61525f565b9050828152602081018484840111156143be57600080fd5b6143c9848285615484565b509392505050565b6000813590506143e0816155df565b92915050565b600082601f8301126143f757600080fd5b8135614407848260208601614393565b91505092915050565b60008135905061441f816155f6565b92915050565b60006020828403121561443757600080fd5b6000614445848285016143d1565b91505092915050565b6000806040838503121561446157600080fd5b600061446f858286016143d1565b9250506020614480858286016143d1565b9150509250929050565b600080600080600060a086880312156144a257600080fd5b600086013567ffffffffffffffff8111156144bc57600080fd5b6144c8888289016143e6565b955050602086013567ffffffffffffffff8111156144e557600080fd5b6144f1888289016143e6565b945050604086013567ffffffffffffffff81111561450e57600080fd5b61451a888289016143e6565b935050606086013567ffffffffffffffff81111561453757600080fd5b614543888289016143e6565b9250506080614554888289016143d1565b9150509295509295909350565b600080600080600060a0868803121561457957600080fd5b600086013567ffffffffffffffff81111561459357600080fd5b61459f888289016143e6565b955050602086013567ffffffffffffffff8111156145bc57600080fd5b6145c8888289016143e6565b945050604086013567ffffffffffffffff8111156145e557600080fd5b6145f1888289016143e6565b935050606086013567ffffffffffffffff81111561460e57600080fd5b61461a888289016143e6565b925050608086013567ffffffffffffffff81111561463757600080fd5b614643888289016143e6565b9150509295509295909350565b600080600080600060a0868803121561466857600080fd5b600086013567ffffffffffffffff81111561468257600080fd5b61468e888289016143e6565b955050602086013567ffffffffffffffff8111156146ab57600080fd5b6146b7888289016143e6565b945050604086013567ffffffffffffffff8111156146d457600080fd5b6146e0888289016143e6565b935050606086013567ffffffffffffffff8111156146fd57600080fd5b614709888289016143e6565b925050608061471a88828901614410565b9150509295509295909350565b6000806040838503121561473a57600080fd5b600083013567ffffffffffffffff81111561475457600080fd5b614760858286016143e6565b925050602061477185828601614410565b9150509250929050565b60006020828403121561478d57600080fd5b600061479b84828501614410565b91505092915050565b60006147b08383614800565b60208301905092915050565b60006147c883836149ad565b60208301905092915050565b60006147e083836149da565b905092915050565b60006147f48383614d95565b60208301905092915050565b61480981615432565b82525050565b61481881615432565b82525050565b600061482982615300565b614833818561536b565b935061483e836152c0565b8060005b8381101561486f57815161485688826147a4565b975061486183615337565b925050600181019050614842565b5085935050505092915050565b60006148878261530b565b614891818561537c565b935061489c836152d0565b8060005b838110156148cd5781516148b488826147bc565b97506148bf83615344565b9250506001810190506148a0565b5085935050505092915050565b60006148e582615316565b6148ef818561538d565b935083602082028501614901856152e0565b8060005b8581101561493d578484038952815161491e85826147d4565b945061492983615351565b925060208a01995050600181019050614905565b50829750879550505050505092915050565b600061495a82615321565b614964818561539e565b935061496f836152f0565b8060005b838110156149a057815161498788826147e8565b97506149928361535e565b925050600181019050614973565b5085935050505092915050565b6149b681615444565b82525050565b6149c581615444565b82525050565b6149d481615450565b82525050565b60006149e58261532c565b6149ef81856153af565b93506149ff818560208601615493565b614a08816155ce565b840191505092915050565b6000614a1e8261532c565b614a2881856153c0565b9350614a38818560208601615493565b614a41816155ce565b840191505092915050565b6000614a578261532c565b614a6181856153d1565b9350614a71818560208601615493565b80840191505092915050565b6000614a8a601e836153c0565b91507f416c72656164792050617469656e74206163636f756e742065786973747300006000830152602082019050919050565b6000614aca6028836153c0565b91507f436f6e7472616374206f776e65722063616e6e6f74207265676973746572206160008301527f7320646f63746f720000000000000000000000000000000000000000000000006020830152604082019050919050565b6000614b306012836153c0565b91507f416c7265616479205265676973746572656400000000000000000000000000006000830152602082019050919050565b6000614b706026836153c0565b91507f4e6f2050617469656e747320666f756e642061742074686520676976656e206160008301527f64647265737300000000000000000000000000000000000000000000000000006020830152604082019050919050565b6000614bd66018836153c0565b91507f4e6f74207265676973746572656420617320646f63746f7200000000000000006000830152602082019050919050565b6000614c166017836153c0565b91507f596f752063616e6e6f742061646420796f757273656c660000000000000000006000830152602082019050919050565b6000614c566025836153c0565b91507f4e6f2070617469656e7420666f756e642061742074686520676976656e20616460008301527f64726573730000000000000000000000000000000000000000000000000000006020830152604082019050919050565b6000614cbc601a836153c0565b91507f5573657220697320616c726561647920617574686f72697a65640000000000006000830152602082019050919050565b6000614cfc6017836153c0565b91507f5265636f72642063616e6e6f74206265206164646564200000000000000000006000830152602082019050919050565b6000614d3c6027836153c0565b91507f596f7520617265206e6f7420616c6c6f77656420746f2072656769737465722060008301527f646f63746f7221000000000000000000000000000000000000000000000000006020830152604082019050919050565b614d9e8161547a565b82525050565b614dad8161547a565b82525050565b6000614dbf8284614a4c565b915081905092915050565b6000602082019050614ddf600083018461480f565b92915050565b60006020820190508181036000830152614dff818461481e565b905092915050565b60006080820190508181036000830152614e2181876148da565b90508181036020830152614e3581866148da565b90508181036040830152614e4981856148da565b90508181036060830152614e5d81846148da565b905095945050505050565b600060e0820190508181036000830152614e82818a61494f565b90508181036020830152614e96818961481e565b90508181036040830152614eaa81886148da565b90508181036060830152614ebe81876148da565b90508181036080830152614ed281866148da565b905081810360a0830152614ee681856148da565b905081810360c0830152614efa81846148da565b905098975050505050505050565b6000610100820190508181036000830152614f23818b61494f565b90508181036020830152614f37818a6148da565b90508181036040830152614f4b81896148da565b90508181036060830152614f5f81886148da565b90508181036080830152614f7381876148da565b905081810360a0830152614f87818661481e565b905081810360c0830152614f9b818561487c565b905081810360e0830152614faf818461494f565b90509998505050505050505050565b6000602082019050614fd360008301846149bc565b92915050565b6000602082019050614fee60008301846149cb565b92915050565b600060a082019050818103600083015261500e8188614a13565b905081810360208301526150228187614a13565b905081810360408301526150368186614a13565b9050818103606083015261504a8185614a13565b9050818103608083015261505e8184614a13565b90509695505050505050565b6000602082019050818103600083015261508381614a7d565b9050919050565b600060208201905081810360008301526150a381614abd565b9050919050565b600060208201905081810360008301526150c381614b23565b9050919050565b600060208201905081810360008301526150e381614b63565b9050919050565b6000602082019050818103600083015261510381614bc9565b9050919050565b6000602082019050818103600083015261512381614c09565b9050919050565b6000602082019050818103600083015261514381614c49565b9050919050565b6000602082019050818103600083015261516381614caf565b9050919050565b6000602082019050818103600083015261518381614cef565b9050919050565b600060208201905081810360008301526151a381614d2f565b9050919050565b60006020820190506151bf6000830184614da4565b92915050565b6000610100820190506151db600083018b614da4565b81810360208301526151ed818a614a13565b905081810360408301526152018189614a13565b905081810360608301526152158188614a13565b905081810360808301526152298187614a13565b905061523860a083018661480f565b61524560c08301856149bc565b61525260e0830184614da4565b9998505050505050505050565b6000604051905081810181811067ffffffffffffffff821117156152865761528561559f565b5b8060405250919050565b600067ffffffffffffffff8211156152ab576152aa61559f565b5b601f19601f8301169050602081019050919050565b6000819050602082019050919050565b6000819050602082019050919050565b6000819050602082019050919050565b6000819050602082019050919050565b600081519050919050565b600081519050919050565b600081519050919050565b600081519050919050565b600081519050919050565b6000602082019050919050565b6000602082019050919050565b6000602082019050919050565b6000602082019050919050565b600082825260208201905092915050565b600082825260208201905092915050565b600082825260208201905092915050565b600082825260208201905092915050565b600082825260208201905092915050565b600082825260208201905092915050565b600081905092915050565b60006153e78261547a565b91506153f28361547a565b9250827fffffffffffffffffffffffffffffffffffffffffffffffffffffffffffffffff0382111561542757615426615541565b5b828201905092915050565b600061543d8261545a565b9050919050565b60008115159050919050565b6000819050919050565b600073ffffffffffffffffffffffffffffffffffffffff82169050919050565b6000819050919050565b82818337600083830152505050565b60005b838110156154b1578082015181840152602081019050615496565b838111156154c0576000848401525b50505050565b600060028204905060018216806154de57607f821691505b602082108114156154f2576154f1615570565b5b50919050565b60006155038261547a565b91507fffffffffffffffffffffffffffffffffffffffffffffffffffffffffffffffff82141561553657615535615541565b5b600182019050919050565b7f4e487b7100000000000000000000000000000000000000000000000000000000600052601160045260246000fd5b7f4e487b7100000000000000000000000000000000000000000000000000000000600052602260045260246000fd5b7f4e487b7100000000000000000000000000000000000000000000000000000000600052604160045260246000fd5b6000601f19601f8301169050919050565b6155e881615432565b81146155f357600080fd5b50565b6155ff8161547a565b811461560a57600080fd5b5056fea2646970667358221220ee41196dd6abdffe71e86540ce1412dadf624f2ebf77aea95af74326a7c9d8e764736f6c63430008000033",
  "immutableReferences": {},
  "source": "// SPDX-License-Identifier: MIT\r\n\r\npragma solidity >=0.4.22 <0.9.0;\r\n\r\nimport \"./patient.sol\";\r\n\r\ncontract meDossier is PatientContract{\r\n\r\n    struct doctor {\r\n        uint256 id;\r\n        string name;\r\n        string contact;\r\n        string hname;\r\n        string faculty;\r\n        address addr;\r\n        uint256 licenseno;\r\n        bool isApproved;\r\n    }\r\n    \r\n    address[] public doctorList;\r\n    uint256 [] public registeredDoctorList;\r\n    address public  owner;\r\n\r\n    mapping(address=>doctor) doctors;    \r\n    \r\n    constructor() {\r\n        owner = msg.sender;\r\n        \r\n    }\r\n    \r\n     //identity the user \r\n     function user(address addr) public view returns (int success){\r\n        if(isDoctor[addr]==true){\r\n            return 0;\r\n        }\r\n        else if(isPatient[addr]==true){\r\n            return 1;\r\n        }\r\n        else if(addr==owner){\r\n            return 2;\r\n        }\r\n        else{\r\n            return 3;\r\n        }\r\n    }\r\n\r\n    //Register the doctor by certain authority\r\n    function registerDoctor(string memory docname, uint256 license) public {\r\n        require(msg.sender==owner,\"You are not allowed to register doctor!\");\r\n        Registered[docname][license] = true;\r\n        registeredDoctorList.push(license);\r\n    \r\n    }\r\n\r\n    function isAuthorized(address pat,address client ) public view returns (bool success){\r\n        return Authorized[pat][client];\r\n    }\r\n    \r\n    //Check whether the doctor is registered or not\r\n     function isRegistered(address addr) public view returns (bool success){\r\n        doctor memory doc = doctors[addr];\r\n        return Registered[doc.name][doc.licenseno];\r\n    }\r\n    \r\n\r\n//Add terecords of the patient\r\n    function addRecord(string memory _dname,string memory _reason,string memory _visitedDate,string memory _ipfs, address addr) public{\r\n        require(isPatient[addr],\"No patient found at the given address\");\r\n        \r\n        if(Authorized[addr][msg.sender]){\r\n                patients[addr].records.push(Records(_dname,_reason,_visitedDate,_ipfs));\r\n        }\r\n        else \r\n        revert(\"Record cannot be added \");\r\n       \r\n       \r\n        // require(Authorized[addr][msg.sender],\"You do not have permission to add records!\");\r\n        // require(isPatient[addr],\"User Not registered\");\r\n        // patients[addr].records.push(Records(_dname,_reason,_visitedDate,_ipfs));\r\n    }\r\n    \r\n\r\n  //get the length of records of particular address  \r\n     function getrecordlist(address _addr)  public view returns (uint256 ){  \r\n     return (patients[_addr].records.length);\r\n     }\r\n\r\n//get the length of doctor's added in blockchain\r\n// function getdoctorlist() public view returns(uint256){\r\n//         return doctorList.length;\r\n//     }\r\n   \r\n   //get the length of registered doctor \r\n// function getRegisteredDoctorslength() public view returns(uint256){\r\n//         return registeredDoctorList.length;\r\n//     }\r\n\r\n// //\r\n// function getRegisteredDoctorsList(uint256 id) public view returns(uint256 license){\r\n//         return registeredDoctorList[id];\r\n//     }\r\n    \r\n\r\n//add doctor \r\n    function addDoctor(string memory _name,string memory _hname,string memory _faculty,string memory _contact,uint256 license) public {\r\n        require(!isDoctor[msg.sender],\"Already Registered\");\r\n        require(msg.sender != owner,\"Contract owner cannot register as doctor\");\r\n        require(bytes(_name).length>0);\r\n        require(bytes(_hname).length>0);\r\n        require(bytes(_faculty).length>0);\r\n        require(bytes(_contact).length>0);\r\n        require(license>0);  \r\n        address _addr = msg.sender;\r\n        doctorList.push(_addr);\r\n\r\n        dindex = dindex + 1;\r\n        isDoctor[_addr]=true;\r\n        doctors[_addr].name = _name;\r\n        doctors[_addr].contact =_contact;\r\n        doctors[_addr].hname = _hname;\r\n        doctors[_addr].faculty =_faculty; \r\n        doctors[_addr].addr = _addr;\r\n        doctors[_addr].licenseno = license;\r\n        doctors[_addr].isApproved = false;\r\n        \r\n        if (Registered[_name][license] == true){\r\n            doctors[_addr].isApproved = true;\r\n        }\r\n    }\r\n\r\n\r\n    function getAllDoctors() public view returns (\r\n    uint256[] memory ids,\r\n    string[] memory names,\r\n    string[] memory contacts,\r\n    string[] memory hospitals,\r\n    string[] memory faculties,\r\n    address[] memory addresses,\r\n    bool[] memory approvals,\r\n    uint256[] memory licenses\r\n    ) {\r\n        uint256 doctorCount = doctorList.length;\r\n        \r\n        ids = new uint256[](doctorCount);\r\n        names = new string[](doctorCount);\r\n        contacts = new string[](doctorCount);\r\n        hospitals = new string[](doctorCount);\r\n        faculties = new string[](doctorCount);\r\n        addresses = new address[](doctorCount);\r\n        approvals = new bool[](doctorCount);\r\n        licenses = new uint256[](doctorCount);\r\n\r\n        for (uint256 i = 0; i < doctorCount; i++) {\r\n            doctor memory doc = doctors[doctorList[i]];\r\n            ids[i] = doc.id;\r\n            names[i] = doc.name;\r\n            contacts[i] = doc.contact;\r\n            hospitals[i] = doc.hname;\r\n            faculties[i] = doc.faculty;\r\n            addresses[i] = doc.addr;\r\n            approvals[i] = doc.isApproved;\r\n            licenses[i] = doc.licenseno;\r\n        }\r\n    }\r\n//get doctor's details  for verification\r\n    // function getDoctorbyLicense(uint256 license) public view returns(uint256 id, string memory name,string memory hospital, string memory _faculty,address addr,bool isApproved,uint256 licenseno){\r\n       \r\n    //      uint256 i=0;\r\n    //     for(i = 0;i<doctorList.length;i++){\r\n    //     if(doctors[doctorList[i]].licenseno==license){\r\n    //         break;\r\n    //     }\r\n    // }    \r\n    // doctor memory doc = doctors[doctorList[i]];\r\n    // require(isDoctor[doc.addr]==true,\"Doctor hasn't signed up in meDossier\");\r\n    //      require(doc.isApproved==true,\"Doctor is not approved\");\r\n        \r\n        \r\n    //     return (doc.id,doc.name,doc.hname,doc.faculty,doc.addr,doc.isApproved,doc.licenseno) ;\r\n       \r\n    // }\r\n    \r\n//  function getDoctorbyName(string memory _name) public view returns(uint256 id,string memory name , string memory contact ,string memory hname ,string memory faculty ,address addr , bool isApproved,uint256 licenseno)  {\r\n//         uint256 i=0;\r\n//         for(i = 0;i<doctorList.length;i++){\r\n//         if(keccak256(bytes(doctors[doctorList[i]].name)) == keccak256(bytes(_name))){\r\n//             break;\r\n//         }\r\n//     }    \r\n//         require(keccak256(bytes(doctors[doctorList[i]].name)) == keccak256(bytes(_name)),\"Doctor doesn't exists with the given name\");\r\n//         doctor memory doc = doctors[doctorList[i]];\r\n//         return (doc.id,doc.name,doc.contact,doc.hname,doc.faculty,doc.addr, doc.isApproved,doc.licenseno);\r\n//     }\r\n    \r\n\r\n function getDoctorByAddress(address _address) public view returns(uint256 id,string memory name , string memory contact ,string memory hname ,string memory faculty ,address addr , bool isApproved,uint256 licenseno) {\r\n        // require(doctors[_address].isApproved,\"Doctor is not Approved or doesn't exist\");\r\n        doctor memory doc = doctors[_address];\r\n        return (doc.id,doc.name,doc.contact,doc.hname,doc.faculty,doc.addr,doc.isApproved,doc.licenseno);\r\n    } \r\n    \r\n\r\n//Give access to certain address\r\n//     function grantAccess(address _addr) public returns (bool success)\r\n//     {   require(msg.sender != _addr,\"You cannot add yourself\");\r\n//         require(isDoctor[_addr],\"Not registered as doctor\");\r\n//         require(!Authorized[msg.sender][_addr],\"User is already authorized\");\r\n//         Authorized[msg.sender][_addr] = true;\r\n//         return true;\r\n//     }\r\n\r\n// //Revoke access of patient records from certain address\r\n//       function revoke_access(address _addr)  public returns (bool success){\r\n//         require(msg.sender!=_addr,\"You can't remove yourself\");\r\n//         require(Authorized[msg.sender][_addr],\"User is not authorized yet\");\r\n//         Authorized[msg.sender][_addr] = false;\r\n//         return true;\r\n    // }\r\n\r\n// function doctorLogin() public{\r\n//     if(Registered[doctors[msg.sender].name][doctors[msg.sender].licenseno] == true){\r\n//         doctors[msg.sender].isApproved = true;\r\n//     }\r\n// }\r\n\r\n}",
  "sourcePath": "/Volumes/data/workspace/MedicalApp/contracts/MedicalApp.sol",
  "compiler": {
    "name": "solc",
    "version": "0.8.0+commit.c7dfd78e.Emscripten.clang"
  },
  "schemaVersion": "3.4.16",
  "updatedAt": "2025-01-01T02:42:04.748Z",
  "networkType": "ethereum",
  "devdoc": {
    "kind": "dev",
    "methods": {},
    "version": 1
  },
  "userdoc": {
    "kind": "user",
    "methods": {},
    "version": 1
  }
}