{
  "contractName": "meDossier",
  "abi": [
    {
      "inputs": [],
      "stateMutability": "nonpayable",
      "type": "constructor"
    },
    {
      "inputs": [],
      "name": "dindex",
      "outputs": [
        {
          "internalType": "uint256",
          "name": "",
          "type": "uint256"
        }
      ],
      "stateMutability": "view",
      "type": "function",
      "constant": true
    },
    {
      "inputs": [
        {
          "internalType": "uint256",
          "name": "",
          "type": "uint256"
        }
      ],
      "name": "doctorList",
      "outputs": [
        {
          "internalType": "address",
          "name": "",
          "type": "address"
        }
      ],
      "stateMutability": "view",
      "type": "function",
      "constant": true
    },
    {
      "inputs": [],
      "name": "owner",
      "outputs": [
        {
          "internalType": "address",
          "name": "",
          "type": "address"
        }
      ],
      "stateMutability": "view",
      "type": "function",
      "constant": true
    },
    {
      "inputs": [],
      "name": "pindex",
      "outputs": [
        {
          "internalType": "uint256",
          "name": "",
          "type": "uint256"
        }
      ],
      "stateMutability": "view",
      "type": "function",
      "constant": true
    },
    {
      "inputs": [
        {
          "internalType": "uint256",
          "name": "",
          "type": "uint256"
        }
      ],
      "name": "registeredDoctorList",
      "outputs": [
        {
          "internalType": "uint256",
          "name": "",
          "type": "uint256"
        }
      ],
      "stateMutability": "view",
      "type": "function",
      "constant": true
    },
    {
      "inputs": [
        {
          "internalType": "address",
          "name": "addr",
          "type": "address"
        }
      ],
      "name": "user",
      "outputs": [
        {
          "internalType": "int256",
          "name": "success",
          "type": "int256"
        }
      ],
      "stateMutability": "view",
      "type": "function",
      "constant": true
    },
    {
      "inputs": [],
      "name": "getPatientList",
      "outputs": [
        {
          "internalType": "address[]",
          "name": "",
          "type": "address[]"
        }
      ],
      "stateMutability": "view",
      "type": "function",
      "constant": true
    },
    {
      "inputs": [
        {
          "internalType": "string",
          "name": "docname",
          "type": "string"
        },
        {
          "internalType": "uint256",
          "name": "license",
          "type": "uint256"
        }
      ],
      "name": "registerDoctor",
      "outputs": [],
      "stateMutability": "nonpayable",
      "type": "function"
    },
    {
      "inputs": [
        {
          "internalType": "address",
          "name": "pat",
          "type": "address"
        },
        {
          "internalType": "address",
          "name": "client",
          "type": "address"
        }
      ],
      "name": "isAuthorized",
      "outputs": [
        {
          "internalType": "bool",
          "name": "success",
          "type": "bool"
        }
      ],
      "stateMutability": "view",
      "type": "function",
      "constant": true
    },
    {
      "inputs": [
        {
          "internalType": "address",
          "name": "addr",
          "type": "address"
        }
      ],
      "name": "isRegistered",
      "outputs": [
        {
          "internalType": "bool",
          "name": "success",
          "type": "bool"
        }
      ],
      "stateMutability": "view",
      "type": "function",
      "constant": true
    },
    {
      "inputs": [
        {
          "internalType": "string",
          "name": "_dname",
          "type": "string"
        },
        {
          "internalType": "string",
          "name": "_reason",
          "type": "string"
        },
        {
          "internalType": "string",
          "name": "_visitedDate",
          "type": "string"
        },
        {
          "internalType": "string",
          "name": "_ipfs",
          "type": "string"
        },
        {
          "internalType": "address",
          "name": "addr",
          "type": "address"
        }
      ],
      "name": "addRecord",
      "outputs": [],
      "stateMutability": "nonpayable",
      "type": "function"
    },
    {
      "inputs": [
        {
          "internalType": "string",
          "name": "_name",
          "type": "string"
        },
        {
          "internalType": "string",
          "name": "_phone",
          "type": "string"
        },
        {
          "internalType": "string",
          "name": "_gender",
          "type": "string"
        },
        {
          "internalType": "string",
          "name": "_dob",
          "type": "string"
        },
        {
          "internalType": "string",
          "name": "_bloodgroup",
          "type": "string"
        }
      ],
      "name": "addPatient",
      "outputs": [],
      "stateMutability": "nonpayable",
      "type": "function"
    },
    {
      "inputs": [
        {
          "internalType": "address",
          "name": "_addr",
          "type": "address"
        }
      ],
      "name": "getPatientDetails",
      "outputs": [
        {
          "internalType": "string",
          "name": "_name",
          "type": "string"
        },
        {
          "internalType": "string",
          "name": "_phone",
          "type": "string"
        },
        {
          "internalType": "string",
          "name": "_gender",
          "type": "string"
        },
        {
          "internalType": "string",
          "name": "_dob",
          "type": "string"
        },
        {
          "internalType": "string",
          "name": "_bloodgroup",
          "type": "string"
        }
      ],
      "stateMutability": "view",
      "type": "function",
      "constant": true
    },
    {
      "inputs": [],
      "name": "getAllPatients",
      "outputs": [
        {
          "internalType": "uint256[]",
          "name": "ids",
          "type": "uint256[]"
        },
        {
          "internalType": "address[]",
          "name": "addresses",
          "type": "address[]"
        },
        {
          "internalType": "string[]",
          "name": "names",
          "type": "string[]"
        },
        {
          "internalType": "string[]",
          "name": "phones",
          "type": "string[]"
        },
        {
          "internalType": "string[]",
          "name": "genders",
          "type": "string[]"
        },
        {
          "internalType": "string[]",
          "name": "dobs",
          "type": "string[]"
        },
        {
          "internalType": "string[]",
          "name": "bloodgroups",
          "type": "string[]"
        }
      ],
      "stateMutability": "view",
      "type": "function",
      "constant": true
    },
    {
      "inputs": [
        {
          "internalType": "address",
          "name": "_addr",
          "type": "address"
        }
      ],
      "name": "getrecordlist",
      "outputs": [
        {
          "internalType": "uint256",
          "name": "",
          "type": "uint256"
        }
      ],
      "stateMutability": "view",
      "type": "function",
      "constant": true
    },
    {
      "inputs": [],
      "name": "getdoctorlist",
      "outputs": [
        {
          "internalType": "uint256",
          "name": "",
          "type": "uint256"
        }
      ],
      "stateMutability": "view",
      "type": "function",
      "constant": true
    },
    {
      "inputs": [],
      "name": "getRegisteredDoctorslength",
      "outputs": [
        {
          "internalType": "uint256",
          "name": "",
          "type": "uint256"
        }
      ],
      "stateMutability": "view",
      "type": "function",
      "constant": true
    },
    {
      "inputs": [
        {
          "internalType": "uint256",
          "name": "id",
          "type": "uint256"
        }
      ],
      "name": "getRegisteredDoctorsList",
      "outputs": [
        {
          "internalType": "uint256",
          "name": "license",
          "type": "uint256"
        }
      ],
      "stateMutability": "view",
      "type": "function",
      "constant": true
    },
    {
      "inputs": [
        {
          "internalType": "address",
          "name": "_addr",
          "type": "address"
        }
      ],
      "name": "getAllPatientRecords",
      "outputs": [
        {
          "internalType": "string[]",
          "name": "dnames",
          "type": "string[]"
        },
        {
          "internalType": "string[]",
          "name": "reasons",
          "type": "string[]"
        },
        {
          "internalType": "string[]",
          "name": "visitedDates",
          "type": "string[]"
        },
        {
          "internalType": "string[]",
          "name": "ipfsHashes",
          "type": "string[]"
        }
      ],
      "stateMutability": "view",
      "type": "function",
      "constant": true
    },
    {
      "inputs": [
        {
          "internalType": "string",
          "name": "_name",
          "type": "string"
        },
        {
          "internalType": "string",
          "name": "_hname",
          "type": "string"
        },
        {
          "internalType": "string",
          "name": "_faculty",
          "type": "string"
        },
        {
          "internalType": "string",
          "name": "_contact",
          "type": "string"
        },
        {
          "internalType": "uint256",
          "name": "license",
          "type": "uint256"
        }
      ],
      "name": "addDoctor",
      "outputs": [],
      "stateMutability": "nonpayable",
      "type": "function"
    },
    {
      "inputs": [],
      "name": "getAllDoctors",
      "outputs": [
        {
          "internalType": "uint256[]",
          "name": "ids",
          "type": "uint256[]"
        },
        {
          "internalType": "string[]",
          "name": "names",
          "type": "string[]"
        },
        {
          "internalType": "string[]",
          "name": "contacts",
          "type": "string[]"
        },
        {
          "internalType": "string[]",
          "name": "hospitals",
          "type": "string[]"
        },
        {
          "internalType": "string[]",
          "name": "faculties",
          "type": "string[]"
        },
        {
          "internalType": "address[]",
          "name": "addresses",
          "type": "address[]"
        },
        {
          "internalType": "bool[]",
          "name": "approvals",
          "type": "bool[]"
        },
        {
          "internalType": "uint256[]",
          "name": "licenses",
          "type": "uint256[]"
        }
      ],
      "stateMutability": "view",
      "type": "function",
      "constant": true
    },
    {
      "inputs": [
        {
          "internalType": "address",
          "name": "_address",
          "type": "address"
        }
      ],
      "name": "getDoctorByAddress",
      "outputs": [
        {
          "internalType": "uint256",
          "name": "id",
          "type": "uint256"
        },
        {
          "internalType": "string",
          "name": "name",
          "type": "string"
        },
        {
          "internalType": "string",
          "name": "contact",
          "type": "string"
        },
        {
          "internalType": "string",
          "name": "hname",
          "type": "string"
        },
        {
          "internalType": "string",
          "name": "faculty",
          "type": "string"
        },
        {
          "internalType": "address",
          "name": "addr",
          "type": "address"
        },
        {
          "internalType": "bool",
          "name": "isApproved",
          "type": "bool"
        },
        {
          "internalType": "uint256",
          "name": "licenseno",
          "type": "uint256"
        }
      ],
      "stateMutability": "view",
      "type": "function",
      "constant": true
    },
    {
      "inputs": [
        {
          "internalType": "address",
          "name": "_addr",
          "type": "address"
        }
      ],
      "name": "grantAccess",
      "outputs": [
        {
          "internalType": "bool",
          "name": "success",
          "type": "bool"
        }
      ],
      "stateMutability": "nonpayable",
      "type": "function"
    },
    {
      "inputs": [
        {
          "internalType": "address",
          "name": "_addr",
          "type": "address"
        }
      ],
      "name": "revoke_access",
      "outputs": [
        {
          "internalType": "bool",
          "name": "success",
          "type": "bool"
        }
      ],
      "stateMutability": "nonpayable",
      "type": "function"
    }
  ],
  "bytecode": "0x608060405260008055600060015534801561001957600080fd5b5033600560006101000a81548173ffffffffffffffffffffffffffffffffffffffff021916908373ffffffffffffffffffffffffffffffffffffffff160217905550615a0b806200006b6000396000f3fe608060405234801561001057600080fd5b50600436106101585760003560e01c806365e4ad9e116100c3578063b2c370081161007c578063b2c370081461040e578063c3c5a5471461043e578063cdfbfb5c1461046e578063ddf3a786146104a1578063efe2ccc1146104bf578063f0d95090146104f357610158565b806365e4ad9e1461032657806370333b801461035657806381e7e20e146103725780638da5cb5b146103a2578063928ed9da146103c0578063abec773d146103de57610158565b8063312625f811610115578063312625f81461025d578063503b1354146102795780635658e43b1461029757806356fa8217146102b557806358c5d4bf146102d15780635ad910ef1461030857610158565b80630ae5e7391461015d578063127ca4b41461018d578063136bd148146101bd57806318a231a9146101d9578063248c6a31146101fd57806327b1dcee1461022d575b600080fd5b6101776004803603810190610172919061472d565b610518565b6040516101849190615346565b60405180910390f35b6101a760048036038101906101a29190614a83565b61077d565b6040516101b49190615152565b60405180910390f35b6101d760048036038101906101d29190614a2f565b6107bc565b005b6101e16108c1565b6040516101f497969594939291906151f0565b60405180910390f35b6102176004803603810190610212919061472d565b6114f5565b6040516102249190615572565b60405180910390f35b6102476004803603810190610242919061472d565b611544565b6040516102549190615346565b60405180910390f35b61027760048036038101906102729190614958565b61171c565b005b610281611c7f565b60405161028e919061516d565b60405180910390f35b61029f611d0d565b6040516102ac9190615572565b60405180910390f35b6102cf60048036038101906102ca9190614869565b611d13565b005b6102eb60048036038101906102e6919061472d565b61213a565b6040516102ff98979695949392919061558d565b60405180910390f35b6103106124a6565b60405161031d9190615572565b60405180910390f35b610340600480360381019061033b9190614756565b6124b3565b60405161034d9190615346565b60405180910390f35b610370600480360381019061036b9190614792565b612547565b005b61038c6004803603810190610387919061472d565b6127ab565b6040516103999190615361565b60405180910390f35b6103aa6128da565b6040516103b79190615152565b60405180910390f35b6103c8612900565b6040516103d59190615572565b60405180910390f35b6103f860048036038101906103f39190614a83565b612906565b6040516104059190615572565b60405180910390f35b61042860048036038101906104239190614a83565b61292a565b6040516104359190615572565b60405180910390f35b6104586004803603810190610453919061472d565b612978565b6040516104659190615346565b60405180910390f35b6104886004803603810190610483919061472d565b612ce2565b604051610498949392919061518f565b60405180910390f35b6104a961351d565b6040516104b69190615572565b60405180910390f35b6104d960048036038101906104d4919061472d565b61352a565b6040516104ea95949392919061537c565b60405180910390f35b6104fb613c1b565b60405161050f989796959493929190615290565b60405180910390f35b60008173ffffffffffffffffffffffffffffffffffffffff163373ffffffffffffffffffffffffffffffffffffffff161415610589576040517f08c379a0000000000000000000000000000000000000000000000000000000008152600401610580906154d2565b60405180910390fd5b600960008373ffffffffffffffffffffffffffffffffffffffff1673ffffffffffffffffffffffffffffffffffffffff16815260200190815260200160002060009054906101000a900460ff16610615576040517f08c379a000000000000000000000000000000000000000000000000000000000815260040161060c90615492565b60405180910390fd5b600a60003373ffffffffffffffffffffffffffffffffffffffff1673ffffffffffffffffffffffffffffffffffffffff16815260200190815260200160002060008373ffffffffffffffffffffffffffffffffffffffff1673ffffffffffffffffffffffffffffffffffffffff16815260200190815260200160002060009054906101000a900460ff16156106df576040517f08c379a00000000000000000000000000000000000000000000000000000000081526004016106d690615512565b60405180910390fd5b6001600a60003373ffffffffffffffffffffffffffffffffffffffff1673ffffffffffffffffffffffffffffffffffffffff16815260200190815260200160002060008473ffffffffffffffffffffffffffffffffffffffff1673ffffffffffffffffffffffffffffffffffffffff16815260200190815260200160002060006101000a81548160ff02191690831515021790555060019050919050565b6003818154811061078d57600080fd5b906000526020600020016000915054906101000a900473ffffffffffffffffffffffffffffffffffffffff1681565b600560009054906101000a900473ffffffffffffffffffffffffffffffffffffffff1673ffffffffffffffffffffffffffffffffffffffff163373ffffffffffffffffffffffffffffffffffffffff161461084c576040517f08c379a000000000000000000000000000000000000000000000000000000000815260040161084390615552565b60405180910390fd5b6001600b8360405161085e919061513b565b9081526020016040518091039020600083815260200190815260200160002060006101000a81548160ff02191690831515021790555060048190806001815401808255809150506001900390600052602060002001600090919091909150555050565b6060806060806060806060600060028054905090508067ffffffffffffffff811115610916577f4e487b7100000000000000000000000000000000000000000000000000000000600052604160045260246000fd5b6040519080825280602002602001820160405280156109445781602001602082028036833780820191505090505b5097508067ffffffffffffffff811115610987577f4e487b7100000000000000000000000000000000000000000000000000000000600052604160045260246000fd5b6040519080825280602002602001820160405280156109b55781602001602082028036833780820191505090505b5096508067ffffffffffffffff8111156109f8577f4e487b7100000000000000000000000000000000000000000000000000000000600052604160045260246000fd5b604051908082528060200260200182016040528015610a2b57816020015b6060815260200190600190039081610a165790505b5095508067ffffffffffffffff811115610a6e577f4e487b7100000000000000000000000000000000000000000000000000000000600052604160045260246000fd5b604051908082528060200260200182016040528015610aa157816020015b6060815260200190600190039081610a8c5790505b5094508067ffffffffffffffff811115610ae4577f4e487b7100000000000000000000000000000000000000000000000000000000600052604160045260246000fd5b604051908082528060200260200182016040528015610b1757816020015b6060815260200190600190039081610b025790505b5093508067ffffffffffffffff811115610b5a577f4e487b7100000000000000000000000000000000000000000000000000000000600052604160045260246000fd5b604051908082528060200260200182016040528015610b8d57816020015b6060815260200190600190039081610b785790505b5092508067ffffffffffffffff811115610bd0577f4e487b7100000000000000000000000000000000000000000000000000000000600052604160045260246000fd5b604051908082528060200260200182016040528015610c0357816020015b6060815260200190600190039081610bee5790505b50915060005b818110156114ea57600060028281548110610c4d577f4e487b7100000000000000000000000000000000000000000000000000000000600052603260045260246000fd5b9060005260206000200160009054906101000a900473ffffffffffffffffffffffffffffffffffffffff1690506000600660008373ffffffffffffffffffffffffffffffffffffffff1673ffffffffffffffffffffffffffffffffffffffff1681526020019081526020016000206040518061010001604052908160008201548152602001600182018054610ce19061588e565b80601f0160208091040260200160405190810160405280929190818152602001828054610d0d9061588e565b8015610d5a5780601f10610d2f57610100808354040283529160200191610d5a565b820191906000526020600020905b815481529060010190602001808311610d3d57829003601f168201915b50505050508152602001600282018054610d739061588e565b80601f0160208091040260200160405190810160405280929190818152602001828054610d9f9061588e565b8015610dec5780601f10610dc157610100808354040283529160200191610dec565b820191906000526020600020905b815481529060010190602001808311610dcf57829003601f168201915b50505050508152602001600382018054610e059061588e565b80601f0160208091040260200160405190810160405280929190818152602001828054610e319061588e565b8015610e7e5780601f10610e5357610100808354040283529160200191610e7e565b820191906000526020600020905b815481529060010190602001808311610e6157829003601f168201915b50505050508152602001600482018054610e979061588e565b80601f0160208091040260200160405190810160405280929190818152602001828054610ec39061588e565b8015610f105780601f10610ee557610100808354040283529160200191610f10565b820191906000526020600020905b815481529060010190602001808311610ef357829003601f168201915b50505050508152602001600582018054610f299061588e565b80601f0160208091040260200160405190810160405280929190818152602001828054610f559061588e565b8015610fa25780601f10610f7757610100808354040283529160200191610fa2565b820191906000526020600020905b815481529060010190602001808311610f8557829003601f168201915b5050505050815260200160068201805480602002602001604051908101604052809291908181526020016000905b8282101561124a57838290600052602060002090600402016040518060800160405290816000820180546110039061588e565b80601f016020809104026020016040519081016040528092919081815260200182805461102f9061588e565b801561107c5780601f106110515761010080835404028352916020019161107c565b820191906000526020600020905b81548152906001019060200180831161105f57829003601f168201915b505050505081526020016001820180546110959061588e565b80601f01602080910402602001604051908101604052809291908181526020018280546110c19061588e565b801561110e5780601f106110e35761010080835404028352916020019161110e565b820191906000526020600020905b8154815290600101906020018083116110f157829003601f168201915b505050505081526020016002820180546111279061588e565b80601f01602080910402602001604051908101604052809291908181526020018280546111539061588e565b80156111a05780601f10611175576101008083540402835291602001916111a0565b820191906000526020600020905b81548152906001019060200180831161118357829003601f168201915b505050505081526020016003820180546111b99061588e565b80601f01602080910402602001604051908101604052809291908181526020018280546111e59061588e565b80156112325780601f1061120757610100808354040283529160200191611232565b820191906000526020600020905b81548152906001019060200180831161121557829003601f168201915b50505050508152505081526020019060010190610fd0565b5050505081526020016007820160009054906101000a900473ffffffffffffffffffffffffffffffffffffffff1673ffffffffffffffffffffffffffffffffffffffff1673ffffffffffffffffffffffffffffffffffffffff1681525050905080600001518b84815181106112e8577f4e487b7100000000000000000000000000000000000000000000000000000000600052603260045260246000fd5b602002602001018181525050818a848151811061132e577f4e487b7100000000000000000000000000000000000000000000000000000000600052603260045260246000fd5b602002602001019073ffffffffffffffffffffffffffffffffffffffff16908173ffffffffffffffffffffffffffffffffffffffff168152505080602001518984815181106113a6577f4e487b7100000000000000000000000000000000000000000000000000000000600052603260045260246000fd5b602002602001018190525080604001518884815181106113ef577f4e487b7100000000000000000000000000000000000000000000000000000000600052603260045260246000fd5b60200260200101819052508060600151878481518110611438577f4e487b7100000000000000000000000000000000000000000000000000000000600052603260045260246000fd5b60200260200101819052508060800151868481518110611481577f4e487b7100000000000000000000000000000000000000000000000000000000600052603260045260246000fd5b60200260200101819052508060a001518584815181106114ca577f4e487b7100000000000000000000000000000000000000000000000000000000600052603260045260246000fd5b6020026020010181905250505080806114e2906158c0565b915050610c09565b505090919293949596565b6000600660008373ffffffffffffffffffffffffffffffffffffffff1673ffffffffffffffffffffffffffffffffffffffff168152602001908152602001600020600601805490509050919050565b60008173ffffffffffffffffffffffffffffffffffffffff163373ffffffffffffffffffffffffffffffffffffffff1614156115b5576040517f08c379a00000000000000000000000000000000000000000000000000000000081526004016115ac90615432565b60405180910390fd5b600a60003373ffffffffffffffffffffffffffffffffffffffff1673ffffffffffffffffffffffffffffffffffffffff16815260200190815260200160002060008373ffffffffffffffffffffffffffffffffffffffff1673ffffffffffffffffffffffffffffffffffffffff16815260200190815260200160002060009054906101000a900460ff1661167e576040517f08c379a0000000000000000000000000000000000000000000000000000000008152600401611675906154b2565b60405180910390fd5b6000600a60003373ffffffffffffffffffffffffffffffffffffffff1673ffffffffffffffffffffffffffffffffffffffff16815260200190815260200160002060008473ffffffffffffffffffffffffffffffffffffffff1673ffffffffffffffffffffffffffffffffffffffff16815260200190815260200160002060006101000a81548160ff02191690831515021790555060019050919050565b600960003373ffffffffffffffffffffffffffffffffffffffff1673ffffffffffffffffffffffffffffffffffffffff16815260200190815260200160002060009054906101000a900460ff16156117a9576040517f08c379a00000000000000000000000000000000000000000000000000000000081526004016117a090615452565b60405180910390fd5b600560009054906101000a900473ffffffffffffffffffffffffffffffffffffffff1673ffffffffffffffffffffffffffffffffffffffff163373ffffffffffffffffffffffffffffffffffffffff16141561183a576040517f08c379a000000000000000000000000000000000000000000000000000000000815260040161183190615412565b60405180910390fd5b600085511161184857600080fd5b600084511161185657600080fd5b600083511161186457600080fd5b600082511161187257600080fd5b6000811161187f57600080fd5b60003390506003819080600181540180825580915050600190039060005260206000200160009091909190916101000a81548173ffffffffffffffffffffffffffffffffffffffff021916908373ffffffffffffffffffffffffffffffffffffffff160217905550600180546118f591906157a4565b6001819055506001600960008373ffffffffffffffffffffffffffffffffffffffff1673ffffffffffffffffffffffffffffffffffffffff16815260200190815260200160002060006101000a81548160ff02191690831515021790555085600760008373ffffffffffffffffffffffffffffffffffffffff1673ffffffffffffffffffffffffffffffffffffffff16815260200190815260200160002060010190805190602001906119a99291906145f8565b5082600760008373ffffffffffffffffffffffffffffffffffffffff1673ffffffffffffffffffffffffffffffffffffffff1681526020019081526020016000206002019080519060200190611a009291906145f8565b5084600760008373ffffffffffffffffffffffffffffffffffffffff1673ffffffffffffffffffffffffffffffffffffffff1681526020019081526020016000206003019080519060200190611a579291906145f8565b5083600760008373ffffffffffffffffffffffffffffffffffffffff1673ffffffffffffffffffffffffffffffffffffffff1681526020019081526020016000206004019080519060200190611aae9291906145f8565b5080600760008373ffffffffffffffffffffffffffffffffffffffff1673ffffffffffffffffffffffffffffffffffffffff16815260200190815260200160002060050160006101000a81548173ffffffffffffffffffffffffffffffffffffffff021916908373ffffffffffffffffffffffffffffffffffffffff16021790555081600760008373ffffffffffffffffffffffffffffffffffffffff1673ffffffffffffffffffffffffffffffffffffffff168152602001908152602001600020600601819055506000600760008373ffffffffffffffffffffffffffffffffffffffff1673ffffffffffffffffffffffffffffffffffffffff16815260200190815260200160002060070160006101000a81548160ff02191690831515021790555060011515600b87604051611be6919061513b565b9081526020016040518091039020600084815260200190815260200160002060009054906101000a900460ff1615151415611c77576001600760008373ffffffffffffffffffffffffffffffffffffffff1673ffffffffffffffffffffffffffffffffffffffff16815260200190815260200160002060070160006101000a81548160ff0219169083151502179055505b505050505050565b60606002805480602002602001604051908101604052809291908181526020018280548015611d0357602002820191906000526020600020905b8160009054906101000a900473ffffffffffffffffffffffffffffffffffffffff1673ffffffffffffffffffffffffffffffffffffffff1681526020019060010190808311611cb9575b5050505050905090565b60005481565b600860003373ffffffffffffffffffffffffffffffffffffffff1673ffffffffffffffffffffffffffffffffffffffff16815260200190815260200160002060009054906101000a900460ff1615611da0576040517f08c379a0000000000000000000000000000000000000000000000000000000008152600401611d97906153f2565b60405180910390fd5b6000855111611dae57600080fd5b6000845111611dbc57600080fd5b6000835111611dca57600080fd5b6000825111611dd857600080fd5b6000815111611de657600080fd5b6002339080600181540180825580915050600190039060005260206000200160009091909190916101000a81548173ffffffffffffffffffffffffffffffffffffffff021916908373ffffffffffffffffffffffffffffffffffffffff1602179055506001600054611e5891906157a4565b6000819055506001600860003373ffffffffffffffffffffffffffffffffffffffff1673ffffffffffffffffffffffffffffffffffffffff16815260200190815260200160002060006101000a81548160ff021916908315150217905550600054600660003373ffffffffffffffffffffffffffffffffffffffff1673ffffffffffffffffffffffffffffffffffffffff1681526020019081526020016000206000018190555084600660003373ffffffffffffffffffffffffffffffffffffffff1673ffffffffffffffffffffffffffffffffffffffff1681526020019081526020016000206001019080519060200190611f559291906145f8565b5083600660003373ffffffffffffffffffffffffffffffffffffffff1673ffffffffffffffffffffffffffffffffffffffff1681526020019081526020016000206002019080519060200190611fac9291906145f8565b5082600660003373ffffffffffffffffffffffffffffffffffffffff1673ffffffffffffffffffffffffffffffffffffffff16815260200190815260200160002060030190805190602001906120039291906145f8565b5081600660003373ffffffffffffffffffffffffffffffffffffffff1673ffffffffffffffffffffffffffffffffffffffff168152602001908152602001600020600401908051906020019061205a9291906145f8565b5080600660003373ffffffffffffffffffffffffffffffffffffffff1673ffffffffffffffffffffffffffffffffffffffff16815260200190815260200160002060050190805190602001906120b19291906145f8565b5033600660003373ffffffffffffffffffffffffffffffffffffffff1673ffffffffffffffffffffffffffffffffffffffff16815260200190815260200160002060070160006101000a81548173ffffffffffffffffffffffffffffffffffffffff021916908373ffffffffffffffffffffffffffffffffffffffff1602179055505050505050565b6000606080606080600080600080600760008b73ffffffffffffffffffffffffffffffffffffffff1673ffffffffffffffffffffffffffffffffffffffff16815260200190815260200160002060405180610100016040529081600082015481526020016001820180546121ad9061588e565b80601f01602080910402602001604051908101604052809291908181526020018280546121d99061588e565b80156122265780601f106121fb57610100808354040283529160200191612226565b820191906000526020600020905b81548152906001019060200180831161220957829003601f168201915b5050505050815260200160028201805461223f9061588e565b80601f016020809104026020016040519081016040528092919081815260200182805461226b9061588e565b80156122b85780601f1061228d576101008083540402835291602001916122b8565b820191906000526020600020905b81548152906001019060200180831161229b57829003601f168201915b505050505081526020016003820180546122d19061588e565b80601f01602080910402602001604051908101604052809291908181526020018280546122fd9061588e565b801561234a5780601f1061231f5761010080835404028352916020019161234a565b820191906000526020600020905b81548152906001019060200180831161232d57829003601f168201915b505050505081526020016004820180546123639061588e565b80601f016020809104026020016040519081016040528092919081815260200182805461238f9061588e565b80156123dc5780601f106123b1576101008083540402835291602001916123dc565b820191906000526020600020905b8154815290600101906020018083116123bf57829003601f168201915b505050505081526020016005820160009054906101000a900473ffffffffffffffffffffffffffffffffffffffff1673ffffffffffffffffffffffffffffffffffffffff1673ffffffffffffffffffffffffffffffffffffffff168152602001600682015481526020016007820160009054906101000a900460ff1615151515815250509050806000015181602001518260400151836060015184608001518560a001518660e001518760c001519850985098509850985098509850985050919395975091939597565b6000600380549050905090565b6000600a60008473ffffffffffffffffffffffffffffffffffffffff1673ffffffffffffffffffffffffffffffffffffffff16815260200190815260200160002060008373ffffffffffffffffffffffffffffffffffffffff1673ffffffffffffffffffffffffffffffffffffffff16815260200190815260200160002060009054906101000a900460ff16905092915050565b600860008273ffffffffffffffffffffffffffffffffffffffff1673ffffffffffffffffffffffffffffffffffffffff16815260200190815260200160002060009054906101000a900460ff166125d3576040517f08c379a00000000000000000000000000000000000000000000000000000000081526004016125ca906154f2565b60405180910390fd5b600a60008273ffffffffffffffffffffffffffffffffffffffff1673ffffffffffffffffffffffffffffffffffffffff16815260200190815260200160002060003373ffffffffffffffffffffffffffffffffffffffff1673ffffffffffffffffffffffffffffffffffffffff16815260200190815260200160002060009054906101000a900460ff161561276957600660008273ffffffffffffffffffffffffffffffffffffffff1673ffffffffffffffffffffffffffffffffffffffff1681526020019081526020016000206006016040518060800160405280878152602001868152602001858152602001848152509080600181540180825580915050600190039060005260206000209060040201600090919091909150600082015181600001908051906020019061270a9291906145f8565b5060208201518160010190805190602001906127279291906145f8565b5060408201518160020190805190602001906127449291906145f8565b5060608201518160030190805190602001906127619291906145f8565b5050506127a4565b6040517f08c379a000000000000000000000000000000000000000000000000000000000815260040161279b90615532565b60405180910390fd5b5050505050565b600060011515600960008473ffffffffffffffffffffffffffffffffffffffff1673ffffffffffffffffffffffffffffffffffffffff16815260200190815260200160002060009054906101000a900460ff161515141561280f57600090506128d5565b60011515600860008473ffffffffffffffffffffffffffffffffffffffff1673ffffffffffffffffffffffffffffffffffffffff16815260200190815260200160002060009054906101000a900460ff161515141561287157600190506128d5565b600560009054906101000a900473ffffffffffffffffffffffffffffffffffffffff1673ffffffffffffffffffffffffffffffffffffffff168273ffffffffffffffffffffffffffffffffffffffff1614156128d057600290506128d5565b600390505b919050565b600560009054906101000a900473ffffffffffffffffffffffffffffffffffffffff1681565b60015481565b6004818154811061291657600080fd5b906000526020600020016000915090505481565b600060048281548110612966577f4e487b7100000000000000000000000000000000000000000000000000000000600052603260045260246000fd5b90600052602060002001549050919050565b600080600760008473ffffffffffffffffffffffffffffffffffffffff1673ffffffffffffffffffffffffffffffffffffffff16815260200190815260200160002060405180610100016040529081600082015481526020016001820180546129e09061588e565b80601f0160208091040260200160405190810160405280929190818152602001828054612a0c9061588e565b8015612a595780601f10612a2e57610100808354040283529160200191612a59565b820191906000526020600020905b815481529060010190602001808311612a3c57829003601f168201915b50505050508152602001600282018054612a729061588e565b80601f0160208091040260200160405190810160405280929190818152602001828054612a9e9061588e565b8015612aeb5780601f10612ac057610100808354040283529160200191612aeb565b820191906000526020600020905b815481529060010190602001808311612ace57829003601f168201915b50505050508152602001600382018054612b049061588e565b80601f0160208091040260200160405190810160405280929190818152602001828054612b309061588e565b8015612b7d5780601f10612b5257610100808354040283529160200191612b7d565b820191906000526020600020905b815481529060010190602001808311612b6057829003601f168201915b50505050508152602001600482018054612b969061588e565b80601f0160208091040260200160405190810160405280929190818152602001828054612bc29061588e565b8015612c0f5780601f10612be457610100808354040283529160200191612c0f565b820191906000526020600020905b815481529060010190602001808311612bf257829003601f168201915b505050505081526020016005820160009054906101000a900473ffffffffffffffffffffffffffffffffffffffff1673ffffffffffffffffffffffffffffffffffffffff1673ffffffffffffffffffffffffffffffffffffffff168152602001600682015481526020016007820160009054906101000a900460ff1615151515815250509050600b8160200151604051612ca9919061513b565b908152602001604051809103902060008260c00151815260200190815260200160002060009054906101000a900460ff16915050919050565b606080606080600860008673ffffffffffffffffffffffffffffffffffffffff1673ffffffffffffffffffffffffffffffffffffffff16815260200190815260200160002060009054906101000a900460ff16612d74576040517f08c379a0000000000000000000000000000000000000000000000000000000008152600401612d6b906154f2565b60405180910390fd5b6000600660008773ffffffffffffffffffffffffffffffffffffffff1673ffffffffffffffffffffffffffffffffffffffff1681526020019081526020016000206006018054905090508067ffffffffffffffff811115612dfe577f4e487b7100000000000000000000000000000000000000000000000000000000600052604160045260246000fd5b604051908082528060200260200182016040528015612e3157816020015b6060815260200190600190039081612e1c5790505b5094508067ffffffffffffffff811115612e74577f4e487b7100000000000000000000000000000000000000000000000000000000600052604160045260246000fd5b604051908082528060200260200182016040528015612ea757816020015b6060815260200190600190039081612e925790505b5093508067ffffffffffffffff811115612eea577f4e487b7100000000000000000000000000000000000000000000000000000000600052604160045260246000fd5b604051908082528060200260200182016040528015612f1d57816020015b6060815260200190600190039081612f085790505b5092508067ffffffffffffffff811115612f60577f4e487b7100000000000000000000000000000000000000000000000000000000600052604160045260246000fd5b604051908082528060200260200182016040528015612f9357816020015b6060815260200190600190039081612f7e5790505b50915060005b8181101561351457600660008873ffffffffffffffffffffffffffffffffffffffff1673ffffffffffffffffffffffffffffffffffffffff168152602001908152602001600020600601818154811061301b577f4e487b7100000000000000000000000000000000000000000000000000000000600052603260045260246000fd5b906000526020600020906004020160000180546130379061588e565b80601f01602080910402602001604051908101604052809291908181526020018280546130639061588e565b80156130b05780601f10613085576101008083540402835291602001916130b0565b820191906000526020600020905b81548152906001019060200180831161309357829003601f168201915b50505050508682815181106130ee577f4e487b7100000000000000000000000000000000000000000000000000000000600052603260045260246000fd5b6020026020010181905250600660008873ffffffffffffffffffffffffffffffffffffffff1673ffffffffffffffffffffffffffffffffffffffff1681526020019081526020016000206006018181548110613173577f4e487b7100000000000000000000000000000000000000000000000000000000600052603260045260246000fd5b9060005260206000209060040201600101805461318f9061588e565b80601f01602080910402602001604051908101604052809291908181526020018280546131bb9061588e565b80156132085780601f106131dd57610100808354040283529160200191613208565b820191906000526020600020905b8154815290600101906020018083116131eb57829003601f168201915b5050505050858281518110613246577f4e487b7100000000000000000000000000000000000000000000000000000000600052603260045260246000fd5b6020026020010181905250600660008873ffffffffffffffffffffffffffffffffffffffff1673ffffffffffffffffffffffffffffffffffffffff16815260200190815260200160002060060181815481106132cb577f4e487b7100000000000000000000000000000000000000000000000000000000600052603260045260246000fd5b906000526020600020906004020160020180546132e79061588e565b80601f01602080910402602001604051908101604052809291908181526020018280546133139061588e565b80156133605780601f1061333557610100808354040283529160200191613360565b820191906000526020600020905b81548152906001019060200180831161334357829003601f168201915b505050505084828151811061339e577f4e487b7100000000000000000000000000000000000000000000000000000000600052603260045260246000fd5b6020026020010181905250600660008873ffffffffffffffffffffffffffffffffffffffff1673ffffffffffffffffffffffffffffffffffffffff1681526020019081526020016000206006018181548110613423577f4e487b7100000000000000000000000000000000000000000000000000000000600052603260045260246000fd5b9060005260206000209060040201600301805461343f9061588e565b80601f016020809104026020016040519081016040528092919081815260200182805461346b9061588e565b80156134b85780601f1061348d576101008083540402835291602001916134b8565b820191906000526020600020905b81548152906001019060200180831161349b57829003601f168201915b50505050508382815181106134f6577f4e487b7100000000000000000000000000000000000000000000000000000000600052603260045260246000fd5b6020026020010181905250808061350c906158c0565b915050612f99565b50509193509193565b6000600480549050905090565b6060806060806060600860008773ffffffffffffffffffffffffffffffffffffffff1673ffffffffffffffffffffffffffffffffffffffff16815260200190815260200160002060009054906101000a900460ff166135be576040517f08c379a00000000000000000000000000000000000000000000000000000000081526004016135b590615472565b60405180910390fd5b6000600660008873ffffffffffffffffffffffffffffffffffffffff1673ffffffffffffffffffffffffffffffffffffffff16815260200190815260200160002060405180610100016040529081600082015481526020016001820180546136259061588e565b80601f01602080910402602001604051908101604052809291908181526020018280546136519061588e565b801561369e5780601f106136735761010080835404028352916020019161369e565b820191906000526020600020905b81548152906001019060200180831161368157829003601f168201915b505050505081526020016002820180546136b79061588e565b80601f01602080910402602001604051908101604052809291908181526020018280546136e39061588e565b80156137305780601f1061370557610100808354040283529160200191613730565b820191906000526020600020905b81548152906001019060200180831161371357829003601f168201915b505050505081526020016003820180546137499061588e565b80601f01602080910402602001604051908101604052809291908181526020018280546137759061588e565b80156137c25780601f10613797576101008083540402835291602001916137c2565b820191906000526020600020905b8154815290600101906020018083116137a557829003601f168201915b505050505081526020016004820180546137db9061588e565b80601f01602080910402602001604051908101604052809291908181526020018280546138079061588e565b80156138545780601f1061382957610100808354040283529160200191613854565b820191906000526020600020905b81548152906001019060200180831161383757829003601f168201915b5050505050815260200160058201805461386d9061588e565b80601f01602080910402602001604051908101604052809291908181526020018280546138999061588e565b80156138e65780601f106138bb576101008083540402835291602001916138e6565b820191906000526020600020905b8154815290600101906020018083116138c957829003601f168201915b5050505050815260200160068201805480602002602001604051908101604052809291908181526020016000905b82821015613b8e57838290600052602060002090600402016040518060800160405290816000820180546139479061588e565b80601f01602080910402602001604051908101604052809291908181526020018280546139739061588e565b80156139c05780601f10613995576101008083540402835291602001916139c0565b820191906000526020600020905b8154815290600101906020018083116139a357829003601f168201915b505050505081526020016001820180546139d99061588e565b80601f0160208091040260200160405190810160405280929190818152602001828054613a059061588e565b8015613a525780601f10613a2757610100808354040283529160200191613a52565b820191906000526020600020905b815481529060010190602001808311613a3557829003601f168201915b50505050508152602001600282018054613a6b9061588e565b80601f0160208091040260200160405190810160405280929190818152602001828054613a979061588e565b8015613ae45780601f10613ab957610100808354040283529160200191613ae4565b820191906000526020600020905b815481529060010190602001808311613ac757829003601f168201915b50505050508152602001600382018054613afd9061588e565b80601f0160208091040260200160405190810160405280929190818152602001828054613b299061588e565b8015613b765780601f10613b4b57610100808354040283529160200191613b76565b820191906000526020600020905b815481529060010190602001808311613b5957829003601f168201915b50505050508152505081526020019060010190613914565b5050505081526020016007820160009054906101000a900473ffffffffffffffffffffffffffffffffffffffff1673ffffffffffffffffffffffffffffffffffffffff1673ffffffffffffffffffffffffffffffffffffffff1681525050905080602001518160400151826060015183608001518460a00151955095509550955095505091939590929450565b606080606080606080606080600060038054905090508067ffffffffffffffff811115613c71577f4e487b7100000000000000000000000000000000000000000000000000000000600052604160045260246000fd5b604051908082528060200260200182016040528015613c9f5781602001602082028036833780820191505090505b5098508067ffffffffffffffff811115613ce2577f4e487b7100000000000000000000000000000000000000000000000000000000600052604160045260246000fd5b604051908082528060200260200182016040528015613d1557816020015b6060815260200190600190039081613d005790505b5097508067ffffffffffffffff811115613d58577f4e487b7100000000000000000000000000000000000000000000000000000000600052604160045260246000fd5b604051908082528060200260200182016040528015613d8b57816020015b6060815260200190600190039081613d765790505b5096508067ffffffffffffffff811115613dce577f4e487b7100000000000000000000000000000000000000000000000000000000600052604160045260246000fd5b604051908082528060200260200182016040528015613e0157816020015b6060815260200190600190039081613dec5790505b5095508067ffffffffffffffff811115613e44577f4e487b7100000000000000000000000000000000000000000000000000000000600052604160045260246000fd5b604051908082528060200260200182016040528015613e7757816020015b6060815260200190600190039081613e625790505b5094508067ffffffffffffffff811115613eba577f4e487b7100000000000000000000000000000000000000000000000000000000600052604160045260246000fd5b604051908082528060200260200182016040528015613ee85781602001602082028036833780820191505090505b5093508067ffffffffffffffff811115613f2b577f4e487b7100000000000000000000000000000000000000000000000000000000600052604160045260246000fd5b604051908082528060200260200182016040528015613f595781602001602082028036833780820191505090505b5092508067ffffffffffffffff811115613f9c577f4e487b7100000000000000000000000000000000000000000000000000000000600052604160045260246000fd5b604051908082528060200260200182016040528015613fca5781602001602082028036833780820191505090505b50915060005b818110156145ec5760006007600060038481548110614018577f4e487b7100000000000000000000000000000000000000000000000000000000600052603260045260246000fd5b9060005260206000200160009054906101000a900473ffffffffffffffffffffffffffffffffffffffff1673ffffffffffffffffffffffffffffffffffffffff1673ffffffffffffffffffffffffffffffffffffffff16815260200190815260200160002060405180610100016040529081600082015481526020016001820180546140a39061588e565b80601f01602080910402602001604051908101604052809291908181526020018280546140cf9061588e565b801561411c5780601f106140f15761010080835404028352916020019161411c565b820191906000526020600020905b8154815290600101906020018083116140ff57829003601f168201915b505050505081526020016002820180546141359061588e565b80601f01602080910402602001604051908101604052809291908181526020018280546141619061588e565b80156141ae5780601f10614183576101008083540402835291602001916141ae565b820191906000526020600020905b81548152906001019060200180831161419157829003601f168201915b505050505081526020016003820180546141c79061588e565b80601f01602080910402602001604051908101604052809291908181526020018280546141f39061588e565b80156142405780601f1061421557610100808354040283529160200191614240565b820191906000526020600020905b81548152906001019060200180831161422357829003601f168201915b505050505081526020016004820180546142599061588e565b80601f01602080910402602001604051908101604052809291908181526020018280546142859061588e565b80156142d25780601f106142a7576101008083540402835291602001916142d2565b820191906000526020600020905b8154815290600101906020018083116142b557829003601f168201915b505050505081526020016005820160009054906101000a900473ffffffffffffffffffffffffffffffffffffffff1673ffffffffffffffffffffffffffffffffffffffff1673ffffffffffffffffffffffffffffffffffffffff168152602001600682015481526020016007820160009054906101000a900460ff161515151581525050905080600001518b8381518110614396577f4e487b7100000000000000000000000000000000000000000000000000000000600052603260045260246000fd5b60200260200101818152505080602001518a83815181106143e0577f4e487b7100000000000000000000000000000000000000000000000000000000600052603260045260246000fd5b60200260200101819052508060400151898381518110614429577f4e487b7100000000000000000000000000000000000000000000000000000000600052603260045260246000fd5b60200260200101819052508060600151888381518110614472577f4e487b7100000000000000000000000000000000000000000000000000000000600052603260045260246000fd5b602002602001018190525080608001518783815181106144bb577f4e487b7100000000000000000000000000000000000000000000000000000000600052603260045260246000fd5b60200260200101819052508060a00151868381518110614504577f4e487b7100000000000000000000000000000000000000000000000000000000600052603260045260246000fd5b602002602001019073ffffffffffffffffffffffffffffffffffffffff16908173ffffffffffffffffffffffffffffffffffffffff16815250508060e0015185838151811061457c577f4e487b7100000000000000000000000000000000000000000000000000000000600052603260045260246000fd5b6020026020010190151590811515815250508060c001518483815181106145cc577f4e487b7100000000000000000000000000000000000000000000000000000000600052603260045260246000fd5b6020026020010181815250505080806145e4906158c0565b915050613fd0565b50509091929394959697565b8280546146049061588e565b90600052602060002090601f016020900481019282614626576000855561466d565b82601f1061463f57805160ff191683800117855561466d565b8280016001018555821561466d579182015b8281111561466c578251825591602001919060010190614651565b5b50905061467a919061467e565b5090565b5b8082111561469757600081600090555060010161467f565b5090565b60006146ae6146a984615658565b615627565b9050828152602081018484840111156146c657600080fd5b6146d184828561584c565b509392505050565b6000813590506146e8816159a7565b92915050565b600082601f8301126146ff57600080fd5b813561470f84826020860161469b565b91505092915050565b600081359050614727816159be565b92915050565b60006020828403121561473f57600080fd5b600061474d848285016146d9565b91505092915050565b6000806040838503121561476957600080fd5b6000614777858286016146d9565b9250506020614788858286016146d9565b9150509250929050565b600080600080600060a086880312156147aa57600080fd5b600086013567ffffffffffffffff8111156147c457600080fd5b6147d0888289016146ee565b955050602086013567ffffffffffffffff8111156147ed57600080fd5b6147f9888289016146ee565b945050604086013567ffffffffffffffff81111561481657600080fd5b614822888289016146ee565b935050606086013567ffffffffffffffff81111561483f57600080fd5b61484b888289016146ee565b925050608061485c888289016146d9565b9150509295509295909350565b600080600080600060a0868803121561488157600080fd5b600086013567ffffffffffffffff81111561489b57600080fd5b6148a7888289016146ee565b955050602086013567ffffffffffffffff8111156148c457600080fd5b6148d0888289016146ee565b945050604086013567ffffffffffffffff8111156148ed57600080fd5b6148f9888289016146ee565b935050606086013567ffffffffffffffff81111561491657600080fd5b614922888289016146ee565b925050608086013567ffffffffffffffff81111561493f57600080fd5b61494b888289016146ee565b9150509295509295909350565b600080600080600060a0868803121561497057600080fd5b600086013567ffffffffffffffff81111561498a57600080fd5b614996888289016146ee565b955050602086013567ffffffffffffffff8111156149b357600080fd5b6149bf888289016146ee565b945050604086013567ffffffffffffffff8111156149dc57600080fd5b6149e8888289016146ee565b935050606086013567ffffffffffffffff811115614a0557600080fd5b614a11888289016146ee565b9250506080614a2288828901614718565b9150509295509295909350565b60008060408385031215614a4257600080fd5b600083013567ffffffffffffffff811115614a5c57600080fd5b614a68858286016146ee565b9250506020614a7985828601614718565b9150509250929050565b600060208284031215614a9557600080fd5b6000614aa384828501614718565b91505092915050565b6000614ab88383614b08565b60208301905092915050565b6000614ad08383614cb5565b60208301905092915050565b6000614ae88383614ce2565b905092915050565b6000614afc838361511d565b60208301905092915050565b614b11816157fa565b82525050565b614b20816157fa565b82525050565b6000614b31826156c8565b614b3b8185615733565b9350614b4683615688565b8060005b83811015614b77578151614b5e8882614aac565b9750614b69836156ff565b925050600181019050614b4a565b5085935050505092915050565b6000614b8f826156d3565b614b998185615744565b9350614ba483615698565b8060005b83811015614bd5578151614bbc8882614ac4565b9750614bc78361570c565b925050600181019050614ba8565b5085935050505092915050565b6000614bed826156de565b614bf78185615755565b935083602082028501614c09856156a8565b8060005b85811015614c455784840389528151614c268582614adc565b9450614c3183615719565b925060208a01995050600181019050614c0d565b50829750879550505050505092915050565b6000614c62826156e9565b614c6c8185615766565b9350614c77836156b8565b8060005b83811015614ca8578151614c8f8882614af0565b9750614c9a83615726565b925050600181019050614c7b565b5085935050505092915050565b614cbe8161580c565b82525050565b614ccd8161580c565b82525050565b614cdc81615818565b82525050565b6000614ced826156f4565b614cf78185615777565b9350614d0781856020860161585b565b614d1081615996565b840191505092915050565b6000614d26826156f4565b614d308185615788565b9350614d4081856020860161585b565b614d4981615996565b840191505092915050565b6000614d5f826156f4565b614d698185615799565b9350614d7981856020860161585b565b80840191505092915050565b6000614d92601e83615788565b91507f416c72656164792050617469656e74206163636f756e742065786973747300006000830152602082019050919050565b6000614dd2602883615788565b91507f436f6e7472616374206f776e65722063616e6e6f74207265676973746572206160008301527f7320646f63746f720000000000000000000000000000000000000000000000006020830152604082019050919050565b6000614e38601983615788565b91507f596f752063616e27742072656d6f766520796f757273656c66000000000000006000830152602082019050919050565b6000614e78601283615788565b91507f416c7265616479205265676973746572656400000000000000000000000000006000830152602082019050919050565b6000614eb8602683615788565b91507f4e6f2050617469656e747320666f756e642061742074686520676976656e206160008301527f64647265737300000000000000000000000000000000000000000000000000006020830152604082019050919050565b6000614f1e601883615788565b91507f4e6f74207265676973746572656420617320646f63746f7200000000000000006000830152602082019050919050565b6000614f5e601a83615788565b91507f55736572206973206e6f7420617574686f72697a6564207965740000000000006000830152602082019050919050565b6000614f9e601783615788565b91507f596f752063616e6e6f742061646420796f757273656c660000000000000000006000830152602082019050919050565b6000614fde602583615788565b91507f4e6f2070617469656e7420666f756e642061742074686520676976656e20616460008301527f64726573730000000000000000000000000000000000000000000000000000006020830152604082019050919050565b6000615044601a83615788565b91507f5573657220697320616c726561647920617574686f72697a65640000000000006000830152602082019050919050565b6000615084601783615788565b91507f5265636f72642063616e6e6f74206265206164646564200000000000000000006000830152602082019050919050565b60006150c4602783615788565b91507f596f7520617265206e6f7420616c6c6f77656420746f2072656769737465722060008301527f646f63746f7221000000000000000000000000000000000000000000000000006020830152604082019050919050565b61512681615842565b82525050565b61513581615842565b82525050565b60006151478284614d54565b915081905092915050565b60006020820190506151676000830184614b17565b92915050565b600060208201905081810360008301526151878184614b26565b905092915050565b600060808201905081810360008301526151a98187614be2565b905081810360208301526151bd8186614be2565b905081810360408301526151d18185614be2565b905081810360608301526151e58184614be2565b905095945050505050565b600060e082019050818103600083015261520a818a614c57565b9050818103602083015261521e8189614b26565b905081810360408301526152328188614be2565b905081810360608301526152468187614be2565b9050818103608083015261525a8186614be2565b905081810360a083015261526e8185614be2565b905081810360c08301526152828184614be2565b905098975050505050505050565b60006101008201905081810360008301526152ab818b614c57565b905081810360208301526152bf818a614be2565b905081810360408301526152d38189614be2565b905081810360608301526152e78188614be2565b905081810360808301526152fb8187614be2565b905081810360a083015261530f8186614b26565b905081810360c08301526153238185614b84565b905081810360e08301526153378184614c57565b90509998505050505050505050565b600060208201905061535b6000830184614cc4565b92915050565b60006020820190506153766000830184614cd3565b92915050565b600060a08201905081810360008301526153968188614d1b565b905081810360208301526153aa8187614d1b565b905081810360408301526153be8186614d1b565b905081810360608301526153d28185614d1b565b905081810360808301526153e68184614d1b565b90509695505050505050565b6000602082019050818103600083015261540b81614d85565b9050919050565b6000602082019050818103600083015261542b81614dc5565b9050919050565b6000602082019050818103600083015261544b81614e2b565b9050919050565b6000602082019050818103600083015261546b81614e6b565b9050919050565b6000602082019050818103600083015261548b81614eab565b9050919050565b600060208201905081810360008301526154ab81614f11565b9050919050565b600060208201905081810360008301526154cb81614f51565b9050919050565b600060208201905081810360008301526154eb81614f91565b9050919050565b6000602082019050818103600083015261550b81614fd1565b9050919050565b6000602082019050818103600083015261552b81615037565b9050919050565b6000602082019050818103600083015261554b81615077565b9050919050565b6000602082019050818103600083015261556b816150b7565b9050919050565b6000602082019050615587600083018461512c565b92915050565b6000610100820190506155a3600083018b61512c565b81810360208301526155b5818a614d1b565b905081810360408301526155c98189614d1b565b905081810360608301526155dd8188614d1b565b905081810360808301526155f18187614d1b565b905061560060a0830186614b17565b61560d60c0830185614cc4565b61561a60e083018461512c565b9998505050505050505050565b6000604051905081810181811067ffffffffffffffff8211171561564e5761564d615967565b5b8060405250919050565b600067ffffffffffffffff82111561567357615672615967565b5b601f19601f8301169050602081019050919050565b6000819050602082019050919050565b6000819050602082019050919050565b6000819050602082019050919050565b6000819050602082019050919050565b600081519050919050565b600081519050919050565b600081519050919050565b600081519050919050565b600081519050919050565b6000602082019050919050565b6000602082019050919050565b6000602082019050919050565b6000602082019050919050565b600082825260208201905092915050565b600082825260208201905092915050565b600082825260208201905092915050565b600082825260208201905092915050565b600082825260208201905092915050565b600082825260208201905092915050565b600081905092915050565b60006157af82615842565b91506157ba83615842565b9250827fffffffffffffffffffffffffffffffffffffffffffffffffffffffffffffffff038211156157ef576157ee615909565b5b828201905092915050565b600061580582615822565b9050919050565b60008115159050919050565b6000819050919050565b600073ffffffffffffffffffffffffffffffffffffffff82169050919050565b6000819050919050565b82818337600083830152505050565b60005b8381101561587957808201518184015260208101905061585e565b83811115615888576000848401525b50505050565b600060028204905060018216806158a657607f821691505b602082108114156158ba576158b9615938565b5b50919050565b60006158cb82615842565b91507fffffffffffffffffffffffffffffffffffffffffffffffffffffffffffffffff8214156158fe576158fd615909565b5b600182019050919050565b7f4e487b7100000000000000000000000000000000000000000000000000000000600052601160045260246000fd5b7f4e487b7100000000000000000000000000000000000000000000000000000000600052602260045260246000fd5b7f4e487b7100000000000000000000000000000000000000000000000000000000600052604160045260246000fd5b6000601f19601f8301169050919050565b6159b0816157fa565b81146159bb57600080fd5b50565b6159c781615842565b81146159d257600080fd5b5056fea26469706673582212203bbc6258df3a807895fec7559e15b9e6bcecfe708f99e261a72a4e79a6eab74664736f6c63430008000033",
  "immutableReferences": {},
  "source": "// SPDX-License-Identifier: MIT\r\n\r\npragma solidity >=0.4.22 <0.9.0;\r\n\r\ncontract meDossier{\r\n    \r\n    uint256 public pindex=0;\r\n    uint256 public dindex=0;\r\n    \r\n    struct Records {\r\n    string dname;\r\n    string reason;\r\n    string visitedDate;\r\n    string ipfs;\r\n    }\r\n\r\n    struct doctor {\r\n        uint256 id;\r\n        string name;\r\n        string contact;\r\n        string hname;\r\n        string faculty;\r\n        address addr;\r\n        uint256 licenseno;\r\n        bool isApproved;\r\n    }\r\n    \r\n    struct patient{\r\n        uint256 id;\r\n        string name;\r\n        string phone;\r\n        string gender;\r\n        string dob;\r\n        string bloodgroup;\r\n        Records[] records;\r\n        address addr;\r\n    }\r\n    address[] private patientList;\r\n    address[] public doctorList;\r\n    uint256 [] public registeredDoctorList;\r\n    address public  owner;\r\n\r\n    mapping(address=>patient) patients;\r\n    mapping(address=>doctor) doctors;\r\n    mapping(address=>bool) isPatient;\r\n    mapping(address=>bool) isDoctor;\r\n    mapping(address=>mapping(address=>bool)) Authorized;\r\n    mapping(string=>mapping(uint256=>bool)) Registered;\r\n    \r\n    \r\n    constructor() {\r\n        owner = msg.sender;\r\n        \r\n    }\r\n    \r\n     //identity the user \r\n     function user(address addr) public view returns (int success){\r\n        if(isDoctor[addr]==true){\r\n            return 0;\r\n        }\r\n        else if(isPatient[addr]==true){\r\n            return 1;\r\n        }\r\n        else if(addr==owner){\r\n            return 2;\r\n        }\r\n        else{\r\n            return 3;\r\n        }\r\n    }\r\n    \r\n    function getPatientList() public view returns (address[] memory) {\r\n    return patientList;\r\n    }\r\n\r\n\r\n    //Register the doctor by certain authority\r\n    function registerDoctor(string memory docname, uint256 license) public {\r\n        require(msg.sender==owner,\"You are not allowed to register doctor!\");\r\n        Registered[docname][license] = true;\r\n        registeredDoctorList.push(license);\r\n    \r\n    }\r\n\r\n    function isAuthorized(address pat,address client ) public view returns (bool success){\r\n        return Authorized[pat][client];\r\n    }\r\n    \r\n    //Check whether the doctor is registered or not\r\n     function isRegistered(address addr) public view returns (bool success){\r\n        doctor memory doc = doctors[addr];\r\n        return Registered[doc.name][doc.licenseno];\r\n    }\r\n    \r\n\r\n//Add terecords of the patient\r\n    function addRecord(string memory _dname,string memory _reason,string memory _visitedDate,string memory _ipfs, address addr) public{\r\n        require(isPatient[addr],\"No patient found at the given address\");\r\n        \r\n        if(Authorized[addr][msg.sender]){\r\n                patients[addr].records.push(Records(_dname,_reason,_visitedDate,_ipfs));\r\n        }\r\n        else \r\n        revert(\"Record cannot be added \");\r\n       \r\n       \r\n        // require(Authorized[addr][msg.sender],\"You do not have permission to add records!\");\r\n        // require(isPatient[addr],\"User Not registered\");\r\n        // patients[addr].records.push(Records(_dname,_reason,_visitedDate,_ipfs));\r\n    }\r\n    \r\n    //add the patient to the blockchain\r\n    function addPatient(string memory _name,string memory _phone,string memory _gender,string memory _dob,string memory _bloodgroup) public {\r\n        require(!isPatient[msg.sender],\"Already Patient account exists\");\r\n        require(bytes(_name).length>0);\r\n        require(bytes(_phone).length>0);\r\n        require(bytes(_gender).length>0);\r\n        require(bytes(_dob).length>0);\r\n        require(bytes(_bloodgroup).length>0);        \r\n        patientList.push(msg.sender);\r\n        pindex = pindex + 1;\r\n        isPatient[msg.sender]=true;\r\n        patients[msg.sender].id=pindex;\r\n        patients[msg.sender].name=_name;\r\n        patients[msg.sender].phone=_phone;\r\n        patients[msg.sender].gender=_gender;\r\n        patients[msg.sender].dob=_dob;\r\n        patients[msg.sender].bloodgroup=_bloodgroup;\r\n        patients[msg.sender].addr=msg.sender;\r\n        \r\n    }\r\n    \r\n    //get the details of the patients\r\n    function getPatientDetails(address _addr) public view returns(string memory _name,string memory _phone,string memory _gender,string memory _dob,string memory _bloodgroup){\r\n        require(isPatient[_addr],\"No Patients found at the given address\");\r\n        patient memory pat = patients[_addr];\r\n        return (pat.name,pat.phone,pat.gender,pat.dob,pat.bloodgroup);\r\n    }\r\n\r\nfunction getAllPatients() public view returns (\r\n    uint256[] memory ids,\r\n    address[] memory addresses,\r\n    string[] memory names,\r\n    string[] memory phones,\r\n    string[] memory genders,\r\n    string[] memory dobs,\r\n    string[] memory bloodgroups\r\n) {\r\n    uint256 totalPatients = patientList.length;\r\n    ids = new uint256[](totalPatients);\r\n    addresses = new address[](totalPatients);\r\n    names = new string[](totalPatients);\r\n    phones = new string[](totalPatients);\r\n    genders = new string[](totalPatients);\r\n    dobs = new string[](totalPatients);\r\n    bloodgroups = new string[](totalPatients);\r\n\r\n    for (uint256 i = 0; i < totalPatients; i++) {\r\n        address patientAddress = patientList[i];\r\n        patient memory pat = patients[patientAddress];\r\n\r\n        ids[i] = pat.id;\r\n        addresses[i] = patientAddress;\r\n        names[i] = pat.name;\r\n        phones[i] = pat.phone;\r\n        genders[i] = pat.gender;\r\n        dobs[i] = pat.dob;\r\n        bloodgroups[i] = pat.bloodgroup;\r\n    }\r\n}\r\n  //get the length of records of particular address  \r\n     function getrecordlist(address _addr)  public view returns (uint256 ){  \r\n     return (patients[_addr].records.length);\r\n     }\r\n\r\n//get the length of doctor's added in blockchain\r\nfunction getdoctorlist() public view returns(uint256){\r\n        return doctorList.length;\r\n    }\r\n   \r\n   //get the length of registered doctor \r\nfunction getRegisteredDoctorslength() public view returns(uint256){\r\n        return registeredDoctorList.length;\r\n    }\r\n\r\n//\r\nfunction getRegisteredDoctorsList(uint256 id) public view returns(uint256 license){\r\n        return registeredDoctorList[id];\r\n    }\r\n    \r\n//get patients record \r\nfunction getAllPatientRecords(address _addr) \r\n    public view \r\n    returns(\r\n        string[] memory dnames, \r\n        string[] memory reasons, \r\n        string[] memory visitedDates, \r\n        string[] memory ipfsHashes\r\n    ) \r\n{\r\n    require(isPatient[_addr], \"No patient found at the given address\");\r\n    // require(Authorized[_addr][msg.sender] || msg.sender == _addr, \"Record cannot be accessed\");\r\n\r\n    uint256 recordCount = patients[_addr].records.length;\r\n    dnames = new string[](recordCount);\r\n    reasons = new string[](recordCount);\r\n    visitedDates = new string[](recordCount);\r\n    ipfsHashes = new string[](recordCount);\r\n\r\n    for (uint256 i = 0; i < recordCount; i++) {\r\n        dnames[i] = patients[_addr].records[i].dname;\r\n        reasons[i] = patients[_addr].records[i].reason;\r\n        visitedDates[i] = patients[_addr].records[i].visitedDate;\r\n        ipfsHashes[i] = patients[_addr].records[i].ipfs;\r\n    }\r\n}\r\n\r\n//add doctor \r\n    function addDoctor(string memory _name,string memory _hname,string memory _faculty,string memory _contact,uint256 license) public {\r\n        require(!isDoctor[msg.sender],\"Already Registered\");\r\n        require(msg.sender != owner,\"Contract owner cannot register as doctor\");\r\n        require(bytes(_name).length>0);\r\n        require(bytes(_hname).length>0);\r\n        require(bytes(_faculty).length>0);\r\n        require(bytes(_contact).length>0);\r\n        require(license>0);  \r\n        address _addr = msg.sender;\r\n        doctorList.push(_addr);\r\n\r\n        dindex = dindex + 1;\r\n        isDoctor[_addr]=true;\r\n        doctors[_addr].name = _name;\r\n        doctors[_addr].contact =_contact;\r\n        doctors[_addr].hname = _hname;\r\n        doctors[_addr].faculty =_faculty; \r\n        doctors[_addr].addr = _addr;\r\n        doctors[_addr].licenseno = license;\r\n        doctors[_addr].isApproved = false;\r\n        \r\n        if (Registered[_name][license] == true){\r\n            doctors[_addr].isApproved = true;\r\n        }\r\n    }\r\n\r\n\r\n    function getAllDoctors() public view returns (\r\n    uint256[] memory ids,\r\n    string[] memory names,\r\n    string[] memory contacts,\r\n    string[] memory hospitals,\r\n    string[] memory faculties,\r\n    address[] memory addresses,\r\n    bool[] memory approvals,\r\n    uint256[] memory licenses\r\n    ) {\r\n        uint256 doctorCount = doctorList.length;\r\n        \r\n        ids = new uint256[](doctorCount);\r\n        names = new string[](doctorCount);\r\n        contacts = new string[](doctorCount);\r\n        hospitals = new string[](doctorCount);\r\n        faculties = new string[](doctorCount);\r\n        addresses = new address[](doctorCount);\r\n        approvals = new bool[](doctorCount);\r\n        licenses = new uint256[](doctorCount);\r\n\r\n        for (uint256 i = 0; i < doctorCount; i++) {\r\n            doctor memory doc = doctors[doctorList[i]];\r\n            ids[i] = doc.id;\r\n            names[i] = doc.name;\r\n            contacts[i] = doc.contact;\r\n            hospitals[i] = doc.hname;\r\n            faculties[i] = doc.faculty;\r\n            addresses[i] = doc.addr;\r\n            approvals[i] = doc.isApproved;\r\n            licenses[i] = doc.licenseno;\r\n        }\r\n    }\r\n//get doctor's details  for verification\r\n    // function getDoctorbyLicense(uint256 license) public view returns(uint256 id, string memory name,string memory hospital, string memory _faculty,address addr,bool isApproved,uint256 licenseno){\r\n       \r\n    //      uint256 i=0;\r\n    //     for(i = 0;i<doctorList.length;i++){\r\n    //     if(doctors[doctorList[i]].licenseno==license){\r\n    //         break;\r\n    //     }\r\n    // }    \r\n    // doctor memory doc = doctors[doctorList[i]];\r\n    // require(isDoctor[doc.addr]==true,\"Doctor hasn't signed up in meDossier\");\r\n    //      require(doc.isApproved==true,\"Doctor is not approved\");\r\n        \r\n        \r\n    //     return (doc.id,doc.name,doc.hname,doc.faculty,doc.addr,doc.isApproved,doc.licenseno) ;\r\n       \r\n    // }\r\n    \r\n//  function getDoctorbyName(string memory _name) public view returns(uint256 id,string memory name , string memory contact ,string memory hname ,string memory faculty ,address addr , bool isApproved,uint256 licenseno)  {\r\n//         uint256 i=0;\r\n//         for(i = 0;i<doctorList.length;i++){\r\n//         if(keccak256(bytes(doctors[doctorList[i]].name)) == keccak256(bytes(_name))){\r\n//             break;\r\n//         }\r\n//     }    \r\n//         require(keccak256(bytes(doctors[doctorList[i]].name)) == keccak256(bytes(_name)),\"Doctor doesn't exists with the given name\");\r\n//         doctor memory doc = doctors[doctorList[i]];\r\n//         return (doc.id,doc.name,doc.contact,doc.hname,doc.faculty,doc.addr, doc.isApproved,doc.licenseno);\r\n//     }\r\n    \r\n\r\n function getDoctorByAddress(address _address) public view returns(uint256 id,string memory name , string memory contact ,string memory hname ,string memory faculty ,address addr , bool isApproved,uint256 licenseno) {\r\n        // require(doctors[_address].isApproved,\"Doctor is not Approved or doesn't exist\");\r\n        doctor memory doc = doctors[_address];\r\n        return (doc.id,doc.name,doc.contact,doc.hname,doc.faculty,doc.addr,doc.isApproved,doc.licenseno);\r\n    } \r\n    \r\n\r\n//Give access to certain address\r\n    function grantAccess(address _addr) public returns (bool success)\r\n    {   require(msg.sender != _addr,\"You cannot add yourself\");\r\n        require(isDoctor[_addr],\"Not registered as doctor\");\r\n        require(!Authorized[msg.sender][_addr],\"User is already authorized\");\r\n        Authorized[msg.sender][_addr] = true;\r\n        return true;\r\n    }\r\n\r\n//Revoke access of patient records from certain address\r\n      function revoke_access(address _addr)  public returns (bool success){\r\n        require(msg.sender!=_addr,\"You can't remove yourself\");\r\n        require(Authorized[msg.sender][_addr],\"User is not authorized yet\");\r\n        Authorized[msg.sender][_addr] = false;\r\n        return true;\r\n    }\r\n\r\n// function doctorLogin() public{\r\n//     if(Registered[doctors[msg.sender].name][doctors[msg.sender].licenseno] == true){\r\n//         doctors[msg.sender].isApproved = true;\r\n//     }\r\n// }\r\n\r\n}",
  "sourcePath": "D:\\AppBL\\App\\MedicalApp\\contracts\\MedicalApp.sol",
  "compiler": {
    "name": "solc",
    "version": "0.8.0+commit.c7dfd78e.Emscripten.clang"
  },
  "schemaVersion": "3.4.16",
  "updatedAt": "2025-01-01T12:02:15.332Z",
  "networkType": "ethereum",
  "devdoc": {
    "kind": "dev",
    "methods": {},
    "version": 1
  },
  "userdoc": {
    "kind": "user",
    "methods": {},
    "version": 1
  }
}