{
  "contractName": "meDossier",
  "abi": [
    {
      "inputs": [],
      "stateMutability": "nonpayable",
      "type": "constructor"
    },
    {
      "inputs": [],
      "name": "dindex",
      "outputs": [
        {
          "internalType": "uint256",
          "name": "",
          "type": "uint256"
        }
      ],
      "stateMutability": "view",
      "type": "function",
      "constant": true
    },
    {
      "inputs": [
        {
          "internalType": "uint256",
          "name": "",
          "type": "uint256"
        }
      ],
      "name": "doctorList",
      "outputs": [
        {
          "internalType": "address",
          "name": "",
          "type": "address"
        }
      ],
      "stateMutability": "view",
      "type": "function",
      "constant": true
    },
    {
      "inputs": [],
      "name": "owner",
      "outputs": [
        {
          "internalType": "address",
          "name": "",
          "type": "address"
        }
      ],
      "stateMutability": "view",
      "type": "function",
      "constant": true
    },
    {
      "inputs": [],
      "name": "pindex",
      "outputs": [
        {
          "internalType": "uint256",
          "name": "",
          "type": "uint256"
        }
      ],
      "stateMutability": "view",
      "type": "function",
      "constant": true
    },
    {
      "inputs": [
        {
          "internalType": "uint256",
          "name": "",
          "type": "uint256"
        }
      ],
      "name": "registeredDoctorList",
      "outputs": [
        {
          "internalType": "uint256",
          "name": "",
          "type": "uint256"
        }
      ],
      "stateMutability": "view",
      "type": "function",
      "constant": true
    },
    {
      "inputs": [
        {
          "internalType": "address",
          "name": "addr",
          "type": "address"
        }
      ],
      "name": "user",
      "outputs": [
        {
          "internalType": "int256",
          "name": "success",
          "type": "int256"
        }
      ],
      "stateMutability": "view",
      "type": "function",
      "constant": true
    },
    {
      "inputs": [],
      "name": "getPatientList",
      "outputs": [
        {
          "internalType": "address[]",
          "name": "",
          "type": "address[]"
        }
      ],
      "stateMutability": "view",
      "type": "function",
      "constant": true
    },
    {
      "inputs": [
        {
          "internalType": "string",
          "name": "docname",
          "type": "string"
        },
        {
          "internalType": "uint256",
          "name": "license",
          "type": "uint256"
        }
      ],
      "name": "registerDoctor",
      "outputs": [],
      "stateMutability": "nonpayable",
      "type": "function"
    },
    {
      "inputs": [
        {
          "internalType": "address",
          "name": "pat",
          "type": "address"
        },
        {
          "internalType": "address",
          "name": "client",
          "type": "address"
        }
      ],
      "name": "isAuthorized",
      "outputs": [
        {
          "internalType": "bool",
          "name": "success",
          "type": "bool"
        }
      ],
      "stateMutability": "view",
      "type": "function",
      "constant": true
    },
    {
      "inputs": [
        {
          "internalType": "address",
          "name": "addr",
          "type": "address"
        }
      ],
      "name": "isRegistered",
      "outputs": [
        {
          "internalType": "bool",
          "name": "success",
          "type": "bool"
        }
      ],
      "stateMutability": "view",
      "type": "function",
      "constant": true
    },
    {
      "inputs": [
        {
          "internalType": "string",
          "name": "_dname",
          "type": "string"
        },
        {
          "internalType": "string",
          "name": "_reason",
          "type": "string"
        },
        {
          "internalType": "string",
          "name": "_visitedDate",
          "type": "string"
        },
        {
          "internalType": "string",
          "name": "_ipfs",
          "type": "string"
        },
        {
          "internalType": "address",
          "name": "addr",
          "type": "address"
        }
      ],
      "name": "addRecord",
      "outputs": [],
      "stateMutability": "nonpayable",
      "type": "function"
    },
    {
      "inputs": [
        {
          "internalType": "string",
          "name": "_name",
          "type": "string"
        },
        {
          "internalType": "string",
          "name": "_phone",
          "type": "string"
        },
        {
          "internalType": "string",
          "name": "_gender",
          "type": "string"
        },
        {
          "internalType": "string",
          "name": "_dob",
          "type": "string"
        },
        {
          "internalType": "string",
          "name": "_bloodgroup",
          "type": "string"
        }
      ],
      "name": "addPatient",
      "outputs": [],
      "stateMutability": "nonpayable",
      "type": "function"
    },
    {
      "inputs": [
        {
          "internalType": "address",
          "name": "_addr",
          "type": "address"
        }
      ],
      "name": "getPatientDetails",
      "outputs": [
        {
          "internalType": "string",
          "name": "_name",
          "type": "string"
        },
        {
          "internalType": "string",
          "name": "_phone",
          "type": "string"
        },
        {
          "internalType": "string",
          "name": "_gender",
          "type": "string"
        },
        {
          "internalType": "string",
          "name": "_dob",
          "type": "string"
        },
        {
          "internalType": "string",
          "name": "_bloodgroup",
          "type": "string"
        }
      ],
      "stateMutability": "view",
      "type": "function",
      "constant": true
    },
    {
      "inputs": [],
      "name": "getAllPatients",
      "outputs": [
        {
          "internalType": "uint256[]",
          "name": "ids",
          "type": "uint256[]"
        },
        {
          "internalType": "string[]",
          "name": "names",
          "type": "string[]"
        },
        {
          "internalType": "string[]",
          "name": "phones",
          "type": "string[]"
        },
        {
          "internalType": "string[]",
          "name": "genders",
          "type": "string[]"
        },
        {
          "internalType": "string[]",
          "name": "dobs",
          "type": "string[]"
        },
        {
          "internalType": "string[]",
          "name": "bloodgroups",
          "type": "string[]"
        }
      ],
      "stateMutability": "view",
      "type": "function",
      "constant": true
    },
    {
      "inputs": [
        {
          "internalType": "address",
          "name": "_addr",
          "type": "address"
        }
      ],
      "name": "getrecordlist",
      "outputs": [
        {
          "internalType": "uint256",
          "name": "",
          "type": "uint256"
        }
      ],
      "stateMutability": "view",
      "type": "function",
      "constant": true
    },
    {
      "inputs": [],
      "name": "getdoctorlist",
      "outputs": [
        {
          "internalType": "uint256",
          "name": "",
          "type": "uint256"
        }
      ],
      "stateMutability": "view",
      "type": "function",
      "constant": true
    },
    {
      "inputs": [],
      "name": "getRegisteredDoctorslength",
      "outputs": [
        {
          "internalType": "uint256",
          "name": "",
          "type": "uint256"
        }
      ],
      "stateMutability": "view",
      "type": "function",
      "constant": true
    },
    {
      "inputs": [
        {
          "internalType": "uint256",
          "name": "id",
          "type": "uint256"
        }
      ],
      "name": "getRegisteredDoctorsList",
      "outputs": [
        {
          "internalType": "uint256",
          "name": "license",
          "type": "uint256"
        }
      ],
      "stateMutability": "view",
      "type": "function",
      "constant": true
    },
    {
      "inputs": [
        {
          "internalType": "address",
          "name": "_addr",
          "type": "address"
        },
        {
          "internalType": "uint256",
          "name": "_id",
          "type": "uint256"
        }
      ],
      "name": "getPatientRecords",
      "outputs": [
        {
          "internalType": "string",
          "name": "dname",
          "type": "string"
        },
        {
          "internalType": "string",
          "name": "reason",
          "type": "string"
        },
        {
          "internalType": "string",
          "name": "visitedDate",
          "type": "string"
        },
        {
          "internalType": "string",
          "name": "ipfs",
          "type": "string"
        }
      ],
      "stateMutability": "view",
      "type": "function",
      "constant": true
    },
    {
      "inputs": [
        {
          "internalType": "string",
          "name": "_name",
          "type": "string"
        },
        {
          "internalType": "string",
          "name": "_hname",
          "type": "string"
        },
        {
          "internalType": "string",
          "name": "_faculty",
          "type": "string"
        },
        {
          "internalType": "string",
          "name": "_contact",
          "type": "string"
        },
        {
          "internalType": "uint256",
          "name": "license",
          "type": "uint256"
        }
      ],
      "name": "addDoctor",
      "outputs": [],
      "stateMutability": "nonpayable",
      "type": "function"
    },
    {
      "inputs": [],
      "name": "getAllDoctors",
      "outputs": [
        {
          "internalType": "uint256[]",
          "name": "ids",
          "type": "uint256[]"
        },
        {
          "internalType": "string[]",
          "name": "names",
          "type": "string[]"
        },
        {
          "internalType": "string[]",
          "name": "contacts",
          "type": "string[]"
        },
        {
          "internalType": "string[]",
          "name": "hospitals",
          "type": "string[]"
        },
        {
          "internalType": "string[]",
          "name": "faculties",
          "type": "string[]"
        },
        {
          "internalType": "address[]",
          "name": "addresses",
          "type": "address[]"
        },
        {
          "internalType": "bool[]",
          "name": "approvals",
          "type": "bool[]"
        },
        {
          "internalType": "uint256[]",
          "name": "licenses",
          "type": "uint256[]"
        }
      ],
      "stateMutability": "view",
      "type": "function",
      "constant": true
    },
    {
      "inputs": [
        {
          "internalType": "address",
          "name": "_address",
          "type": "address"
        }
      ],
      "name": "getDoctorByAddress",
      "outputs": [
        {
          "internalType": "uint256",
          "name": "id",
          "type": "uint256"
        },
        {
          "internalType": "string",
          "name": "name",
          "type": "string"
        },
        {
          "internalType": "string",
          "name": "contact",
          "type": "string"
        },
        {
          "internalType": "string",
          "name": "hname",
          "type": "string"
        },
        {
          "internalType": "string",
          "name": "faculty",
          "type": "string"
        },
        {
          "internalType": "address",
          "name": "addr",
          "type": "address"
        },
        {
          "internalType": "bool",
          "name": "isApproved",
          "type": "bool"
        },
        {
          "internalType": "uint256",
          "name": "licenseno",
          "type": "uint256"
        }
      ],
      "stateMutability": "view",
      "type": "function",
      "constant": true
    },
    {
      "inputs": [
        {
          "internalType": "address",
          "name": "_addr",
          "type": "address"
        }
      ],
      "name": "grantAccess",
      "outputs": [
        {
          "internalType": "bool",
          "name": "success",
          "type": "bool"
        }
      ],
      "stateMutability": "nonpayable",
      "type": "function"
    },
    {
      "inputs": [
        {
          "internalType": "address",
          "name": "_addr",
          "type": "address"
        }
      ],
      "name": "revoke_access",
      "outputs": [
        {
          "internalType": "bool",
          "name": "success",
          "type": "bool"
        }
      ],
      "stateMutability": "nonpayable",
      "type": "function"
    }
  ],
  "bytecode": "0x608060405260008055600060015534801561001957600080fd5b5033600560006101000a81548173ffffffffffffffffffffffffffffffffffffffff021916908373ffffffffffffffffffffffffffffffffffffffff160217905550615772806200006b6000396000f3fe608060405234801561001057600080fd5b50600436106101585760003560e01c80635ad910ef116100c3578063abec773d1161007c578063abec773d14610410578063b2c3700814610440578063c3c5a54714610470578063ddf3a786146104a0578063efe2ccc1146104be578063f0d95090146104f257610158565b80635ad910ef1461033a57806365e4ad9e1461035857806370333b801461038857806381e7e20e146103a45780638da5cb5b146103d4578063928ed9da146103f257610158565b80632874a75f116101155780632874a75f1461025c578063312625f81461028f578063503b1354146102ab5780635658e43b146102c957806356fa8217146102e757806358c5d4bf1461030357610158565b80630ae5e7391461015d578063127ca4b41461018d578063136bd148146101bd57806318a231a9146101d9578063248c6a31146101fc57806327b1dcee1461022c575b600080fd5b6101776004803603810190610172919061440d565b610517565b604051610184919061502c565b60405180910390f35b6101a760048036038101906101a2919061479f565b61077c565b6040516101b49190614eae565b60405180910390f35b6101d760048036038101906101d2919061474b565b6107bb565b005b6101e16108c0565b6040516101f396959493929190614fa1565b60405180910390f35b6102166004803603810190610211919061440d565b61140c565b60405161022391906152d9565b60405180910390f35b6102466004803603810190610241919061440d565b61145b565b604051610253919061502c565b60405180910390f35b61027660048036038101906102719190614472565b611633565b6040516102869493929190615062565b60405180910390f35b6102a960048036038101906102a49190614674565b611c37565b005b6102b361219a565b6040516102c09190614ec9565b60405180910390f35b6102d1612228565b6040516102de91906152d9565b60405180910390f35b61030160048036038101906102fc9190614585565b61222e565b005b61031d6004803603810190610318919061440d565b612655565b6040516103319897969594939291906152f4565b60405180910390f35b6103426129c1565b60405161034f91906152d9565b60405180910390f35b610372600480360381019061036d9190614436565b6129ce565b60405161037f919061502c565b60405180910390f35b6103a2600480360381019061039d91906144ae565b612a62565b005b6103be60048036038101906103b9919061440d565b612cc6565b6040516103cb9190615047565b60405180910390f35b6103dc612df5565b6040516103e99190614eae565b60405180910390f35b6103fa612e1b565b60405161040791906152d9565b60405180910390f35b61042a6004803603810190610425919061479f565b612e21565b60405161043791906152d9565b60405180910390f35b61045a6004803603810190610455919061479f565b612e45565b60405161046791906152d9565b60405180910390f35b61048a6004803603810190610485919061440d565b612e93565b604051610497919061502c565b60405180910390f35b6104a86131fd565b6040516104b591906152d9565b60405180910390f35b6104d860048036038101906104d3919061440d565b61320a565b6040516104e99594939291906150c3565b60405180910390f35b6104fa6138fb565b60405161050e989796959493929190614eeb565b60405180910390f35b60008173ffffffffffffffffffffffffffffffffffffffff163373ffffffffffffffffffffffffffffffffffffffff161415610588576040517f08c379a000000000000000000000000000000000000000000000000000000000815260040161057f90615239565b60405180910390fd5b600960008373ffffffffffffffffffffffffffffffffffffffff1673ffffffffffffffffffffffffffffffffffffffff16815260200190815260200160002060009054906101000a900460ff16610614576040517f08c379a000000000000000000000000000000000000000000000000000000000815260040161060b906151d9565b60405180910390fd5b600a60003373ffffffffffffffffffffffffffffffffffffffff1673ffffffffffffffffffffffffffffffffffffffff16815260200190815260200160002060008373ffffffffffffffffffffffffffffffffffffffff1673ffffffffffffffffffffffffffffffffffffffff16815260200190815260200160002060009054906101000a900460ff16156106de576040517f08c379a00000000000000000000000000000000000000000000000000000000081526004016106d590615279565b60405180910390fd5b6001600a60003373ffffffffffffffffffffffffffffffffffffffff1673ffffffffffffffffffffffffffffffffffffffff16815260200190815260200160002060008473ffffffffffffffffffffffffffffffffffffffff1673ffffffffffffffffffffffffffffffffffffffff16815260200190815260200160002060006101000a81548160ff02191690831515021790555060019050919050565b6003818154811061078c57600080fd5b906000526020600020016000915054906101000a900473ffffffffffffffffffffffffffffffffffffffff1681565b600560009054906101000a900473ffffffffffffffffffffffffffffffffffffffff1673ffffffffffffffffffffffffffffffffffffffff163373ffffffffffffffffffffffffffffffffffffffff161461084b576040517f08c379a0000000000000000000000000000000000000000000000000000000008152600401610842906152b9565b60405180910390fd5b6001600b8360405161085d9190614e97565b9081526020016040518091039020600083815260200190815260200160002060006101000a81548160ff02191690831515021790555060048190806001815401808255809150506001900390600052602060002001600090919091909150555050565b606080606080606080600060028054905090508067ffffffffffffffff811115610913577f4e487b7100000000000000000000000000000000000000000000000000000000600052604160045260246000fd5b6040519080825280602002602001820160405280156109415781602001602082028036833780820191505090505b5096508067ffffffffffffffff811115610984577f4e487b7100000000000000000000000000000000000000000000000000000000600052604160045260246000fd5b6040519080825280602002602001820160405280156109b757816020015b60608152602001906001900390816109a25790505b5095508067ffffffffffffffff8111156109fa577f4e487b7100000000000000000000000000000000000000000000000000000000600052604160045260246000fd5b604051908082528060200260200182016040528015610a2d57816020015b6060815260200190600190039081610a185790505b5094508067ffffffffffffffff811115610a70577f4e487b7100000000000000000000000000000000000000000000000000000000600052604160045260246000fd5b604051908082528060200260200182016040528015610aa357816020015b6060815260200190600190039081610a8e5790505b5093508067ffffffffffffffff811115610ae6577f4e487b7100000000000000000000000000000000000000000000000000000000600052604160045260246000fd5b604051908082528060200260200182016040528015610b1957816020015b6060815260200190600190039081610b045790505b5092508067ffffffffffffffff811115610b5c577f4e487b7100000000000000000000000000000000000000000000000000000000600052604160045260246000fd5b604051908082528060200260200182016040528015610b8f57816020015b6060815260200190600190039081610b7a5790505b50915060005b8181101561140257600060028281548110610bd9577f4e487b7100000000000000000000000000000000000000000000000000000000600052603260045260246000fd5b9060005260206000200160009054906101000a900473ffffffffffffffffffffffffffffffffffffffff1690506000600660008373ffffffffffffffffffffffffffffffffffffffff1673ffffffffffffffffffffffffffffffffffffffff1681526020019081526020016000206040518061010001604052908160008201548152602001600182018054610c6d906155f5565b80601f0160208091040260200160405190810160405280929190818152602001828054610c99906155f5565b8015610ce65780601f10610cbb57610100808354040283529160200191610ce6565b820191906000526020600020905b815481529060010190602001808311610cc957829003601f168201915b50505050508152602001600282018054610cff906155f5565b80601f0160208091040260200160405190810160405280929190818152602001828054610d2b906155f5565b8015610d785780601f10610d4d57610100808354040283529160200191610d78565b820191906000526020600020905b815481529060010190602001808311610d5b57829003601f168201915b50505050508152602001600382018054610d91906155f5565b80601f0160208091040260200160405190810160405280929190818152602001828054610dbd906155f5565b8015610e0a5780601f10610ddf57610100808354040283529160200191610e0a565b820191906000526020600020905b815481529060010190602001808311610ded57829003601f168201915b50505050508152602001600482018054610e23906155f5565b80601f0160208091040260200160405190810160405280929190818152602001828054610e4f906155f5565b8015610e9c5780601f10610e7157610100808354040283529160200191610e9c565b820191906000526020600020905b815481529060010190602001808311610e7f57829003601f168201915b50505050508152602001600582018054610eb5906155f5565b80601f0160208091040260200160405190810160405280929190818152602001828054610ee1906155f5565b8015610f2e5780601f10610f0357610100808354040283529160200191610f2e565b820191906000526020600020905b815481529060010190602001808311610f1157829003601f168201915b5050505050815260200160068201805480602002602001604051908101604052809291908181526020016000905b828210156111d65783829060005260206000209060040201604051806080016040529081600082018054610f8f906155f5565b80601f0160208091040260200160405190810160405280929190818152602001828054610fbb906155f5565b80156110085780601f10610fdd57610100808354040283529160200191611008565b820191906000526020600020905b815481529060010190602001808311610feb57829003601f168201915b50505050508152602001600182018054611021906155f5565b80601f016020809104026020016040519081016040528092919081815260200182805461104d906155f5565b801561109a5780601f1061106f5761010080835404028352916020019161109a565b820191906000526020600020905b81548152906001019060200180831161107d57829003601f168201915b505050505081526020016002820180546110b3906155f5565b80601f01602080910402602001604051908101604052809291908181526020018280546110df906155f5565b801561112c5780601f106111015761010080835404028352916020019161112c565b820191906000526020600020905b81548152906001019060200180831161110f57829003601f168201915b50505050508152602001600382018054611145906155f5565b80601f0160208091040260200160405190810160405280929190818152602001828054611171906155f5565b80156111be5780601f10611193576101008083540402835291602001916111be565b820191906000526020600020905b8154815290600101906020018083116111a157829003601f168201915b50505050508152505081526020019060010190610f5c565b5050505081526020016007820160009054906101000a900473ffffffffffffffffffffffffffffffffffffffff1673ffffffffffffffffffffffffffffffffffffffff1673ffffffffffffffffffffffffffffffffffffffff1681525050905080600001518a8481518110611274577f4e487b7100000000000000000000000000000000000000000000000000000000600052603260045260246000fd5b60200260200101818152505080602001518984815181106112be577f4e487b7100000000000000000000000000000000000000000000000000000000600052603260045260246000fd5b60200260200101819052508060400151888481518110611307577f4e487b7100000000000000000000000000000000000000000000000000000000600052603260045260246000fd5b60200260200101819052508060600151878481518110611350577f4e487b7100000000000000000000000000000000000000000000000000000000600052603260045260246000fd5b60200260200101819052508060800151868481518110611399577f4e487b7100000000000000000000000000000000000000000000000000000000600052603260045260246000fd5b60200260200101819052508060a001518584815181106113e2577f4e487b7100000000000000000000000000000000000000000000000000000000600052603260045260246000fd5b6020026020010181905250505080806113fa90615627565b915050610b95565b5050909192939495565b6000600660008373ffffffffffffffffffffffffffffffffffffffff1673ffffffffffffffffffffffffffffffffffffffff168152602001908152602001600020600601805490509050919050565b60008173ffffffffffffffffffffffffffffffffffffffff163373ffffffffffffffffffffffffffffffffffffffff1614156114cc576040517f08c379a00000000000000000000000000000000000000000000000000000000081526004016114c390615179565b60405180910390fd5b600a60003373ffffffffffffffffffffffffffffffffffffffff1673ffffffffffffffffffffffffffffffffffffffff16815260200190815260200160002060008373ffffffffffffffffffffffffffffffffffffffff1673ffffffffffffffffffffffffffffffffffffffff16815260200190815260200160002060009054906101000a900460ff16611595576040517f08c379a000000000000000000000000000000000000000000000000000000000815260040161158c90615219565b60405180910390fd5b6000600a60003373ffffffffffffffffffffffffffffffffffffffff1673ffffffffffffffffffffffffffffffffffffffff16815260200190815260200160002060008473ffffffffffffffffffffffffffffffffffffffff1673ffffffffffffffffffffffffffffffffffffffff16815260200190815260200160002060006101000a81548160ff02191690831515021790555060019050919050565b606080606080600860008773ffffffffffffffffffffffffffffffffffffffff1673ffffffffffffffffffffffffffffffffffffffff16815260200190815260200160002060009054906101000a900460ff166116c5576040517f08c379a00000000000000000000000000000000000000000000000000000000081526004016116bc90615259565b60405180910390fd5b600a60008773ffffffffffffffffffffffffffffffffffffffff1673ffffffffffffffffffffffffffffffffffffffff16815260200190815260200160002060003373ffffffffffffffffffffffffffffffffffffffff1673ffffffffffffffffffffffffffffffffffffffff16815260200190815260200160002060009054906101000a900460ff168061178557508573ffffffffffffffffffffffffffffffffffffffff163373ffffffffffffffffffffffffffffffffffffffff16145b15611bf357600660008773ffffffffffffffffffffffffffffffffffffffff1673ffffffffffffffffffffffffffffffffffffffff1681526020019081526020016000206006018581548110611804577f4e487b7100000000000000000000000000000000000000000000000000000000600052603260045260246000fd5b9060005260206000209060040201600001600660008873ffffffffffffffffffffffffffffffffffffffff1673ffffffffffffffffffffffffffffffffffffffff168152602001908152602001600020600601868154811061188f577f4e487b7100000000000000000000000000000000000000000000000000000000600052603260045260246000fd5b9060005260206000209060040201600101600660008973ffffffffffffffffffffffffffffffffffffffff1673ffffffffffffffffffffffffffffffffffffffff168152602001908152602001600020600601878154811061191a577f4e487b7100000000000000000000000000000000000000000000000000000000600052603260045260246000fd5b9060005260206000209060040201600201600660008a73ffffffffffffffffffffffffffffffffffffffff1673ffffffffffffffffffffffffffffffffffffffff16815260200190815260200160002060060188815481106119a5577f4e487b7100000000000000000000000000000000000000000000000000000000600052603260045260246000fd5b90600052602060002090600402016003018380546119c2906155f5565b80601f01602080910402602001604051908101604052809291908181526020018280546119ee906155f5565b8015611a3b5780601f10611a1057610100808354040283529160200191611a3b565b820191906000526020600020905b815481529060010190602001808311611a1e57829003601f168201915b50505050509350828054611a4e906155f5565b80601f0160208091040260200160405190810160405280929190818152602001828054611a7a906155f5565b8015611ac75780601f10611a9c57610100808354040283529160200191611ac7565b820191906000526020600020905b815481529060010190602001808311611aaa57829003601f168201915b50505050509250818054611ada906155f5565b80601f0160208091040260200160405190810160405280929190818152602001828054611b06906155f5565b8015611b535780601f10611b2857610100808354040283529160200191611b53565b820191906000526020600020905b815481529060010190602001808311611b3657829003601f168201915b50505050509150808054611b66906155f5565b80601f0160208091040260200160405190810160405280929190818152602001828054611b92906155f5565b8015611bdf5780601f10611bb457610100808354040283529160200191611bdf565b820191906000526020600020905b815481529060010190602001808311611bc257829003601f168201915b505050505090509350935093509350611c2e565b6040517f08c379a0000000000000000000000000000000000000000000000000000000008152600401611c25906151f9565b60405180910390fd5b92959194509250565b600960003373ffffffffffffffffffffffffffffffffffffffff1673ffffffffffffffffffffffffffffffffffffffff16815260200190815260200160002060009054906101000a900460ff1615611cc4576040517f08c379a0000000000000000000000000000000000000000000000000000000008152600401611cbb90615199565b60405180910390fd5b600560009054906101000a900473ffffffffffffffffffffffffffffffffffffffff1673ffffffffffffffffffffffffffffffffffffffff163373ffffffffffffffffffffffffffffffffffffffff161415611d55576040517f08c379a0000000000000000000000000000000000000000000000000000000008152600401611d4c90615159565b60405180910390fd5b6000855111611d6357600080fd5b6000845111611d7157600080fd5b6000835111611d7f57600080fd5b6000825111611d8d57600080fd5b60008111611d9a57600080fd5b60003390506003819080600181540180825580915050600190039060005260206000200160009091909190916101000a81548173ffffffffffffffffffffffffffffffffffffffff021916908373ffffffffffffffffffffffffffffffffffffffff16021790555060018054611e10919061550b565b6001819055506001600960008373ffffffffffffffffffffffffffffffffffffffff1673ffffffffffffffffffffffffffffffffffffffff16815260200190815260200160002060006101000a81548160ff02191690831515021790555085600760008373ffffffffffffffffffffffffffffffffffffffff1673ffffffffffffffffffffffffffffffffffffffff1681526020019081526020016000206001019080519060200190611ec49291906142d8565b5082600760008373ffffffffffffffffffffffffffffffffffffffff1673ffffffffffffffffffffffffffffffffffffffff1681526020019081526020016000206002019080519060200190611f1b9291906142d8565b5084600760008373ffffffffffffffffffffffffffffffffffffffff1673ffffffffffffffffffffffffffffffffffffffff1681526020019081526020016000206003019080519060200190611f729291906142d8565b5083600760008373ffffffffffffffffffffffffffffffffffffffff1673ffffffffffffffffffffffffffffffffffffffff1681526020019081526020016000206004019080519060200190611fc99291906142d8565b5080600760008373ffffffffffffffffffffffffffffffffffffffff1673ffffffffffffffffffffffffffffffffffffffff16815260200190815260200160002060050160006101000a81548173ffffffffffffffffffffffffffffffffffffffff021916908373ffffffffffffffffffffffffffffffffffffffff16021790555081600760008373ffffffffffffffffffffffffffffffffffffffff1673ffffffffffffffffffffffffffffffffffffffff168152602001908152602001600020600601819055506000600760008373ffffffffffffffffffffffffffffffffffffffff1673ffffffffffffffffffffffffffffffffffffffff16815260200190815260200160002060070160006101000a81548160ff02191690831515021790555060011515600b876040516121019190614e97565b9081526020016040518091039020600084815260200190815260200160002060009054906101000a900460ff1615151415612192576001600760008373ffffffffffffffffffffffffffffffffffffffff1673ffffffffffffffffffffffffffffffffffffffff16815260200190815260200160002060070160006101000a81548160ff0219169083151502179055505b505050505050565b6060600280548060200260200160405190810160405280929190818152602001828054801561221e57602002820191906000526020600020905b8160009054906101000a900473ffffffffffffffffffffffffffffffffffffffff1673ffffffffffffffffffffffffffffffffffffffff16815260200190600101908083116121d4575b5050505050905090565b60005481565b600860003373ffffffffffffffffffffffffffffffffffffffff1673ffffffffffffffffffffffffffffffffffffffff16815260200190815260200160002060009054906101000a900460ff16156122bb576040517f08c379a00000000000000000000000000000000000000000000000000000000081526004016122b290615139565b60405180910390fd5b60008551116122c957600080fd5b60008451116122d757600080fd5b60008351116122e557600080fd5b60008251116122f357600080fd5b600081511161230157600080fd5b6002339080600181540180825580915050600190039060005260206000200160009091909190916101000a81548173ffffffffffffffffffffffffffffffffffffffff021916908373ffffffffffffffffffffffffffffffffffffffff1602179055506001600054612373919061550b565b6000819055506001600860003373ffffffffffffffffffffffffffffffffffffffff1673ffffffffffffffffffffffffffffffffffffffff16815260200190815260200160002060006101000a81548160ff021916908315150217905550600054600660003373ffffffffffffffffffffffffffffffffffffffff1673ffffffffffffffffffffffffffffffffffffffff1681526020019081526020016000206000018190555084600660003373ffffffffffffffffffffffffffffffffffffffff1673ffffffffffffffffffffffffffffffffffffffff16815260200190815260200160002060010190805190602001906124709291906142d8565b5083600660003373ffffffffffffffffffffffffffffffffffffffff1673ffffffffffffffffffffffffffffffffffffffff16815260200190815260200160002060020190805190602001906124c79291906142d8565b5082600660003373ffffffffffffffffffffffffffffffffffffffff1673ffffffffffffffffffffffffffffffffffffffff168152602001908152602001600020600301908051906020019061251e9291906142d8565b5081600660003373ffffffffffffffffffffffffffffffffffffffff1673ffffffffffffffffffffffffffffffffffffffff16815260200190815260200160002060040190805190602001906125759291906142d8565b5080600660003373ffffffffffffffffffffffffffffffffffffffff1673ffffffffffffffffffffffffffffffffffffffff16815260200190815260200160002060050190805190602001906125cc9291906142d8565b5033600660003373ffffffffffffffffffffffffffffffffffffffff1673ffffffffffffffffffffffffffffffffffffffff16815260200190815260200160002060070160006101000a81548173ffffffffffffffffffffffffffffffffffffffff021916908373ffffffffffffffffffffffffffffffffffffffff1602179055505050505050565b6000606080606080600080600080600760008b73ffffffffffffffffffffffffffffffffffffffff1673ffffffffffffffffffffffffffffffffffffffff16815260200190815260200160002060405180610100016040529081600082015481526020016001820180546126c8906155f5565b80601f01602080910402602001604051908101604052809291908181526020018280546126f4906155f5565b80156127415780601f1061271657610100808354040283529160200191612741565b820191906000526020600020905b81548152906001019060200180831161272457829003601f168201915b5050505050815260200160028201805461275a906155f5565b80601f0160208091040260200160405190810160405280929190818152602001828054612786906155f5565b80156127d35780601f106127a8576101008083540402835291602001916127d3565b820191906000526020600020905b8154815290600101906020018083116127b657829003601f168201915b505050505081526020016003820180546127ec906155f5565b80601f0160208091040260200160405190810160405280929190818152602001828054612818906155f5565b80156128655780601f1061283a57610100808354040283529160200191612865565b820191906000526020600020905b81548152906001019060200180831161284857829003601f168201915b5050505050815260200160048201805461287e906155f5565b80601f01602080910402602001604051908101604052809291908181526020018280546128aa906155f5565b80156128f75780601f106128cc576101008083540402835291602001916128f7565b820191906000526020600020905b8154815290600101906020018083116128da57829003601f168201915b505050505081526020016005820160009054906101000a900473ffffffffffffffffffffffffffffffffffffffff1673ffffffffffffffffffffffffffffffffffffffff1673ffffffffffffffffffffffffffffffffffffffff168152602001600682015481526020016007820160009054906101000a900460ff1615151515815250509050806000015181602001518260400151836060015184608001518560a001518660e001518760c001519850985098509850985098509850985050919395975091939597565b6000600380549050905090565b6000600a60008473ffffffffffffffffffffffffffffffffffffffff1673ffffffffffffffffffffffffffffffffffffffff16815260200190815260200160002060008373ffffffffffffffffffffffffffffffffffffffff1673ffffffffffffffffffffffffffffffffffffffff16815260200190815260200160002060009054906101000a900460ff16905092915050565b600860008273ffffffffffffffffffffffffffffffffffffffff1673ffffffffffffffffffffffffffffffffffffffff16815260200190815260200160002060009054906101000a900460ff16612aee576040517f08c379a0000000000000000000000000000000000000000000000000000000008152600401612ae590615259565b60405180910390fd5b600a60008273ffffffffffffffffffffffffffffffffffffffff1673ffffffffffffffffffffffffffffffffffffffff16815260200190815260200160002060003373ffffffffffffffffffffffffffffffffffffffff1673ffffffffffffffffffffffffffffffffffffffff16815260200190815260200160002060009054906101000a900460ff1615612c8457600660008273ffffffffffffffffffffffffffffffffffffffff1673ffffffffffffffffffffffffffffffffffffffff16815260200190815260200160002060060160405180608001604052808781526020018681526020018581526020018481525090806001815401808255809150506001900390600052602060002090600402016000909190919091506000820151816000019080519060200190612c259291906142d8565b506020820151816001019080519060200190612c429291906142d8565b506040820151816002019080519060200190612c5f9291906142d8565b506060820151816003019080519060200190612c7c9291906142d8565b505050612cbf565b6040517f08c379a0000000000000000000000000000000000000000000000000000000008152600401612cb690615299565b60405180910390fd5b5050505050565b600060011515600960008473ffffffffffffffffffffffffffffffffffffffff1673ffffffffffffffffffffffffffffffffffffffff16815260200190815260200160002060009054906101000a900460ff1615151415612d2a5760009050612df0565b60011515600860008473ffffffffffffffffffffffffffffffffffffffff1673ffffffffffffffffffffffffffffffffffffffff16815260200190815260200160002060009054906101000a900460ff1615151415612d8c5760019050612df0565b600560009054906101000a900473ffffffffffffffffffffffffffffffffffffffff1673ffffffffffffffffffffffffffffffffffffffff168273ffffffffffffffffffffffffffffffffffffffff161415612deb5760029050612df0565b600390505b919050565b600560009054906101000a900473ffffffffffffffffffffffffffffffffffffffff1681565b60015481565b60048181548110612e3157600080fd5b906000526020600020016000915090505481565b600060048281548110612e81577f4e487b7100000000000000000000000000000000000000000000000000000000600052603260045260246000fd5b90600052602060002001549050919050565b600080600760008473ffffffffffffffffffffffffffffffffffffffff1673ffffffffffffffffffffffffffffffffffffffff1681526020019081526020016000206040518061010001604052908160008201548152602001600182018054612efb906155f5565b80601f0160208091040260200160405190810160405280929190818152602001828054612f27906155f5565b8015612f745780601f10612f4957610100808354040283529160200191612f74565b820191906000526020600020905b815481529060010190602001808311612f5757829003601f168201915b50505050508152602001600282018054612f8d906155f5565b80601f0160208091040260200160405190810160405280929190818152602001828054612fb9906155f5565b80156130065780601f10612fdb57610100808354040283529160200191613006565b820191906000526020600020905b815481529060010190602001808311612fe957829003601f168201915b5050505050815260200160038201805461301f906155f5565b80601f016020809104026020016040519081016040528092919081815260200182805461304b906155f5565b80156130985780601f1061306d57610100808354040283529160200191613098565b820191906000526020600020905b81548152906001019060200180831161307b57829003601f168201915b505050505081526020016004820180546130b1906155f5565b80601f01602080910402602001604051908101604052809291908181526020018280546130dd906155f5565b801561312a5780601f106130ff5761010080835404028352916020019161312a565b820191906000526020600020905b81548152906001019060200180831161310d57829003601f168201915b505050505081526020016005820160009054906101000a900473ffffffffffffffffffffffffffffffffffffffff1673ffffffffffffffffffffffffffffffffffffffff1673ffffffffffffffffffffffffffffffffffffffff168152602001600682015481526020016007820160009054906101000a900460ff1615151515815250509050600b81602001516040516131c49190614e97565b908152602001604051809103902060008260c00151815260200190815260200160002060009054906101000a900460ff16915050919050565b6000600480549050905090565b6060806060806060600860008773ffffffffffffffffffffffffffffffffffffffff1673ffffffffffffffffffffffffffffffffffffffff16815260200190815260200160002060009054906101000a900460ff1661329e576040517f08c379a0000000000000000000000000000000000000000000000000000000008152600401613295906151b9565b60405180910390fd5b6000600660008873ffffffffffffffffffffffffffffffffffffffff1673ffffffffffffffffffffffffffffffffffffffff1681526020019081526020016000206040518061010001604052908160008201548152602001600182018054613305906155f5565b80601f0160208091040260200160405190810160405280929190818152602001828054613331906155f5565b801561337e5780601f106133535761010080835404028352916020019161337e565b820191906000526020600020905b81548152906001019060200180831161336157829003601f168201915b50505050508152602001600282018054613397906155f5565b80601f01602080910402602001604051908101604052809291908181526020018280546133c3906155f5565b80156134105780601f106133e557610100808354040283529160200191613410565b820191906000526020600020905b8154815290600101906020018083116133f357829003601f168201915b50505050508152602001600382018054613429906155f5565b80601f0160208091040260200160405190810160405280929190818152602001828054613455906155f5565b80156134a25780601f10613477576101008083540402835291602001916134a2565b820191906000526020600020905b81548152906001019060200180831161348557829003601f168201915b505050505081526020016004820180546134bb906155f5565b80601f01602080910402602001604051908101604052809291908181526020018280546134e7906155f5565b80156135345780601f1061350957610100808354040283529160200191613534565b820191906000526020600020905b81548152906001019060200180831161351757829003601f168201915b5050505050815260200160058201805461354d906155f5565b80601f0160208091040260200160405190810160405280929190818152602001828054613579906155f5565b80156135c65780601f1061359b576101008083540402835291602001916135c6565b820191906000526020600020905b8154815290600101906020018083116135a957829003601f168201915b5050505050815260200160068201805480602002602001604051908101604052809291908181526020016000905b8282101561386e5783829060005260206000209060040201604051806080016040529081600082018054613627906155f5565b80601f0160208091040260200160405190810160405280929190818152602001828054613653906155f5565b80156136a05780601f10613675576101008083540402835291602001916136a0565b820191906000526020600020905b81548152906001019060200180831161368357829003601f168201915b505050505081526020016001820180546136b9906155f5565b80601f01602080910402602001604051908101604052809291908181526020018280546136e5906155f5565b80156137325780601f1061370757610100808354040283529160200191613732565b820191906000526020600020905b81548152906001019060200180831161371557829003601f168201915b5050505050815260200160028201805461374b906155f5565b80601f0160208091040260200160405190810160405280929190818152602001828054613777906155f5565b80156137c45780601f10613799576101008083540402835291602001916137c4565b820191906000526020600020905b8154815290600101906020018083116137a757829003601f168201915b505050505081526020016003820180546137dd906155f5565b80601f0160208091040260200160405190810160405280929190818152602001828054613809906155f5565b80156138565780601f1061382b57610100808354040283529160200191613856565b820191906000526020600020905b81548152906001019060200180831161383957829003601f168201915b505050505081525050815260200190600101906135f4565b5050505081526020016007820160009054906101000a900473ffffffffffffffffffffffffffffffffffffffff1673ffffffffffffffffffffffffffffffffffffffff1673ffffffffffffffffffffffffffffffffffffffff1681525050905080602001518160400151826060015183608001518460a00151955095509550955095505091939590929450565b606080606080606080606080600060038054905090508067ffffffffffffffff811115613951577f4e487b7100000000000000000000000000000000000000000000000000000000600052604160045260246000fd5b60405190808252806020026020018201604052801561397f5781602001602082028036833780820191505090505b5098508067ffffffffffffffff8111156139c2577f4e487b7100000000000000000000000000000000000000000000000000000000600052604160045260246000fd5b6040519080825280602002602001820160405280156139f557816020015b60608152602001906001900390816139e05790505b5097508067ffffffffffffffff811115613a38577f4e487b7100000000000000000000000000000000000000000000000000000000600052604160045260246000fd5b604051908082528060200260200182016040528015613a6b57816020015b6060815260200190600190039081613a565790505b5096508067ffffffffffffffff811115613aae577f4e487b7100000000000000000000000000000000000000000000000000000000600052604160045260246000fd5b604051908082528060200260200182016040528015613ae157816020015b6060815260200190600190039081613acc5790505b5095508067ffffffffffffffff811115613b24577f4e487b7100000000000000000000000000000000000000000000000000000000600052604160045260246000fd5b604051908082528060200260200182016040528015613b5757816020015b6060815260200190600190039081613b425790505b5094508067ffffffffffffffff811115613b9a577f4e487b7100000000000000000000000000000000000000000000000000000000600052604160045260246000fd5b604051908082528060200260200182016040528015613bc85781602001602082028036833780820191505090505b5093508067ffffffffffffffff811115613c0b577f4e487b7100000000000000000000000000000000000000000000000000000000600052604160045260246000fd5b604051908082528060200260200182016040528015613c395781602001602082028036833780820191505090505b5092508067ffffffffffffffff811115613c7c577f4e487b7100000000000000000000000000000000000000000000000000000000600052604160045260246000fd5b604051908082528060200260200182016040528015613caa5781602001602082028036833780820191505090505b50915060005b818110156142cc5760006007600060038481548110613cf8577f4e487b7100000000000000000000000000000000000000000000000000000000600052603260045260246000fd5b9060005260206000200160009054906101000a900473ffffffffffffffffffffffffffffffffffffffff1673ffffffffffffffffffffffffffffffffffffffff1673ffffffffffffffffffffffffffffffffffffffff1681526020019081526020016000206040518061010001604052908160008201548152602001600182018054613d83906155f5565b80601f0160208091040260200160405190810160405280929190818152602001828054613daf906155f5565b8015613dfc5780601f10613dd157610100808354040283529160200191613dfc565b820191906000526020600020905b815481529060010190602001808311613ddf57829003601f168201915b50505050508152602001600282018054613e15906155f5565b80601f0160208091040260200160405190810160405280929190818152602001828054613e41906155f5565b8015613e8e5780601f10613e6357610100808354040283529160200191613e8e565b820191906000526020600020905b815481529060010190602001808311613e7157829003601f168201915b50505050508152602001600382018054613ea7906155f5565b80601f0160208091040260200160405190810160405280929190818152602001828054613ed3906155f5565b8015613f205780601f10613ef557610100808354040283529160200191613f20565b820191906000526020600020905b815481529060010190602001808311613f0357829003601f168201915b50505050508152602001600482018054613f39906155f5565b80601f0160208091040260200160405190810160405280929190818152602001828054613f65906155f5565b8015613fb25780601f10613f8757610100808354040283529160200191613fb2565b820191906000526020600020905b815481529060010190602001808311613f9557829003601f168201915b505050505081526020016005820160009054906101000a900473ffffffffffffffffffffffffffffffffffffffff1673ffffffffffffffffffffffffffffffffffffffff1673ffffffffffffffffffffffffffffffffffffffff168152602001600682015481526020016007820160009054906101000a900460ff161515151581525050905080600001518b8381518110614076577f4e487b7100000000000000000000000000000000000000000000000000000000600052603260045260246000fd5b60200260200101818152505080602001518a83815181106140c0577f4e487b7100000000000000000000000000000000000000000000000000000000600052603260045260246000fd5b60200260200101819052508060400151898381518110614109577f4e487b7100000000000000000000000000000000000000000000000000000000600052603260045260246000fd5b60200260200101819052508060600151888381518110614152577f4e487b7100000000000000000000000000000000000000000000000000000000600052603260045260246000fd5b6020026020010181905250806080015187838151811061419b577f4e487b7100000000000000000000000000000000000000000000000000000000600052603260045260246000fd5b60200260200101819052508060a001518683815181106141e4577f4e487b7100000000000000000000000000000000000000000000000000000000600052603260045260246000fd5b602002602001019073ffffffffffffffffffffffffffffffffffffffff16908173ffffffffffffffffffffffffffffffffffffffff16815250508060e0015185838151811061425c577f4e487b7100000000000000000000000000000000000000000000000000000000600052603260045260246000fd5b6020026020010190151590811515815250508060c001518483815181106142ac577f4e487b7100000000000000000000000000000000000000000000000000000000600052603260045260246000fd5b6020026020010181815250505080806142c490615627565b915050613cb0565b50509091929394959697565b8280546142e4906155f5565b90600052602060002090601f016020900481019282614306576000855561434d565b82601f1061431f57805160ff191683800117855561434d565b8280016001018555821561434d579182015b8281111561434c578251825591602001919060010190614331565b5b50905061435a919061435e565b5090565b5b8082111561437757600081600090555060010161435f565b5090565b600061438e614389846153bf565b61538e565b9050828152602081018484840111156143a657600080fd5b6143b18482856155b3565b509392505050565b6000813590506143c88161570e565b92915050565b600082601f8301126143df57600080fd5b81356143ef84826020860161437b565b91505092915050565b60008135905061440781615725565b92915050565b60006020828403121561441f57600080fd5b600061442d848285016143b9565b91505092915050565b6000806040838503121561444957600080fd5b6000614457858286016143b9565b9250506020614468858286016143b9565b9150509250929050565b6000806040838503121561448557600080fd5b6000614493858286016143b9565b92505060206144a4858286016143f8565b9150509250929050565b600080600080600060a086880312156144c657600080fd5b600086013567ffffffffffffffff8111156144e057600080fd5b6144ec888289016143ce565b955050602086013567ffffffffffffffff81111561450957600080fd5b614515888289016143ce565b945050604086013567ffffffffffffffff81111561453257600080fd5b61453e888289016143ce565b935050606086013567ffffffffffffffff81111561455b57600080fd5b614567888289016143ce565b9250506080614578888289016143b9565b9150509295509295909350565b600080600080600060a0868803121561459d57600080fd5b600086013567ffffffffffffffff8111156145b757600080fd5b6145c3888289016143ce565b955050602086013567ffffffffffffffff8111156145e057600080fd5b6145ec888289016143ce565b945050604086013567ffffffffffffffff81111561460957600080fd5b614615888289016143ce565b935050606086013567ffffffffffffffff81111561463257600080fd5b61463e888289016143ce565b925050608086013567ffffffffffffffff81111561465b57600080fd5b614667888289016143ce565b9150509295509295909350565b600080600080600060a0868803121561468c57600080fd5b600086013567ffffffffffffffff8111156146a657600080fd5b6146b2888289016143ce565b955050602086013567ffffffffffffffff8111156146cf57600080fd5b6146db888289016143ce565b945050604086013567ffffffffffffffff8111156146f857600080fd5b614704888289016143ce565b935050606086013567ffffffffffffffff81111561472157600080fd5b61472d888289016143ce565b925050608061473e888289016143f8565b9150509295509295909350565b6000806040838503121561475e57600080fd5b600083013567ffffffffffffffff81111561477857600080fd5b614784858286016143ce565b9250506020614795858286016143f8565b9150509250929050565b6000602082840312156147b157600080fd5b60006147bf848285016143f8565b91505092915050565b60006147d48383614824565b60208301905092915050565b60006147ec83836149d1565b60208301905092915050565b600061480483836149fe565b905092915050565b60006148188383614e79565b60208301905092915050565b61482d81615561565b82525050565b61483c81615561565b82525050565b600061484d8261542f565b614857818561549a565b9350614862836153ef565b8060005b8381101561489357815161487a88826147c8565b975061488583615466565b925050600181019050614866565b5085935050505092915050565b60006148ab8261543a565b6148b581856154ab565b93506148c0836153ff565b8060005b838110156148f15781516148d888826147e0565b97506148e383615473565b9250506001810190506148c4565b5085935050505092915050565b600061490982615445565b61491381856154bc565b9350836020820285016149258561540f565b8060005b85811015614961578484038952815161494285826147f8565b945061494d83615480565b925060208a01995050600181019050614929565b50829750879550505050505092915050565b600061497e82615450565b61498881856154cd565b93506149938361541f565b8060005b838110156149c45781516149ab888261480c565b97506149b68361548d565b925050600181019050614997565b5085935050505092915050565b6149da81615573565b82525050565b6149e981615573565b82525050565b6149f88161557f565b82525050565b6000614a098261545b565b614a1381856154de565b9350614a238185602086016155c2565b614a2c816156fd565b840191505092915050565b6000614a428261545b565b614a4c81856154ef565b9350614a5c8185602086016155c2565b614a65816156fd565b840191505092915050565b6000614a7b8261545b565b614a858185615500565b9350614a958185602086016155c2565b80840191505092915050565b6000614aae601e836154ef565b91507f416c72656164792050617469656e74206163636f756e742065786973747300006000830152602082019050919050565b6000614aee6028836154ef565b91507f436f6e7472616374206f776e65722063616e6e6f74207265676973746572206160008301527f7320646f63746f720000000000000000000000000000000000000000000000006020830152604082019050919050565b6000614b546019836154ef565b91507f596f752063616e27742072656d6f766520796f757273656c66000000000000006000830152602082019050919050565b6000614b946012836154ef565b91507f416c7265616479205265676973746572656400000000000000000000000000006000830152602082019050919050565b6000614bd46026836154ef565b91507f4e6f2050617469656e747320666f756e642061742074686520676976656e206160008301527f64647265737300000000000000000000000000000000000000000000000000006020830152604082019050919050565b6000614c3a6018836154ef565b91507f4e6f74207265676973746572656420617320646f63746f7200000000000000006000830152602082019050919050565b6000614c7a6019836154ef565b91507f5265636f72642063616e6e6f74206265206163636573736564000000000000006000830152602082019050919050565b6000614cba601a836154ef565b91507f55736572206973206e6f7420617574686f72697a6564207965740000000000006000830152602082019050919050565b6000614cfa6017836154ef565b91507f596f752063616e6e6f742061646420796f757273656c660000000000000000006000830152602082019050919050565b6000614d3a6025836154ef565b91507f4e6f2070617469656e7420666f756e642061742074686520676976656e20616460008301527f64726573730000000000000000000000000000000000000000000000000000006020830152604082019050919050565b6000614da0601a836154ef565b91507f5573657220697320616c726561647920617574686f72697a65640000000000006000830152602082019050919050565b6000614de06017836154ef565b91507f5265636f72642063616e6e6f74206265206164646564200000000000000000006000830152602082019050919050565b6000614e206027836154ef565b91507f596f7520617265206e6f7420616c6c6f77656420746f2072656769737465722060008301527f646f63746f7221000000000000000000000000000000000000000000000000006020830152604082019050919050565b614e82816155a9565b82525050565b614e91816155a9565b82525050565b6000614ea38284614a70565b915081905092915050565b6000602082019050614ec36000830184614833565b92915050565b60006020820190508181036000830152614ee38184614842565b905092915050565b6000610100820190508181036000830152614f06818b614973565b90508181036020830152614f1a818a6148fe565b90508181036040830152614f2e81896148fe565b90508181036060830152614f4281886148fe565b90508181036080830152614f5681876148fe565b905081810360a0830152614f6a8186614842565b905081810360c0830152614f7e81856148a0565b905081810360e0830152614f928184614973565b90509998505050505050505050565b600060c0820190508181036000830152614fbb8189614973565b90508181036020830152614fcf81886148fe565b90508181036040830152614fe381876148fe565b90508181036060830152614ff781866148fe565b9050818103608083015261500b81856148fe565b905081810360a083015261501f81846148fe565b9050979650505050505050565b600060208201905061504160008301846149e0565b92915050565b600060208201905061505c60008301846149ef565b92915050565b6000608082019050818103600083015261507c8187614a37565b905081810360208301526150908186614a37565b905081810360408301526150a48185614a37565b905081810360608301526150b88184614a37565b905095945050505050565b600060a08201905081810360008301526150dd8188614a37565b905081810360208301526150f18187614a37565b905081810360408301526151058186614a37565b905081810360608301526151198185614a37565b9050818103608083015261512d8184614a37565b90509695505050505050565b6000602082019050818103600083015261515281614aa1565b9050919050565b6000602082019050818103600083015261517281614ae1565b9050919050565b6000602082019050818103600083015261519281614b47565b9050919050565b600060208201905081810360008301526151b281614b87565b9050919050565b600060208201905081810360008301526151d281614bc7565b9050919050565b600060208201905081810360008301526151f281614c2d565b9050919050565b6000602082019050818103600083015261521281614c6d565b9050919050565b6000602082019050818103600083015261523281614cad565b9050919050565b6000602082019050818103600083015261525281614ced565b9050919050565b6000602082019050818103600083015261527281614d2d565b9050919050565b6000602082019050818103600083015261529281614d93565b9050919050565b600060208201905081810360008301526152b281614dd3565b9050919050565b600060208201905081810360008301526152d281614e13565b9050919050565b60006020820190506152ee6000830184614e88565b92915050565b60006101008201905061530a600083018b614e88565b818103602083015261531c818a614a37565b905081810360408301526153308189614a37565b905081810360608301526153448188614a37565b905081810360808301526153588187614a37565b905061536760a0830186614833565b61537460c08301856149e0565b61538160e0830184614e88565b9998505050505050505050565b6000604051905081810181811067ffffffffffffffff821117156153b5576153b46156ce565b5b8060405250919050565b600067ffffffffffffffff8211156153da576153d96156ce565b5b601f19601f8301169050602081019050919050565b6000819050602082019050919050565b6000819050602082019050919050565b6000819050602082019050919050565b6000819050602082019050919050565b600081519050919050565b600081519050919050565b600081519050919050565b600081519050919050565b600081519050919050565b6000602082019050919050565b6000602082019050919050565b6000602082019050919050565b6000602082019050919050565b600082825260208201905092915050565b600082825260208201905092915050565b600082825260208201905092915050565b600082825260208201905092915050565b600082825260208201905092915050565b600082825260208201905092915050565b600081905092915050565b6000615516826155a9565b9150615521836155a9565b9250827fffffffffffffffffffffffffffffffffffffffffffffffffffffffffffffffff0382111561555657615555615670565b5b828201905092915050565b600061556c82615589565b9050919050565b60008115159050919050565b6000819050919050565b600073ffffffffffffffffffffffffffffffffffffffff82169050919050565b6000819050919050565b82818337600083830152505050565b60005b838110156155e05780820151818401526020810190506155c5565b838111156155ef576000848401525b50505050565b6000600282049050600182168061560d57607f821691505b602082108114156156215761562061569f565b5b50919050565b6000615632826155a9565b91507fffffffffffffffffffffffffffffffffffffffffffffffffffffffffffffffff82141561566557615664615670565b5b600182019050919050565b7f4e487b7100000000000000000000000000000000000000000000000000000000600052601160045260246000fd5b7f4e487b7100000000000000000000000000000000000000000000000000000000600052602260045260246000fd5b7f4e487b7100000000000000000000000000000000000000000000000000000000600052604160045260246000fd5b6000601f19601f8301169050919050565b61571781615561565b811461572257600080fd5b50565b61572e816155a9565b811461573957600080fd5b5056fea2646970667358221220bc2c58f845c3ffbbfd9db5422d7c465bfa939d0571323a2d9fe90b6829e1eeea64736f6c63430008000033",
  "immutableReferences": {},
  "source": "// SPDX-License-Identifier: MIT\r\n\r\npragma solidity >=0.4.22 <0.9.0;\r\n\r\ncontract meDossier{\r\n    \r\n    uint256 public pindex=0;\r\n    uint256 public dindex=0;\r\n    \r\n    struct Records {\r\n    string dname;\r\n    string reason;\r\n    string visitedDate;\r\n    string ipfs;\r\n    }\r\n\r\n    struct doctor {\r\n        uint256 id;\r\n        string name;\r\n        string contact;\r\n        string hname;\r\n        string faculty;\r\n        address addr;\r\n        uint256 licenseno;\r\n        bool isApproved;\r\n    }\r\n    \r\n    struct patient{\r\n        uint256 id;\r\n        string name;\r\n        string phone;\r\n        string gender;\r\n        string dob;\r\n        string bloodgroup;\r\n        Records[] records;\r\n        address addr;\r\n    }\r\n    address[] private patientList;\r\n    address[] public doctorList;\r\n    uint256 [] public registeredDoctorList;\r\n    address public  owner;\r\n\r\n    mapping(address=>patient) patients;\r\n    mapping(address=>doctor) doctors;\r\n    mapping(address=>bool) isPatient;\r\n    mapping(address=>bool) isDoctor;\r\n    mapping(address=>mapping(address=>bool)) Authorized;\r\n    mapping(string=>mapping(uint256=>bool)) Registered;\r\n    \r\n    \r\n    constructor() {\r\n        owner = msg.sender;\r\n        \r\n    }\r\n    \r\n     //identity the user \r\n     function user(address addr) public view returns (int success){\r\n        if(isDoctor[addr]==true){\r\n            return 0;\r\n        }\r\n        else if(isPatient[addr]==true){\r\n            return 1;\r\n        }\r\n        else if(addr==owner){\r\n            return 2;\r\n        }\r\n        else{\r\n            return 3;\r\n        }\r\n    }\r\n    \r\n    function getPatientList() public view returns (address[] memory) {\r\n    return patientList;\r\n    }\r\n\r\n\r\n    //Register the doctor by certain authority\r\n    function registerDoctor(string memory docname, uint256 license) public {\r\n        require(msg.sender==owner,\"You are not allowed to register doctor!\");\r\n        Registered[docname][license] = true;\r\n        registeredDoctorList.push(license);\r\n    \r\n    }\r\n\r\n    function isAuthorized(address pat,address client ) public view returns (bool success){\r\n        return Authorized[pat][client];\r\n    }\r\n    \r\n    //Check whether the doctor is registered or not\r\n     function isRegistered(address addr) public view returns (bool success){\r\n        doctor memory doc = doctors[addr];\r\n        return Registered[doc.name][doc.licenseno];\r\n    }\r\n    \r\n\r\n//Add terecords of the patient\r\n    function addRecord(string memory _dname,string memory _reason,string memory _visitedDate,string memory _ipfs, address addr) public{\r\n        require(isPatient[addr],\"No patient found at the given address\");\r\n        \r\n        if(Authorized[addr][msg.sender]){\r\n                patients[addr].records.push(Records(_dname,_reason,_visitedDate,_ipfs));\r\n        }\r\n        else \r\n        revert(\"Record cannot be added \");\r\n       \r\n       \r\n        // require(Authorized[addr][msg.sender],\"You do not have permission to add records!\");\r\n        // require(isPatient[addr],\"User Not registered\");\r\n        // patients[addr].records.push(Records(_dname,_reason,_visitedDate,_ipfs));\r\n    }\r\n    \r\n    //add the patient to the blockchain\r\n    function addPatient(string memory _name,string memory _phone,string memory _gender,string memory _dob,string memory _bloodgroup) public {\r\n        require(!isPatient[msg.sender],\"Already Patient account exists\");\r\n        require(bytes(_name).length>0);\r\n        require(bytes(_phone).length>0);\r\n        require(bytes(_gender).length>0);\r\n        require(bytes(_dob).length>0);\r\n        require(bytes(_bloodgroup).length>0);        \r\n        patientList.push(msg.sender);\r\n        pindex = pindex + 1;\r\n        isPatient[msg.sender]=true;\r\n        patients[msg.sender].id=pindex;\r\n        patients[msg.sender].name=_name;\r\n        patients[msg.sender].phone=_phone;\r\n        patients[msg.sender].gender=_gender;\r\n        patients[msg.sender].dob=_dob;\r\n        patients[msg.sender].bloodgroup=_bloodgroup;\r\n        patients[msg.sender].addr=msg.sender;\r\n        \r\n    }\r\n    \r\n    //get the details of the patients\r\n    function getPatientDetails(address _addr) public view returns(string memory _name,string memory _phone,string memory _gender,string memory _dob,string memory _bloodgroup){\r\n        require(isPatient[_addr],\"No Patients found at the given address\");\r\n        patient memory pat = patients[_addr];\r\n        return (pat.name,pat.phone,pat.gender,pat.dob,pat.bloodgroup);\r\n    }\r\n\r\n    function getAllPatients() public view returns (\r\n    uint256[] memory ids,\r\n    string[] memory names,\r\n    string[] memory phones,\r\n    string[] memory genders,\r\n    string[] memory dobs,\r\n    string[] memory bloodgroups\r\n    ) {\r\n        uint256 totalPatients = patientList.length;\r\n        ids = new uint256[](totalPatients);\r\n        names = new string[](totalPatients);\r\n        phones = new string[](totalPatients);\r\n        genders = new string[](totalPatients);\r\n        dobs = new string[](totalPatients);\r\n        bloodgroups = new string[](totalPatients);\r\n\r\n        for (uint256 i = 0; i < totalPatients; i++) {\r\n            address patientAddress = patientList[i];\r\n            patient memory pat = patients[patientAddress];\r\n\r\n            ids[i] = pat.id;\r\n            names[i] = pat.name;\r\n            phones[i] = pat.phone;\r\n            genders[i] = pat.gender;\r\n            dobs[i] = pat.dob;\r\n            bloodgroups[i] = pat.bloodgroup;\r\n        }\r\n    }\r\n  //get the length of records of particular address  \r\n     function getrecordlist(address _addr)  public view returns (uint256 ){  \r\n     return (patients[_addr].records.length);\r\n     }\r\n\r\n//get the length of doctor's added in blockchain\r\nfunction getdoctorlist() public view returns(uint256){\r\n        return doctorList.length;\r\n    }\r\n   \r\n   //get the length of registered doctor \r\nfunction getRegisteredDoctorslength() public view returns(uint256){\r\n        return registeredDoctorList.length;\r\n    }\r\n\r\n//\r\nfunction getRegisteredDoctorsList(uint256 id) public view returns(uint256 license){\r\n        return registeredDoctorList[id];\r\n    }\r\n    \r\n//get patients record \r\n    function getPatientRecords(address _addr, uint256 _id) public view \r\n    returns(string memory dname, string memory reason ,string memory visitedDate, string memory ipfs){\r\n        require(isPatient[_addr],\"No patient found at the given address\");\r\n        if(Authorized[_addr][msg.sender] || msg.sender == _addr){\r\n                return( patients[_addr].records[_id].dname,patients[_addr].records[_id].reason,\r\n                patients[_addr].records[_id].visitedDate,patients[_addr].records[_id].ipfs\r\n                    );\r\n        }\r\n        else \r\n        revert(\"Record cannot be accessed\");\r\n    }\r\n\r\n\r\n//add doctor \r\n    function addDoctor(string memory _name,string memory _hname,string memory _faculty,string memory _contact,uint256 license) public {\r\n        require(!isDoctor[msg.sender],\"Already Registered\");\r\n        require(msg.sender != owner,\"Contract owner cannot register as doctor\");\r\n        require(bytes(_name).length>0);\r\n        require(bytes(_hname).length>0);\r\n        require(bytes(_faculty).length>0);\r\n        require(bytes(_contact).length>0);\r\n        require(license>0);  \r\n        address _addr = msg.sender;\r\n        doctorList.push(_addr);\r\n\r\n        dindex = dindex + 1;\r\n        isDoctor[_addr]=true;\r\n        doctors[_addr].name = _name;\r\n        doctors[_addr].contact =_contact;\r\n        doctors[_addr].hname = _hname;\r\n        doctors[_addr].faculty =_faculty; \r\n        doctors[_addr].addr = _addr;\r\n        doctors[_addr].licenseno = license;\r\n        doctors[_addr].isApproved = false;\r\n        \r\n        if (Registered[_name][license] == true){\r\n            doctors[_addr].isApproved = true;\r\n        }\r\n    }\r\n\r\n\r\n    function getAllDoctors() public view returns (\r\n    uint256[] memory ids,\r\n    string[] memory names,\r\n    string[] memory contacts,\r\n    string[] memory hospitals,\r\n    string[] memory faculties,\r\n    address[] memory addresses,\r\n    bool[] memory approvals,\r\n    uint256[] memory licenses\r\n    ) {\r\n        uint256 doctorCount = doctorList.length;\r\n        \r\n        ids = new uint256[](doctorCount);\r\n        names = new string[](doctorCount);\r\n        contacts = new string[](doctorCount);\r\n        hospitals = new string[](doctorCount);\r\n        faculties = new string[](doctorCount);\r\n        addresses = new address[](doctorCount);\r\n        approvals = new bool[](doctorCount);\r\n        licenses = new uint256[](doctorCount);\r\n\r\n        for (uint256 i = 0; i < doctorCount; i++) {\r\n            doctor memory doc = doctors[doctorList[i]];\r\n            ids[i] = doc.id;\r\n            names[i] = doc.name;\r\n            contacts[i] = doc.contact;\r\n            hospitals[i] = doc.hname;\r\n            faculties[i] = doc.faculty;\r\n            addresses[i] = doc.addr;\r\n            approvals[i] = doc.isApproved;\r\n            licenses[i] = doc.licenseno;\r\n        }\r\n    }\r\n//get doctor's details  for verification\r\n    // function getDoctorbyLicense(uint256 license) public view returns(uint256 id, string memory name,string memory hospital, string memory _faculty,address addr,bool isApproved,uint256 licenseno){\r\n       \r\n    //      uint256 i=0;\r\n    //     for(i = 0;i<doctorList.length;i++){\r\n    //     if(doctors[doctorList[i]].licenseno==license){\r\n    //         break;\r\n    //     }\r\n    // }    \r\n    // doctor memory doc = doctors[doctorList[i]];\r\n    // require(isDoctor[doc.addr]==true,\"Doctor hasn't signed up in meDossier\");\r\n    //      require(doc.isApproved==true,\"Doctor is not approved\");\r\n        \r\n        \r\n    //     return (doc.id,doc.name,doc.hname,doc.faculty,doc.addr,doc.isApproved,doc.licenseno) ;\r\n       \r\n    // }\r\n    \r\n//  function getDoctorbyName(string memory _name) public view returns(uint256 id,string memory name , string memory contact ,string memory hname ,string memory faculty ,address addr , bool isApproved,uint256 licenseno)  {\r\n//         uint256 i=0;\r\n//         for(i = 0;i<doctorList.length;i++){\r\n//         if(keccak256(bytes(doctors[doctorList[i]].name)) == keccak256(bytes(_name))){\r\n//             break;\r\n//         }\r\n//     }    \r\n//         require(keccak256(bytes(doctors[doctorList[i]].name)) == keccak256(bytes(_name)),\"Doctor doesn't exists with the given name\");\r\n//         doctor memory doc = doctors[doctorList[i]];\r\n//         return (doc.id,doc.name,doc.contact,doc.hname,doc.faculty,doc.addr, doc.isApproved,doc.licenseno);\r\n//     }\r\n    \r\n\r\n function getDoctorByAddress(address _address) public view returns(uint256 id,string memory name , string memory contact ,string memory hname ,string memory faculty ,address addr , bool isApproved,uint256 licenseno) {\r\n        // require(doctors[_address].isApproved,\"Doctor is not Approved or doesn't exist\");\r\n        doctor memory doc = doctors[_address];\r\n        return (doc.id,doc.name,doc.contact,doc.hname,doc.faculty,doc.addr,doc.isApproved,doc.licenseno);\r\n    } \r\n    \r\n\r\n//Give access to certain address\r\n    function grantAccess(address _addr) public returns (bool success)\r\n    {   require(msg.sender != _addr,\"You cannot add yourself\");\r\n        require(isDoctor[_addr],\"Not registered as doctor\");\r\n        require(!Authorized[msg.sender][_addr],\"User is already authorized\");\r\n        Authorized[msg.sender][_addr] = true;\r\n        return true;\r\n    }\r\n\r\n//Revoke access of patient records from certain address\r\n      function revoke_access(address _addr)  public returns (bool success){\r\n        require(msg.sender!=_addr,\"You can't remove yourself\");\r\n        require(Authorized[msg.sender][_addr],\"User is not authorized yet\");\r\n        Authorized[msg.sender][_addr] = false;\r\n        return true;\r\n    }\r\n\r\n// function doctorLogin() public{\r\n//     if(Registered[doctors[msg.sender].name][doctors[msg.sender].licenseno] == true){\r\n//         doctors[msg.sender].isApproved = true;\r\n//     }\r\n// }\r\n\r\n}",
  "sourcePath": "D:\\AppBL\\App\\MedicalApp\\contracts\\MedicalApp.sol",
  "compiler": {
    "name": "solc",
    "version": "0.8.0+commit.c7dfd78e.Emscripten.clang"
  },
  "schemaVersion": "3.4.16",
  "updatedAt": "2024-12-31T15:30:31.236Z",
  "networkType": "ethereum",
  "devdoc": {
    "kind": "dev",
    "methods": {},
    "version": 1
  },
  "userdoc": {
    "kind": "user",
    "methods": {},
    "version": 1
  }
}