{
  "contractName": "PatientContract",
  "abi": [
    {
      "inputs": [],
      "name": "dindex",
      "outputs": [
        {
          "internalType": "uint256",
          "name": "",
          "type": "uint256"
        }
      ],
      "stateMutability": "view",
      "type": "function"
    },
    {
      "inputs": [],
      "name": "pindex",
      "outputs": [
        {
          "internalType": "uint256",
          "name": "",
          "type": "uint256"
        }
      ],
      "stateMutability": "view",
      "type": "function"
    },
    {
      "inputs": [],
      "name": "getPatientList",
      "outputs": [
        {
          "internalType": "address[]",
          "name": "",
          "type": "address[]"
        }
      ],
      "stateMutability": "view",
      "type": "function"
    },
    {
      "inputs": [
        {
          "internalType": "string",
          "name": "_name",
          "type": "string"
        },
        {
          "internalType": "string",
          "name": "_phone",
          "type": "string"
        },
        {
          "internalType": "string",
          "name": "_gender",
          "type": "string"
        },
        {
          "internalType": "string",
          "name": "_dob",
          "type": "string"
        },
        {
          "internalType": "string",
          "name": "_bloodgroup",
          "type": "string"
        }
      ],
      "name": "addPatient",
      "outputs": [],
      "stateMutability": "nonpayable",
      "type": "function"
    },
    {
      "inputs": [
        {
          "internalType": "address",
          "name": "_addr",
          "type": "address"
        }
      ],
      "name": "getPatientDetails",
      "outputs": [
        {
          "internalType": "string",
          "name": "_name",
          "type": "string"
        },
        {
          "internalType": "string",
          "name": "_phone",
          "type": "string"
        },
        {
          "internalType": "string",
          "name": "_gender",
          "type": "string"
        },
        {
          "internalType": "string",
          "name": "_dob",
          "type": "string"
        },
        {
          "internalType": "string",
          "name": "_bloodgroup",
          "type": "string"
        }
      ],
      "stateMutability": "view",
      "type": "function"
    },
    {
      "inputs": [],
      "name": "getAllPatients",
      "outputs": [
        {
          "internalType": "uint256[]",
          "name": "ids",
          "type": "uint256[]"
        },
        {
          "internalType": "address[]",
          "name": "addresses",
          "type": "address[]"
        },
        {
          "internalType": "string[]",
          "name": "names",
          "type": "string[]"
        },
        {
          "internalType": "string[]",
          "name": "phones",
          "type": "string[]"
        },
        {
          "internalType": "string[]",
          "name": "genders",
          "type": "string[]"
        },
        {
          "internalType": "string[]",
          "name": "dobs",
          "type": "string[]"
        },
        {
          "internalType": "string[]",
          "name": "bloodgroups",
          "type": "string[]"
        }
      ],
      "stateMutability": "view",
      "type": "function"
    },
    {
      "inputs": [
        {
          "internalType": "address",
          "name": "_addr",
          "type": "address"
        }
      ],
      "name": "getAllPatientRecords",
      "outputs": [
        {
          "internalType": "string[]",
          "name": "dnames",
          "type": "string[]"
        },
        {
          "internalType": "string[]",
          "name": "reasons",
          "type": "string[]"
        },
        {
          "internalType": "string[]",
          "name": "visitedDates",
          "type": "string[]"
        },
        {
          "internalType": "string[]",
          "name": "ipfsHashes",
          "type": "string[]"
        }
      ],
      "stateMutability": "view",
      "type": "function"
    },
    {
      "inputs": [
        {
          "internalType": "address",
          "name": "_addr",
          "type": "address"
        }
      ],
      "name": "grantAccess",
      "outputs": [
        {
          "internalType": "bool",
          "name": "success",
          "type": "bool"
        }
      ],
      "stateMutability": "nonpayable",
      "type": "function"
    }
  ],
  "bytecode": "0x608060405260008055600060015534801561001957600080fd5b50613079806100296000396000f3fe608060405234801561001057600080fd5b50600436106100885760003560e01c806356fa82171161005b57806356fa82171461011d578063928ed9da14610139578063cdfbfb5c14610157578063efe2ccc11461018a57610088565b80630ae5e7391461008d57806318a231a9146100bd578063503b1354146100e15780635658e43b146100ff575b600080fd5b6100a760048036038101906100a29190612564565b6101be565b6040516100b49190612b8e565b60405180910390f35b6100c5610423565b6040516100d89796959493929190612aee565b60405180910390f35b6100e9611057565b6040516100f69190612a6b565b60405180910390f35b6101076110e5565b6040516101149190612cdf565b60405180910390f35b6101376004803603810190610132919061258d565b6110eb565b005b610141611512565b60405161014e9190612cdf565b60405180910390f35b610171600480360381019061016c9190612564565b611518565b6040516101819493929190612a8d565b60405180910390f35b6101a4600480360381019061019f9190612564565b611d53565b6040516101b5959493929190612ba9565b60405180910390f35b60008173ffffffffffffffffffffffffffffffffffffffff163373ffffffffffffffffffffffffffffffffffffffff16141561022f576040517f08c379a000000000000000000000000000000000000000000000000000000000815260040161022690612c7f565b60405180910390fd5b600560008373ffffffffffffffffffffffffffffffffffffffff1673ffffffffffffffffffffffffffffffffffffffff16815260200190815260200160002060009054906101000a900460ff166102bb576040517f08c379a00000000000000000000000000000000000000000000000000000000081526004016102b290612c5f565b60405180910390fd5b600660003373ffffffffffffffffffffffffffffffffffffffff1673ffffffffffffffffffffffffffffffffffffffff16815260200190815260200160002060008373ffffffffffffffffffffffffffffffffffffffff1673ffffffffffffffffffffffffffffffffffffffff16815260200190815260200160002060009054906101000a900460ff1615610385576040517f08c379a000000000000000000000000000000000000000000000000000000000815260040161037c90612cbf565b60405180910390fd5b6001600660003373ffffffffffffffffffffffffffffffffffffffff1673ffffffffffffffffffffffffffffffffffffffff16815260200190815260200160002060008473ffffffffffffffffffffffffffffffffffffffff1673ffffffffffffffffffffffffffffffffffffffff16815260200190815260200160002060006101000a81548160ff02191690831515021790555060019050919050565b6060806060806060806060600060028054905090508067ffffffffffffffff811115610478577f4e487b7100000000000000000000000000000000000000000000000000000000600052604160045260246000fd5b6040519080825280602002602001820160405280156104a65781602001602082028036833780820191505090505b5097508067ffffffffffffffff8111156104e9577f4e487b7100000000000000000000000000000000000000000000000000000000600052604160045260246000fd5b6040519080825280602002602001820160405280156105175781602001602082028036833780820191505090505b5096508067ffffffffffffffff81111561055a577f4e487b7100000000000000000000000000000000000000000000000000000000600052604160045260246000fd5b60405190808252806020026020018201604052801561058d57816020015b60608152602001906001900390816105785790505b5095508067ffffffffffffffff8111156105d0577f4e487b7100000000000000000000000000000000000000000000000000000000600052604160045260246000fd5b60405190808252806020026020018201604052801561060357816020015b60608152602001906001900390816105ee5790505b5094508067ffffffffffffffff811115610646577f4e487b7100000000000000000000000000000000000000000000000000000000600052604160045260246000fd5b60405190808252806020026020018201604052801561067957816020015b60608152602001906001900390816106645790505b5093508067ffffffffffffffff8111156106bc577f4e487b7100000000000000000000000000000000000000000000000000000000600052604160045260246000fd5b6040519080825280602002602001820160405280156106ef57816020015b60608152602001906001900390816106da5790505b5092508067ffffffffffffffff811115610732577f4e487b7100000000000000000000000000000000000000000000000000000000600052604160045260246000fd5b60405190808252806020026020018201604052801561076557816020015b60608152602001906001900390816107505790505b50915060005b8181101561104c576000600282815481106107af577f4e487b7100000000000000000000000000000000000000000000000000000000600052603260045260246000fd5b9060005260206000200160009054906101000a900473ffffffffffffffffffffffffffffffffffffffff1690506000600360008373ffffffffffffffffffffffffffffffffffffffff1673ffffffffffffffffffffffffffffffffffffffff168152602001908152602001600020604051806101000160405290816000820154815260200160018201805461084390612f13565b80601f016020809104026020016040519081016040528092919081815260200182805461086f90612f13565b80156108bc5780601f10610891576101008083540402835291602001916108bc565b820191906000526020600020905b81548152906001019060200180831161089f57829003601f168201915b505050505081526020016002820180546108d590612f13565b80601f016020809104026020016040519081016040528092919081815260200182805461090190612f13565b801561094e5780601f106109235761010080835404028352916020019161094e565b820191906000526020600020905b81548152906001019060200180831161093157829003601f168201915b5050505050815260200160038201805461096790612f13565b80601f016020809104026020016040519081016040528092919081815260200182805461099390612f13565b80156109e05780601f106109b5576101008083540402835291602001916109e0565b820191906000526020600020905b8154815290600101906020018083116109c357829003601f168201915b505050505081526020016004820180546109f990612f13565b80601f0160208091040260200160405190810160405280929190818152602001828054610a2590612f13565b8015610a725780601f10610a4757610100808354040283529160200191610a72565b820191906000526020600020905b815481529060010190602001808311610a5557829003601f168201915b50505050508152602001600582018054610a8b90612f13565b80601f0160208091040260200160405190810160405280929190818152602001828054610ab790612f13565b8015610b045780601f10610ad957610100808354040283529160200191610b04565b820191906000526020600020905b815481529060010190602001808311610ae757829003601f168201915b5050505050815260200160068201805480602002602001604051908101604052809291908181526020016000905b82821015610dac5783829060005260206000209060040201604051806080016040529081600082018054610b6590612f13565b80601f0160208091040260200160405190810160405280929190818152602001828054610b9190612f13565b8015610bde5780601f10610bb357610100808354040283529160200191610bde565b820191906000526020600020905b815481529060010190602001808311610bc157829003601f168201915b50505050508152602001600182018054610bf790612f13565b80601f0160208091040260200160405190810160405280929190818152602001828054610c2390612f13565b8015610c705780601f10610c4557610100808354040283529160200191610c70565b820191906000526020600020905b815481529060010190602001808311610c5357829003601f168201915b50505050508152602001600282018054610c8990612f13565b80601f0160208091040260200160405190810160405280929190818152602001828054610cb590612f13565b8015610d025780601f10610cd757610100808354040283529160200191610d02565b820191906000526020600020905b815481529060010190602001808311610ce557829003601f168201915b50505050508152602001600382018054610d1b90612f13565b80601f0160208091040260200160405190810160405280929190818152602001828054610d4790612f13565b8015610d945780601f10610d6957610100808354040283529160200191610d94565b820191906000526020600020905b815481529060010190602001808311610d7757829003601f168201915b50505050508152505081526020019060010190610b32565b5050505081526020016007820160009054906101000a900473ffffffffffffffffffffffffffffffffffffffff1673ffffffffffffffffffffffffffffffffffffffff1673ffffffffffffffffffffffffffffffffffffffff1681525050905080600001518b8481518110610e4a577f4e487b7100000000000000000000000000000000000000000000000000000000600052603260045260246000fd5b602002602001018181525050818a8481518110610e90577f4e487b7100000000000000000000000000000000000000000000000000000000600052603260045260246000fd5b602002602001019073ffffffffffffffffffffffffffffffffffffffff16908173ffffffffffffffffffffffffffffffffffffffff16815250508060200151898481518110610f08577f4e487b7100000000000000000000000000000000000000000000000000000000600052603260045260246000fd5b60200260200101819052508060400151888481518110610f51577f4e487b7100000000000000000000000000000000000000000000000000000000600052603260045260246000fd5b60200260200101819052508060600151878481518110610f9a577f4e487b7100000000000000000000000000000000000000000000000000000000600052603260045260246000fd5b60200260200101819052508060800151868481518110610fe3577f4e487b7100000000000000000000000000000000000000000000000000000000600052603260045260246000fd5b60200260200101819052508060a0015185848151811061102c577f4e487b7100000000000000000000000000000000000000000000000000000000600052603260045260246000fd5b60200260200101819052505050808061104490612f45565b91505061076b565b505090919293949596565b606060028054806020026020016040519081016040528092919081815260200182805480156110db57602002820191906000526020600020905b8160009054906101000a900473ffffffffffffffffffffffffffffffffffffffff1673ffffffffffffffffffffffffffffffffffffffff1681526020019060010190808311611091575b5050505050905090565b60005481565b600460003373ffffffffffffffffffffffffffffffffffffffff1673ffffffffffffffffffffffffffffffffffffffff16815260200190815260200160002060009054906101000a900460ff1615611178576040517f08c379a000000000000000000000000000000000000000000000000000000000815260040161116f90612c1f565b60405180910390fd5b600085511161118657600080fd5b600084511161119457600080fd5b60008351116111a257600080fd5b60008251116111b057600080fd5b60008151116111be57600080fd5b6002339080600181540180825580915050600190039060005260206000200160009091909190916101000a81548173ffffffffffffffffffffffffffffffffffffffff021916908373ffffffffffffffffffffffffffffffffffffffff16021790555060016000546112309190612e33565b6000819055506001600460003373ffffffffffffffffffffffffffffffffffffffff1673ffffffffffffffffffffffffffffffffffffffff16815260200190815260200160002060006101000a81548160ff021916908315150217905550600054600360003373ffffffffffffffffffffffffffffffffffffffff1673ffffffffffffffffffffffffffffffffffffffff1681526020019081526020016000206000018190555084600360003373ffffffffffffffffffffffffffffffffffffffff1673ffffffffffffffffffffffffffffffffffffffff168152602001908152602001600020600101908051906020019061132d929190612444565b5083600360003373ffffffffffffffffffffffffffffffffffffffff1673ffffffffffffffffffffffffffffffffffffffff1681526020019081526020016000206002019080519060200190611384929190612444565b5082600360003373ffffffffffffffffffffffffffffffffffffffff1673ffffffffffffffffffffffffffffffffffffffff16815260200190815260200160002060030190805190602001906113db929190612444565b5081600360003373ffffffffffffffffffffffffffffffffffffffff1673ffffffffffffffffffffffffffffffffffffffff1681526020019081526020016000206004019080519060200190611432929190612444565b5080600360003373ffffffffffffffffffffffffffffffffffffffff1673ffffffffffffffffffffffffffffffffffffffff1681526020019081526020016000206005019080519060200190611489929190612444565b5033600360003373ffffffffffffffffffffffffffffffffffffffff1673ffffffffffffffffffffffffffffffffffffffff16815260200190815260200160002060070160006101000a81548173ffffffffffffffffffffffffffffffffffffffff021916908373ffffffffffffffffffffffffffffffffffffffff1602179055505050505050565b60015481565b606080606080600460008673ffffffffffffffffffffffffffffffffffffffff1673ffffffffffffffffffffffffffffffffffffffff16815260200190815260200160002060009054906101000a900460ff166115aa576040517f08c379a00000000000000000000000000000000000000000000000000000000081526004016115a190612c9f565b60405180910390fd5b6000600360008773ffffffffffffffffffffffffffffffffffffffff1673ffffffffffffffffffffffffffffffffffffffff1681526020019081526020016000206006018054905090508067ffffffffffffffff811115611634577f4e487b7100000000000000000000000000000000000000000000000000000000600052604160045260246000fd5b60405190808252806020026020018201604052801561166757816020015b60608152602001906001900390816116525790505b5094508067ffffffffffffffff8111156116aa577f4e487b7100000000000000000000000000000000000000000000000000000000600052604160045260246000fd5b6040519080825280602002602001820160405280156116dd57816020015b60608152602001906001900390816116c85790505b5093508067ffffffffffffffff811115611720577f4e487b7100000000000000000000000000000000000000000000000000000000600052604160045260246000fd5b60405190808252806020026020018201604052801561175357816020015b606081526020019060019003908161173e5790505b5092508067ffffffffffffffff811115611796577f4e487b7100000000000000000000000000000000000000000000000000000000600052604160045260246000fd5b6040519080825280602002602001820160405280156117c957816020015b60608152602001906001900390816117b45790505b50915060005b81811015611d4a57600360008873ffffffffffffffffffffffffffffffffffffffff1673ffffffffffffffffffffffffffffffffffffffff1681526020019081526020016000206006018181548110611851577f4e487b7100000000000000000000000000000000000000000000000000000000600052603260045260246000fd5b9060005260206000209060040201600001805461186d90612f13565b80601f016020809104026020016040519081016040528092919081815260200182805461189990612f13565b80156118e65780601f106118bb576101008083540402835291602001916118e6565b820191906000526020600020905b8154815290600101906020018083116118c957829003601f168201915b5050505050868281518110611924577f4e487b7100000000000000000000000000000000000000000000000000000000600052603260045260246000fd5b6020026020010181905250600360008873ffffffffffffffffffffffffffffffffffffffff1673ffffffffffffffffffffffffffffffffffffffff16815260200190815260200160002060060181815481106119a9577f4e487b7100000000000000000000000000000000000000000000000000000000600052603260045260246000fd5b906000526020600020906004020160010180546119c590612f13565b80601f01602080910402602001604051908101604052809291908181526020018280546119f190612f13565b8015611a3e5780601f10611a1357610100808354040283529160200191611a3e565b820191906000526020600020905b815481529060010190602001808311611a2157829003601f168201915b5050505050858281518110611a7c577f4e487b7100000000000000000000000000000000000000000000000000000000600052603260045260246000fd5b6020026020010181905250600360008873ffffffffffffffffffffffffffffffffffffffff1673ffffffffffffffffffffffffffffffffffffffff1681526020019081526020016000206006018181548110611b01577f4e487b7100000000000000000000000000000000000000000000000000000000600052603260045260246000fd5b90600052602060002090600402016002018054611b1d90612f13565b80601f0160208091040260200160405190810160405280929190818152602001828054611b4990612f13565b8015611b965780601f10611b6b57610100808354040283529160200191611b96565b820191906000526020600020905b815481529060010190602001808311611b7957829003601f168201915b5050505050848281518110611bd4577f4e487b7100000000000000000000000000000000000000000000000000000000600052603260045260246000fd5b6020026020010181905250600360008873ffffffffffffffffffffffffffffffffffffffff1673ffffffffffffffffffffffffffffffffffffffff1681526020019081526020016000206006018181548110611c59577f4e487b7100000000000000000000000000000000000000000000000000000000600052603260045260246000fd5b90600052602060002090600402016003018054611c7590612f13565b80601f0160208091040260200160405190810160405280929190818152602001828054611ca190612f13565b8015611cee5780601f10611cc357610100808354040283529160200191611cee565b820191906000526020600020905b815481529060010190602001808311611cd157829003601f168201915b5050505050838281518110611d2c577f4e487b7100000000000000000000000000000000000000000000000000000000600052603260045260246000fd5b60200260200101819052508080611d4290612f45565b9150506117cf565b50509193509193565b6060806060806060600460008773ffffffffffffffffffffffffffffffffffffffff1673ffffffffffffffffffffffffffffffffffffffff16815260200190815260200160002060009054906101000a900460ff16611de7576040517f08c379a0000000000000000000000000000000000000000000000000000000008152600401611dde90612c3f565b60405180910390fd5b6000600360008873ffffffffffffffffffffffffffffffffffffffff1673ffffffffffffffffffffffffffffffffffffffff1681526020019081526020016000206040518061010001604052908160008201548152602001600182018054611e4e90612f13565b80601f0160208091040260200160405190810160405280929190818152602001828054611e7a90612f13565b8015611ec75780601f10611e9c57610100808354040283529160200191611ec7565b820191906000526020600020905b815481529060010190602001808311611eaa57829003601f168201915b50505050508152602001600282018054611ee090612f13565b80601f0160208091040260200160405190810160405280929190818152602001828054611f0c90612f13565b8015611f595780601f10611f2e57610100808354040283529160200191611f59565b820191906000526020600020905b815481529060010190602001808311611f3c57829003601f168201915b50505050508152602001600382018054611f7290612f13565b80601f0160208091040260200160405190810160405280929190818152602001828054611f9e90612f13565b8015611feb5780601f10611fc057610100808354040283529160200191611feb565b820191906000526020600020905b815481529060010190602001808311611fce57829003601f168201915b5050505050815260200160048201805461200490612f13565b80601f016020809104026020016040519081016040528092919081815260200182805461203090612f13565b801561207d5780601f106120525761010080835404028352916020019161207d565b820191906000526020600020905b81548152906001019060200180831161206057829003601f168201915b5050505050815260200160058201805461209690612f13565b80601f01602080910402602001604051908101604052809291908181526020018280546120c290612f13565b801561210f5780601f106120e45761010080835404028352916020019161210f565b820191906000526020600020905b8154815290600101906020018083116120f257829003601f168201915b5050505050815260200160068201805480602002602001604051908101604052809291908181526020016000905b828210156123b7578382906000526020600020906004020160405180608001604052908160008201805461217090612f13565b80601f016020809104026020016040519081016040528092919081815260200182805461219c90612f13565b80156121e95780601f106121be576101008083540402835291602001916121e9565b820191906000526020600020905b8154815290600101906020018083116121cc57829003601f168201915b5050505050815260200160018201805461220290612f13565b80601f016020809104026020016040519081016040528092919081815260200182805461222e90612f13565b801561227b5780601f106122505761010080835404028352916020019161227b565b820191906000526020600020905b81548152906001019060200180831161225e57829003601f168201915b5050505050815260200160028201805461229490612f13565b80601f01602080910402602001604051908101604052809291908181526020018280546122c090612f13565b801561230d5780601f106122e25761010080835404028352916020019161230d565b820191906000526020600020905b8154815290600101906020018083116122f057829003601f168201915b5050505050815260200160038201805461232690612f13565b80601f016020809104026020016040519081016040528092919081815260200182805461235290612f13565b801561239f5780601f106123745761010080835404028352916020019161239f565b820191906000526020600020905b81548152906001019060200180831161238257829003601f168201915b5050505050815250508152602001906001019061213d565b5050505081526020016007820160009054906101000a900473ffffffffffffffffffffffffffffffffffffffff1673ffffffffffffffffffffffffffffffffffffffff1673ffffffffffffffffffffffffffffffffffffffff1681525050905080602001518160400151826060015183608001518460a00151955095509550955095505091939590929450565b82805461245090612f13565b90600052602060002090601f01602090048101928261247257600085556124b9565b82601f1061248b57805160ff19168380011785556124b9565b828001600101855582156124b9579182015b828111156124b857825182559160200191906001019061249d565b5b5090506124c691906124ca565b5090565b5b808211156124e35760008160009055506001016124cb565b5090565b60006124fa6124f584612d2b565b612cfa565b90508281526020810184848401111561251257600080fd5b61251d848285612ed1565b509392505050565b6000813590506125348161302c565b92915050565b600082601f83011261254b57600080fd5b813561255b8482602086016124e7565b91505092915050565b60006020828403121561257657600080fd5b600061258484828501612525565b91505092915050565b600080600080600060a086880312156125a557600080fd5b600086013567ffffffffffffffff8111156125bf57600080fd5b6125cb8882890161253a565b955050602086013567ffffffffffffffff8111156125e857600080fd5b6125f48882890161253a565b945050604086013567ffffffffffffffff81111561261157600080fd5b61261d8882890161253a565b935050606086013567ffffffffffffffff81111561263a57600080fd5b6126468882890161253a565b925050608086013567ffffffffffffffff81111561266357600080fd5b61266f8882890161253a565b9150509295509295909350565b600061268883836126c0565b60208301905092915050565b60006126a0838361280f565b905092915050565b60006126b48383612a4d565b60208301905092915050565b6126c981612e89565b82525050565b60006126da82612d8b565b6126e48185612dde565b93506126ef83612d5b565b8060005b83811015612720578151612707888261267c565b975061271283612db7565b9250506001810190506126f3565b5085935050505092915050565b600061273882612d96565b6127428185612def565b93508360208202850161275485612d6b565b8060005b8581101561279057848403895281516127718582612694565b945061277c83612dc4565b925060208a01995050600181019050612758565b50829750879550505050505092915050565b60006127ad82612da1565b6127b78185612e00565b93506127c283612d7b565b8060005b838110156127f35781516127da88826126a8565b97506127e583612dd1565b9250506001810190506127c6565b5085935050505092915050565b61280981612e9b565b82525050565b600061281a82612dac565b6128248185612e11565b9350612834818560208601612ee0565b61283d8161301b565b840191505092915050565b600061285382612dac565b61285d8185612e22565b935061286d818560208601612ee0565b6128768161301b565b840191505092915050565b600061288e601e83612e22565b91507f416c72656164792050617469656e74206163636f756e742065786973747300006000830152602082019050919050565b60006128ce602683612e22565b91507f4e6f2050617469656e747320666f756e642061742074686520676976656e206160008301527f64647265737300000000000000000000000000000000000000000000000000006020830152604082019050919050565b6000612934601883612e22565b91507f4e6f74207265676973746572656420617320646f63746f7200000000000000006000830152602082019050919050565b6000612974601783612e22565b91507f596f752063616e6e6f742061646420796f757273656c660000000000000000006000830152602082019050919050565b60006129b4602583612e22565b91507f4e6f2070617469656e7420666f756e642061742074686520676976656e20616460008301527f64726573730000000000000000000000000000000000000000000000000000006020830152604082019050919050565b6000612a1a601a83612e22565b91507f5573657220697320616c726561647920617574686f72697a65640000000000006000830152602082019050919050565b612a5681612ec7565b82525050565b612a6581612ec7565b82525050565b60006020820190508181036000830152612a8581846126cf565b905092915050565b60006080820190508181036000830152612aa7818761272d565b90508181036020830152612abb818661272d565b90508181036040830152612acf818561272d565b90508181036060830152612ae3818461272d565b905095945050505050565b600060e0820190508181036000830152612b08818a6127a2565b90508181036020830152612b1c81896126cf565b90508181036040830152612b30818861272d565b90508181036060830152612b44818761272d565b90508181036080830152612b58818661272d565b905081810360a0830152612b6c818561272d565b905081810360c0830152612b80818461272d565b905098975050505050505050565b6000602082019050612ba36000830184612800565b92915050565b600060a0820190508181036000830152612bc38188612848565b90508181036020830152612bd78187612848565b90508181036040830152612beb8186612848565b90508181036060830152612bff8185612848565b90508181036080830152612c138184612848565b90509695505050505050565b60006020820190508181036000830152612c3881612881565b9050919050565b60006020820190508181036000830152612c58816128c1565b9050919050565b60006020820190508181036000830152612c7881612927565b9050919050565b60006020820190508181036000830152612c9881612967565b9050919050565b60006020820190508181036000830152612cb8816129a7565b9050919050565b60006020820190508181036000830152612cd881612a0d565b9050919050565b6000602082019050612cf46000830184612a5c565b92915050565b6000604051905081810181811067ffffffffffffffff82111715612d2157612d20612fec565b5b8060405250919050565b600067ffffffffffffffff821115612d4657612d45612fec565b5b601f19601f8301169050602081019050919050565b6000819050602082019050919050565b6000819050602082019050919050565b6000819050602082019050919050565b600081519050919050565b600081519050919050565b600081519050919050565b600081519050919050565b6000602082019050919050565b6000602082019050919050565b6000602082019050919050565b600082825260208201905092915050565b600082825260208201905092915050565b600082825260208201905092915050565b600082825260208201905092915050565b600082825260208201905092915050565b6000612e3e82612ec7565b9150612e4983612ec7565b9250827fffffffffffffffffffffffffffffffffffffffffffffffffffffffffffffffff03821115612e7e57612e7d612f8e565b5b828201905092915050565b6000612e9482612ea7565b9050919050565b60008115159050919050565b600073ffffffffffffffffffffffffffffffffffffffff82169050919050565b6000819050919050565b82818337600083830152505050565b60005b83811015612efe578082015181840152602081019050612ee3565b83811115612f0d576000848401525b50505050565b60006002820490506001821680612f2b57607f821691505b60208210811415612f3f57612f3e612fbd565b5b50919050565b6000612f5082612ec7565b91507fffffffffffffffffffffffffffffffffffffffffffffffffffffffffffffffff821415612f8357612f82612f8e565b5b600182019050919050565b7f4e487b7100000000000000000000000000000000000000000000000000000000600052601160045260246000fd5b7f4e487b7100000000000000000000000000000000000000000000000000000000600052602260045260246000fd5b7f4e487b7100000000000000000000000000000000000000000000000000000000600052604160045260246000fd5b6000601f19601f8301169050919050565b61303581612e89565b811461304057600080fd5b5056fea264697066735822122070fe42265b0fb2e62c0d2342d3f36d2edef3e5afe5cbdbe1784b47faed9e4f2c64736f6c63430008000033",
  "immutableReferences": {},
  "source": "// SPDX-License-Identifier: MIT\n\npragma solidity >=0.4.22 <0.9.0;\n\ncontract PatientContract{\n    \n    uint256 public pindex=0;\n    uint256 public dindex=0;\n    \n    struct Records {\n    string dname;\n    string reason;\n    string visitedDate;\n    string ipfs;\n    }\n    \n    struct patient{\n        uint256 id;\n        string name;\n        string phone;\n        string gender;\n        string dob;\n        string bloodgroup;\n        Records[] records;\n        address addr;\n    }\n    address[] private patientList;\n\n    mapping(address=>patient) patients;\n    mapping(address=>bool) isPatient;\n    mapping(address=>bool) isDoctor;\n    mapping(address=>mapping(address=>bool)) Authorized;\n    mapping(string=>mapping(uint256=>bool)) Registered;\n    \n    \n    function getPatientList() public view returns (address[] memory) {\n    return patientList;\n    }\n    \n    \n    //add the patient to the blockchain\n    function addPatient(string memory _name,string memory _phone,string memory _gender,string memory _dob,string memory _bloodgroup) public {\n        require(!isPatient[msg.sender],\"Already Patient account exists\");\n        require(bytes(_name).length>0);\n        require(bytes(_phone).length>0);\n        require(bytes(_gender).length>0);\n        require(bytes(_dob).length>0);\n        require(bytes(_bloodgroup).length>0);        \n        patientList.push(msg.sender);\n        pindex = pindex + 1;\n        isPatient[msg.sender]=true;\n        patients[msg.sender].id=pindex;\n        patients[msg.sender].name=_name;\n        patients[msg.sender].phone=_phone;\n        patients[msg.sender].gender=_gender;\n        patients[msg.sender].dob=_dob;\n        patients[msg.sender].bloodgroup=_bloodgroup;\n        patients[msg.sender].addr=msg.sender;\n        \n    }\n    \n    //get the details of the patients\n    function getPatientDetails(address _addr) public view returns(string memory _name,string memory _phone,string memory _gender,string memory _dob,string memory _bloodgroup){\n        require(isPatient[_addr],\"No Patients found at the given address\");\n        patient memory pat = patients[_addr];\n        return (pat.name,pat.phone,pat.gender,pat.dob,pat.bloodgroup);\n    }\n\nfunction getAllPatients() public view returns (\n    uint256[] memory ids,\n    address[] memory addresses,\n    string[] memory names,\n    string[] memory phones,\n    string[] memory genders,\n    string[] memory dobs,\n    string[] memory bloodgroups\n) {\n    uint256 totalPatients = patientList.length;\n    ids = new uint256[](totalPatients);\n    addresses = new address[](totalPatients);\n    names = new string[](totalPatients);\n    phones = new string[](totalPatients);\n    genders = new string[](totalPatients);\n    dobs = new string[](totalPatients);\n    bloodgroups = new string[](totalPatients);\n\n    for (uint256 i = 0; i < totalPatients; i++) {\n        address patientAddress = patientList[i];\n        patient memory pat = patients[patientAddress];\n\n        ids[i] = pat.id;\n        addresses[i] = patientAddress;\n        names[i] = pat.name;\n        phones[i] = pat.phone;\n        genders[i] = pat.gender;\n        dobs[i] = pat.dob;\n        bloodgroups[i] = pat.bloodgroup;\n    }\n}\n\n    \n//get patients record \nfunction getAllPatientRecords(address _addr) \n    public view \n    returns(\n        string[] memory dnames, \n        string[] memory reasons, \n        string[] memory visitedDates, \n        string[] memory ipfsHashes\n    ) \n{\n    require(isPatient[_addr], \"No patient found at the given address\");\n    // require(Authorized[_addr][msg.sender] || msg.sender == _addr, \"Record cannot be accessed\");\n\n    uint256 recordCount = patients[_addr].records.length;\n    dnames = new string[](recordCount);\n    reasons = new string[](recordCount);\n    visitedDates = new string[](recordCount);\n    ipfsHashes = new string[](recordCount);\n\n    for (uint256 i = 0; i < recordCount; i++) {\n        dnames[i] = patients[_addr].records[i].dname;\n        reasons[i] = patients[_addr].records[i].reason;\n        visitedDates[i] = patients[_addr].records[i].visitedDate;\n        ipfsHashes[i] = patients[_addr].records[i].ipfs;\n    }\n}\n\n\n//Give access to certain address\n    function grantAccess(address _addr) public returns (bool success)\n    {   require(msg.sender != _addr,\"You cannot add yourself\");\n        require(isDoctor[_addr],\"Not registered as doctor\");\n        require(!Authorized[msg.sender][_addr],\"User is already authorized\");\n        Authorized[msg.sender][_addr] = true;\n        return true;\n    }\n\n}",
  "sourcePath": "/Volumes/data/workspace/MedicalApp/contracts/patient.sol",
  "compiler": {
    "name": "solc",
    "version": "0.8.0+commit.c7dfd78e.Emscripten.clang"
  },
  "schemaVersion": "3.4.16",
  "updatedAt": "2025-01-01T02:42:03.871Z",
  "devdoc": {
    "kind": "dev",
    "methods": {},
    "version": 1
  },
  "userdoc": {
    "kind": "user",
    "methods": {},
    "version": 1
  }
}