{
  "contractName": "PatientContract",
  "abi": [
    {
      "inputs": [],
      "name": "dindex",
      "outputs": [
        {
          "internalType": "uint256",
          "name": "",
          "type": "uint256"
        }
      ],
      "stateMutability": "view",
      "type": "function"
    },
    {
      "inputs": [],
      "name": "pindex",
      "outputs": [
        {
          "internalType": "uint256",
          "name": "",
          "type": "uint256"
        }
      ],
      "stateMutability": "view",
      "type": "function"
    },
    {
      "inputs": [],
      "name": "getPatientList",
      "outputs": [
        {
          "internalType": "address[]",
          "name": "",
          "type": "address[]"
        }
      ],
      "stateMutability": "view",
      "type": "function"
    },
    {
      "inputs": [
        {
          "internalType": "string",
          "name": "_name",
          "type": "string"
        },
        {
          "internalType": "string",
          "name": "_phone",
          "type": "string"
        },
        {
          "internalType": "string",
          "name": "_gender",
          "type": "string"
        },
        {
          "internalType": "string",
          "name": "_dob",
          "type": "string"
        },
        {
          "internalType": "string",
          "name": "_bloodgroup",
          "type": "string"
        }
      ],
      "name": "addPatient",
      "outputs": [],
      "stateMutability": "nonpayable",
      "type": "function"
    },
    {
      "inputs": [
        {
          "internalType": "address",
          "name": "_addr",
          "type": "address"
        }
      ],
      "name": "getPatientDetails",
      "outputs": [
        {
          "internalType": "string",
          "name": "_name",
          "type": "string"
        },
        {
          "internalType": "string",
          "name": "_phone",
          "type": "string"
        },
        {
          "internalType": "string",
          "name": "_gender",
          "type": "string"
        },
        {
          "internalType": "string",
          "name": "_dob",
          "type": "string"
        },
        {
          "internalType": "string",
          "name": "_bloodgroup",
          "type": "string"
        }
      ],
      "stateMutability": "view",
      "type": "function"
    },
    {
      "inputs": [],
      "name": "getAllPatients",
      "outputs": [
        {
          "internalType": "uint256[]",
          "name": "ids",
          "type": "uint256[]"
        },
        {
          "internalType": "address[]",
          "name": "addresses",
          "type": "address[]"
        },
        {
          "internalType": "string[]",
          "name": "names",
          "type": "string[]"
        },
        {
          "internalType": "string[]",
          "name": "phones",
          "type": "string[]"
        },
        {
          "internalType": "string[]",
          "name": "genders",
          "type": "string[]"
        },
        {
          "internalType": "string[]",
          "name": "dobs",
          "type": "string[]"
        },
        {
          "internalType": "string[]",
          "name": "bloodgroups",
          "type": "string[]"
        }
      ],
      "stateMutability": "view",
      "type": "function"
    },
    {
      "inputs": [
        {
          "internalType": "address",
          "name": "_addr",
          "type": "address"
        }
      ],
      "name": "getAllPatientRecords",
      "outputs": [
        {
          "internalType": "string[]",
          "name": "dnames",
          "type": "string[]"
        },
        {
          "internalType": "string[]",
          "name": "reasons",
          "type": "string[]"
        },
        {
          "internalType": "string[]",
          "name": "visitedDates",
          "type": "string[]"
        },
        {
          "internalType": "string[]",
          "name": "ipfsHashes",
          "type": "string[]"
        }
      ],
      "stateMutability": "view",
      "type": "function"
    },
    {
      "inputs": [
        {
          "internalType": "address",
          "name": "_addr",
          "type": "address"
        }
      ],
      "name": "grantAccess",
      "outputs": [
        {
          "internalType": "bool",
          "name": "success",
          "type": "bool"
        }
      ],
      "stateMutability": "nonpayable",
      "type": "function"
    },
    {
      "inputs": [
        {
          "internalType": "address",
          "name": "_addr",
          "type": "address"
        }
      ],
      "name": "revoke_access",
      "outputs": [
        {
          "internalType": "bool",
          "name": "success",
          "type": "bool"
        }
      ],
      "stateMutability": "nonpayable",
      "type": "function"
    }
  ],
  "bytecode": "0x608060405260008055600060015534801561001957600080fd5b5061334c806100296000396000f3fe608060405234801561001057600080fd5b50600436106100935760003560e01c80635658e43b116100665780635658e43b1461013a57806356fa821714610158578063928ed9da14610174578063cdfbfb5c14610192578063efe2ccc1146101c557610093565b80630ae5e7391461009857806318a231a9146100c857806327b1dcee146100ec578063503b13541461011c575b600080fd5b6100b260048036038101906100ad9190612777565b6101f9565b6040516100bf9190612e21565b60405180910390f35b6100d061045e565b6040516100e39796959493929190612d81565b60405180910390f35b61010660048036038101906101019190612777565b611092565b6040516101139190612e21565b60405180910390f35b61012461126a565b6040516101319190612cfe565b60405180910390f35b6101426112f8565b60405161014f9190612fb2565b60405180910390f35b610172600480360381019061016d91906127a0565b6112fe565b005b61017c611725565b6040516101899190612fb2565b60405180910390f35b6101ac60048036038101906101a79190612777565b61172b565b6040516101bc9493929190612d20565b60405180910390f35b6101df60048036038101906101da9190612777565b611f66565b6040516101f0959493929190612e3c565b60405180910390f35b60008173ffffffffffffffffffffffffffffffffffffffff163373ffffffffffffffffffffffffffffffffffffffff16141561026a576040517f08c379a000000000000000000000000000000000000000000000000000000000815260040161026190612f52565b60405180910390fd5b600560008373ffffffffffffffffffffffffffffffffffffffff1673ffffffffffffffffffffffffffffffffffffffff16815260200190815260200160002060009054906101000a900460ff166102f6576040517f08c379a00000000000000000000000000000000000000000000000000000000081526004016102ed90612f12565b60405180910390fd5b600660003373ffffffffffffffffffffffffffffffffffffffff1673ffffffffffffffffffffffffffffffffffffffff16815260200190815260200160002060008373ffffffffffffffffffffffffffffffffffffffff1673ffffffffffffffffffffffffffffffffffffffff16815260200190815260200160002060009054906101000a900460ff16156103c0576040517f08c379a00000000000000000000000000000000000000000000000000000000081526004016103b790612f92565b60405180910390fd5b6001600660003373ffffffffffffffffffffffffffffffffffffffff1673ffffffffffffffffffffffffffffffffffffffff16815260200190815260200160002060008473ffffffffffffffffffffffffffffffffffffffff1673ffffffffffffffffffffffffffffffffffffffff16815260200190815260200160002060006101000a81548160ff02191690831515021790555060019050919050565b6060806060806060806060600060028054905090508067ffffffffffffffff8111156104b3577f4e487b7100000000000000000000000000000000000000000000000000000000600052604160045260246000fd5b6040519080825280602002602001820160405280156104e15781602001602082028036833780820191505090505b5097508067ffffffffffffffff811115610524577f4e487b7100000000000000000000000000000000000000000000000000000000600052604160045260246000fd5b6040519080825280602002602001820160405280156105525781602001602082028036833780820191505090505b5096508067ffffffffffffffff811115610595577f4e487b7100000000000000000000000000000000000000000000000000000000600052604160045260246000fd5b6040519080825280602002602001820160405280156105c857816020015b60608152602001906001900390816105b35790505b5095508067ffffffffffffffff81111561060b577f4e487b7100000000000000000000000000000000000000000000000000000000600052604160045260246000fd5b60405190808252806020026020018201604052801561063e57816020015b60608152602001906001900390816106295790505b5094508067ffffffffffffffff811115610681577f4e487b7100000000000000000000000000000000000000000000000000000000600052604160045260246000fd5b6040519080825280602002602001820160405280156106b457816020015b606081526020019060019003908161069f5790505b5093508067ffffffffffffffff8111156106f7577f4e487b7100000000000000000000000000000000000000000000000000000000600052604160045260246000fd5b60405190808252806020026020018201604052801561072a57816020015b60608152602001906001900390816107155790505b5092508067ffffffffffffffff81111561076d577f4e487b7100000000000000000000000000000000000000000000000000000000600052604160045260246000fd5b6040519080825280602002602001820160405280156107a057816020015b606081526020019060019003908161078b5790505b50915060005b81811015611087576000600282815481106107ea577f4e487b7100000000000000000000000000000000000000000000000000000000600052603260045260246000fd5b9060005260206000200160009054906101000a900473ffffffffffffffffffffffffffffffffffffffff1690506000600360008373ffffffffffffffffffffffffffffffffffffffff1673ffffffffffffffffffffffffffffffffffffffff168152602001908152602001600020604051806101000160405290816000820154815260200160018201805461087e906131e6565b80601f01602080910402602001604051908101604052809291908181526020018280546108aa906131e6565b80156108f75780601f106108cc576101008083540402835291602001916108f7565b820191906000526020600020905b8154815290600101906020018083116108da57829003601f168201915b50505050508152602001600282018054610910906131e6565b80601f016020809104026020016040519081016040528092919081815260200182805461093c906131e6565b80156109895780601f1061095e57610100808354040283529160200191610989565b820191906000526020600020905b81548152906001019060200180831161096c57829003601f168201915b505050505081526020016003820180546109a2906131e6565b80601f01602080910402602001604051908101604052809291908181526020018280546109ce906131e6565b8015610a1b5780601f106109f057610100808354040283529160200191610a1b565b820191906000526020600020905b8154815290600101906020018083116109fe57829003601f168201915b50505050508152602001600482018054610a34906131e6565b80601f0160208091040260200160405190810160405280929190818152602001828054610a60906131e6565b8015610aad5780601f10610a8257610100808354040283529160200191610aad565b820191906000526020600020905b815481529060010190602001808311610a9057829003601f168201915b50505050508152602001600582018054610ac6906131e6565b80601f0160208091040260200160405190810160405280929190818152602001828054610af2906131e6565b8015610b3f5780601f10610b1457610100808354040283529160200191610b3f565b820191906000526020600020905b815481529060010190602001808311610b2257829003601f168201915b5050505050815260200160068201805480602002602001604051908101604052809291908181526020016000905b82821015610de75783829060005260206000209060040201604051806080016040529081600082018054610ba0906131e6565b80601f0160208091040260200160405190810160405280929190818152602001828054610bcc906131e6565b8015610c195780601f10610bee57610100808354040283529160200191610c19565b820191906000526020600020905b815481529060010190602001808311610bfc57829003601f168201915b50505050508152602001600182018054610c32906131e6565b80601f0160208091040260200160405190810160405280929190818152602001828054610c5e906131e6565b8015610cab5780601f10610c8057610100808354040283529160200191610cab565b820191906000526020600020905b815481529060010190602001808311610c8e57829003601f168201915b50505050508152602001600282018054610cc4906131e6565b80601f0160208091040260200160405190810160405280929190818152602001828054610cf0906131e6565b8015610d3d5780601f10610d1257610100808354040283529160200191610d3d565b820191906000526020600020905b815481529060010190602001808311610d2057829003601f168201915b50505050508152602001600382018054610d56906131e6565b80601f0160208091040260200160405190810160405280929190818152602001828054610d82906131e6565b8015610dcf5780601f10610da457610100808354040283529160200191610dcf565b820191906000526020600020905b815481529060010190602001808311610db257829003601f168201915b50505050508152505081526020019060010190610b6d565b5050505081526020016007820160009054906101000a900473ffffffffffffffffffffffffffffffffffffffff1673ffffffffffffffffffffffffffffffffffffffff1673ffffffffffffffffffffffffffffffffffffffff1681525050905080600001518b8481518110610e85577f4e487b7100000000000000000000000000000000000000000000000000000000600052603260045260246000fd5b602002602001018181525050818a8481518110610ecb577f4e487b7100000000000000000000000000000000000000000000000000000000600052603260045260246000fd5b602002602001019073ffffffffffffffffffffffffffffffffffffffff16908173ffffffffffffffffffffffffffffffffffffffff16815250508060200151898481518110610f43577f4e487b7100000000000000000000000000000000000000000000000000000000600052603260045260246000fd5b60200260200101819052508060400151888481518110610f8c577f4e487b7100000000000000000000000000000000000000000000000000000000600052603260045260246000fd5b60200260200101819052508060600151878481518110610fd5577f4e487b7100000000000000000000000000000000000000000000000000000000600052603260045260246000fd5b6020026020010181905250806080015186848151811061101e577f4e487b7100000000000000000000000000000000000000000000000000000000600052603260045260246000fd5b60200260200101819052508060a00151858481518110611067577f4e487b7100000000000000000000000000000000000000000000000000000000600052603260045260246000fd5b60200260200101819052505050808061107f90613218565b9150506107a6565b505090919293949596565b60008173ffffffffffffffffffffffffffffffffffffffff163373ffffffffffffffffffffffffffffffffffffffff161415611103576040517f08c379a00000000000000000000000000000000000000000000000000000000081526004016110fa90612ed2565b60405180910390fd5b600660003373ffffffffffffffffffffffffffffffffffffffff1673ffffffffffffffffffffffffffffffffffffffff16815260200190815260200160002060008373ffffffffffffffffffffffffffffffffffffffff1673ffffffffffffffffffffffffffffffffffffffff16815260200190815260200160002060009054906101000a900460ff166111cc576040517f08c379a00000000000000000000000000000000000000000000000000000000081526004016111c390612f32565b60405180910390fd5b6000600660003373ffffffffffffffffffffffffffffffffffffffff1673ffffffffffffffffffffffffffffffffffffffff16815260200190815260200160002060008473ffffffffffffffffffffffffffffffffffffffff1673ffffffffffffffffffffffffffffffffffffffff16815260200190815260200160002060006101000a81548160ff02191690831515021790555060019050919050565b606060028054806020026020016040519081016040528092919081815260200182805480156112ee57602002820191906000526020600020905b8160009054906101000a900473ffffffffffffffffffffffffffffffffffffffff1673ffffffffffffffffffffffffffffffffffffffff16815260200190600101908083116112a4575b5050505050905090565b60005481565b600460003373ffffffffffffffffffffffffffffffffffffffff1673ffffffffffffffffffffffffffffffffffffffff16815260200190815260200160002060009054906101000a900460ff161561138b576040517f08c379a000000000000000000000000000000000000000000000000000000000815260040161138290612eb2565b60405180910390fd5b600085511161139957600080fd5b60008451116113a757600080fd5b60008351116113b557600080fd5b60008251116113c357600080fd5b60008151116113d157600080fd5b6002339080600181540180825580915050600190039060005260206000200160009091909190916101000a81548173ffffffffffffffffffffffffffffffffffffffff021916908373ffffffffffffffffffffffffffffffffffffffff16021790555060016000546114439190613106565b6000819055506001600460003373ffffffffffffffffffffffffffffffffffffffff1673ffffffffffffffffffffffffffffffffffffffff16815260200190815260200160002060006101000a81548160ff021916908315150217905550600054600360003373ffffffffffffffffffffffffffffffffffffffff1673ffffffffffffffffffffffffffffffffffffffff1681526020019081526020016000206000018190555084600360003373ffffffffffffffffffffffffffffffffffffffff1673ffffffffffffffffffffffffffffffffffffffff1681526020019081526020016000206001019080519060200190611540929190612657565b5083600360003373ffffffffffffffffffffffffffffffffffffffff1673ffffffffffffffffffffffffffffffffffffffff1681526020019081526020016000206002019080519060200190611597929190612657565b5082600360003373ffffffffffffffffffffffffffffffffffffffff1673ffffffffffffffffffffffffffffffffffffffff16815260200190815260200160002060030190805190602001906115ee929190612657565b5081600360003373ffffffffffffffffffffffffffffffffffffffff1673ffffffffffffffffffffffffffffffffffffffff1681526020019081526020016000206004019080519060200190611645929190612657565b5080600360003373ffffffffffffffffffffffffffffffffffffffff1673ffffffffffffffffffffffffffffffffffffffff168152602001908152602001600020600501908051906020019061169c929190612657565b5033600360003373ffffffffffffffffffffffffffffffffffffffff1673ffffffffffffffffffffffffffffffffffffffff16815260200190815260200160002060070160006101000a81548173ffffffffffffffffffffffffffffffffffffffff021916908373ffffffffffffffffffffffffffffffffffffffff1602179055505050505050565b60015481565b606080606080600460008673ffffffffffffffffffffffffffffffffffffffff1673ffffffffffffffffffffffffffffffffffffffff16815260200190815260200160002060009054906101000a900460ff166117bd576040517f08c379a00000000000000000000000000000000000000000000000000000000081526004016117b490612f72565b60405180910390fd5b6000600360008773ffffffffffffffffffffffffffffffffffffffff1673ffffffffffffffffffffffffffffffffffffffff1681526020019081526020016000206006018054905090508067ffffffffffffffff811115611847577f4e487b7100000000000000000000000000000000000000000000000000000000600052604160045260246000fd5b60405190808252806020026020018201604052801561187a57816020015b60608152602001906001900390816118655790505b5094508067ffffffffffffffff8111156118bd577f4e487b7100000000000000000000000000000000000000000000000000000000600052604160045260246000fd5b6040519080825280602002602001820160405280156118f057816020015b60608152602001906001900390816118db5790505b5093508067ffffffffffffffff811115611933577f4e487b7100000000000000000000000000000000000000000000000000000000600052604160045260246000fd5b60405190808252806020026020018201604052801561196657816020015b60608152602001906001900390816119515790505b5092508067ffffffffffffffff8111156119a9577f4e487b7100000000000000000000000000000000000000000000000000000000600052604160045260246000fd5b6040519080825280602002602001820160405280156119dc57816020015b60608152602001906001900390816119c75790505b50915060005b81811015611f5d57600360008873ffffffffffffffffffffffffffffffffffffffff1673ffffffffffffffffffffffffffffffffffffffff1681526020019081526020016000206006018181548110611a64577f4e487b7100000000000000000000000000000000000000000000000000000000600052603260045260246000fd5b90600052602060002090600402016000018054611a80906131e6565b80601f0160208091040260200160405190810160405280929190818152602001828054611aac906131e6565b8015611af95780601f10611ace57610100808354040283529160200191611af9565b820191906000526020600020905b815481529060010190602001808311611adc57829003601f168201915b5050505050868281518110611b37577f4e487b7100000000000000000000000000000000000000000000000000000000600052603260045260246000fd5b6020026020010181905250600360008873ffffffffffffffffffffffffffffffffffffffff1673ffffffffffffffffffffffffffffffffffffffff1681526020019081526020016000206006018181548110611bbc577f4e487b7100000000000000000000000000000000000000000000000000000000600052603260045260246000fd5b90600052602060002090600402016001018054611bd8906131e6565b80601f0160208091040260200160405190810160405280929190818152602001828054611c04906131e6565b8015611c515780601f10611c2657610100808354040283529160200191611c51565b820191906000526020600020905b815481529060010190602001808311611c3457829003601f168201915b5050505050858281518110611c8f577f4e487b7100000000000000000000000000000000000000000000000000000000600052603260045260246000fd5b6020026020010181905250600360008873ffffffffffffffffffffffffffffffffffffffff1673ffffffffffffffffffffffffffffffffffffffff1681526020019081526020016000206006018181548110611d14577f4e487b7100000000000000000000000000000000000000000000000000000000600052603260045260246000fd5b90600052602060002090600402016002018054611d30906131e6565b80601f0160208091040260200160405190810160405280929190818152602001828054611d5c906131e6565b8015611da95780601f10611d7e57610100808354040283529160200191611da9565b820191906000526020600020905b815481529060010190602001808311611d8c57829003601f168201915b5050505050848281518110611de7577f4e487b7100000000000000000000000000000000000000000000000000000000600052603260045260246000fd5b6020026020010181905250600360008873ffffffffffffffffffffffffffffffffffffffff1673ffffffffffffffffffffffffffffffffffffffff1681526020019081526020016000206006018181548110611e6c577f4e487b7100000000000000000000000000000000000000000000000000000000600052603260045260246000fd5b90600052602060002090600402016003018054611e88906131e6565b80601f0160208091040260200160405190810160405280929190818152602001828054611eb4906131e6565b8015611f015780601f10611ed657610100808354040283529160200191611f01565b820191906000526020600020905b815481529060010190602001808311611ee457829003601f168201915b5050505050838281518110611f3f577f4e487b7100000000000000000000000000000000000000000000000000000000600052603260045260246000fd5b60200260200101819052508080611f5590613218565b9150506119e2565b50509193509193565b6060806060806060600460008773ffffffffffffffffffffffffffffffffffffffff1673ffffffffffffffffffffffffffffffffffffffff16815260200190815260200160002060009054906101000a900460ff16611ffa576040517f08c379a0000000000000000000000000000000000000000000000000000000008152600401611ff190612ef2565b60405180910390fd5b6000600360008873ffffffffffffffffffffffffffffffffffffffff1673ffffffffffffffffffffffffffffffffffffffff1681526020019081526020016000206040518061010001604052908160008201548152602001600182018054612061906131e6565b80601f016020809104026020016040519081016040528092919081815260200182805461208d906131e6565b80156120da5780601f106120af576101008083540402835291602001916120da565b820191906000526020600020905b8154815290600101906020018083116120bd57829003601f168201915b505050505081526020016002820180546120f3906131e6565b80601f016020809104026020016040519081016040528092919081815260200182805461211f906131e6565b801561216c5780601f106121415761010080835404028352916020019161216c565b820191906000526020600020905b81548152906001019060200180831161214f57829003601f168201915b50505050508152602001600382018054612185906131e6565b80601f01602080910402602001604051908101604052809291908181526020018280546121b1906131e6565b80156121fe5780601f106121d3576101008083540402835291602001916121fe565b820191906000526020600020905b8154815290600101906020018083116121e157829003601f168201915b50505050508152602001600482018054612217906131e6565b80601f0160208091040260200160405190810160405280929190818152602001828054612243906131e6565b80156122905780601f1061226557610100808354040283529160200191612290565b820191906000526020600020905b81548152906001019060200180831161227357829003601f168201915b505050505081526020016005820180546122a9906131e6565b80601f01602080910402602001604051908101604052809291908181526020018280546122d5906131e6565b80156123225780601f106122f757610100808354040283529160200191612322565b820191906000526020600020905b81548152906001019060200180831161230557829003601f168201915b5050505050815260200160068201805480602002602001604051908101604052809291908181526020016000905b828210156125ca5783829060005260206000209060040201604051806080016040529081600082018054612383906131e6565b80601f01602080910402602001604051908101604052809291908181526020018280546123af906131e6565b80156123fc5780601f106123d1576101008083540402835291602001916123fc565b820191906000526020600020905b8154815290600101906020018083116123df57829003601f168201915b50505050508152602001600182018054612415906131e6565b80601f0160208091040260200160405190810160405280929190818152602001828054612441906131e6565b801561248e5780601f106124635761010080835404028352916020019161248e565b820191906000526020600020905b81548152906001019060200180831161247157829003601f168201915b505050505081526020016002820180546124a7906131e6565b80601f01602080910402602001604051908101604052809291908181526020018280546124d3906131e6565b80156125205780601f106124f557610100808354040283529160200191612520565b820191906000526020600020905b81548152906001019060200180831161250357829003601f168201915b50505050508152602001600382018054612539906131e6565b80601f0160208091040260200160405190810160405280929190818152602001828054612565906131e6565b80156125b25780601f10612587576101008083540402835291602001916125b2565b820191906000526020600020905b81548152906001019060200180831161259557829003601f168201915b50505050508152505081526020019060010190612350565b5050505081526020016007820160009054906101000a900473ffffffffffffffffffffffffffffffffffffffff1673ffffffffffffffffffffffffffffffffffffffff1673ffffffffffffffffffffffffffffffffffffffff1681525050905080602001518160400151826060015183608001518460a00151955095509550955095505091939590929450565b828054612663906131e6565b90600052602060002090601f01602090048101928261268557600085556126cc565b82601f1061269e57805160ff19168380011785556126cc565b828001600101855582156126cc579182015b828111156126cb5782518255916020019190600101906126b0565b5b5090506126d991906126dd565b5090565b5b808211156126f65760008160009055506001016126de565b5090565b600061270d61270884612ffe565b612fcd565b90508281526020810184848401111561272557600080fd5b6127308482856131a4565b509392505050565b600081359050612747816132ff565b92915050565b600082601f83011261275e57600080fd5b813561276e8482602086016126fa565b91505092915050565b60006020828403121561278957600080fd5b600061279784828501612738565b91505092915050565b600080600080600060a086880312156127b857600080fd5b600086013567ffffffffffffffff8111156127d257600080fd5b6127de8882890161274d565b955050602086013567ffffffffffffffff8111156127fb57600080fd5b6128078882890161274d565b945050604086013567ffffffffffffffff81111561282457600080fd5b6128308882890161274d565b935050606086013567ffffffffffffffff81111561284d57600080fd5b6128598882890161274d565b925050608086013567ffffffffffffffff81111561287657600080fd5b6128828882890161274d565b9150509295509295909350565b600061289b83836128d3565b60208301905092915050565b60006128b38383612a22565b905092915050565b60006128c78383612ce0565b60208301905092915050565b6128dc8161315c565b82525050565b60006128ed8261305e565b6128f781856130b1565b93506129028361302e565b8060005b8381101561293357815161291a888261288f565b97506129258361308a565b925050600181019050612906565b5085935050505092915050565b600061294b82613069565b61295581856130c2565b9350836020820285016129678561303e565b8060005b858110156129a3578484038952815161298485826128a7565b945061298f83613097565b925060208a0199505060018101905061296b565b50829750879550505050505092915050565b60006129c082613074565b6129ca81856130d3565b93506129d58361304e565b8060005b83811015612a065781516129ed88826128bb565b97506129f8836130a4565b9250506001810190506129d9565b5085935050505092915050565b612a1c8161316e565b82525050565b6000612a2d8261307f565b612a3781856130e4565b9350612a478185602086016131b3565b612a50816132ee565b840191505092915050565b6000612a668261307f565b612a7081856130f5565b9350612a808185602086016131b3565b612a89816132ee565b840191505092915050565b6000612aa1601e836130f5565b91507f416c72656164792050617469656e74206163636f756e742065786973747300006000830152602082019050919050565b6000612ae16019836130f5565b91507f596f752063616e27742072656d6f766520796f757273656c66000000000000006000830152602082019050919050565b6000612b216026836130f5565b91507f4e6f2050617469656e747320666f756e642061742074686520676976656e206160008301527f64647265737300000000000000000000000000000000000000000000000000006020830152604082019050919050565b6000612b876018836130f5565b91507f4e6f74207265676973746572656420617320646f63746f7200000000000000006000830152602082019050919050565b6000612bc7601a836130f5565b91507f55736572206973206e6f7420617574686f72697a6564207965740000000000006000830152602082019050919050565b6000612c076017836130f5565b91507f596f752063616e6e6f742061646420796f757273656c660000000000000000006000830152602082019050919050565b6000612c476025836130f5565b91507f4e6f2070617469656e7420666f756e642061742074686520676976656e20616460008301527f64726573730000000000000000000000000000000000000000000000000000006020830152604082019050919050565b6000612cad601a836130f5565b91507f5573657220697320616c726561647920617574686f72697a65640000000000006000830152602082019050919050565b612ce98161319a565b82525050565b612cf88161319a565b82525050565b60006020820190508181036000830152612d1881846128e2565b905092915050565b60006080820190508181036000830152612d3a8187612940565b90508181036020830152612d4e8186612940565b90508181036040830152612d628185612940565b90508181036060830152612d768184612940565b905095945050505050565b600060e0820190508181036000830152612d9b818a6129b5565b90508181036020830152612daf81896128e2565b90508181036040830152612dc38188612940565b90508181036060830152612dd78187612940565b90508181036080830152612deb8186612940565b905081810360a0830152612dff8185612940565b905081810360c0830152612e138184612940565b905098975050505050505050565b6000602082019050612e366000830184612a13565b92915050565b600060a0820190508181036000830152612e568188612a5b565b90508181036020830152612e6a8187612a5b565b90508181036040830152612e7e8186612a5b565b90508181036060830152612e928185612a5b565b90508181036080830152612ea68184612a5b565b90509695505050505050565b60006020820190508181036000830152612ecb81612a94565b9050919050565b60006020820190508181036000830152612eeb81612ad4565b9050919050565b60006020820190508181036000830152612f0b81612b14565b9050919050565b60006020820190508181036000830152612f2b81612b7a565b9050919050565b60006020820190508181036000830152612f4b81612bba565b9050919050565b60006020820190508181036000830152612f6b81612bfa565b9050919050565b60006020820190508181036000830152612f8b81612c3a565b9050919050565b60006020820190508181036000830152612fab81612ca0565b9050919050565b6000602082019050612fc76000830184612cef565b92915050565b6000604051905081810181811067ffffffffffffffff82111715612ff457612ff36132bf565b5b8060405250919050565b600067ffffffffffffffff821115613019576130186132bf565b5b601f19601f8301169050602081019050919050565b6000819050602082019050919050565b6000819050602082019050919050565b6000819050602082019050919050565b600081519050919050565b600081519050919050565b600081519050919050565b600081519050919050565b6000602082019050919050565b6000602082019050919050565b6000602082019050919050565b600082825260208201905092915050565b600082825260208201905092915050565b600082825260208201905092915050565b600082825260208201905092915050565b600082825260208201905092915050565b60006131118261319a565b915061311c8361319a565b9250827fffffffffffffffffffffffffffffffffffffffffffffffffffffffffffffffff0382111561315157613150613261565b5b828201905092915050565b60006131678261317a565b9050919050565b60008115159050919050565b600073ffffffffffffffffffffffffffffffffffffffff82169050919050565b6000819050919050565b82818337600083830152505050565b60005b838110156131d15780820151818401526020810190506131b6565b838111156131e0576000848401525b50505050565b600060028204905060018216806131fe57607f821691505b6020821081141561321257613211613290565b5b50919050565b60006132238261319a565b91507fffffffffffffffffffffffffffffffffffffffffffffffffffffffffffffffff82141561325657613255613261565b5b600182019050919050565b7f4e487b7100000000000000000000000000000000000000000000000000000000600052601160045260246000fd5b7f4e487b7100000000000000000000000000000000000000000000000000000000600052602260045260246000fd5b7f4e487b7100000000000000000000000000000000000000000000000000000000600052604160045260246000fd5b6000601f19601f8301169050919050565b6133088161315c565b811461331357600080fd5b5056fea264697066735822122022bb6dd098f3eab92f5e25ebb7dd2fe69e7c2bdebdbe9ce57d34e897aa23a80564736f6c63430008000033",
  "immutableReferences": {},
  "source": "// SPDX-License-Identifier: MIT\n\npragma solidity >=0.4.22 <0.9.0;\n\ncontract PatientContract {\n    uint256 public pindex = 0;\n    uint256 public dindex = 0;\n\n    struct Records {\n        string dname;\n        string reason;\n        string visitedDate;\n        string ipfs;\n    }\n\n    struct patient {\n        uint256 id;\n        string name;\n        string phone;\n        string gender;\n        string dob;\n        string bloodgroup;\n        Records[] records;\n        address addr;\n    }\n    address[] private patientList;\n\n    mapping(address => patient) patients;\n    mapping(address => bool) isPatient;\n    mapping(address => bool) isDoctor;\n    mapping(address => mapping(address => bool)) Authorized;\n    mapping(string => mapping(uint256 => bool)) Registered;\n\n    function getPatientList() public view returns (address[] memory) {\n        return patientList;\n    }\n\n    //add the patient to the blockchain\n    function addPatient(\n        string memory _name,\n        string memory _phone,\n        string memory _gender,\n        string memory _dob,\n        string memory _bloodgroup\n    ) public {\n        require(!isPatient[msg.sender], \"Already Patient account exists\");\n        require(bytes(_name).length > 0);\n        require(bytes(_phone).length > 0);\n        require(bytes(_gender).length > 0);\n        require(bytes(_dob).length > 0);\n        require(bytes(_bloodgroup).length > 0);\n        patientList.push(msg.sender);\n        pindex = pindex + 1;\n        isPatient[msg.sender] = true;\n        patients[msg.sender].id = pindex;\n        patients[msg.sender].name = _name;\n        patients[msg.sender].phone = _phone;\n        patients[msg.sender].gender = _gender;\n        patients[msg.sender].dob = _dob;\n        patients[msg.sender].bloodgroup = _bloodgroup;\n        patients[msg.sender].addr = msg.sender;\n    }\n\n    //get the details of the patients\n    function getPatientDetails(\n        address _addr\n    )\n        public\n        view\n        returns (\n            string memory _name,\n            string memory _phone,\n            string memory _gender,\n            string memory _dob,\n            string memory _bloodgroup\n        )\n    {\n        require(isPatient[_addr], \"No Patients found at the given address\");\n        patient memory pat = patients[_addr];\n        return (pat.name, pat.phone, pat.gender, pat.dob, pat.bloodgroup);\n    }\n\n    function getAllPatients()\n        public\n        view\n        returns (\n            uint256[] memory ids,\n            address[] memory addresses,\n            string[] memory names,\n            string[] memory phones,\n            string[] memory genders,\n            string[] memory dobs,\n            string[] memory bloodgroups\n        )\n    {\n        uint256 totalPatients = patientList.length;\n        ids = new uint256[](totalPatients);\n        addresses = new address[](totalPatients);\n        names = new string[](totalPatients);\n        phones = new string[](totalPatients);\n        genders = new string[](totalPatients);\n        dobs = new string[](totalPatients);\n        bloodgroups = new string[](totalPatients);\n\n        for (uint256 i = 0; i < totalPatients; i++) {\n            address patientAddress = patientList[i];\n            patient memory pat = patients[patientAddress];\n\n            ids[i] = pat.id;\n            addresses[i] = patientAddress;\n            names[i] = pat.name;\n            phones[i] = pat.phone;\n            genders[i] = pat.gender;\n            dobs[i] = pat.dob;\n            bloodgroups[i] = pat.bloodgroup;\n        }\n    }\n\n    //get patients record\n    function getAllPatientRecords(\n        address _addr\n    )\n        public\n        view\n        returns (\n            string[] memory dnames,\n            string[] memory reasons,\n            string[] memory visitedDates,\n            string[] memory ipfsHashes\n        )\n    {\n        require(isPatient[_addr], \"No patient found at the given address\");\n        // require(Authorized[_addr][msg.sender] || msg.sender == _addr, \"Record cannot be accessed\");\n\n        uint256 recordCount = patients[_addr].records.length;\n        dnames = new string[](recordCount);\n        reasons = new string[](recordCount);\n        visitedDates = new string[](recordCount);\n        ipfsHashes = new string[](recordCount);\n\n        for (uint256 i = 0; i < recordCount; i++) {\n            dnames[i] = patients[_addr].records[i].dname;\n            reasons[i] = patients[_addr].records[i].reason;\n            visitedDates[i] = patients[_addr].records[i].visitedDate;\n            ipfsHashes[i] = patients[_addr].records[i].ipfs;\n        }\n    }\n\n    //Give access to certain address\n    function grantAccess(address _addr) public returns (bool success) {\n        require(msg.sender != _addr, \"You cannot add yourself\");\n        require(isDoctor[_addr], \"Not registered as doctor\");\n        require(!Authorized[msg.sender][_addr], \"User is already authorized\");\n        Authorized[msg.sender][_addr] = true;\n        return true;\n    }\n\n    //Revoke access of patient records from certain address\n    function revoke_access(address _addr) public returns (bool success) {\n        require(msg.sender != _addr, \"You can't remove yourself\");\n        require(Authorized[msg.sender][_addr], \"User is not authorized yet\");\n        Authorized[msg.sender][_addr] = false;\n        return true;\n    }\n}\n",
  "sourcePath": "/Volumes/data/workspace/MedicalApp/contracts/patient.sol",
  "compiler": {
    "name": "solc",
    "version": "0.8.0+commit.c7dfd78e.Emscripten.clang"
  },
  "schemaVersion": "3.4.16",
  "updatedAt": "2025-01-02T00:52:02.656Z",
  "devdoc": {
    "kind": "dev",
    "methods": {},
    "version": 1
  },
  "userdoc": {
    "kind": "user",
    "methods": {},
    "version": 1
  }
}